:020000040000FA
:10000000301E0010F9000000010100000301000093
:1000100005010000070100000901000000000000C8
:100020000000000000000000000000000B010000C4
:100030000D010000000000000F0100001101000090
:1000400013010000A92600001301000013010000A5
:100050001301000013010000130100001301000050
:100060001301000013010000130100001301000040
:100070001301000000000000130100001301000044
:100080001301000013010000130100001301000020
:100090001301000013010000130100001301000010
:1000A0001301000013010000130100001301000000
:1000B000210B0000130100001301000013010000D8
:1000C00013010000130100001301000013010000E0
:1000D00013010000130100001301000013010000D0
:1000E00013010000DFF80CD000F0B0F80048004722
:1000F000532D0000301E0010064880470648004778
:10010000FEE7FEE7FEE7FEE7FEE7FEE7FEE7FEE7C7
:10011000FEE7FEE7AD220000E50000002DE9F05FFC
:100120000546002092469B46884606468146402466
:100130001BE0284641464746224600F02FF852462B
:100140005B46801A994110D310461946224600F0AA
:1001500016F82D1A67EB01084F46224601200021B0
:1001600000F00DF817EB00094E41201EA4F1010428
:10017000DFDC484631462A464346BDE8F09F202A48
:1001800004DB203A00FA02F1002070479140C2F1EE
:10019000200320FA03F3194390407047202A04DB20
:1001A000203A21FA02F00021704721FA02F3D040F0
:1001B000C2F12002914008431946704740EA01030A
:1001C0009B0703D009E008C9121F08C0042AFAD20D
:1001D00003E011F8013B00F8013B521EF9D27047D1
:1001E000D2B201E000F8012B491EFBD27047002279
:1001F000F6E710B504460846114602462046FFF7CA
:10020000EFFF204610BD30B504460020034600E055
:100210005B1C934203D2E05CCD5C401BF8D030BD48
:1002200030B50B46014600202022012409E021FAC6
:1002300002F59D4205D303FA02F5491B04FA02F5C3
:100240002844151EA2F10102F1DC30BD064C074D19
:1002500006E0E06840F0010394E807009847103496
:10026000AC42F6D3FFF742FF2C3300004C330000C2
:1002700010B5012A07D10368144604FA01F443EAD1
:10028000040303600FE0036813F0E06F03D003681A
:1002900023F0E063036004684FF0010303FA01F305
:1002A00024EA0304046010BD024602F1100050F875
:1002B0002130C3F30B10704710B503460C4603F111
:1002C000100050F8241012B101F0004101E001F0DB
:1002D000804109B1012010BD0020FCE7026822F036
:1002E000E0620260026842EA0162026070477047A1
:1002F00000487047B200001070470000FFFFFFFF8A
:100300002DE9F04104460E464FF001014FF48050B4
:1003100000F02CF84FF0000020604FF400174FF071
:10032000010000F03BF88046C6EB461505EB48009F
:100330004FEA4501B0FBF1F0A0F1010547EA0527BE
:100340002760BDE8F08110B5C3684FF0010404FADE
:1003500001F423EA0403C3603AB1C4684FF0010317
:1003600003FA01F344EA0304C46010BD012907D174
:10037000084A126842EA0002074BC3F8C42007E0AB
:1003800031B9044A126822EA0002034BC3F8C420C0
:1003900070470000C4C00F4000C00F40014631B19B
:1003A000012907D0022908D003290CD108E0074809
:1003B0000068704706480068FBE706480068F8E7F1
:1003C00005480068F5E700BFFEE700006C0000107C
:1003D00070000010740000107800001070B5054621
:1003E0000B4616464FF000028EB1144800880244B6
:1003F000124840880244124800880244104840884D
:100400000244184601F0C8FD024402F5C0622C46C1
:1004100005E034F8021B0A44A3F1020083B2012B69
:10042000F7DC0BB12078024402E090B200EB1242FC
:10043000100CFAD1D04380B270BD00000A33000026
:100440003E0000100448007804490978884201D031
:10045000012070470020FCE7040000100500001098
:1004600010B5FFF7EFFF48B100F052FE10B101F0F8
:1004700047FA01E001F07AFA00F088FC7B48007846
:1004800010F0040F2BD07948007810F0080F16D028
:1004900077480078082822DD02F02EF875480078A9
:1004A00040B101F0AFFF73480078A0F1010071493D
:1004B000087014E002F056F801F0CAFF0FE06C4833
:1004C000007802280BDD4FF000006B490870674987
:1004D00008706A48007800F00400684908706648AF
:1004E000007808287DD2DFE800F00405823A3B82DC
:1004F000826000BF5D48007810F0010F2ED05B488D
:10050000007810F0020F29D05D48007810F0020F3B
:1005100024D15C4801884FF04020806861F31F407F
:100520005949086008460068584908604FF00000C3
:10053000574908605548006800F1010053490860B8
:100540004FF0020001F026F94FF001005149087008
:1005500001F0DAFF4FF002004749087048E000BFA1
:100560004248007810F0100F1ED04548007810F077
:10057000030F19D14448006844490968884213D1DF
:100580004248006800F10100404908604FF0110046
:1005900001F000F94FF003003E49087001F0B4FF8C
:1005A0004FF005003449087022E03548007810F01B
:1005B000030F1BD13448006834490968884215D1BB
:1005C0003248006800F10100304908604FF0110026
:1005D00001F0E0F84FF003002E49087001F094FF9D
:1005E00000E004E04FF009002349087000E000BF7C
:1005F00000BF2348007810F0020F17D001F04EFC26
:1006000010B101F099FC0BE04FF000001A4908709E
:100610004FF05000194908704FF00000134908705E
:100620001748007820F00200154908701448007837
:1006300010F0010F19D001F02BF801F02FFC10B1D0
:1006400001F06EFC0BE04FF000000B4908704FF01A
:1006500050000A4908704FF000000449087008482B
:10066000007820F001000649087010BD3400001029
:10067000540000105500001042000010240000102B
:100680003300001044000010480000104C0000101F
:10069000500000104300001000B5034604E001F0D4
:1006A00029FCA3F1020083B2012BF8DC00BD00009D
:1006B0002DE9F04104460E461748056807E04FF063
:1006C000000801E008F1010814488045FAD3002031
:1006D00000F026F80228F2D04FEAC50000F10050E1
:1006E000076C5EB1A4F10100C0F30A0040F0404184
:1006F0004FEAC50000F1005041640AE0A4F1010096
:10070000C0F30A0040F000414FEAC50000F100507C
:1007100041643846BDE8F0812841082040420F007E
:1007200010B504464CB9124801681248D0F8282187
:100730001148006800F1010308E0104801680D4805
:10074000D0F814210E48006800F10103914201D154
:10075000002010BD21B9581E904201D10220F8E7B7
:10076000501C814201D10220F3E70120F1E7000093
:100770002C4108200040082024410820184108206E
:1007800010410820034801684FEAC10000F1005001
:100790000068704718410820054801684FEAC10009
:1007A00000F10050006AC0F30A0000F10100704738
:1007B00018410820034801684FEAC10000F10050C9
:1007C000006A704718410820034801684FEA810019
:1007D00000F10050806D70472841082070B5054633
:1007E0004FF02C0229464348FFF7E8FC0121880717
:1007F000FFF7BCFD4FF44F403F4908604FF07800D1
:100800003E4908604FF0640401E0A4F10104002CAB
:10081000FBD14FF00200384908604FF030004860CB
:100820004FF4C06048614FF00000FFF7B7FD344956
:10083000B0FBF1F600BF06E03248005DB04200DBDD
:1008400003E004F101040F2CF6D300BF0F2C01D3F9
:10085000002070BD04F10104A8892749486104F013
:100860000F004FF4004141EA800023490862084626
:10087000006A20F40040086243F20F7008614FF0F4
:100880001200C8604FF410701C490860286930B12C
:10089000284629698847012801D00020D9E7A8689F
:1008A00002F09CFA02F058FA02F0AEFA4FF026007D
:1008B000154908604FF001014FF0FF0000F028F8E3
:1008C0004FF6FF701149086000F098F800F05CF8EE
:1008D0004FF01C004FF0010101FA00F14FEA5012F5
:1008E0004FF0E02303EB8202C2F8001100BF4FF08B
:1008F0000100AEE70004001000400820004108207D
:10090000A02526001C33000000420820E84F0820E4
:10091000012906D1064A126842EA0002044B1A6015
:1009200005E0034A126822EA0002014B1A60704790
:10093000E44F0820014601F01F00114B1B7903F022
:100940001F0340EA03200F4B98624FF001005862EA
:100950004FF0000200BF07E00A48406B10F0010FA3
:1009600000D104E002F10102B2F5A02FF4D300BFE0
:100970004FF00000034B58621846006B80B270477E
:1009800000040010004008200648006840F0010004
:100990000549C1F800010846006840F00100086000
:1009A00070470000004108200040082078B10A4943
:1009B000496841F00101084A51600849096841F459
:1009C0008061C2F800114FF01501916003E04FF013
:1009D0001201014A91607047004008200041082040
:1009E00020B14FF48071044A916103E04FF000019F
:1009F000014A9161704700000040082003480068E8
:100A000040F002000249C1F800017047004108208F
:100A1000004008200549086800F101010846042942
:100A200001D14FF0000001490860704718410820CB
:100A30000849086800F101010846074AD2F8242154
:100A400002F10102914201D14FF00000014908601A
:100A50007047000028410820004008202DE9F04799
:100A60000746D7F804903D681B48D0F814A005F15C
:100A700001004FF6FE7100EA0105B5FBFAF60DB96B
:100A8000BDE8F08722E0002E01DD504600E0284658
:100A9000044604B91CE02EB90121A0B2FFF708FEFC
:100AA000804604E00021A0B2FFF702FE804605E088
:100AB00039F8020B28F8020BA4F10204002CF7D13C
:100AC000A6F10106A5EB0405FFF7B2FF002EDADA66
:100AD00000BF00BFD4E700000040082010B500F0C0
:100AE0001F030D4C247904F01F0443EA04230B4C2C
:100AF000A3622346D9624FF0000200BF07E0074B14
:100B00005B6B13F0010F00D104E002F10102B2F5BA
:100B1000A02FF4D300BF10BD000400100040082037
:100B20002DE9F0411AE19348056015F0030F50D00C
:100B3000FFF740FE06464FF0000416F4000F02D007
:100B40004FF0100001E04FF0000040EA040416F0FE
:100B5000807F02D04FF0080001E04FF0000040EA33
:100B6000040416F0007F02D04FF0040001E04FF0C3
:100B7000000040EA0404C6F3C06044EA000416F032
:100B8000805F02D04FF0400001E04FF0000040EAEB
:100B9000040416F0005F02D04FF0200001E04FF097
:100BA000000040EA040416F4801F02D04FF4805085
:100BB00001E04FF0000040EA040414B925F00205FA
:100BC00006E06D48006A18B16B48016A2046884704
:100BD00000BF15F0300F3ED0FFF7F6FD06464FF090
:100BE000000416F0806F02D04FF4007001E04FF067
:100BF000000040EA040416F0006F02D04FF4807049
:100C000001E04FF0000040EA040416F0805F02D0DB
:100C10004FF0800001E04FF0000040EA040416F0BD
:100C2000005F02D04FF4806001E04FF0000040EA26
:100C3000040416F0804F02D04FF4006001E04FF042
:100C4000000040EA04044C48006A18B14A48016AAE
:100C50002046884700BF15F0080F64D00120FFF739
:100C60005FFD00285FD0FFF797FD0746002F5ADD94
:100C7000A7F10307FFF79EFD4049084253D14048C2
:100C8000007800EB40003F4901EB80203E490968B5
:100C900000EB4104FFF776FD06463B480068384408
:100CA0003949086008460068B0F5C06F0AD34FF0B4
:100CB000000008603048006AA0B32F48016A042091
:100CC00088472FE005E036F8020B24F8020BA7F165
:100CD0000207002FF7DCFFF76DFD10F0804F1FD0EB
:100CE0002548806958B12649097801EB4101254B17
:100CF00003EB812020498A692349096890474FF016
:100D00000000214908601E48007800F101001C49DC
:100D1000087008460078022802DB4FF000000870D7
:100D2000FFF778FE00BF15F0400F05D01248C069EC
:100D300010B11149C869804715F4805F05D00E488D
:100D4000806A10B10C49886A804715F4005F05D0AD
:100D50000948406A10B10849486A80470548083880
:100D600000680449091F0968084005007FF4DBAEEC
:100D7000BDE8F081E84F0820000400100000901B3F
:100D8000680000102C040010640000104FF00000F8
:100D90000249034A127841F8220070470800001007
:100DA000050000100B4A0C4B1B7842F823000B4A3D
:100DB000094B1B7842F82310074A127802F101020E
:100DC000054B1A701A461278022A02DB4FF0000215
:100DD0001A70704710000010040000100800001086
:100DE00010B501210D48FFF779FA00BF0122022159
:100DF0000A48FFF761FA0028F8D002210748FFF7F8
:100E000053FA04464FEA94044FF0640004FB00F0E8
:100E100040F2FF31B0FBF1F010BD00000040034094
:100E200010B501210D48FFF759FA00BF0122022138
:100E30000A48FFF741FA0028F8D002210748FFF7D7
:100E400033FA04464FEA94044FF0640004FB00F0C8
:100E500040F2FF31B0FBF1F010BD00000040034054
:100E600010B54848007810F0020F7DD04548007852
:100E700010F0040F01D001F035FB4248007810F06B
:100E8000080F7ED04048007810F0010F06D14FF4D3
:100E90008C603E4908603E483E4908603B48006817
:100EA000B0F5007F42D93848007810F0010F1ED10C
:100EB000FFF71EFA04462C223749FFF77FF9FFF7A8
:100EC00017FA00F12C044FF4EA7232480168204608
:100ED000FFF774F92D480068A0F5EA702B49086007
:100EE0002C48006800F5EA702A49086015E0FFF711
:100EF000FFF904464FF40072264801682046FFF7C8
:100F00005DF922480068A0F500702049086021487A
:100F1000006800F500701F4908604FF400701F4919
:100F2000088000F0ABF801F027FB1AE017480068D2
:100F3000B8B1FFF7DDF904461448026815480168A6
:100F40002046FFF73BF9114800681449088000F07B
:100F500095F801F011FB01F02FFA4FF000000B495A
:100F600008600948007801E005E00AE040F001006F
:100F70000549087005E00448007820F001000249A6
:100F8000087010BD24000010200000101C0000108C
:100F9000A92E0000180000107C2E00002800001070
:100FA00010B58EB02FA103C9CDE9010101220021A6
:100FB000104600F093F901221146104600F08EF918
:100FC00001220421104600F089F90122082110466F
:100FD00000F084F901220921104600F07FF9012276
:100FE0000A21104600F07AF901220E21104600F085
:100FF00075F901220F21104600F070F9012210212D
:10100000104600F06BF901221121104600F066F93C
:101010004FF00000039001A805904FF001008DF8FB
:1010200010004FF4C060ADF8180010480790104849
:1010300008901048099010480B904FF000000A905B
:101040000D900C9006E04FF4801401E0A4F101042F
:10105000002CFBD103A8FFF7C1FB0028F3D00EB092
:1010600010BD00001E306CA2455E00006111000042
:1010700083110000A50D0000EF0200007CB522489E
:101080000088042800DA7CBDFFF732F904464FF0EF
:10109000000531E0207841282AD16078442827D102
:1010A000E078252824D1A078372802D041281ED105
:1010B0000EE0FFF795FE0646324614A1684601F0A1
:1010C000F9FBBDF8000020809DF80200A0700EE042
:1010D000FFF7A6FE064632460CA1684601F0EAFB81
:1010E000BDF8000020809DF80200A07000BF00BF86
:1010F00004F1010405F1010503480088C01EA8425F
:10110000C8D800BFBFE700002800001025337500D5
:101110001CB500F01DFF104908800621684600F04C
:10112000C6FE06210D4800F0C2FEBDF80000A0F585
:101130007F41FF390DD1BDF80200A0F57F41FF3995
:1011400007D1BDF80400A0F57F41FF3901D101208E
:101150001CBD0020FCE700005600001058000010E5
:1011600010B5044600F00DF8002801DA002010BD8B
:10117000206800F021F8002801DA0020F7E70120BC
:10118000F5E770B54FF400410020FFF7A7FC4FF4DE
:1011900080140CE00020FFF7CDFB054615F4084F46
:1011A00000D106E00CB9002070BDA4F10104002CB0
:1011B000F0DA00BF0120F7E72DE9F04104464FF0D7
:1011C0000200FFF7B7FB06464FF00300FFF7B2FB44
:1011D0000746072E35D140F60F40B0EB271F30D120
:1011E000052C29D2DFE804F00310161C22004FF46E
:1011F00040510020FFF772FC4FF4801501E0A5F18B
:101200000105002DFBDA1BE04DF6FF710020FFF712
:1012100065FC15E04FF6FF710020FFF75FFC0FE063
:101220004FF404510020FFF759FC09E04FF6FF612D
:101230000020FFF753FC03E04FF0FF30BDE8F081E2
:1012400002E04FF0FF30F9E700F007F8002802DA7B
:101250004FF0FF30F2E70020F0E770B54FF4801553
:101260000DE00120FFF766FB044614F0040F00D0E8
:1012700007E015B94FF0FF3070BDA5F10105002D55
:10128000EFDA00BF14F4804F02D114F4805F03D072
:101290000120FFF78BFB08E014F4005F02D114F487
:1012A000006F02D00020FFF781FB14F4004F05D13E
:1012B00014F4804F02D114F4005F03D00120FFF733
:1012C0008FFB08E014F4805F02D114F4006F02D0A9
:1012D0000020FFF785FB0020CEE700002DE9F0415C
:1012E00006460F4615464FF000043946304600F0DA
:1012F0001BF88046B8F1050F02D10A48BDE8F0811D
:101300003946304600F098F80446206820F007007F
:10131000206005F00701206840EA010020604FF0DE
:101320000000EBE70100001002464FF00500062A1E
:1013300054D2DFE802F0033440414245062907DD7C
:101340000A2901DB0B2903DD0E2904DB162902DC47
:101350004FF0000022E00C2905D00D2903D01729F9
:1013600004DB1A2902DC4FF0010017E01D2903D02D
:101370001E2901D01F2902D14FF002000EE01B29C7
:1013800001D01C2902D14FF0030007E0072903D048
:10139000082901D0092901D14FF004001FE01D29BF
:1013A00002DC4FF0000005E01E2901D01F2901D109
:1013B0004FF0010013E000BF00BF4FF000000EE04F
:1013C000012901DD042902D14FF0000005E00229C6
:1013D00001D0032901D14FF0030000E000BF00BF9E
:1013E000704700002DE9F0410746884615464FF04A
:1013F000000441463846FFF797FF0646052E02D106
:101400000C48BDE8F081012E02D00A48401CF8E7E4
:101410004146384600F010F8044625B1206820F017
:101420008000206003E0206840F080002060002001
:10143000E7E700000100001010B502464FF0000081
:1014400001EB4213014C04EB830010BD00C00240CD
:101450001C481D490A680260898881801B490A6806
:10146000C0F80620898841814FF4C1601549888100
:101470004FF48070C8814FF00800088240F20640A7
:1014800048824FF400708882084610490A68C0F804
:101490001620898841830E490968C1610A490A6892
:1014A0000262898881840B490968C0F826104FF0D0
:1014B0002A00094908700948007840F002000749ED
:1014C00008707047B4020010580000101633000076
:1014D0000A3300005E0000103200001033000010DC
:1014E00010B5FF2206212848FEF77AFE2648274934
:1014F0000A68C0F80620898841814FF4C1602249FA
:1015000088814FF48070C8814FF00800088240F253
:10151000064048824FF48070888208461B490A685A
:10152000C0F816208988418319490968C1614FF0C4
:10153000000101628184174800881549098880EA02
:10154000010015490988084208D11248408810490D
:101550004988484010494988084205D00A480F493F
:101560000968C0F8261004E007480A490968C0F86D
:1015700026104FF02A000A4908700A48007840F007
:1015800002000849087010BDB402001016330000B4
:101590000A3300003E0000100E330000123300003A
:1015A000320000103300001010B5314800883C288C
:1015B00002DD4FF0240404E02D480088A0F118005B
:1015C00084B22C482C490A680260898881802B49A2
:1015D0000A68C0F80620898841814FF00800254933
:1015E00088814FF04500C88104F1180081B221487C
:1015F00000F1100001F058F94FF000001D49488239
:1016000088824FF4A070C8824FF00000088308461B
:101610001B490968C0F81A101A490968C0F81E1059
:101620004FF000024FF0140100F10E00FEF7D6FE5D
:10163000104908834FF000004884888421460D48F3
:1016400000F1260000F033FC0022201D81B2094881
:101650002230FEF7C3FE0749888404F126000A49B8
:1016600008700A48007840F002000849087010BD70
:1016700062000010B4020010580000101633000081
:101680000A3300005E00001032000010330000102A
:1016900000B5364836490A68026089888180354934
:1016A0000A68C0F80620898841814FF008002F4958
:1016B000888141F24500C8812F48008800F1280048
:1016C00081B22A4800F1100001F0EEF84FF000005E
:1016D0002649488288824FF4C860C8824FF00000D3
:1016E0000883084625490968C0F81A102449096882
:1016F000C0F81E104FF000024FF0140100F10E0070
:10170000FEF76CFE194908831E48018817482230ED
:1017100001F0CAF81C4801881448243001F0C4F8CC
:101720001A4801681148263001F0B0F818480168DD
:101730000E482A3001F0AAF841F250000B49C88542
:101740004FF0010008864FF00000488688860A485E
:10175000008800F1140081B24FF00102034800F14B
:101760002200FEF73BFE0149488600BD7C000010C8
:101770003800001016330000280000100A33000063
:101780003E0000102200001036000010480000103B
:101790005000001010B504464E484F490A680260D8
:1017A000898881804D490A68C0F80620898841816E
:1017B0004FF008004749888141F24500C88114F084
:1017C000020F03D04FF43050088203E04FF4205052
:1017D000404908824FF000003E49488288824FF419
:1017E000C860C8824FF00000088308463C49096879
:1017F000C0F81A103B490968C0F81E104FF00002EB
:101800004FF0140100F10E00FEF7E8FD31490883A6
:10181000354801882F48223001F046F833480188C6
:101820002C48243001F040F831480168294826301E
:1018300001F02CF82F48016826482A3001F026F8DC
:101840004FF00100234908864FF000004886888643
:1018500014F0020F1ED04FEA04604FEA104044F427
:10186000C04140EA21201B49C88540F20240C88699
:101870004FF00100088702464FF01801154800F1AB
:101880002200FEF7ABFD134948864FF03A001A4993
:10189000087018E04FEA04604FEA104044F4A04199
:1018A00040EA21200B49C8854FF001024FF0140196
:1018B000084800F12200FEF791FD064948864FF0E6
:1018C00036000D4908700D48007840F002000B49C1
:1018D000087010BDB402001038000010163300006C
:1018E0000A3300003E0000102200001036000010F5
:1018F00048000010500000103200001033000010AB
:1019000008B500F0E7FAA0F50061063928D100F02B
:10191000E1FA012824D100F0DDFAB0F5006F1FD103
:1019200000F0D8FAA0F5C061043919D100F0D2FA5C
:10193000012815D10620FEF7AFFE0421094800F06A
:10194000B6FA0620FEF7A8FE0421684600F0AFFABA
:10195000042269460448FEF756FC08B9FFF778FDF3
:1019600008BD00005E0000100A33000038B500F02A
:10197000B1FAB0F5006F29D0A0F5006006385AD151
:101980002E48007800F0030001281ED100F0A2FAD2
:1019900001281AD100F09EFAB0F5006F15D100F0C1
:1019A00099FAA0F5C06104390FD100F093FA02282A
:1019B0000BD100F0D7FD0621214800F078FA1F482E
:1019C000007840F002001D49087034E000F082FA0F
:1019D00000F47F40B0F58A4F2CD100F07BFA194912
:1019E000088000F077FA00F075FA8004800C21D1AD
:1019F00000F070FAC4B200F06DFA0421124800F051
:101A000056FA0421684600F052FA042269460F484B
:101A1000FEF7F9FB70B9012C04D0062C05D0112C6F
:101A200007D105E000F014F803E000F01FF800E033
:101A300000BF00BF00BF00BF38BD00003400001071
:101A400038000010620000105E0000100A33000031
:101A500010B500F03FFA044600F03CFA20120828C6
:101A600002D1FFF7A1FD00BF00BF10BD2DE9F04777
:101A700000F030FA814600F02DFA8246F6480088E0
:101A8000824501D0BDE8F08700F024FA4FEA004714
:101A900000F020FA40EA070700F01CFA4FEA00467F
:101AA00000F018FA40EA060600F014FA044604F4BE
:101AB00070404FEAA028E9480088A0F11400A0EB8C
:101AC000080085B2B5F5807F00DDDBE7B8F1140FC3
:101AD00004DDA8F1140188B2FEF7DEFDE0480078CD
:101AE00020B101282FD0022872D16AE014F0040F2F
:101AF00028D1DC48A0F80090DB48DC490A68026085
:101B000089888180DA48DB490968016014F0100F88
:101B100005D0D94806600420FFF73CFE12E04FF0E4
:101B20000000D549086007EB0500D449086014F0AF
:101B3000030F04D00846006800F10100086014207B
:101B4000FFF728FE84E114F0040F39D1C548A0F84E
:101B50000090C548C5490A68026089888180C448E8
:101B6000C4490968016014F0100F05D0C24806602E
:101B70000420FFF70FFE23E014F0020F20D007F13E
:101B80000100BE490860BE4801884FF040208068CF
:101B900061F31F40B84908600846006800F1010081
:101BA000B84908604FF01200FFF7F4FD4FF0020053
:101BB000B549087000F0A8FC4FF00300A849087070
:101BC00046E10422AB49AA48FEF71DFB08B13FE1FC
:101BD0005BE0A4480088814500D039E114F0100F83
:101BE0000CD0A8480068864208D014F0040F04D135
:101BF000A14806600420FFF7CDFD29E114F0040F91
:101C00000DD014F0100F09D04FF000009449087067
:101C10009E4908704FF030009D49087018E114F09B
:101C2000020F31D095480760006800F10100934928
:101C3000086014F0100F18D000F094FC9148006870
:101C40008D4908601020FFF7A5FD4FF0040084497E
:101C500008708F48007840F002008D4908700846EF
:101C6000007840F0080008700EE000F07BFC1220C5
:101C7000FFF790FD4FF002008349087000F044FC2C
:101C80004FF0030076490870E2E004227949784871
:101C9000FEF7B9FA00B1DBE072480088814500D058
:101CA000D6E076480068874200D0D1E014F0040FF7
:101CB0000AD04FF000006A490870744908704FF06C
:101CC000300073490870C3E014F0020F0DD00420F7
:101CD000FFF760FD4FF00000614908706B49087024
:101CE0004FF040006A490870B2E014F0100F00D1C4
:101CF000AEE064480068864244D100F033FC61489D
:101D000000685D49086056480078C01E08282DD23A
:101D1000DFE800F0042C0F2C2C1419264FF00400DF
:101D20004F4908705A48007840F00200584908703E
:101D30001DE04FF006004A49087018E04FF00A0015
:101D40004749087013E04FF00000454908704F49BB
:101D500008704F48007800F004004D49087006E014
:101D60001020FFF717FD00F0C7FB00E000BF00BF29
:101D70003B480078042805D14548007840F0080029
:101D80004349087036480078042807D03448007862
:101D9000052803D03248007806281DD1E5B13C481B
:101DA000007810F0040F17D10620FEF775FC2946C5
:101DB000384800F07CF8384805803548007840F015
:101DC0000400334908702D48006828442B490860F6
:101DD0004FF01000FFF7DEFC14F0010F37D0204861
:101DE0000078C01E082826D2DFE800F004050A1596
:101DF0002525252200BF4FF00700194908701BE078
:101E00004FF00800164908702148007820F00200C1
:101E10001F49087010E000F091FB4FF00A001049D4
:101E200008701B48007820F002001949087003E090
:101E300000F062FB00E000BF00BF1048006800F146
:101E400001000E4908604FF01000FFF7A3FC00BF2F
:101E500000BF00BF16E60000220000106200001064
:101E6000420000103600001038000010580000102A
:101E70003E0000105E0000104800001050000010EE
:101E8000440000104C00001043000010340000100B
:101E900024000010000300102600001010B50020E0
:101EA000FEF73EFC08B9012010BD0020FCE730B56C
:101EB00005460B462C4606E000F01CF824F8020B01
:101EC000A3F1020083B2012BF6DC13B100F012F88B
:101ED000207030BD10B506490968088804490968B2
:101EE000891C034B196000F057F80446204610BDCA
:101EF0000000001004480068008803490968891C34
:101F0000014A116070470000000000107CB50546D2
:101F10000C46019500946846FEF7A0FD7CBD0000CC
:101F200010B5034801880348FFF7F0FF10BD00001B
:101F3000300000107C00001010B503480178034801
:101F4000FFF7E4FF10BD000032000010B4020010E3
:101F50000D480E49097850F821000D4908600B48DA
:101F6000007800F10100094908700846007802284D
:101F700002DB4FF00000087006480449097850F869
:101F8000210080B270470000100000100500001012
:101F9000000000100800001001464FEA212040EA2E
:101FA000012080B27047000030B5B448006810F4DA
:101FB000807F74D1B1480830006810F0010F2FD134
:101FC000AE48006810F01F0F02D14FF0000006E08D
:101FD000AA48006800F01F00A949B1FBF0F0A94928
:101FE0000860A648A430006810F01F0F02D14FF01F
:101FF000000006E0A448006800F01F00A049B1FB03
:10200000F0F0A2490860A248006800F0010000F169
:1020100001009C490968B1FBF0F09E490860C8E0E6
:1020200099480838006810F0400F08D14FF00000C0
:10203000944908609549086096490860B9E08F485E
:10204000006810F01F0F02D14FF0000006E08B482F
:10205000006800F01F008A49B1FBF0F08949086070
:102060008948006810F01F0F02D14FF0000006E011
:102070008548006800F01F008149B1FBF0F08349FA
:1020800008608348006800F0010000F101007D490C
:102090000968B1FBF0F07F4908608AE0FFE77C48FF
:1020A0007838006810F4807F08D14FF0000075493F
:1020B000086076490860774908607AE06F48083020
:1020C000006810F0010F32D1734C246804F01F0433
:1020D00004F10100714CD4F8044104F01F016A4C72
:1020E000246804F01F026D4CD4F8004104F0010490
:1020F00004F1010311B94FF0000404E0604C00FB4F
:1021000004F4B4FBF1F45F4D2C6012B94FF00004FD
:1021100004E05B4C00FB04F4B4FBF2F45B4D2C6078
:10212000584C2468B4FBF3F45A4D2C6041E05648F7
:102130000838006810F0400F08D14FF000005149F6
:102140000860524908605349086032E0524C2468E4
:1021500004F01F0404F10100504CD4F8044104F0D1
:102160001F01494C246804F01F024C4CD4F8004174
:1021700004F0010404F1010311B94FF0000404E07C
:102180003F4C00FB04F4B4FBF1F43E4D2C6012B95B
:102190004FF0000404E03A4C00FB04F4B4FBF2F40A
:1021A0003A4D2C60374C2468B4FBF3F4394D2C6065
:1021B00000BF3248001D006810F4807F36D02F48E1
:1021C000001D006810F01F0004D0042807D0062866
:1021D00026D105E04FF000003149086025E000BF3E
:1021E0002D4A126802F01F0202F101002B4AD2F8B8
:1021F000082102F01F012B4A126812F0010F07D0CC
:102200001F4A00FB02F2B2FBF1F2254B1A6006E016
:102210001B4A00FB02F2B2FBF1F2214B1A6004E010
:102220004FF000001E49086000BF26E01348001D63
:10223000006810F4007F1CD01A48006810F0010FED
:102240000BD01948006800F01F0000F101000C4994
:1022500000FB01F0124908600FE00F48006800F031
:102260001F0000F10100064900FB01F00C49086065
:1022700003E04FF000000A49086030BD04C10F4080
:10228000001BB7006C000010A8C10F4070000010C8
:1022900000C10F407400001088C00F4000C00F4004
:1022A000780000100CC10F40A8C00F4000B54FF0DF
:1022B00021003349086000BF3148006810F0400F2A
:1022C000FAD04FF001002F4908604FF009002E4965
:1022D000C1F884004FF001002C4908604FF0AA00BB
:1022E0002B4908604FF05500086000BF2848001FC8
:1022F000006810F4806FF9D04FF023002549086082
:102300004FF001002049C1F8A0004FF0AA00224977
:1023100008604FF055001C49C1F8AC0000BF1D48D3
:10232000001D006810F4806FF9D040F201101B49C5
:10233000086040F201201449C1F808014FF0010083
:10234000174908604FF002001649086016481749FF
:1023500008604FF480700C49C1F8C8010846D0F8F5
:10236000B00140F003001249086045F23A00064906
:1023700008604FF000000F490860FFF715FE00BD30
:10238000A0C10F400CC10F4000C00F4080C00F40E3
:102390008CC00F40A4C00F40ACC00F4004C10F4020
:1023A00000C10F40A8C10F40DE872804C4C00F4001
:1023B000B0C10F4008ED00E00F480078012806D0BA
:1023C000022805D003280CD0042812D10AE000BF4F
:1023D0004FF0000008490870084908700849087063
:1023E00008E000BF0548007840F01000034908707D
:1023F00000E000BF00BF7047420000103400001032
:102400002400001010B51048007805281AD2DFE823
:1024100000F003060A0E1200FFF762F812E0022035
:10242000FFF7B8F90EE01220FFF7B4F90AE0112027
:10243000FFF7B0F906E00548007840F001000349D5
:10244000087000BF00BF10BD430000103300001033
:102450004FF000000A4908700A48007800F00300B5
:10246000012804D14FF010000749087003E04FF035
:102470002000054908704FF00000024908707047BD
:1024800042000010340000102400001010B5FEF7C8
:1024900087FD4FF0000004490870044908700449A2
:1024A00008700449087010BD33000010340000109B
:1024B00042000010240000100748007858B907486F
:1024C000007820F00100054908704FF00100024932
:1024D0000870034908707047420000103400001073
:1024E000240000100348007820F00400014908701F
:1024F00070470000240000104FF0000001490870F0
:1025000070470000540000104FF0000008490870A8
:102510004FF00400074908700748007840F00400B5
:10252000054908700846007840F0080008707047B8
:102530005400001055000010340000104FF000004F
:10254000064908700648007840F004000449087005
:102550000846007820F0080008707047540000100A
:10256000340000100348007820F00400014908708E
:10257000704700003400001000B5164800780428A9
:1025800003D014480078072823D11348007810F0AE
:10259000080F1ED01048007820F008000E4908707F
:1025A0000E4800680E49098808440C4908600C4828
:1025B000008800F136000B4908800B48007840F095
:1025C0000100094908704FF0040008490870FFF73E
:1025D0009BFF00BD42000010240000104C000010C2
:1025E00028000010300000103300001043000010DD
:1025F00010B586B04FF001008DF810004FF47A70DE
:1026000005904FF000008DF804004FF001008DF8A8
:1026100005008DF807004FF000008DF806004FF020
:1026200003008DF808004FF48370039004AA4FF064
:1026300000014FF0402000F0C5F801A94FF0402004
:1026400000F054F84FF001004FF0090100280ADAB9
:102650004FEAC1624FEA1262114B00F00F04A4F17D
:1026600004041A5505E04FEAC1624FEA12620D4BAD
:102670001A5400BF4FF00100014601FA00F14FEA81
:1026800050124FF0E02303EB8202C2F8001100BFAA
:1026900001464FF0402000F01DF806B010BD0000CC
:1026A00018ED00E000E400E00848008800F10100B7
:1026B000064908800648007800F1010004490870C6
:1026C0004FF001004FF040210860704744000010B7
:1026D00054000010012904D1426842F00102426016
:1026E00003E0426822F001024260704710B50A78A8
:1026F00032B1012A07D0022A08D0032A0CD108E0FF
:102700008A6882610AE08A68C26107E08A680262B8
:1027100004E08A68426201E000BFFEE700BF426950
:102720000B7803EB43044FF0070303FA04F322EAA8
:10273000030242614A7852B142690B7803EB4304C9
:102740004FF0010303FA04F342EA03024261CA783C
:1027500062B142690B7803EB430303F101034FF0CD
:10276000010404FA03F442EA040242618A7862B185
:1027700042690B7803EB430303F102034FF00104BA
:1027800004FA03F442EA04024261C26B0B784FF090
:10279000040404EB43044FF0030303FA04F322EAB6
:1027A0000302C2630A7902F003020B784FF00404BB
:1027B00004EB430302FA03F2C36B42EA0302C2636F
:1027C00010BD00002DE9F04704460F461546B4F150
:1027D000402F04D101210220FDF7C8FD16E0284852
:1027E000844204D101210420FDF7C0FD0EE02548FC
:1027F000844204D101218805FDF7B8FD06E0224896
:10280000844203D10121C805FDF7B0FD206F20F0FF
:1028100003002067206F20674FF00000A060206158
:10282000E060606840F002006060606820F00200D4
:10283000606097B92E46307820B97068A0F1010029
:10284000E06018E0204600F03DFA8146716800F033
:102850005BFAA0F10100E0600DE0A846206F20F0D7
:102860000C002067454698F80100012803D1A06AB2
:1028700040F00400A0624FF0FF302060BDE8F08718
:102880000080004000000940004009404FEA11620A
:1028900000F8012B4FEA114200F8012B4FEA1122F8
:1028A00000F8012B017070474FEA212200F8012B3C
:1028B000017070470FB4084B10B504A902AA039821
:1028C00000F01AF8044602A9002000F0B9F92046E9
:1028D00010BC5DF814FB0000412C000002E008C8A9
:1028E000121F08C1002AFAD17047002001E001C17F
:1028F000121F002AFBD170472DE9FF4F8DB005460E
:102900008846002667E125287AD100246D1CB64A46
:10291000A146A34601212B78203B01FA03F0104287
:1029200002D004436D1CF6E728782A2810D06FF0F7
:102930002F022878A0F13001092915D809EB890167
:1029400002EB410144F0020400EB01096D1CF0E7C9
:1029500058F8049BB9F1000103DA44F40054C1F1C2
:10296000000944F002046D1C28782E2817D115F8B0
:10297000010F44F004042A280ED06FF02F022878AB
:10298000A0F1300109290AD80BEB8B0102EB4101C0
:1029900000EB010B6D1CF2E758F804BB6D1C2878A6
:1029A0006C280FD006DC4C2817D068280DD06A2878
:1029B00014D104E0742810D07A280FD10DE044F42B
:1029C00000140AE044F4801401E044F440146978EF
:1029D000814202D16D1C04F580146D1C2878692891
:1029E00066D007DC002875D0632828D0642807D17A
:1029F0005EE005E06E2808D073282AD075287AD0CA
:102A0000DDE90F129047761CE4E0C4F3025002287F
:102A100009D003280DD0D8F8001004280DD00E607E
:102A200008F10408D6E0D8F80010F217C1E90062F6
:102A3000F6E7D8F800100E80F2E70E70F0E758F8CD
:102A4000041B8DF8001000208DF80100EA460120DB
:102A500003E058F804AB4FF0FF3061074FF0000778
:102A600001D40AE07F1C5F450DDA8742FADB1AF8D1
:102A700007100029F6D106E07F1C8742FCDB1AF81C
:102A800007100029F8D1DDE90F23A9EB07008146E3
:102A9000214600F0BEF83044C61904E0DDE90F120B
:102AA0001AF8010B90477F1EF8D2214648468CE069
:102AB0000A2758F8040BC4F30251032900D100B2CD
:102AC000042900D140B2002806DAC0F100004FF01E
:102AD0002D0104E083E00EE0210504D52B218DF8C3
:102AE0002C10012103E0E10710D02021F7E70DF1C0
:102AF000200A099113E00A2758F8040BC4F3025185
:102B0000032900D180B2042900D1C0B20021EEE730
:102B10003946FDF785FB01F130020AF8012D002846
:102B2000F6D1ADEB0A0000F120000890600702D555
:102B300024F4803401E04FF0010B089A002059463C
:102B4000934501DDA1EB0200834600EB02010998E9
:102B50000144A9EB01000A90E00306D4DDE90F234C
:102B600021460A9800F055F8064400270DF12C097B
:102B700006E0DDE90F1219F807009047761C7F1C6C
:102B800009988742F5DBE0030CD5DDE90F232146E8
:102B90000A9800F03EF8064404E0DDE90F12302008
:102BA0009047761CBBF10001ABF1010BF5DC05E0B1
:102BB000DDE90F121AF8010B9047761C0899481EA0
:102BC00008900029F4DC0A982146DDE90F2300F083
:102BD0000DF806446D1C287800287FF494AE11B0DF
:102BE0003046BDE8F08F0000092801002DE9F041D2
:102BF0000446002517461E46880405D406E03946DB
:102C00002020B04705F10105641EF8D52846BDE82F
:102C1000F0812DE9F04104460025302790461E46FC
:102C2000C80300D42027880405D506E0414638466D
:102C3000B04705F10105641EF8D52846BDE8F081CE
:102C40000A68531C0B60107070470000FFF7D0FC3F
:102C5000012219210020FEF741FB01221921002049
:102C6000FEF7C0FB12491348FDF74AFB0022022180
:102C70001048FDF768FB012202210E48FDF7F8FA23
:102C8000FFF704FC4FF000000B4908704FF05000B4
:102C90000A4908800AE00A48007810F0010F01D1C3
:102CA000FFF70AFCFDF7DCFBFEF7DAF8F3E70000BC
:102CB000C0C62D000040034020000010220000107C
:102CC0002400001001464FF0FF30B1F1402F02D137
:102CD0004FF0000010E0094A914202D14FF001008C
:102CE0000AE0074A914202D14FF0020004E0054A8F
:102CF000914201D14FF00300704700000080004076
:102D000000000940004009402DE9F047814688460F
:102D1000484600F015F84FF0000504462B462046C3
:102D2000A0FB086C05FB08C204FB0321034A3046E4
:102D3000FDF7F4F904462046BDE8F08740420F0055
:102D400070B505464FF00100FDF728FB044620460C
:102D500070BDFFF77BFF00004FF0000020E000EBAC
:102D600040014FEA412101F1005101F164014FEAB4
:102D7000C00202F100521160134A4FEAC00101F192
:102D800000514A604FF000024FEAC00101F10051CA
:102D90000A624FEAC00101F100514A6200F10100EC
:102DA0000428DCD34FF00051084A11600849094A51
:102DB000C2F80C114FF00301074A11604FF00001F7
:102DC000044AC2F818117047FF0500800841082026
:102DD000200000200040082010410820017942799D
:102DE00041EA0221074A11648178C27841EA02214E
:102DF000044A51640178427841EA0221014A91640F
:102E000070470000004008204FF0000017E015490F
:102E10004FF4C06202FB00124FEAC00101F1005101
:102E20000A644FF000024FEAC00101F100514A6408
:102E30004FEA800101F100518A6500F10100032889
:102E4000E5D30949094A116009490A4AC2F8201123
:102E50004FF00201084A11604FF00001054AC2F824
:102E60002811704764180020400000201C410820F1
:102E700058000020004008202441082048545450A5
:102E80002F312E3020323030204F4B0D0A436F6EE1
:102E900074656E742D547970653A20746578742F5A
:102EA00068746D6C0D0A0D0A003C68746D6C3E0D03
:102EB0000A3C686561643E0D0A3C6D65746120687A
:102EC0007474702D65717569763D227265667265E0
:102ED00073682220636F6E74656E743D2235223EE6
:102EE0000D0A3C7469746C653E656173795745429F
:102EF000202D2064796E616D696320576562736966
:102F000064653C2F7469746C653E0D0A3C2F6865DE
:102F100061643E0D0A0D0A3C626F6479206267634A
:102F20006F6C6F723D222333303330413022207476
:102F30006578743D2223464646463030223E0D0ACF
:102F40003C703E3C623E3C666F6E7420636F6C6FFB
:102F5000723D2223464646464646222073697A65DC
:102F60003D2236223E3C693E48656C6C6F20576FAF
:102F7000726C64213C2F693E3C2F666F6E743E3C40
:102F80002F623E3C2F703E0D0A0D0A3C703E3C62A3
:102F90003E5468697320697320612064796E616DA5
:102FA0006963207765627369746520686F737465FF
:102FB000642062792074686520656D62656464656B
:102FC00064205765627365727665723C2F623E209D
:102FD0003C623E656173795745422E3C2F623E3C10
:102FE0002F703E0D0A3C703E3C623E486172647731
:102FF0006172653A3C2F623E3C2F703E0D0A3C7573
:103000006C3E0D0A3C6C693E3C623E4375727265D3
:103010006E7420426F6172643A204C5043313738ED
:1030200038204F454D20626F6172642072657620B2
:10303000504134206D6F756E746564206F6E204F43
:10304000454D206261736520626F61726420726514
:103050007620413C2F623E3C2F6C693E0D0A3C6C51
:10306000693E3C623E5573696E672049433A204C85
:10307000504331373838202841524D20436F727405
:1030800065782D4D332920776974682039364D488D
:103090007A2C203531324B4220466C6173682C20EB
:1030A0003936204B42205352414D3C2F623E3C2F3B
:1030B0006C693E0D0A3C6C693E3C623E456D626542
:1030C0006464656420454D41432045746865726EB3
:1030D000657420436F6E74726F6C6C65723C2F6206
:1030E0003E3C2F6C693E0D0A3C2F756C3E0D0A0D5F
:1030F0000A3C703E3C623E412F4420436F6E766531
:103100007274657220496E70757420313A3C2F627A
:103110003E3C2F703E0D0A0D0A3C7461626C6520C6
:103120006267636F6C6F723D2223666630303030A9
:103130002220626F726465723D2235222063656CC5
:103140006C70616464696E673D2230222063656C37
:103150006C73706163696E673D2230222077696409
:1031600074683D22353030223E0D0A3C74723E0DAB
:103170000A3C74643E0D0A3C7461626C6520776998
:103180006474683D22414441252220626F72646567
:10319000723D2230222063656C6C70616464696EDC
:1031A000673D2230222063656C6C73706163696EC9
:1031B000673D2230223E0D0A3C74723E3C7464200E
:1031C0006267636F6C6F723D222330306666303009
:1031D000223E266E6273703B3C2F74643E3C2F741B
:1031E000723E200D0A3C2F7461626C653E0D0A3CF4
:1031F0002F74643E0D0A3C2F74723E0D0A3C2F74EE
:1032000061626C653E0D0A0D0A3C7461626C65205A
:10321000626F726465723D2230222077696474683F
:103220003D22353430223E0D0A3C74723E0D0A3C7C
:1032300074642077696474683D22313225223E30FF
:10324000563C2F74643E0D0A3C74642077696474A4
:10325000683D22313225223E302E35563C2F746493
:103260003E0D0A3C74642077696474683D223132F3
:1032700025223E31563C2F74643E0D0A3C74642076
:1032800077696474683D22313225223E312E3556ED
:103290003C2F74643E0D0A3C746420776964746842
:1032A0003D22313225223E32563C2F74643E0D0AB7
:1032B0003C74642077696474683D22313225223E73
:1032C000322E35563C2F74643E0D0A3C74642077D0
:1032D000696474683D22313225223E33563C2F7496
:1032E000643E0D0A3C2F74723E0D0A3C2F746162DD
:1032F0006C653E0D0A3C2F626F64793E0D0A3C2FCF
:1033000068746D6C3E0D0A0D0A00C0A80064FFFFD2
:10331000FF00C0A800FE1E306CA2455E0406080A2D
:103320000E141C24282C3034383C40004C33000050
:10333000000000107C000000DC280000C833000002
:103340007C000010B41D0000EA280000000000000E
:10335000000000000000000000000000000000006D
:10336000000000000000000000000000000000005D
:10337000000000000000000000000000000000004D
:10338000000000000000000000000000000000003D
:10339000000000000000000000000000000000002D
:1033A000000000000000000000000000000000001D
:1033B0000000000000000000000E270700879303B4
:0833C00000879303006CDC029E
:04000005000000E512
:00000001FF
