:020000040000FA
:1000000058120010F9000000010100000301000077
:1000100005010000070100000901000000000000C8
:100020000000000000000000000000000B010000C4
:100030000D010000000000000F0100001101000090
:100040001301000013010000130100001301000060
:100050001301000013010000130100001301000050
:100060001301000013010000130100001301000040
:100070001301000000000000130100001301000044
:100080001301000013010000130100001301000020
:100090001301000013010000130100001301000010
:1000A0001301000013010000130100001301000000
:1000B00013010000130100001301000013010000F0
:1000C00013010000130100001301000013010000E0
:1000D00013010000130100001301000013010000D0
:1000E00013010000DFF80CD000F088F8004800474A
:1000F0004B2400005812001006488047064800476D
:10010000FEE7FEE7FEE7FEE7FEE7FEE7FEE7FEE7C7
:10011000FEE7FEE7E5130000E50000002DE9F05FD3
:100120000546002092469B46884606468146402466
:100130001BE0284641464746224600F02FF852462B
:100140005B46801A994110D310461946224600F0AA
:1001500016F82D1A67EB01084F46224601200021B0
:1001600000F00DF817EB00094E41201EA4F1010428
:10017000DFDC484631462A464346BDE8F09F202A48
:1001800004DB203A00FA02F1002070479140C2F1EE
:10019000200320FA03F3194390407047202A04DB20
:1001A000203A21FA02F00021704721FA02F3D040F0
:1001B000C2F120029140084319467047D2B201E0D3
:1001C00000F8012B491EFBD270470022F6E710B55C
:1001D00004460846114602462046FFF7EFFF204638
:1001E00010BD30B504460020034600E05B1C93427E
:1001F00003D2E05CCD5C401BF8D030BD064C074D0F
:1002000006E0E06840F0010394E8070098471034E6
:10021000AC42F6D3FFF76AFF4027000060270000DA
:10022000012907D1084A126842EA0002074BC3F8C5
:10023000C42007E031B9044A126822EA0002034BE5
:10024000C3F8C42070470000C4C00F4000C00F4076
:10025000014631B1012907D0022908D003290CD168
:1002600008E007480068704706480068FBE7064852
:100270000068F8E705480068F5E700BFFEE7000002
:10028000480000104C0000105000001054000010F6
:1002900001464FF480708A8802F101028A808A88C0
:1002A000402A16D14FF000028A804A8802F10102EA
:1002B0004A804A88B2F5806F0BD14FF000024A8025
:1002C0000A8802F101020A800A88012A01D14FF44A
:1002D000007070474FF0000002E000F1010188B2A9
:1002E00041F288318842F8DB7047416841F00201F1
:1002F0004160416821F0020141607047FFFFFFFF4C
:1003000070B506460D4636B1012E12D0022E1ED013
:10031000032E3ED129E02148006820F01F0405F09B
:100320001F0040EA04041E48C0F8044100F0D8FE53
:1003300031E01C48006820F01F0405F01F0040EA6F
:1003400004041748C0F8A84100F0CAFE23E016488C
:10035000006820F0010405F0010040EA04041048A0
:10036000C0F8004100F0BCFE15E01048006820F025
:100370001F0405F01F0040EA04040948D0F80801F2
:1003800005F01F0140EA01000849086000F0A8FEDE
:1003900001E000BFFEE700BF70BD000004C10F40D8
:1003A00000C00F40A8C10F4000C10F4008C10F405E
:1003B00003B54FF0600012490870BDF80210BDF897
:1003C000000001EB8020BDF8041001EB80100D4906
:1003D0000870BDF80210BDF8000001EB8020BDF8E8
:1003E000041001EB80104FEA1020064908704FF00E
:1003F000D00003490870FFF76DFF00F005F80CBD51
:10040000000010800000088030B54FF480544FF099
:10041000400500F0CDF8054604E000F0C9F80546B7
:10042000A4F10104402D01D0002CF6D10CB94FF4F9
:100430008065284630BD00B585B04FF000008DF8CE
:1004400000008DF805004FF001008DF803004FF01B
:1004500008008DF801004FF000008DF804008DF8C1
:1004600002004FF002008DF806008DF807004FF0F3
:100470001F008DF80A008DF809008DF808008DF82E
:100480000B00684600F08EFD4FF001008DF80C0067
:10049000049003AA4FF000014FF0402001F0A0F8B3
:1004A000022001F001F900221721042000F0EAFCEB
:1004B00000224FF40001042000F0CEFC05B000BD86
:1004C0004FF090010B4A11704FF000010A4A117071
:1004D0004FF00041097801704FF0004109784170F8
:1004E0004FF00041097881704FF000410978C170E8
:1004F0007047000000001080000008802DE9FF47D1
:1005000006461C464FF000052F464FF480784FF00A
:100510004009AA463BE04FF00000234908702349F8
:1005200008700870BDF80610BDF8040001EB8020CB
:10053000BDF8081001EB80101C490870BDF80610CA
:10054000BDF8040001EB8020BDF8081001EB80101D
:100550004FEA1020154908704FF03000124908701A
:10056000FFF7B8FE4FEAC72000F5006A05E04FF03C
:1005700000400078705505F101055545F7D307F1A6
:100580000107A4F1010401A8FFF782FE804614B11F
:10059000B8F5807FBFD0FFF737FF814649EA0800F2
:1005A00004B0BDE8F0870000000010800000088063
:1005B0004FF0000108464FF070020A4B1A704FF0DE
:1005C0000042117801F00102012A02D14FF001002E
:1005D00007E001F04002402A01D1104601E04FF04F
:1005E00000007047000010807CB5FFF724FF4FF437
:1005F0000020524908605248FFF762FF50480078D7
:10060000EC2811D14E484078F1280DD14C48807823
:10061000802809D14A48C078152805D149A1002071
:10062000564A126890472FE045480078EC2810D1D0
:1006300043484078F1280CD14148807848B9404877
:10064000C078952805D14EA100204C4A12689047E9
:100650001AE03B480078AD2811D139484078F1289C
:100660000DD137488078802809D13548C0781D28B9
:1006700005D151A10020414A1268904704E05CA1D5
:1006800000203E4A126890474FF00000ADF800008D
:100690004FF06400ADF802004FF00000ADF8040028
:1006A0000546DDE90001FFF783FE2846ADF80400AA
:1006B00033E04FF000040BE0BDF80200BDF8041079
:1006C00000FB0140534941F8240004F1010084B2C9
:1006D000B4F5007FF0DB01234E48DDE9001200F0A5
:1006E000B3F84FF400614C48FFF76FFD01234A480F
:1006F000DDE90012FFF702FF4FF40062464945486A
:10070000FFF76FFD10B105F10100C5B2BDF804009F
:1007100000F1010080B2ADF80400BDF804004028EB
:10072000C7DB2DB93DA10020414A1268904704E083
:1007300040A100203E4A126890477CBD080000108E
:10074000040000100D0A4E414E442054797065207B
:100750003D204B3946314730385530412031323811
:100760004D204E414E4420466C61736820202D2D53
:100770002D2D2D2D2D2D2D20200000000C000010E2
:100780000D0A4E414E442054797065203D204B396E
:100790004631473038553042203132384D204E41B5
:1007A0004E4420466C61736820202D2D2D2D2D2D5B
:1007B0002D2D2D20200000000D0A4E414E442054C6
:1007C000797065203D2048593237554630383147D9
:1007D0003241203132384D204E414E4420466C612A
:1007E000736820202D2D2D2D2D2D2D2D2D20200019
:1007F0000D0A4E414E442054797065203D20556EBF
:100800006B6E6F7720202D2D2D2D2D2D2D2D2D2034
:100810002000000058000010580800104E616E645F
:1008200020466C617368204F4B200D0A00000000C9
:10083000100000104E616E6420466C617368206584
:1008400072726F72200D0A002DE9FF4707461C46A1
:100850004FF00005A8464FF480794FF04006AA46B5
:1008600042E04FF08000264908704FF00000254913
:1008700008700870BDF80610BDF8040001EB802078
:10088000BDF8081001EB80101E490870BDF8061075
:10089000BDF8040001EB8020BDF8081001EB8010CA
:1008A0004FEA1020174908704FEAC82000F5006A87
:1008B00005E0785D4FF00041087005F101055545F0
:1008C000F7D34FF010000E490870FFF703FDFFF754
:1008D0009BFD0646402E07D108F10108A4F1010452
:1008E00001A8FFF7D5FC814624B1B9F5807F01D17D
:1008F000402EB6D046EA090004B0BDE8F0870000FB
:10090000000010800000088010B50020FFF7A0FC58
:100910000B49884204D901210220FFF7F1FC03E0D2
:1009200000210220FFF7ECFC0121C802FFF778FC50
:100930004FF00100034908604FF0000010BD0000B7
:1009400000B4C40400C0092010B5034633B1012B24
:100950002DD0022B54D0032B28D17AE0062922D2A5
:10096000DFE801F003080D12171C02F00F004F4CD6
:1009700020601AE002F00F004D4C206015E002F0FC
:100980001F004C4C206010E002F01F004A4C206019
:100990000BE002F01F00494C206006E002F00F005F
:1009A000474C206001E0022010BD00BF7AE006291C
:1009B00022D2DFE801F003080D12171C02F00F002D
:1009C000404C20601AE002F00F003F4C206015E020
:1009D00002F01F003D4C206010E002F01F003C4C74
:1009E00020600BE002F01F003A4C206006E002F0AD
:1009F0000F00394C206001E00220D5E700BF51E034
:100A0000062922D2DFE801F003080D12171C02F0BC
:100A10000F00324C20601AE002F00F00304C2060D2
:100A200015E002F01F002F4C206010E002F01F00C4
:100A30002D4C20600BE002F01F002C4C206006E0E3
:100A400002F00F002A4C206001E00220ACE700BF5A
:100A500028E0062922D2DFE801F003080D12171C56
:100A600002F00F00234C20601AE002F00F00224C2D
:100A7000206015E002F01F00204C206010E002F022
:100A80001F001F4C20600BE002F01F001D4C206077
:100A900006E002F00F001C4C206001E0022083E71A
:100AA00000BF00BF00BF00207EE7000004C2092095
:100AB00008C209200CC2092010C2092014C2092052
:100AC00018C2092024C2092028C209202CC20920EA
:100AD00030C2092034C2092038C2092044C209208A
:100AE00048C209204CC2092050C2092054C2092022
:100AF00058C2092064C2092068C209206CC20920BA
:100B000070C2092074C2092078C20920024632B19D
:100B1000012A15D0022A24D0032A44D132E02448E5
:100B2000006820F48070234BC3F80002204800685E
:100B300001F4807340EA03001E4BC3F8000234E066
:100B40001D48006820F480701A4BC3F820021A4830
:100B5000006801F4807340EA0300164BC3F82002DA
:100B600023E01648006820F48070124BC3F840025E
:100B70001248006801F4807340EA03000D4BC3F88B
:100B8000400212E00E48006820F48070094BC3F860
:100B900060020B48006801F4807340EA0300054BD3
:100BA000C3F8600201E00220704700BF0020FBE7AD
:100BB00000C2092000C0092020C2092040C209202B
:100BC00060C2092010B502460B464FF00001082B09
:100BD00004D0102B05D0202B09D105E04FF00001E7
:100BE00007E04FF0010104E04FF0020101E00220B4
:100BF00010BD00BF32B1012A13D0022A20D0032A2F
:100C00003CD12CE02048006820F003001F4CC4F8C1
:100C100000022046D0F8000240EA0100C4F80002B9
:100C20002EE01B48006820F00300184CC4F8200296
:100C30002046D0F8200240EA0100C4F820021FE05C
:100C40001448006820F00300104CC4F8400220460D
:100C5000D0F8400240EA0100C4F8400210E00E481B
:100C6000006820F00300094CC4F860022046D0F868
:100C7000600240EA0100C4F8600201E00220B7E728
:100C800000BF0020B4E7000000C2092000C0092016
:100C900020C2092040C2092060C20920024632B1A8
:100CA000012A15D0022A24D0032A44D132E0244854
:100CB000006820F08000234BC3F800022048006841
:100CC00001F0800340EA03001E4BC3F8000234E049
:100CD0001D48006820F080001A4BC3F820021A4813
:100CE000006801F0800340EA0300164BC3F82002BD
:100CF00023E01648006820F08000124BC3F8400241
:100D00001248006801F0800340EA03000D4BC3F86D
:100D1000400212E00E48006820F08000094BC3F842
:100D200060020B48006801F0800340EA0300054BB5
:100D3000C3F8600201E00220704700BF0020FBE71B
:100D400000C2092000C0092020C2092040C2092099
:100D500060C20920024632B1012A15D0022A24D0ED
:100D6000032A44D132E02448006820F00800234BD5
:100D7000C3F800022048006801F0080340EA0300BD
:100D80001E4BC3F8000234E01D48006820F0080044
:100D90001A4BC3F820021A48006801F0080340EA21
:100DA0000300164BC3F8200223E01648006820F029
:100DB0000800124BC3F840021248006801F0080313
:100DC00040EA03000D4BC3F8400212E00E480068F1
:100DD00020F00800094BC3F860020B48006801F0DE
:100DE000080340EA0300054BC3F8600201E002205B
:100DF000704700BF0020FBE700C2092000C00920A7
:100E000020C2092040C2092060C2092001464FF0DB
:100E10000000062910D2DFE801F0030507090B0DD9
:100E200007480AE0074808E0074806E0074804E0EA
:100E3000074802E0074800E000BF00BF704700001D
:100E4000008009202080092040800920608009203E
:100E500080800920A08009202DE9F04107460D4639
:100E600016463846FFF7D2FF04464CB126B120683B
:100E700040EA0500206003E0206820EA05002060C9
:100E8000BDE8F0812DE9F04106460F4615464FF0CA
:100E900000043946304600F01BF88046B8F1050FD3
:100EA00002D10A48BDE8F0813946304600F06EF8BC
:100EB0000446206820F00700206005F00701206844
:100EC00040EA010020604FF00000EBE70100001055
:100ED00002464FF00500062A54D2DFE802F0033440
:100EE00040414245062907DD0A2901DB0B2903DDC4
:100EF0000E2904DB162902DC4FF0000022E00C2949
:100F000005D00D2903D0172904DB1A2902DC4FF084
:100F1000010017E01D2903D01E2901D01F2902D18D
:100F20004FF002000EE01B2901D01C2902D14FF026
:100F3000030007E0072903D0082901D0092901D1BE
:100F40004FF004001FE01D2902DC4FF0000005E017
:100F50001E2901D01F2901D14FF0010013E000BF6D
:100F600000BF4FF000000EE0012901DD042902D18D
:100F70004FF0000005E0022901D0032901D14FF014
:100F8000030000E000BF00BF7047000010B502463C
:100F90004FF0000001EB4213014C04EB830010BD45
:100FA00000C0024070B504464FF000054FF001024A
:100FB0004FF00E014FF00200FFF764FF01220F21F6
:100FC0000220FFF75FFF2E460BE00122F1B2032063
:100FD000FFF758FF0122F1B20420FFF753FF06F19B
:100FE0000106202EF1D3012200210520FFF74AFF40
:100FF000012211460520FFF745FFFFF785FC40EA77
:101000000505607928B13548006840F00200334991
:10101000086061782078FFF7D5FD40EA0505A078E3
:1010200030B120780821FFF795FE40EA050505E07C
:1010300020780021FFF78EFE40EA0505E07830B108
:1010400020788021FFF72AFE40EA050505E0207898
:101050000021FFF723FE40EA0505207938B120780A
:101060004FF48071FFF752FD40EA050505E0207856
:101070000021FFF74BFD40EA0505A2792078002109
:10108000FFF762FC40EA0505E27920784FF00101A4
:10109000FFF75AFC40EA0505227A20784FF002015A
:1010A000FFF752FC40EA0505627A20784FF0030111
:1010B000FFF74AFC40EA0505A27A20784FF00401C8
:1010C000FFF742FC40EA0505E27A20784FF005017F
:1010D000FFF73AFC40EA0505284670BD00C009202C
:1010E00030B5B448006810F4807F74D1B14808303E
:1010F000006810F0010F2FD1AE48006810F01F0FEC
:1011000002D14FF0000006E0AA48006800F01F007E
:10111000A949B1FBF0F0A9490860A648A4300068CD
:1011200010F01F0F02D14FF0000006E0A448006845
:1011300000F01F00A049B1FBF0F0A2490860A248EE
:10114000006800F0010000F101009C490968B1FB52
:10115000F0F09E490860C8E099480838006810F02F
:10116000400F08D14FF0000094490860954908608D
:1011700096490860B9E08F48006810F01F0F02D14F
:101180004FF0000006E08B48006800F01F008A491D
:10119000B1FBF0F0894908608948006810F01F0F22
:1011A00002D14FF0000006E08548006800F01F0003
:1011B0008149B1FBF0F0834908608348006800F082
:1011C000010000F101007D490968B1FBF0F07F49A1
:1011D00008608AE0FFE77C487838006810F4807F78
:1011E00008D14FF0000075490860764908607749DA
:1011F00008607AE06F480830006810F0010F32D1C3
:10120000734C246804F01F0404F10100714CD4F8FD
:10121000044104F01F016A4C246804F01F026D4C65
:10122000D4F8004104F0010404F1010311B94FF0B6
:10123000000404E0604C00FB04F4B4FBF1F45F4DE7
:101240002C6012B94FF0000404E05B4C00FB04F486
:10125000B4FBF2F45B4D2C60584C2468B4FBF3F4FF
:101260005A4D2C6041E056480838006810F0400F95
:1012700008D14FF0000051490860524908605349B5
:10128000086032E0524C246804F01F0404F10100AD
:10129000504CD4F8044104F01F01494C246804F078
:1012A0001F024C4CD4F8004104F0010404F1010386
:1012B00011B94FF0000404E03F4C00FB04F4B4FB10
:1012C000F1F43E4D2C6012B94FF0000404E03A4CAA
:1012D00000FB04F4B4FBF2F43A4D2C60374C246864
:1012E000B4FBF3F4394D2C6000BF3248001D006898
:1012F00010F4807F36D02F48001D006810F01F00CA
:1013000004D0042807D0062826D105E04FF00000BD
:101310003149086025E000BF2D4A126802F01F0223
:1013200002F101002B4AD2F8082102F01F012B4ADA
:10133000126812F0010F07D01F4A00FB02F2B2FB45
:10134000F1F2254B1A6006E01B4A00FB02F2B2FBE9
:10135000F1F2214B1A6004E04FF000001E490860D2
:1013600000BF26E01348001D006810F4007F1CD069
:101370001A48006810F0010F0BD01948006800F0FF
:101380001F0000F101000C4900FB01F01249086048
:101390000FE00F48006800F01F0000F1010006494F
:1013A00000FB01F00C49086003E04FF000000A491F
:1013B000086030BD04C10F40001BB700480000109A
:1013C000A8C10F404C00001000C10F405000001099
:1013D00088C00F4000C00F40540000100CC10F40E7
:1013E000A8C00F4000B54FF021003349086000BF8E
:1013F0003148006810F0400FFAD04FF001002F493B
:1014000008604FF009002E49C1F884004FF0010038
:101410002C4908604FF0AA002B4908604FF0550096
:10142000086000BF2848001F006810F4806FF9D0E2
:101430004FF02300254908604FF001002049C1F812
:10144000A0004FF0AA00224908604FF055001C4947
:10145000C1F8AC0000BF1D48001D006810F4806F8B
:10146000F9D040F201101B49086040F201201449F4
:10147000C1F808014FF00100174908604FF0020061
:10148000164908601648174908604FF480700C49E7
:10149000C1F8C8010846D0F8B00140F00300124975
:1014A000086045F23A00064908604FF000000F4915
:1014B0000860FFF715FE00BDA0C10F400CC10F4032
:1014C00000C00F4080C00F408CC00F40A4C00F4030
:1014D000ACC00F4004C10F4000C10F40A8C10F4075
:1014E000DE872804C4C00F40B0C10F4008ED00E003
:1014F000012904D1426842F00102426003E04268DF
:1015000022F001024260704710B50A7832B1012A18
:1015100007D0022A08D0032A0CD108E08A68826129
:101520000AE08A68C26107E08A68026204E08A68A9
:10153000426201E000BFFEE700BF42690B7803EBA7
:1015400043044FF0070303FA04F322EA0302426163
:101550004A7852B142690B7803EB43044FF0010320
:1015600003FA04F342EA03024261CA7862B14269B3
:101570000B7803EB430303F101034FF0010404FA7A
:1015800003F442EA040242618A7862B142690B784C
:1015900003EB430303F102034FF0010404FA03F4E5
:1015A00042EA04024261C26B0B784FF0040404EB80
:1015B00043044FF0030303FA04F322EA0302C26375
:1015C0000A7902F003020B784FF0040404EB4303A2
:1015D00002FA03F2C36B42EA0302C26310BD0000C9
:1015E0002DE9F04704460F461546B4F1402F04D1CB
:1015F00001210220FEF714FE16E02848844204D19F
:1016000001210420FEF70CFE0EE02548844204D19F
:1016100001218805FEF704FE06E02248844203D13A
:101620000121C805FEF7FCFD206F20F003002067B4
:10163000206F20674FF00000A0602061E0606068CC
:1016400040F002006060606820F00200606097B9BE
:101650002E46307820B97068A0F10100E06018E0F3
:10166000204600F02BFE8146716800F049FEA0F193
:101670000100E0600DE0A846206F20F00C0020671C
:10168000454698F80100012803D1A06A40F0040003
:10169000A0624FF0FF302060BDE8F087008000407E
:1016A000000009400040094010B504464FF47A712B
:1016B00004FB01F000F001F810BD1EB504464FF028
:1016C000FF304FF0402108604FF000008DF800001F
:1016D0004FF001008DF801008DF803008DF8020035
:1016E0004FF000008DF80400029469464FF040204E
:1016F000FFF70AFF01214FF04020FFF7F9FE00BF7E
:101700004FF04020006810F0010FF9D04FF040205A
:10171000FEF7EBFD1EBD38B504464FF0000000900B
:101720004FF001031A466946204600F04BFC9DF835
:10173000000038BD70B505460C460CB9002070BDE0
:10174000002301222146284600F03CFC08B101207C
:10175000F5E70020F3E700002DE9FF4F83B00C46CA
:1017600015461E464FF0000002900190002D03DC4C
:10177000306007B0BDE8F08F4FF00009012C02D1B6
:101780004FF0100005E014B94FF00A0001E04FF0EF
:101790000000C7B21FB94FF000003060E9E74FF01A
:1017A000000889E04FF00100019003461A4602A9A3
:1017B000039800F007FC9DF80800302808DB9DF82E
:1017C0000800392804DC9DF80800A0F1300B39E04E
:1017D000012C34D14FF010079DF80800612811D07A
:1017E00008DCA0F14100062824D2DFE800F00C104C
:1017F00014181C20623805281CD2DFE800F0070B03
:101800000F13170000BF4FF00A0B17E000BF4FF097
:101810000B0B13E000BF4FF00C0B0FE000BF4FF0BD
:101820000D0B0BE000BF4FF00E0B07E000BF4FF0B9
:101830000F0B03E04FF00000019000BF02E04FF0FB
:10184000000001904FF0010000900198B0B924B958
:101850001DA1039800F074FA05E0012C03D125497D
:10186000039800F06DFA09F10109B9F10A0F23D3C9
:1018700021A1039800F064FA00207AE79DF808108F
:10188000039800F051F8012D03D12F46284600900F
:101890000BE04FF0010A06E00098784300900AF14F
:1018A000010000F0FF0AAA45F6DB00980BFB00FBE5
:1018B000D844A5F10100C5B2002D3FF773AFC6F8BB
:1018C0000080012055E70000506C6561736520655C
:1018D0006E746572206120636861722066726F6D3C
:1018E0002027302720746F202739272121210D0A36
:1018F00000000000E42600005265616368206C6906
:101900006D69746174696F6E206F662072652D74E5
:10191000726965732E2052657475726E2046414956
:101920004C45440D0A00000013B504464FF0010376
:101930001A4601A9204600F0CDFB1CBD2DE9F0415F
:1019400005460C464FF00A0094FBF0F100FB1140F5
:10195000C6B24FF00A0094FBF0F04FF00A0190FB82
:10196000F1F201FB1200C7B24FF0640094FBF0F0FB
:1019700090FBF1F201FB120000F0FF0808F13000CB
:10198000C1B22846FFF7D0FF07F13000C1B22846A8
:10199000FFF7CAFF06F13000C1B22846FFF7C4FFC7
:1019A000BDE8F0812DE9F04705460C464FF00A00EE
:1019B00094FBF0F100FB1140C6B24FF00A0094FB1B
:1019C000F0F04FF00A0190FBF1F201FB1200C7B2F8
:1019D0004FF0640094FBF0F090FBF1F201FB120079
:1019E00000F0FF084FF47A7094FBF0F090FBF1F2F6
:1019F00001FB120000F0FF0942F2107094FBF0F0BE
:101A000090FBF1F201FB120000F0FF0A0AF1300036
:101A1000C1B22846FFF788FF09F13000C1B228465D
:101A2000FFF782FF08F13000C1B22846FFF77CFFC4
:101A300007F13000C1B22846FFF776FF06F130000B
:101A4000C1B22846FFF770FFBDE8F0872DE9F34FDC
:101A500083B00C464FF00A00B4FBF0F100FB1140DC
:101A6000C5B24FF00A00B4FBF0F04FF00A01B0FB32
:101A7000F1F201FB1200C6B24FF06400B4FBF0F0CB
:101A8000B0FBF1F201FB1200C7B24FF47A70B4FB65
:101A9000F0F0B0FBF1F201FB120000F0FF0842F29F
:101AA0001070B4FBF0F0B0FBF1F201FB120000F09B
:101AB000FF093648B4FBF0F0B0FBF1F201FB120075
:101AC00000F0FF0A3248B4FBF0F0B0FBF1F201FB8A
:101AD000120000F0FF0B2F48B4FBF0F0B0FBF1F266
:101AE00001FB1200C0B202902B48B4FBF0F0B0FB37
:101AF000F1F201FB1200C0B201902848B4FBF0F0F3
:101B0000B0FBF1F201FB1200C0B20090009800F1AE
:101B10003000C1B20398FFF707FF01983030C1B21F
:101B20000398FFF701FF02983030C1B20398FFF726
:101B3000FBFE0BF13000C1B20398FFF7F5FE0AF18E
:101B40003000C1B20398FFF7EFFE09F13000C1B2D7
:101B50000398FFF7E9FE08F13000C1B20398FFF7E0
:101B6000E3FE07F13000C1B20398FFF7DDFE06F196
:101B70003000C1B20398FFF7D7FE05F13000C1B2C3
:101B80000398FFF7D1FE05B0BDE8F08FA0860100F5
:101B900040420F008096980000E1F50500CA9A3B8C
:101BA0002DE9F04107460D460FA1384600F0C8F870
:101BB0004FF0010600BF4FEA860045FA00F000F042
:101BC0000F04092C02DD04F1370001E004F13000BC
:101BD000C1B23846FFF7A8FE3000A6F10101CEB22F
:101BE000E9D1BDE8F0810000307800002DE9F04136
:101BF00007460D460FA1384600F0A2F84FF0030645
:101C000000BF4FEA860045FA00F000F00F04092CEF
:101C100002DD04F1370001E004F13000C1B23846C2
:101C2000FFF782FE3000A6F10101CEB2E9D1BDE896
:101C3000F0810000307800002DE9F04107460D46A4
:101C40004FF0030600BF4FEA860045FA00F000F0AF
:101C50000F04092C02DD04F1370001E004F130002B
:101C6000C1B23846FFF760FE3000A6F10101CEB2E6
:101C7000E9D1BDE8F08100002DE9F04107460D46AD
:101C80000FA1384600F05CF84FF0070600BF4FEA9E
:101C9000860025FA00F000F00F04092C02DD04F1A3
:101CA000370001E004F13000C1B23846FFF73CFED6
:101CB0003000A6F10101CEB2E9D1BDE8F08100000B
:101CC000307800002DE9F04107460D464FF0070639
:101CD00000BF4FEA860025FA00F000F00F04092C3F
:101CE00002DD04F1370001E004F13000C1B23846F2
:101CF000FFF71AFE3000A6F10101CEB2E9D1BDE82E
:101D0000F0812DE9F04107460D464FF0010600BF76
:101D10004FEA860045FA00F000F00F04092C02DDBE
:101D200004F1370001E004F13000C1B23846FFF79A
:101D3000FBFD3000A6F10101CEB2E9D1BDE8F08192
:101D400070B506460D462C4604E014F8011B3046DB
:101D5000FFF7EAFD20780028F7D170BD70B5044682
:101D60000D4629462046FFF7EBFF02A12046FFF76C
:101D7000E7FF70BD0A0D00004FF4E13101604FF044
:101D8000030141714FF00001017181717047000042
:101D90002DE9F04106460F46052E40D2DFE806F059
:101DA00003400405740000BF00BF304600F054FB40
:101DB000054626B901210820FEF732FA0CE0022E72
:101DC00004D101210806FEF72BFA05E0032E03D10A
:101DD00001214806FEF724FA4FF0070028724FF061
:101DE0000000287200E02C78287D10F0010FFAD155
:101DF0004FF0800085F8300000BF287D10F0200FE4
:101E0000FBD04FF0000085F830006860287328622E
:101E100085F84C0085F8540085F850002C7D60E072
:101E200001211020FEF7FCF94FF00700614908720C
:101E30004FF00000087201E05E4804785D48007DC4
:101E400010F0010FF8D14FF080005B49087000BF1F
:101E50005848007D10F0200FFAD04FF0000056498E
:101E60000870544948600873086281F84C0053496F
:101E70000870504981F850000846047D4FF000007A
:101E800008740846047E2CE001210802FEF7C8F918
:101E90004FF007004A4988604FF00000886001E079
:101EA000474804684648406910F0010FF8D14FF0E8
:101EB00001004349C86500BF4148406910F0200F48
:101EC000FAD04FF000003E49C8654860C86008621B
:101ED000C86448650865084644694FF000004862D8
:101EE00000BF00BF3046396800F0CEFA012E04D1A1
:101EF0003048007B00F0C0040EE0042E04D13048CE
:101F0000C06800F0C00407E0304600F0A5FA0546BE
:101F1000287B00F0C00400BF787930B1012806D0DA
:101F2000022807D0032808D108E000BF09E044F0E8
:101F3000010406E044F0020403E000BF44F003049F
:101F400000BF00BF3879C0B144F0080438790128D7
:101F500006D0022806D0032807D004280BD107E0BA
:101F600000BF09E044F0100406E044F0200403E060
:101F700044F0300400E000BF00BFB87928B1012868
:101F800002D144F0040401E000BF00BF00BF012EF5
:101F900002D108490C730BE0042E03D1E0B20849CA
:101FA000C86005E0304600F057FA05462C7300BFC4
:101FB000BDE8F081000001403000014054000140C4
:101FC00000400A402DE9F04705460F4690469946E5
:101FD0003C464FF0000A052D13D2DFE805F003065A
:101FE000090C0F00DFF890A00BE0DFF890A008E0EC
:101FF000DFF88CA005E0DFF88CA002E0DFF888A015
:1020000000BF00BF4246B9F1010F1DD14FF00003E0
:1020100017E04FF0FF3603E006B906E0A6F101062F
:10202000DAF8000010F0010FF6D000BF06B90AE0A0
:10203000284600F02BF804F8010BA2F1010203F18D
:102040000103002AE5D114E04FF000030EE0DAF8B6
:10205000000010F0010F00D10AE0284600F016F849
:1020600004F8010B03F10103A2F10102002AEED1F1
:1020700000BF1846BDE8F08714C0004014000140BE
:102080001480094014C0094014400A400146052943
:1020900014D2DFE801F00306090C0F0008480078AD
:1020A000704708480078FBE707480078F8E70748DA
:1020B0000078F5E706480068C0B2F1E70020EFE7D6
:1020C00000C00040000001400080094000C00940FD
:1020D00000400A402DE9FF4F074691469A46019E6F
:1020E0004FF0000B052F13D2DFE807F00306090CB1
:1020F0000F00DFF8C0B00BE0DFF8BCB008E0DFF89D
:10210000BCB005E0DFF8B8B002E0DFF8B8B000BF5F
:1021100000BF4B46BAF1010F29D14FF0000423E074
:102120004FF0FF3805E0B8F1000F00D106E0A8F14C
:102130000108DBF8000010F0200FF4D000BFB8F168
:10214000000F00D112E04FF010050AE016F8011B55
:10215000384600F039F8A5F10105A3F1010304F1B7
:1021600001040DB1002BF1D1002BD9D11EE04FF0AD
:10217000000418E003B918E0DBF8000010F0200FAD
:1021800000D112E04FF010050AE016F8011B3846A6
:1021900000F01AF8A3F10103A5F1010504F101040F
:1021A0000DB1002BF1D1002BE4D100BF204604B0CB
:1021B000BDE8F08F14C000401400014014800940B5
:1021C00014C0094014400A40052813D2DFE800F08B
:1021D0000306090C0F00084A11700BE0074A117042
:1021E00008E0074A117005E0064A117002E0064A4D
:1021F000116000BF00BF704700C0004000000140F8
:102200000080094000C0094000400A4070B5044603
:102210000D46012D1DD1012C07D11D48007840F03D
:1022200080001C4981F8300031E0042C06D11A48A6
:10223000C06D40F001001849C86528E0204600F054
:102240000BF9064696F8300040F0800086F8300022
:102250001DE0012C07D10E4800784FF000000D4919
:1022600081F8300013E0042C06D10B48C06D4FF00C
:1022700000000949C8650AE0204600F0EDF806466E
:1022800096F830004FF0000086F8300000BF70BDB7
:10229000300001400000014000400A4002E008C850
:1022A000121F08C1002AFAD170477047002001E0D0
:1022B00001C1121F002AFBD17047000001464FF0F8
:1022C000FF30B1F1402F02D14FF0000010E0094A79
:1022D000914202D14FF001000AE0074A914202D137
:1022E0004FF0020004E0054A914201D14FF0030093
:1022F0007047000000800040000009400040094095
:102300002DE9F04781468846484600F095F84FF0A1
:10231000000504462B462046A0FB086C05FB08C2BE
:1023200004FB0321034A3046FDF7F8FE044620462D
:10233000BDE8F08740420F001CB5012202210020B9
:10234000FEF7A0FD012203210020FEF79BFD684659
:10235000FFF712FD69460020FFF71AFD012100205A
:10236000FFF754FF164817490860174817490860D7
:10237000174818490860184818490860184819494A
:10238000086019481949086019481A4908601A482C
:102390001A4908601A481B4908601B481B49086015
:1023A0001B481C4908601C481C4908601C481D4902
:1023B00008601D481D4908601D481E4908601CBD75
:1023C000411D00000C0000105D1D000010000010F9
:1023D0002919000014000010A11B000024000010A7
:1023E000ED1B000028000010791C00002C000010DC
:1023F000031D000030000010391C000034000010E4
:10240000C51C0000380000103D1900001800001025
:10241000A51900001C0000104D1A0000200000103B
:10242000171700003C00001059170000440000106E
:10243000351700004000001070B505464FF0010050
:10244000FDF706FF0446204670BDFFF775FFFEF757
:10245000CBF800BFFEE7000001464FF0000021B1BD
:10246000022904D0032906D103E0044804E004480B
:1024700002E0044800E000BF00BF704700C0004019
:102480000080094000C009402DE9F34F95B08B460C
:102490004FF0000009904FF00100FDF7D9FE0890C1
:1024A0004FF0FF3003904FF000000690059001467A
:1024B0000C460D464FF0010858E04FF00000079021
:1024C0004BE00798404400FB0BFA00211C220898BF
:1024D000CDE90C10FDF753FE0022A0FB083C01FBE8
:1024E00008C100FB02105246CDE900300023DDE9AF
:1024F0000001FDF713FE06460F4604964FF020023A
:1025000030463946CDE90A76FDF748FE8146049803
:10251000B0F1004F05D90498C0F10000049009F112
:102520000109B9F1000F02D0B9F5803F00D910E0E0
:10253000DDE9031088420BD2049803904FF00005A8
:102540004C4607980690CDF81480039800B907E030
:1025500000BF079800F10100079007984045B0D3ED
:1025600000BF039800B904E008F10108B8F10F0FAB
:10257000A3D900BF002184EA01006940084302D1C9
:1025800017B0BDE8F08F08980009059900FB01FC21
:102590000846069908440021A0FB042301FB0431EE
:1025A00000FB05100346CDE9002060460021FDF741
:1025B000B5FD02900298834504D90298ABEB000068
:1025C000039003E00298A0EB0B0003904FF064012E
:1025D000039800FB01F0B0FBFBF003900398032885
:1025E00079D21598012822D13C48007B40F0800028
:1025F0003A4908734FF0080220462946CDE90E54A7
:10260000FDF7CCFD354908710C700846007B00F0E1
:102610007F0008734FF0F001059801EA0010069959
:1026200001F00F0140EA01002C49886250E0159842
:10263000042824D12A48C06840F080002849C86096
:102640004FF0080220462946CDE91054FDF7A6FDBB
:10265000C0B223494860E0B208600846C06800F094
:102660007F00C8604FF0F001059801EA001006995C
:1026700001F00F0140EA01001949886228E015982D
:10268000FFF7EAFE82469AF80C0040F080008AF8D4
:102690000C004FF0080220462946CDE91254FDF700
:1026A0007DFD8AF804008AF800409AF80C0000F0DA
:1026B0007F008AF80C004FF0F001059801EA001045
:1026C000069901F00F0140EA01008AF8280000BFD6
:1026D0004FF001000990099852E700000000014006
:1026E00000400A40506C6561736520656E746572C8
:1026F000206120636861722066726F6D2027302729
:1027000020746F202739272C20616E642027612FC9
:1027100041272C2027622F42272C20632F43272C70
:102720002027642F44272C2027652F452720616E02
:10273000642027662F46272121210D0A0000000072
:102740006027000000000010580000009C220000DC
:10275000B82700005800001000120000AC22000052
:102760000000000000000000000000000000000069
:102770000000000000000000000000000000000059
:102780000000000000000000000000000000000049
:102790000000000000000000000000000000000039
:1027A0000000000000000000000E270700879303D0
:0827B00000879303006CDC02BA
:04000005000000E512
:00000001FF
