:020000040000FA
:1000000078230010F9000000010100000301000046
:1000100005010000070100000901000000000000C8
:100020000000000000000000000000000B010000C4
:100030000D010000000000000F0100001101000090
:100040001301000013010000130100001301000060
:100050001301000013010000130100001301000050
:100060001301000013010000130100001301000040
:100070001301000000000000130100001301000044
:100080001301000013010000130100001301000020
:100090001301000013010000130100001301000010
:1000A0008D15000013010000130100001301000072
:1000B00013010000130100001301000013010000F0
:1000C00013010000130100001301000013010000E0
:1000D00013010000130100001301000013010000D0
:1000E00013010000DFF80CD000F018F800480047BA
:1000F000112000007823001006488047064800477A
:10010000FEE7FEE7FEE7FEE7FEE7FEE7FEE7FEE7C7
:10011000FEE7FEE7D90E0000E5000000064C074DA3
:1001200006E0E06840F0010394E8070098471034C7
:10013000AC42F6D3FFF7DAFF24310000443100006F
:1001400010B50E48806838B94FF002000C490873AA
:1001500000F066FC002010BD0848007B10F0800F06
:100160000AD1022001F086FE4FF002000449087314
:1001700000F056FC0020EEE70120ECE78C20001098
:10018000AB20001010B510488068104909788842EB
:1001900003D20D4880680D4908700C4802780C495C
:1001A000822001F093FE4FF003000A4908700A48CC
:1001B000806806490978A0EB0100074988604FF084
:1001C0000000087310BD00008C2000100D0000100E
:1001D0004C2000100C000010AB20001001464FEA2C
:1001E00001724FEAD26011F0800F01D000F10100DE
:1001F000704770B506460C46304600F005F80546D7
:1002000005B1EC6170BD000001464FF00000062909
:1002100010D2DFE801F0030507090B0D07480AE0DB
:10022000074808E0074806E0074804E0074802E0FE
:10023000074800E000BF00BF7047000000800920B1
:1002400020800920408009206080092080800920CA
:10025000A08009202DE9F04107460D461646384694
:10026000FFF7D2FF04464CB126B1206840EA0500F2
:10027000206003E0206820EA05002060BDE8F081EE
:1002800010B512480078022806D003280DD00428A3
:100290000ED0052817D111E00D48C07B282802D1C7
:1002A00000F0B0F900BF00BF0DE000F0B9FB0AE0BC
:1002B000822001F0DFFD00F0B3FB04E04FF000000E
:1002C0000249087000BF00BF10BD00000C00001004
:1002D0008C2000104FF00000024908704FF0010020
:1002E00070470000B82000104FF00000024908706D
:1002F0004FF00100704700000C000010FFFFFFFFEF
:1003000010B51549022001F0D7FA144908701448B5
:10031000007810B1012812D102E000F027F818E0AF
:100320001048C07B2A2802D02F2806D102E000F016
:100330001FFA02E000F0B2F900BF00BF09E002209E
:1003400001F098FD4FF002000749087300F068FBC8
:1003500000BF00BF10BD00004C2000100D000010B9
:100360000C0000108C200010AB20001010B54FF0D6
:10037000000405E06248005D6249085504F101048B
:10038000614800788442F5D35F4800781F2877D110
:100390005C4800685D498842F9D15A4840685C4928
:1003A00048605848806888605648407B38B955484E
:1003B000807B012803DB5348807B102807DD00BFCA
:1003C0004FF001005249087300F02AFB96E04D48B7
:1003D000C07B1E282CD00FDC122825D005DCE0B114
:1003E00003281DD004287DD11DE0152821D01A280E
:1003F00020D01B2876D11AE02A2842D006DC2328F8
:100400001FD0252820D028286CD120E02F284FD0BD
:10041000552812D05A2865D110E000F017FB62E091
:1004200000F0C8FA5FE0CBE700F078F85BE0C7E7E0
:10043000C6E7C5E700F016FA55E0C1E700F0F2F9AB
:1004400051E000F089FA4EE000F062FA4BE000F073
:1004500023FAA0B12B48007B10F0800F06D04FF09C
:1004600002002C49087000F0CDF808E0022001F0ED
:1004700001FD4FF002002649087300F0D1FA32E086
:1004800032E000F009FA90B11E48007B10F0800FB6
:1004900004D14FF001001F49087008E0822001F0EC
:1004A000E9FC4FF002001A49087300F0B9FA1AE0AB
:1004B00000F0F2F9A8B11348007B10F0800F07D1CB
:1004C0004FF00100134908701349086009E009E082
:1004D000822001F0CFFC4FF002000D49087300F0BC
:1004E0009FFA00E06CE709E0822001F0C3FC0220E3
:1004F00001F0C0FC4FF006000649087010BD000076
:100500004C2000108C2000100D0000105553424369
:10051000AB2000100C0000100000001010B5FFF719
:100520000FFE00B910BD4FF00000344908704FF0C5
:10053000800048704FF0000088704FF00100C870D4
:100540004FF0200008714FF0800048714FF000001C
:100550008871C8714FF04B0008724FF06500487207
:100560004FF0690088724FF06C00C8724FF02000A5
:10057000087348738873C8734FF04C0008744FF0C9
:10058000500048744FF0430088744FF03100C87435
:100590004FF0370008754FF0380048754FF078007D
:1005A00088754FF02000C8754FF0440008764FF072
:1005B000690048764FF0730088764FF06B00C8767C
:1005C0004FF02000087748778877C8774FF03100E0
:1005D00081F820004FF02E0081F821004FF030000C
:1005E00081F822004FF0200081F823004FF0240012
:1005F00003490870FFF7C6FD00BF93E74C200010C9
:100600000D00001010B520480068402802D94FF0B6
:10061000400401E01C4804681C4800682044B0F510
:10062000005F07D919480068C0F500544FF0040076
:10063000174908701748154A126881182246822007
:1006400001F044FC114800682044104908600E483D
:100650000068A0EB04000C4908600F488068A0EB1C
:1006600004000D4988600848006818B94FF003007D
:100670000749087006480078022803D04FF00000B0
:100680000549087310BD00000800001004000010A8
:100690000C0000104C000010AB20001010B52C48CE
:1006A00000682C4909780844B0F5005F0DD9284846
:1006B0000068C0F10000274908704FF00500264986
:1006C00008704FF0020001F0D5FB4FF000040FE07E
:1006D0001F48006820442149085C2149095D88427F
:1006E00004D04FF000001F49086005E004F1010448
:1006F000184800788442EBD300BF154800681549BC
:1007000009780844124908601748006811490978B7
:10071000A0EB010014490860144880680D4909786D
:10072000A0EB0100114988600F48006818B10A4821
:10073000007805280BD10B48006810B94FF0010074
:1007400001E04FF000000949087300F069F910BD9D
:10075000040000100D0000100C0000104C000010F0
:100760004C2000100000001008000010AB2000100A
:1007700010B525480068254909780844B0F5005FA0
:100780000DD921480068C0F10000204908704FF0E1
:1007900005001F4908704FF0020001F06BFB4FF09D
:1007A000000408E01B48005D1749096821441A4A03
:1007B000505404F10104154800788442F2D31248E1
:1007C00000681249097808440F4908601348006816
:1007D0000E490978A0EB01001049086010488068B4
:1007E0000A490978A0EB01000D4988600B480068B0
:1007F00018B107480078052805D14FF000000849D6
:10080000087300F00DF910BD040000100D00001079
:100810000C0000104C2000104C00001008000010CC
:10082000AB20001010B5FFF78BFC00B910BD4FF0E6
:1008300000000A4908704FF0060048704FF00000B1
:100840008870C870087148718871C8714FF00800CD
:1008500003490870FFF796FC00BFE7E74C20001043
:100860000D00001010B5FFF76BFC00B910BD4FF084
:100870000300074908704FF0000048708870C87086
:100880004FF0040003490870FFF77CFC00BFEDE760
:100890004C2000100D00001010B51948407C4FEAA4
:1008A00000611748807C41EA00411548C07C41EA5C
:1008B00000201349097D40EA01044FEA4420114910
:1008C00008600F48C17D807D41EA00244FEA442042
:1008D0000D4908600A488068096888420DD0822066
:1008E00001F0C8FA022001F0C5FA4FF002000749F2
:1008F000087300F095F8002010BD0120FCE700000F
:100900008C2000100400001008000010AB20001024
:1009100010B5FFF715FC00B910BD4FF000000C49F1
:100920000870487088704FF00F00C8704FF00000DA
:10093000087148714FF0020088714FF00000C871D3
:100940004FF0080003490870FFF71CFC00BFE3E705
:100950004C2000100D00001010B5FFF7F1FB00B99E
:1009600010BD4FF0000011490870487088704FF0BA
:100970000800C8704FF000000871487188714FF08E
:100980001000C8714FF0020008724FF0000048726A
:100990004FF0020088724FF00000C8724FF00C0058
:1009A00003490870FFF7EEFB00BFD9E74C200010A9
:1009B0000D00001010B5FFF7C3FB00B910BD4FF0DC
:1009C0007000154908704FF0000048704FF00200A9
:1009D00088704FF00000C8700871487188714FF03E
:1009E0000A00C8714FF00000087248728872C8721D
:1009F0004FF0300008734FF0010048734FF00000D3
:100A00008873C873087448744FF012000349087063
:100A1000FFF7B8FB00BFD1E74C2000100D0000101D
:100A200010B50748074908604FF00D024FF08200EB
:100A300001F04CFA4FF005000349087010BD0000AA
:100A400055534253AB2000100C00001010B50B485A
:100A5000806858B10948007B10F0800F03D08220D5
:100A600001F008FA02E0022001F004FA4FF0000061
:100A700003490873FFF7D4FF10BD00008C2000105D
:100A8000AB2000102DE9F04106460F4615464FF009
:100A900000043946304600F01BF88046B8F1050FD7
:100AA00002D10A48BDE8F0813946304600F06EF8C0
:100AB0000446206820F00700206005F00701206848
:100AC00040EA010020604FF00000EBE70100001059
:100AD00002464FF00500062A54D2DFE802F0033444
:100AE00040414245062907DD0A2901DB0B2903DDC8
:100AF0000E2904DB162902DC4FF0000022E00C294D
:100B000005D00D2903D0172904DB1A2902DC4FF088
:100B1000010017E01D2903D01E2901D01F2902D191
:100B20004FF002000EE01B2901D01C2902D14FF02A
:100B3000030007E0072903D0082901D0092901D1C2
:100B40004FF004001FE01D2902DC4FF0000005E01B
:100B50001E2901D01F2901D14FF0010013E000BF71
:100B600000BF4FF000000EE0012901DD042902D191
:100B70004FF0000005E0022901D0032901D14FF018
:100B8000030000E000BF00BF7047000010B5024640
:100B90004FF0000001EB4213014C04EB830010BD49
:100BA00000C0024001464FF03000074A106007487D
:100BB000C0F8101200BF04480838006810F0200F79
:100BC000F9D003480068704708C2082000C0082018
:100BD00014C2082030B5B448006810F4807F74D186
:100BE000B1480830006810F0010F2FD1AE480068FE
:100BF00010F01F0F02D14FF0000006E0AA48006875
:100C000000F01F00A949B1FBF0F0A9490860A6480F
:100C1000A430006810F01F0F02D14FF0000006E072
:100C2000A448006800F01F00A049B1FBF0F0A24901
:100C30000860A248006800F0010000F101009C4932
:100C40000968B1FBF0F09E490860C8E0994808388F
:100C5000006810F0400F08D14FF000009449086080
:100C60009549086096490860B9E08F48006810F01F
:100C70001F0F02D14FF0000006E08B48006800F023
:100C80001F008A49B1FBF0F0894908608948006873
:100C900010F01F0F02D14FF0000006E085480068F9
:100CA00000F01F008149B1FBF0F0834908608348E0
:100CB000006800F0010000F101007D490968B1FB06
:100CC000F0F07F4908608AE0FFE77C4878380068E8
:100CD00010F4807F08D14FF0000075490860764914
:100CE0000860774908607AE06F480830006810F0C3
:100CF000010F32D1734C246804F01F0404F1010089
:100D0000714CD4F8044104F01F016A4C246804F0CB
:100D10001F026D4CD4F8004104F0010404F10103FA
:100D200011B94FF0000404E0604C00FB04F4B4FB84
:100D3000F1F45F4D2C6012B94FF0000404E05B4CFD
:100D400000FB04F4B4FBF2F45B4D2C60584C2468B7
:100D5000B4FBF3F45A4D2C6041E056480838006863
:100D600010F0400F08D14FF000005149086052497F
:100D700008605349086032E0524C246804F01F04B4
:100D800004F10100504CD4F8044104F01F01494C17
:100D9000246804F01F024C4CD4F8004104F0010414
:100DA00004F1010311B94FF0000404E03F4C00FBD3
:100DB00004F4B4FBF1F43E4D2C6012B94FF0000482
:100DC00004E03A4C00FB04F4B4FBF2F43A4D2C601E
:100DD000374C2468B4FBF3F4394D2C6000BF324823
:100DE000001D006810F4807F36D02F48001D006879
:100DF00010F01F0004D0042807D0062826D105E0F3
:100E00004FF000003149086025E000BF2D4A12680C
:100E100002F01F0202F101002B4AD2F8082102F071
:100E20001F012B4A126812F0010F07D01F4A00FB66
:100E300002F2B2FBF1F2254B1A6006E01B4A00FBFE
:100E400002F2B2FBF1F2214B1A6004E04FF0000015
:100E50001E49086000BF26E01348001D006810F41A
:100E6000007F1CD01A48006810F0010F0BD0194801
:100E7000006800F01F0000F101000C4900FB01F0C8
:100E8000124908600FE00F48006800F01F0000F1F1
:100E90000100064900FB01F00C49086003E04FF037
:100EA00000000A49086030BD04C10F40001BB700B4
:100EB0003C000010A8C10F404000001000C10F40CE
:100EC0004400001088C00F4000C00F4048000010D0
:100ED0000CC10F40A8C00F4000B54FF021003349AE
:100EE000086000BF3148006810F0400FFAD04FF0A2
:100EF00001002F4908604FF009002E49C1F8840015
:100F00004FF001002C4908604FF0AA002B490860FF
:100F10004FF05500086000BF2848001F006810F41B
:100F2000806FF9D04FF02300254908604FF0010091
:100F30002049C1F8A0004FF0AA00224908604FF0F4
:100F400055001C49C1F8AC0000BF1D48001D0068D9
:100F500010F4806FF9D040F201101B49086040F294
:100F600001201449C1F808014FF001001749086039
:100F70004FF00200164908601648174908604FF400
:100F800080700C49C1F8C8010846D0F8B00140F0A3
:100F900003001249086045F23A00064908604FF024
:100FA00000000F490860FFF715FE00BDA0C10F400B
:100FB0000CC10F4000C00F4080C00F408CC00F40DC
:100FC000A4C00F40ACC00F4004C10F4000C10F408F
:100FD000A8C10F40DE872804C4C00F40B0C10F4035
:100FE00008ED00E030B504462046FFF7F7F8044965
:100FF00041EA00458913284600F0ACFF30BD0000EF
:101000000005400010B503469878FFF7E7F804465E
:101010000D4800684FF0010101FA04F140EA0100B7
:101020000A49C1F844020A4804609888C1F84C0291
:1010300000BF05484438006810F4807FF9D04FF4B1
:1010400080700449086010BD44C2082000C0082018
:1010500048C2082008C2082010B504460CB101207F
:1010600000E000204FF4807242EA0041094800F09D
:1010700071FF4FF003000849086000BF064844387C
:10108000006810F4807FF9D04FF480700349086045
:1010900010BD00000005D80044C2082008C2082086
:1010A0007047000010B504460CB1012000E000209C
:1010B0004FF4807242EA0041014800F04BFF10BD3E
:1010C0000005FE0010B50D488088402802DD4FF075
:1010D000400401E0094884880848224601688020CD
:1010E00000F0F4FE04460548006820440349086007
:1010F00008468088A0EB0400888010BD2400001002
:1011000010B508480168002000F0D6FB04460548E9
:10111000006820440349086008468088A0EB04006A
:10112000888010BD240000107047000030B50446D0
:101130002046FFF753F8044941EA00450349284691
:1011400000F008FF30BD0000000540000001200055
:1011500030B504462046FFF741F8044941EA00450E
:101160008913284600F0F6FE30BD0000000540005F
:1011700010B50446082C70D2DFE804F06F04DBF1F0
:101180006F6FF0EF00F088FE8F490978C809FFF70C
:10119000CBFF8D48C0888D4988808B480078C0F38C
:1011A000411020B1012879D0022878D1B5E08648D5
:1011B00040780C2874D2DFE800F0060B8913891BF5
:1011C0002C313947597900F073F900B9A7E07EE076
:1011D000002000F067FC00B9A1E000F065FE76E0B9
:1011E000012000F05FFC00B999E000F05DFE6EE0C8
:1011F00075480078C0F3040040B97348807840F027
:1012000080007349087000F04FFE00E087E000BFE7
:101210005DE000F0F7F800B981E058E0002000F050
:1012200029FE4FF000006949888050E06648007848
:10123000C0F3040028B9674864490860FFF742FF1B
:1012400000E06CE000BF42E05F480078C0F30400BB
:1012500048B900F099FC08B961E0B2E000F024FE62
:10126000FFF71EFF00E05AE000BF30E0564800786C
:10127000C0F30400012816D15648007888B15248BE
:1012800000795549097888420BDA4F48007953496B
:1012900008444E490860FFF715FF03E019E03DE000
:1012A00014E03CE000E03AE000BF10E0464800787F
:1012B000C0F30400012806D100F046FD00B92EE07D
:1012C00000F0F2FD00E02AE000BF00E027E000BFF0
:1012D0002DE03D480078C0F3040001281BD13A48B6
:1012E0000079B8B938484078FE2808D0FF2810D1D6
:1012F000FEF7FAFF10B100F0D7FD0DE009E0FEF7B0
:10130000E9FF28B1364831490860FFF7DBFE03E00A
:1013100000BF00BF03E002E009E000E000BF802062
:1013200000F0A8FD4FF000002849888000BF00BFF2
:1013300047E025480078C00920D124488088F8B1CA
:10134000FFF7DEFE21488088D0B91F480078C0F33F
:10135000411028B1012810D103E02AE02DE010E06F
:10136000DDE719480078C0F30400012802D0022804
:1013700002D100E0D3E7D2E7D1E7D0E700F09CFD4F
:101380001FE011480078C009012802D1FFF79AFE3A
:101390000EE00F48007810F0800F09D00C4800785C
:1013A00000F07F000A4908700846007800F062FBF0
:1013B00007E08020FFF716FE03E00020FFF712FE93
:1013C00000BF00BF10BD00002C0000102400001062
:1013D00012000010130000101C0000101D0000106F
:1013E000B820001010B50446022C02D0032C06D100
:1013F00002E0FEF785FF02E0FEF742FF00BF00BFFC
:1014000010BD000070B525480078C0F3040010B18D
:10141000012836D132E02148C078012804D00228C2
:1014200008D0032826D11BE01D481E4908604FF054
:10143000120521E01C4C4FF0000605E0207808B1B1
:101440006088044406F1010614488078B042F5D162
:10145000207808B9002070BD1248046065880BE050
:101460000E488078114908440E4908600846006813
:10147000057801E00020EEE700BF04E000BF002097
:10148000E9E70020E7E700BF06488088A84201D9C5
:1014900004498D80FFF716FE0120DCE72C000010C8
:1014A0004030000024000010523000007330000073
:1014B00070B52E480078C0F3040020B1012808D090
:1014C00002284DD11BE02A482A490860FFF7FAFD9F
:1014D00048E02948007878B12448007927490978FC
:1014E000884209DA4FF00000254908800846214962
:1014F0000860FFF7E7FD01E0002070BD32E01B4807
:10150000007900F08F0414F0800F06D004F00F0172
:101510004FF4803000FA01F003E04FF0010000FAD0
:1015200004F005461448007810B914F00F0F14D1D8
:1015300014480068284210D013480068284202D09E
:101540004FF0010001E04FF000000D49088008460F
:1015500008490860FFF7B6FD01E00020CDE701E093
:101560000020CAE700BF0120C7E700002C000010E0
:101570001000001024000010130000101C000010C8
:10158000B820001014000010180000102DE9F047DA
:101590008248D0F8009019F0080F1DD04FF00800D5
:1015A0007F4908607F4800F0C1FC7F48FFF7FAFAE6
:1015B000064616F0100F03D000F0B8F900F054FA08
:1015C00016F0080F07D016F0040F02D000F07CFCD4
:1015D00001E000F04DFADEE019F0040F50D04FF0BA
:1015E0000008724807684FF0000442E0474500D108
:1015F00041E0012000FA04F0384237D04FF00100FA
:1016000000FA04F040EA08084FEA54054FF00100E0
:1016100000FA04F06649086000BF6048006810F0F6
:10162000200FFAD06348066814F0010F15D154B9A1
:1016300016F0040F07D06048006820B15E480168CA
:101640000120884713E05C4850F8250070B15A48E3
:1016500050F825100220884708E0574850F8250028
:1016600020B1554850F825100320884700BF04F1E9
:101670000104202CBAD300BF4FF004004849086091
:101680004B485830006810F0010F27D04B480668CF
:101690004FF002041EE0012000FA04F0304217D09F
:1016A0004FEA540514F0010F09D1434850F82500C2
:1016B00070B1414850F825100820884708E03E489E
:1016C00050F8250020B13C4850F8251009208847E3
:1016D00004F10104202CDED3394806603748103865
:1016E000006810F0020F27D0364806684FF0020459
:1016F0001EE0012000FA04F0304217D04FEA5405F2
:1017000014F0010F09D12C4850F8250070B12A4877
:1017100050F825100A20884708E0274850F825008F
:1017200020B1254850F825100B20884704F101040A
:10173000202CDED32448066020481038006810F0C2
:10174000040F27D0214806684FF002041EE0012054
:1017500000FA04F0304217D04FEA540514F0010F9C
:1017600009D1154850F8250070B1134850F82510DC
:101770000C20884708E0104850F8250020B10E489A
:1017800050F825100D20884704F10104202CDED3E9
:101790000F48066000BFBDE8F087000000C20820C7
:1017A00008C208200005FE000002FE0030C208202A
:1017B00038C2082014C20820E4300000A0C208206B
:1017C000A4C20820ACC20820B0C20820B8C20820B9
:1017D000BCC2082010B5002219210220FFF752F9DF
:1017E000012251060220FEF735FD4FF00071022064
:1017F000FEF7FFFC2B48406F20F00700294948679F
:101800000846406F40F0010048670846806F20F0AE
:10181000070088670846806F40F00100886722480B
:10182000006820F00700C1F8F8000846D0F8F8007A
:1018300040F00200C1F8F8000846D0F8C80020F0D7
:101840000700C1F8C8000846D0F8C80040F0010001
:10185000C1F8C8001548D0F8C40040F00040144951
:1018600008604FF016001349086000BF1148001DC2
:10187000006800F012001228F8D14FF018004FF065
:10188000010101FA00F14FEA50124FF0E02303EB9F
:101890008202C2F8001100BF00F048F8002000F0FA
:1018A000E9F810BD00C00240F8C0024000C00F407F
:1018B000C4C00F40F4CF0820F0B505460F4605F030
:1018C0000F004FF0010101EB80001449086000BFD8
:1018D0001348046814F4006FFAD0C4F309044FF0FD
:1018E000000606E00F480068386007F1040706F1BB
:1018F0000106E01CB6EB900FF4D34FF0000007494F
:10190000086041F2482040FA05F010F0010F03D1C1
:101910000549284600F040FB2046F0BD28C20820BB
:1019200020C2082018C208200005F2004FF0000174
:10193000294A11604FF04001284AC2F84C124FF07A
:101940000101254A11604FF04001244AC2F84C12AF
:1019500000BF21494839096811F4807FF9D04FF060
:10196000FF311F4A11601D4AC2F834121D4A11602E
:101970004FF00C01A2F1040211604FF000511A4A1D
:1019800011604FF0FF31194A1160194A11604FF090
:101990000001A2F1040211604FF0FF31154A1160FD
:1019A000154A1160154A11604FF00701144A116081
:1019B0004FF00001134A11605160084609E04FF0F2
:1019C0000001114A42F82010104A42F8201000F19C
:1019D00001002028F3D3704748C2082000C0082027
:1019E00038C2082008C2082080C2082054C208203B
:1019F0008CC20820A4C20820B0C20820BCC20820A3
:101A000094C2082034000010F82000107823001041
:101A10004FF000000749088007490870074908701F
:101A20004FF00110064908604FF0000005490860BA
:101A3000704700001000001012000010130000108A
:101A4000140000101800001030B504462046FEF7C0
:101A5000C5FB044941EA00458913284600F07AFA9B
:101A600030BD00000005400010B5FFF7D1FF10BDEC
:101A70007047000010B5044644F080004FF48072B7
:101A800042EA0041064800F065FA44F080004FF455
:101A9000807242EA0041024800F05CFA10BD00008A
:101AA0000005D00070B5054632480078C0F3040048
:101AB00020B101281DD0022857D11CE02D484088B4
:101AC000012813D145B100F000FA2B48008840F0FE
:101AD0000200294908800BE0002000F0F6F92648B2
:101AE000008820F002002449088001E0002070BD39
:101AF0003DE00020FBE71F48007900F08F0414F060
:101B0000800F06D004F00F014FF4803000FA01F08E
:101B100003E04FF0010000FA04F006461748007891
:101B200000B314F00F0F1DD015480068304219D0D3
:101B300010484088A0B94DB1204600F09BF91148EB
:101B4000006840EA06000F4908600DE02046FFF7F4
:101B500049FA0C48006820EA06000A49086003E0D8
:101B60000020C4E70020C2E701E00020BFE700BF7B
:101B70000120BCE72C000010100000101300001022
:101B800014000010180000102DE9F041664880781C
:101B9000002871D0654D8BE06878022804D00428B5
:101BA0005AD005287ED159E068795F498978884202
:101BB0004CD15D4880785E49087028795D4908708D
:101BC0004FF0000405E04FF000005B49085504F1B8
:101BD0000104042CF7D34FF0010417E0012000FAB0
:101BE00004F056490968084202D02046FFF79EFAE1
:101BF0004FF4803000FA04F050490968084203D0DD
:101C000044F08000FFF792FA04F10104102CE5D3B0
:101C10004FF00110494908604FF000004849086042
:101C20004FF00100FFF718FAE87910F0C00F06D066
:101C30004448008840F00100424908800BE04148D8
:101C4000008820F001003F49088004E02E466888A3
:101C5000064435462CE025E0EF7823E00FBBA8785A
:101C600000F08F0414F0800F07D004F00F014FF440
:101C7000803000FA01F004E01FE04FF0010000FAAC
:101C800004F080462D48006840EA08002B490860AF
:101C90002846FFF7B7F92046FFF75AFA2046FFF724
:101CA000D3FE00BF00BF2E4628780644354600BF4D
:101CB000287800287FF470AF2AE04FF000001C491C
:101CC00008704FF0010417E0012000FA04F01B49EE
:101CD0000968084202D02046FFF728FA4FF4803006
:101CE00000FA04F015490968084203D044F0800066
:101CF000FFF71CFA04F10104102CE5D34FF001109A
:101D00000E4908604FF000000D490860FFF7A4F984
:101D10000548807806490978884202D10120BDE84B
:101D2000F0810020FBE700002C0000105230000082
:101D3000130000101C0000101D0000101400001003
:101D400018000010100000102DE9F84F43480078EB
:101D500010B90020BDE8F88F4FF000000090404C13
:101D600076E06078022804D004280DD0052869D1D7
:101D700021E0607939490978884204D02646608894
:101D80000644344664E05DE0A77894F803804FF0A1
:101D9000000B34480079B8420CD132488078404575
:101DA00008D14FF0010000902F4810F807A001461D
:101DB00001F8078046E02B480079B84241D1A0786D
:101DC00000F08F0919F0800F06D009F00F014FF4D1
:101DD000803000FA01F003E04FF0010000FA09F052
:101DE000054620488078404517D12048006840EAE1
:101DF00005001E4908601E48006820EA05001C49CD
:101E000008602046FFF7FEF84846FFF7A1F948466C
:101E1000FFF71AFE4BEA050B13E0D04511D11BEA80
:101E2000050F0ED11148006820EA05000F4908602F
:101E30000F48006820EA05000D4908604846FFF792
:101E400075F900BF00BF264620780644344600BF1F
:101E50002078002885D100987CE70000130000104E
:101E6000523000002C0000101D0000101400001063
:101E70001800001030B504462046FEF7AFF90449BB
:101E800041EA00450349284600F064F830BD0000EF
:101E9000000540000001010010B502490020FFF7D5
:101EA0000BFD10BD2C00001010B500221146802043
:101EB00000F00CF810BD000010B502490020FFF73B
:101EC000FBFC10BDB820001070477047F0B5064607
:101ED0000D46144606F00F004FF0020101EB8000A2
:101EE0000E4908600E48C0F824424FF0000706E093
:101EF00028680C49086005F1040507F10107E01C9A
:101F0000B7EB900FF4D34FF0000004490860064986
:101F1000304600F041F82046F0BD000028C20820FD
:101F200000C008201CC208200005FA004FF0100174
:101F3000064A11600649C1F8100200BF034908397A
:101F4000096811F0100FF9D07047000008C208208E
:101F500000C008204FF010020D4B1A600D4AC2F865
:101F6000100200BF0A4A083A126812F0100FF9D0A6
:101F70004FF01002064B1A60064AC2F8101200BF5A
:101F8000034A083A126812F0100FF9D070470000A7
:101F900008C2082000C0082010B504460B464FF0C8
:101FA0001000114908602046FEF718F94FF4A061AF
:101FB00041EA00400D49C1F8100200BF0A48083844
:101FC000006810F0100FF9D04FF0100006490860BB
:101FD0000648C0F8103200BF03480838006810F007
:101FE000100FF9D010BD000008C2082000C0082062
:101FF00002E008C8121F08C1002AFAD170477047D2
:10200000002001E001C1121F002AFBD1704700002F
:102010004FF0000405E00848005D0849085504F148
:102020000104B4F5805FF6D3FFF7D4FB0120FFF77E
:1020300039F800BFFEE70000402000004C0000100F
:10204000EB3C904D53444F53352E300002010100BC
:102050000110002000F80200010001000000000053
:1020600000000000000029741902274C504331374A
:10207000387820555342464154313220202033C90C
:102080008ED1BCF07B8ED9B800208EC0FCBD007C08
:10209000384E247D248BC199E83C01721C83EB3AB5
:1020A00066A11C7C26663B07268A57FC750680CAFB
:1020B0000288560280C31073EB33C98A461098F722
:1020C000661603461C13561E03460E13D18B76115B
:1020D000608946FC8956FEB82000F7E68B5E0B034C
:1020E000C348F7F30146FC114EFE61BF0000E8E66D
:1020F00000723926382D741760B10BBEA17DF3A68E
:102100006174324E740983C7203BFB72E6EBDCA09E
:10211000FB7DB47D8BF0AC9840740C487413B40E06
:10212000BB0700CD10EBEFA0FD7DEBE6A0FC7DEB47
:10213000E1CD16CD19268B551A52B001BB0000E82F
:102140003B0072E85B8A5624BE0B7C8BFCC746F0D2
:102150003D7DC746F4297D8CD9894EF2894EF6C65D
:1021600006967DCBEA030000200FB6C8668B46F8C2
:102170006603461C668BD066C1EA10EB5E0FB6C8DC
:102180004A4A8A460D32E4F7E20346FC1356FEEB58
:102190004A525006536A016A10918B461896923340
:1021A000D2F7F691F7F64287CAF7761A8AF28AE8EA
:1021B000C0CC020ACCB80102807E020E7504B44283
:1021C0008BF48A5624CD136161720B407501420372
:1021D0005E0B497506F8C341BB000060666A00EB00
:1021E000B04E544C44522020202020200D0A52652D
:1021F0006D6F7665206469736B73206F72206F74E6
:10220000686572206D656469612EFF0D0A4469730B
:102210006B206572726F72FF0D0A507265737320C6
:10222000616E79206B657920746F207265737461BB
:1022300072740D0A00000000000000ACCBD855AA53
:10224000F8FFFFFFFFFFFF0F00000000000000008D
:10225000000000000000000000000000000000007E
:10226000000000000000000000000000000000006E
:10227000000000000000000000000000000000005E
:10228000000000000000000000000000000000004E
:102640004C50433137387800555342280000000081
:10265000000000000000000000000000000000007A
:10266000524541444D45202054585420000000005C
:1026700021006A3E000067526A3E020067000000C7
:10268000000000000000000000000000000000004A
:10269000000000000000000000000000000000003A
:1026A000000000000000000000000000000000002A
:1026B000000000000000000000000000000000001A
:1026C000000000000000000000000000000000000A
:1026D00000000000000000000000000000000000FA
:1026E00000000000000000000000000000000000EA
:1026F00000000000000000000000000000000000DA
:1027000000000000000000000000000000000000C9
:1027100000000000000000000000000000000000B9
:1027200000000000000000000000000000000000A9
:102730000000000000000000000000000000000099
:102740000000000000000000000000000000000089
:102750000000000000000000000000000000000079
:102760000000000000000000000000000000000069
:102770000000000000000000000000000000000059
:102780000000000000000000000000000000000049
:102790000000000000000000000000000000000039
:1027A0000000000000000000000000000000000029
:1027B0000000000000000000000000000000000019
:1027C0000000000000000000000000000000000009
:1027D00000000000000000000000000000000000F9
:1027E00000000000000000000000000000000000E9
:1027F00000000000000000000000000000000000D9
:1028000000000000000000000000000000000000C8
:1028100000000000000000000000000000000000B8
:1028200000000000000000000000000000000000A8
:102830000000000000000000000000000000000098
:1028400054686973206973206120555342204D6597
:102850006D6F7279204465766963652064656D6F7C
:102860006E7374726174696F6E206F6E3A0D0A092F
:102870002B204C50433137383820454120504120DF
:10288000626F617264200D0A092B204C504331376E
:10289000383820494152204B69636B205374617270
:1028A00074205265762E3200000000000000000007
:1028B0000000000000000000000000000000000018
:1028C0000000000000000000000000000000000008
:1028D00000000000000000000000000000000000F8
:1028E00000000000000000000000000000000000E8
:10304000120100020000004051C2031300010420DD
:103050004801090220000101008032090400000239
:103060000806506207058202400000070502024080
:10307000000000040309041C034E00580050002007
:1030800000530065006D00690063006F006E00640E
:1030900000200028034E005800500020004C005033
:1030A000004300310037003800780020004D0065F3
:1030B000006D006F007200790020001A0344004583
:1030C000004D004F00300030003000300030003044
:1030D00000300030000E034D0065006D006F00727F
:1030E000007900007111000000000000E5130000ED
:1030F00000000000000000000000000000000000D0
:1031000000000000000000000000000000000000BF
:1031100000000000000000000000000000000000AF
:103120000000000044310000000000104C000000CE
:10313000F01F0000903100004C0000104C250000F2
:10314000002000000000000000000000000000005F
:10315000000000000000000000000000000000006F
:10316000000000000000000000000000000000005F
:10317000000000000000000000000000000000004F
:10318000000E27070087930300879303006CDC027F
:04000005000000E512
:00000001FF
