:020000040000FA
:1000000010020010F90000000101000003010000CF
:1000100005010000070100000901000000000000C8
:100020000000000000000000000000000B010000C4
:100030000D010000000000000F0100001101000090
:100040001301000013010000130100001301000060
:100050001301000013010000130100001301000050
:100060001301000013010000130100001301000040
:100070001301000000000000130100001301000044
:100080001301000013010000130100001301000020
:100090001301000013010000130100001301000010
:1000A0001301000013010000130100001301000000
:1000B00013010000130100001301000013010000F0
:1000C00013010000130100001301000013010000E0
:1000D00013010000130100001301000013010000D0
:1000E00013010000DFF80CD000F02AF800480047A8
:1000F000190D00001002001006488047064800470E
:10010000FEE7FEE7FEE7FEE7FEE7FEE7FEE7FEE7C7
:10011000FEE7FEE7ED0B0000E500000040EA01030A
:100120009B0703D009E008C9121F08C0042AFAD2AD
:1001300003E011F8013B00F8013B521EF9D2704771
:10014000064C074D06E0E06840F0010394E8070024
:1001500098471034AC42F6D3FFF7C8FFAC13000049
:10016000CC130000012907D1084A126842EA0002B4
:10017000074BC3F8C42007E031B9044A126822EAE9
:100180000002034BC3F8C42070470000C4C00F40F6
:1001900000C00F4001E0A0F101000028FBD1704732
:1001A00070B506464FF0000510E04FF0000407E080
:1001B00032462946204600F043F804F1010084B29B
:1001C000B4F5F07FF4DB05F1010085B2B5F5887F69
:1001D000EBDB70BD014699B1134A926942F001020E
:1001E000114B9A6142F2107001E0A0F10100002869
:1001F000FBD10D4A926942F400620B4B9A6112E006
:10020000094A926922F40062074B9A6142F2107027
:1002100001E0A0F101000028FBD1034A926922F01D
:100220000102014B9A6170470080082010B5002040
:10023000FFF7D0FF00F064F80120FFF7CBFF10BDFF
:1002400010B5044BC1EB011400EB441423F8142047
:1002500010BD0000000010A001464FF0000006296C
:1002600010D2DFE801F0030507090B0D07480AE08B
:10027000074808E0074806E0074804E0074802E0AE
:10028000074800E000BF00BF704700000080092061
:10029000208009204080092060800920808009207A
:1002A000A08009202DE9F04107460D461646384644
:1002B000FFF7D2FF04464CB126B1206840EA0500A2
:1002C000206003E0206820EA05002060BDE8F0819E
:1002D00070B506460C463046FFF7BEFF054605B131
:1002E000AC6170BD10B502464FF0000001EB421347
:1002F000014C04EB830010BD00C00240FFFFFFFF74
:1003000010B505220C21022000F05AF9072206211F
:10031000022000F055F907221146022000F050F9A2
:1003200007220821022000F04BF9072209210220B0
:1003300000F046F907221421012000F041F90722BC
:100340001521012000F03CF907221621012000F0C0
:1003500037F907221721012000F032F9072218216E
:10036000012000F02DF907221921012000F028F9C1
:1003700007220D21022000F023F907221A21012073
:1003800000F01EF907221B21012000F019F90722B5
:100390001C21012000F014F907221D21012000F08A
:1003A0000FF907220221084600F00AF9072200216E
:1003B000022000F005F907220521022000F000F9D3
:1003C00007220321022000F0FBF80722042102206B
:1003D00000F0F6F8012202210846FFF763FF022130
:1003E0000846FFF775FF01210846FFF7BBFE4148AD
:1003F000006820F001003F4908604FF000003E49CE
:1004000088610846806920F00E008861084680698E
:1004100040F00C0088610846806940F02000886147
:100420000846806940F4807088614FF000003349CD
:100430000860334800F0A6F82F49896840EA0100B7
:100440002D4988600846806888600846806840F4C6
:10045000006088600846806840F4805088600846E4
:100460008068886008468068264940EA0100224981
:1004700088604FF0000008600846006840F0740093
:1004800008600846006840F4985008600846006814
:1004900040F4803008600846006840F080700860D2
:1004A0004FF0000048600846406840F20F1140EAF3
:1004B0000100114948600846406840F460504860B7
:1004C0000846406840F4003048600846406840F004
:1004D000007048600C48086148614FF0000406E075
:1004E0004FF00001094840F8241004F10104802C69
:1004F000F6D310BD008C082000800820B8C10F4042
:1005000000127A000000DF01000010A00082082025
:100510002DE9F84305460E4614469846DDF820902E
:1005200000BF14F8017B43463A4631462846CDF8D1
:10053000009000F0C8F8B5F5EC7F03DA05F108008B
:1005400085B20AE0FF2E05DC4FF0000506F1100031
:1005500086B202E04FF000052E4620780028E0D158
:10056000BDE8F88370B505460C46A4F12000044AA6
:1005700002EB00114FF010022846FFF7CFFD70BDCF
:10058000BC0D000010B502464FF0010101E001F181
:1005900001010A4B1B68B3FBF1F3934201D93F29D8
:1005A000F5D9012902D84FF0806005E001F01F0362
:1005B000C1F3441443EAC46010BD00000000001001
:1005C0002DE9F04106460F4615464FF00004394626
:1005D000304600F01BF88046B8F1050F02D10A48FA
:1005E000BDE8F08139463046FFF77CFE04462068BE
:1005F00020F00700206005F00701206840EA0100B4
:1006000020604FF00000EBE70100001002464FF0C1
:100610000500062A54D2DFE802F003344041424587
:10062000062907DD0A2901DB0B2903DD0E2904DB7E
:10063000162902DC4FF0000022E00C2905D00D291C
:1006400003D0172904DB1A2902DC4FF0010017E060
:100650001D2903D01E2901D01F2902D14FF002000D
:100660000EE01B2901D01C2902D14FF0030007E046
:10067000072903D0082901D0092901D14FF004002E
:100680001FE01D2902DC4FF0000005E01E2901D00B
:100690001F2901D14FF0010013E000BF00BF4FF050
:1006A00000000EE0012901DD042902D14FF0000015
:1006B00005E0022901D0032901D14FF0030000E039
:1006C00000BF00BF70472DE9FF5F06460F4690460A
:1006D0009946DDF838B041466846FFF743FF4FF0D2
:1006E000000422E01DF804A04FF0000518E0C5F159
:1006F00007004AFA00F010F0010F07D03A1991B242
:10070000721990B24A46FFF79BFD06E03A1991B282
:10071000721990B25A46FFF793FD05F1010085B2B8
:10072000082DE4DB04F1010084B2102CDADBBDE813
:10073000FF9F000070B5012210210220FFF740FF4B
:10074000012211210220FFF73BFF0122122102208A
:10075000FFF736FF012214210220FFF731FF0122AB
:1007600018210220FFF72CFF01221C210220FFF795
:1007700027FF01221D210220FFF722FF012219215C
:100780000420FFF71DFF4FF0000406E00122E1B254
:100790000320FFF715FF04F10104102CF6D34FF0EE
:1007A000000406E00122E1B20420FFF709FF04F192
:1007B00001040F2CF6D34448006840F4006043491C
:1007C000C1F8C4000846D0F8DC0140F00800C1F8C8
:1007D000DC010846D0F8DC0140F40060C1F8DC011F
:1007E0000846D0F8DC0140F40020394908604FF099
:1007F00001003849086088624FF00000C1F8040128
:100800000846D0F8040140F44070C1F804010846DD
:10081000D0F8040140F003002F4908604FF00300B6
:100820002C4908634FF0060048634FF009008863C5
:100830004FF00100C8634FF0060008644FF003005A
:1008400048644FF008008864C8644FF009000865E8
:100850004FF0020048654FF0030088654FF4D06008
:100860001E49086040F283101A49086241F2707410
:1008700001E0A4F10104002CFBD140F20310154962
:1008800008624FF0020048624FF4807401E0A4F166
:100890000104002CFBD14FF03A000E4948624FF0A2
:1008A000830008620E4805684FF0000008620B489C
:1008B000006840F40020C1F800010A4C01E0A4F1F6
:1008C0000104002CFBD170BDC4C00F4000C00F401C
:1008D000DCC10F4000C0092004C1092000C109206B
:1008E000003003A0A086010030B5B448006810F4C1
:1008F000807F74D1B1480830006810F0010F2FD10B
:10090000AE48006810F01F0F02D14FF0000006E063
:10091000AA48006800F01F00A949B1FBF0F0A949FE
:100920000860A648A430006810F01F0F02D14FF0F5
:10093000000006E0A448006800F01F00A049B1FBD9
:10094000F0F0A2490860A248006800F0010000F140
:1009500001009C490968B1FBF0F09E490860C8E0BD
:1009600099480838006810F0400F08D14FF0000097
:10097000944908609549086096490860B9E08F4835
:10098000006810F01F0F02D14FF0000006E08B4806
:10099000006800F01F008A49B1FBF0F08949086047
:1009A0008948006810F01F0F02D14FF0000006E0E8
:1009B0008548006800F01F008149B1FBF0F08349D1
:1009C00008608348006800F0010000F101007D49E3
:1009D0000968B1FBF0F07F4908608AE0FFE77C48D6
:1009E0007838006810F4807F08D14FF00000754916
:1009F000086076490860774908607AE06F480830F7
:100A0000006810F0010F32D1734C246804F01F0409
:100A100004F10100714CD4F8044104F01F016A4C48
:100A2000246804F01F026D4CD4F8004104F0010466
:100A300004F1010311B94FF0000404E0604C00FB25
:100A400004F4B4FBF1F45F4D2C6012B94FF00004D4
:100A500004E05B4C00FB04F4B4FBF2F45B4D2C604F
:100A6000584C2468B4FBF3F45A4D2C6041E05648CE
:100A70000838006810F0400F08D14FF000005149CD
:100A80000860524908605349086032E0524C2468BB
:100A900004F01F0404F10100504CD4F8044104F0A8
:100AA0001F01494C246804F01F024C4CD4F800414B
:100AB00004F0010404F1010311B94FF0000404E053
:100AC0003F4C00FB04F4B4FBF1F43E4D2C6012B932
:100AD0004FF0000404E03A4C00FB04F4B4FBF2F4E1
:100AE0003A4D2C60374C2468B4FBF3F4394D2C603C
:100AF00000BF3248001D006810F4807F36D02F48B8
:100B0000001D006810F01F0004D0042807D006283C
:100B100026D105E04FF000003149086025E000BF14
:100B20002D4A126802F01F0202F101002B4AD2F88E
:100B3000082102F01F012B4A126812F0010F07D0A2
:100B40001F4A00FB02F2B2FBF1F2254B1A6006E0ED
:100B50001B4A00FB02F2B2FBF1F2214B1A6004E0E7
:100B60004FF000001E49086000BF26E01348001D3A
:100B7000006810F4007F1CD01A48006810F0010FC4
:100B80000BD01948006800F01F0000F101000C496B
:100B900000FB01F0124908600FE00F48006800F008
:100BA0001F0000F10100064900FB01F00C4908603C
:100BB00003E04FF000000A49086030BD04C10F4057
:100BC000001BB70000000010A8C10F400400001077
:100BD00000C10F400800001088C00F4000C00F4047
:100BE0000C0000100CC10F40A8C00F4000B54FF022
:100BF00021003349086000BF3148006810F0400F01
:100C0000FAD04FF001002F4908604FF009002E493B
:100C1000C1F884004FF001002C4908604FF0AA0091
:100C20002B4908604FF05500086000BF2848001F9E
:100C3000006810F4806FF9D04FF023002549086058
:100C40004FF001002049C1F8A0004FF0AA0022494E
:100C500008604FF055001C49C1F8AC0000BF1D48AA
:100C6000001D006810F4806FF9D040F201101B499C
:100C7000086040F201201449C1F808014FF001005A
:100C8000174908604FF002001649086016481749D6
:100C900008604FF480700C49C1F8C8010846D0F8CC
:100CA000B00140F003001249086045F23A000649DD
:100CB00008604FF000000F490860FFF715FE00BD07
:100CC000A0C10F400CC10F4000C00F4080C00F40BA
:100CD0008CC00F40A4C00F40ACC00F4004C10F40F7
:100CE00000C10F40A8C10F40DE872804C4C00F40D8
:100CF000B0C10F4008ED00E002E008C8121F08C1B3
:100D0000002AFAD170477047002001E001C1121F8C
:100D1000002AFBD17047000008B5FFF70BFDFFF775
:100D200085FA0020FFF73CFA6FF07F40FFF732FAB8
:100D30004FF6FF70FFF734FA6FF07F40FFF72AFAA3
:100D40004FF47840FFF72CFA6FF07F40FFF722FA5C
:100D50004FF4FC60FFF724FA6FF07F40FFF71AFAB8
:100D60001F20FFF71DFA6FF07F40FFF713FA1F20D7
:100D70004FF6FF7308A280210090B420FFF7C8FB54
:100D80001F204FF6FF7308A290210090AC20FFF7C0
:100D9000BFFB00BFFEE7000048592D4C50433137E0
:100DA00038382D436F726500446576656C6F706DE1
:100DB000656E7420426F61726400000000000000E4
:100DC000000000000000000000000000000000180B
:100DD0003C3C3C1818001818000000000000006699
:100DE0006666000000000000000000000000003601
:100DF000367F3636367F3636000000000018183C45
:100E0000666030180C06663C18180000000070D8A8
:100E1000DA760C18306E5B1B0E0000000000003804
:100E20006C6C38606F66663B0000000000000018C4
:100E30001818000000000000000000000000000C76
:100E40001818303030303018180C00000000003016
:100E500018180C0C0C0C0C181830000000000000C6
:100E600000361C7F1C36000000000000000000005F
:100E70000018187E18180000000000000000000094
:100E80000000000000001C1C0C1800000000000006
:100E90000000007E000000000000000000000000D4
:100EA0000000000000001C1C000000000000000604
:100EB000060C0C1818303060600000000000001EA6
:100EC000333737333B3B331E000000000000000C7B
:100ED0001C7C0C0C0C0C0C0C000000000000003CF6
:100EE0006666060C1830607E000000000000003CC2
:100EF0006666061C0666663C0000000000000030C6
:100F000030363636667F0606000000000000007EA0
:100F10006060607C06060C78000000000000001C89
:100F200018307C666666663C000000000000007EAB
:100F3000060C0C1818303030000000000000003C97
:100F40006666763C6E66663C000000000000003C71
:100F5000666666663E0C183800000000000000005F
:100F6000001C1C0000001C1C000000000000000011
:100F7000001C1C0000001C1C0C18000000000006D7
:100F80000C18306030180C06000000000000000053
:100F900000007E007E0000000000000000000060F5
:100FA00030180C060C183060000000000000003CF7
:100FB00066660C1818001818000000000000007E7B
:100FC000C3C3CFDBDBCFC07F0000000000000018F0
:100FD0003C6666667E666666000000000000007C77
:100FE0006666667C6666667C000000000000003C69
:100FF000666660606066663C000000000000007885
:101000006C66666666666C78000000000000007E14
:101010006060607C6060607E000000000000007E18
:101020006060607C60606060000000000000003C68
:10103000666660606E66663E000000000000006646
:101040006666667E66666666000000000000003C1C
:10105000181818181818183C0000000000000006A6
:10106000060606060666663C0000000000000066F4
:10107000666C6C786C6C66660000000000000060B6
:10108000606060606060607E0000000000000063DF
:1010900063776B6B6B6363630000000000000063A9
:1010A00063737B6F67636363000000000000003CB4
:1010B000666666666666663C000000000000007CAE
:1010C0006666667C60606060000000000000003CB6
:1010D000666666666666663C0C0600000000007C7C
:1010E0006666667C6C666666000000000000003C78
:1010F000666030180C06663C000000000000007EB0
:1011000018181818181818180000000000000066B9
:10111000666666666666663C000000000000006663
:101120006666666666663C180000000000000063A4
:1011300063636B6B6B3636360000000000000066A0
:10114000663418182C666666000000000000006611
:101150006666663C18181818000000000000007E43
:1011600006060C183060607E000000000000003CA5
:10117000303030303030303030303C0000000060F3
:1011800060303018180C0C06060000000000003C0F
:101190000C0C0C0C0C0C0C0C0C0C3C0000183C66E1
:1011A000000000000000000000000000000000003F
:1011B00000000000000000000000FF000000001818
:1011C00018180000000000000000000000000000EF
:1011D000003C06063E66663E00000000000000601F
:1011E000607C66666666667C0000000000000000A9
:1011F000003C66606060663C000000000000000685
:10120000063E66666666663E00000000000000005E
:10121000003C66667E60603C000000000000001E2E
:101220003030307E303030300000000000000000F0
:10123000003E66666666663E06067C00000000604C
:10124000607C66666666666600000000000018182E
:10125000007818181818187E0000000000000C0C08
:10126000003C0C0C0C0C0C0C0C0C7800000000600A
:101270006066666C786C66660000000000000078AE
:10128000181818181818187E000000000000000038
:10129000007E6B6B6B6B6B63000000000000000056
:1012A000007C66666666666600000000000000005E
:1012B000003C66666666663C0000000000000000B8
:1012C000007C66666666667C606060000000000008
:1012D000003E66666666663E060606000000000082
:1012E00000666E706060606000000000000000003A
:1012F000003E60603C06067C0000000000000030FC
:10130000307E30303030301E000000000000000021
:10131000006666666666663E00000000000000002B
:101320000066666666663C1800000000000000006B
:1013300000636B6B6B6B3636000000000000000032
:101340000066663C183C6666000000000000000075
:10135000006666666666663C0C18F00000000000D9
:10136000007E060C1830607E000000000000000CBB
:101370001818183060301818180C000000000018F9
:101380001818181818181818181818000000003025
:101390001818180C060C18181830000000000071FE
:1013A000DB8E00000000000000000000CC130000F5
:1013B0000000001010000000F80C0000DC1300001A
:1013C0001000001000020000080D0000000E2707AA
:0C13D0000087930300879303006CDC028D
:04000005000000E512
:00000001FF
