:10000000601C0010458D0500B1990500B5990500EB
:10001000B9990500BD990500C1990500BE55DEEFEF
:10002000000000000000000000000000C59905006D
:10003000C999050000000000CD9905005D3A020055
:10004000D5990500D9990500DD990500E1990500CC
:10005000E5990500E9990500ED990500F19905007C
:10006000F5990500F9990500FD990500019A05002B
:10007000059A0500099A05000D9A0500119A0500D8
:10008000159A0500199A05001D9A0500219A050088
:10009000259A0500299A05002D9A0500319A050038
:1000A000359A0500399A05003D9A0500419A0500E8
:1000B000459A0500499A05004D9A0500519A050098
:1000C000559A0500599A05005D9A0500619A050048
:1000D000659A0500699A05006D9A0500719A0500F8
:1000E000759A0500000000000000000000000000FC
:1000F0000000000000000000000000000000000000
:1001000000000000000000000000000000000000EF
:1001100000000000000000000000000000000000DF
:1001200000000000000000000000000000000000CF
:1001300000000000000000000808080C0707070B7B
:10014000020202020202020202020202020202028F
:100150000607070707080808050000000000000060
:10016000000000000000000000000000000000008F
:10017000000000000000000000000000000000007F
:10018000000000000000000000000000000000006F
:10019000000000000000000000000000000000005F
:1001A000000000000000000000000000000000004F
:1001B000000000000000000000000000000000003F
:1001C000000000000000000000000000000000002F
:1001D000000000000000000000000000000000001F
:1001E000000000000000000000000000000000000F
:1001F00000000000000000000008080707060202D7
:1002000002020202020202020202020202020202CE
:1002100002020202020202020202020202020202BE
:1002200002020207070A08050000000000000000A3
:1002300000000000000000000000000000000000BE
:1002400000000000000000000000000000000000AE
:10025000000000000000000000000000000000009E
:10026000000000000000000000000000000000008E
:10027000000000000000000000000000000000007E
:10028000000000000000000000000000000000006E
:10029000000000000000000000000000000000005E
:1002A000000000000000000000000000000000004E
:1002B000000000000000000000000005080C07021C
:1002C0000202020202020202020202020206070700
:1002D0000707070C080802020B090909090D0D0D93
:1002E0000D0D0F02020202020202020202020202CB
:1002F000020B07080E0000000000000000000000D4
:1003000000000000000000000000000000000000ED
:1003100000000000000000000000000000000000DD
:1003200000000000000000000000000000000000CD
:1003300000000000000000000000000000000000BD
:1003400000000000000000000000000000000000AD
:10035000000000000000000000000000000000009D
:10036000000000000000000000000000000000008D
:100370000000000000000000000000000000000875
:100380000A07020202020202020202020607070A2A
:100390000808000000000000000000000000070244
:1003A000090101010101010101010101010110091E
:1003B000090D0D0F020202020202020202020B0CE0
:1003C0000805000000000000000000000000000020
:1003D000000000000000000000000000000000001D
:1003E000000000000000000000000000000000000D
:1003F00000000000000000000000000000000000FD
:1004000000000000000000000000000000000000EC
:1004100000000000000000000000000000000000DC
:1004200000000000000000000000000000000000CC
:1004300000000000000000000000000000000000BC
:100440000000000E0C0B020202020202020206076A
:100450000C080E000000000000000000000000007A
:100460000000000000000702090101010101010173
:10047000010101010101010101010101011009094D
:100480000D0F02020202020202020607080000002B
:10049000000000000000000000000000000000005C
:1004A000000000000000000000000000000000004C
:1004B000000000000000000000000000000000003C
:1004C000000000000000000000000000000000002C
:1004D000000000000000000000000000000000001C
:1004E000000000000000000000000000000000000C
:1004F00000000000000000000000000000000000FC
:1005000000000000000000050807020202020202CB
:100510000202070A080000000000000000000000BE
:1005200000000000000000000000000000000702C2
:1005300009010101010101010101010101010101A3
:10054000010101010101010101010110090D0F0269
:100550000202020202020B0A0E000000000000006C
:10056000000000000000000000000000000000008B
:10057000000000000000000000000000000000007B
:10058000000000000000000000000000000000006B
:10059000000000000000000000000000000000005B
:1005A000000000000000000000000000000000004B
:1005B000000000000000000000000000000000003B
:1005C000000000000000000000000000050A0B020F
:1005D00002020202021507080500000000000000E8
:1005E000000000000000000000000000000000000B
:1005F00000000000000007020901010101010101E2
:1006000001010101010101010101010101010101DA
:100610000101010101010101090D020202020202B0
:1006200002060C0E000000000000000000000000A8
:1006300000000000000000000000000000000000BA
:1006400000000000000000000000000000000000AA
:10065000000000000000000000000000000000009A
:10066000000000000000000000000000000000008A
:10067000000000000000000000000000000000007A
:10068000000000000000000000000000000000006A
:1006900000050A0602020202020207070207000022
:1006A000000000000000000000000000000000004A
:1006B0000000000000000000000000000000070231
:1006C0000901010101010101010101010101010112
:1006D000010101010101010101010101010101010A
:1006E00001010202090D0F0202020202020C0E00B9
:1006F00000000000000000000000000000000000FA
:1007000000000000000000000000000000000000E9
:1007100000000000000000000000000000000000D9
:1007200000000000000000000000000000000000C9
:1007300000000000000000000000000000000000B9
:1007400000000000000000000000000000000000A9
:10075000000000000000050A0B0202020202060768
:100760000800000502020000000000000000000078
:100770000000000000000000000000000000000079
:100780000000000000000702090101010101010150
:100790000101010101010101010101010101010149
:1007A00001010101010101010110020F010101100C
:1007B0000D0F0202020202060C0E000000000000F3
:1007C0000000000000000000000000000000000029
:1007D0000000000000000000000000000000000019
:1007E0000000000000000000000000000000000009
:1007F00000000000000000000000000000000000F9
:1008000000000000000000000000000000000000E8
:100810000000000000000000000000000E070202BF
:10082000020202060C0E00000000000006020E008C
:1008300000000000000000000000000000000000B8
:10084000000000000000000000000000000007029F
:100850000901010101010101010101010101010180
:100860000101010101010101010101010101010178
:100870000109020D01010101010110090F0202022B
:1008800002020B0A0000000000000000000000004F
:100890000000000000000000000000000000000058
:1008A0000000000000000000000000000000000048
:1008B0000000000000000000000000000000000038
:1008C0000000000000000000000000000000000028
:1008D0000000000000000000000000000000000018
:1008E00000050A060202020202070E0000000000D4
:1008F0000000000007020A000000000000000000E5
:1009000000000000000000000000000000000000E7
:1009100000000000000007020901010101010101BE
:1009200001010101010101010101010101010101B7
:100930000101010101010101010D02090101010192
:100940000101010101100D0F02020202020C0E0052
:100950000000000000000000000000000000000097
:100960000000000000000000000000000000000087
:100970000000000000000000000000000000000077
:100980000000000000000000000000000000000067
:100990000000000000000000000000000000000057
:1009A000000000000000000E0702020202020B0815
:1009B0000000000000000000000000000802070026
:1009C0000000000000000000000000000000000027
:1009D000000000000000000000000000000007020E
:1009E00009010101010101010101010101010101EF
:1009F00001010101010101010101010101010101E7
:100A000001020210010101010101010101010101C5
:100A1000100D02020202020B0A000000000000009A
:100A200000000000000000000000000000000000C6
:100A300000000000000000000000000000000000B6
:100A400000000000000000000000000000000000A6
:100A50000000000000000000000000000000000096
:100A600000000000000000000000000000080B0271
:100A7000020202060C050000000000000000000059
:100A8000000000000502020000000000000000005D
:100A90000000000000000000000000000000000056
:100AA000000000000000070209010101010101012D
:100AB0000101010101010101010101010101010126
:100AC000010101010101010110020F0101010101F8
:100AD0000101010101010101010101090F020202ED
:100AE00002060A05000000000000000000000000EF
:100AF00000000000000000000000000000000000F6
:100B000000000000000000000000000000000000E5
:100B100000000000000000000000000000000000D5
:100B200000000000000000000000000000000000C5
:100B30000000000A06020202020B0800000000008A
:100B40000000000000000000000000000006020E8F
:100B50000000000000000000000000000000000095
:100B6000000000000000000000000000000007027C
:100B7000090101010101010101010101010101015D
:100B80000101010101010101010101010101010155
:100B900009020D0101010101010101010101010130
:100BA0000101010101100D02020202020C05000008
:100BB0000000000000000000000000000000000035
:100BC0000000000000000000000000000000000025
:100BD0000000000000000000000000000000000015
:100BE0000000000000000000000000000000000005
:100BF0000000000000000000000A060202020207D6
:100C00000E000000000000000000000000000000D6
:100C1000000000000007020A0000000000000000C1
:100C200000000000000000000000000000000000C4
:100C3000000000000000070209010101010101019B
:100C40000101010101010101010101010101010194
:100C500001010101010101010D020901010101016F
:100C60000101010101010101010101010101011065
:100C70000D0F020202020C0500000000000000003F
:100C80000000000000000000000000000000000064
:100C90000000000000000000000000000000000054
:100CA0000000000000000000000000000000000044
:100CB0000000000000000000000000000000000A2A
:100CC00006020202020C0500000000000000000005
:100CD0000000000000000000000000000008020703
:100CE0000000000000000000000000000000000004
:100CF00000000000000000000000000000000702EB
:100D000009010101010101010101010101010101CB
:100D100001010101010101010101010101010101C3
:100D200002021001010101010101010101010101A2
:100D300001010101010101010101090F0202020289
:100D40000C05000000000000000000000000000092
:100D50000000000000000000000000000000000093
:100D60000000000000000000000000000000000083
:100D70000000000000000000000000000000000073
:100D800000000000000A06020202020C050000003A
:100D90000000000000000000000000000000000053
:100DA000000000000005020200000000000000003A
:100DB0000000000000000000000000000000000033
:100DC000000000000000070209010101010101010A
:100DD0000101010101010101010101010101010103
:100DE0000101010101010110020F010101010101D5
:100DF00001010101010101010101010101010101E3
:100E000001010101090F020202020C0500000000AD
:100E100000000000000000000000000000000000D2
:100E200000000000000000000000000000000000C2
:100E300000000000000000000000000000000000B2
:100E400000000000000000000000000E0B02020283
:100E5000020C05000000000000000000000000007F
:100E6000000000000000000000000000000006027A
:100E70000E00000000000000000000000000000064
:100E80000000000000000000000000000000070259
:100E9000090101010101010101010101010101013A
:100EA000010101010101010101010101010101092A
:100EB000020D010101010101010101010101010115
:100EC0000101010101010101010101010101090FFC
:100ED000020202060A0000000000000000000000FC
:100EE0000000000000000000000000000000000002
:100EF00000000000000000000000000000000000F2
:100F000000000000000000000000000000000000E1
:100F100000050B020202020C0500000000000000A8
:100F200000000000000000000000000000000000C1
:100F300000000000000007020A000000000000009E
:100F400000000000000000000000000000000000A1
:100F50000000000000000702090101010101010178
:100F60000101010101010101010101010101010171
:100F7000010101010101010D02090101010101014C
:100F80000101010101010101010101010101010151
:100F90000101010101010101090F0202020608001D
:100FA0000000000000000000000000000000000041
:100FB0000000000000000000000000000000000031
:100FC0000000000000000000000000000000000021
:100FD00000000000000000000C02020202070500F1
:100FE0000000000000000000000000000000000001
:100FF00000000000000000000000000000000802E7
:1010000007000000000000000000000000000000D9
:1010100000000000000000000000000000000702C7
:1010200009010101010101010101010101010101A8
:10103000010101010101010101010101010101029F
:101040000210010101010101010101010101010180
:101050000101010101010101010101010101010180
:10106000010109020202020B05000000000000005D
:101070000000000000000000000000000000000070
:101080000000000000000000000000000000000060
:101090000000000000000000000000000000080642
:1010A000020202150E000000000000000000000017
:1010B0000000000000000000000000000000000030
:1010C0000000000000000502020000000000000017
:1010D0000000000000000000000000000000000010
:1010E00000000000000007020901010101010101E7
:1010F00001010101010101010101010101010101E0
:1011000001010101010110020F01010101010101B1
:1011100001010101010101010101010101010101BF
:101120000101010101010101010101190202020293
:10113000020C0000000000000000000000000000A1
:10114000000000000000000000000000000000009F
:10115000000000000000000000000000000000008F
:1011600000000000050B0202020602060500000056
:10117000000000000000000000000000000000006F
:101180000000000000000000000000000000000659
:10119000020E00000000000000000000000000003F
:1011A0000000000000000000000000000000070236
:1011B0000901010101010101010101010101010117
:1011C0000101010101010101010101010101090206
:1011D0000D010101010101010101010101010101F3
:1011E00001010101010101010101010101010101EF
:1011F0000101010D021A130202020608000000009C
:1012000000000000000000000000000000000000DE
:1012100000000000000000000000000000000000CE
:1012200000000000000000000000000A02020202AC
:101230000C0007020C00000000000000000000008D
:10124000000000000000000000000000000000009E
:101250000000000000000007020A0000000000007B
:10126000000000000000000000000000000000007E
:101270000000000000000702090101010101010155
:10128000010101010101010101010101010101014E
:101290000101010101010D02090101010101010129
:1012A000010101010101010101010101010101012E
:1012B0000101010101010101010110020F120314DA
:1012C00013020202070500000000000000000000F9
:1012D000000000000000000000000000000000000E
:1012E00000000000000000000000000000000000FE
:1012F00000050B0202020B0E00000502020E0000A8
:1013000000000000000000000000000000000000DD
:1013100000000000000000000000000000000008C5
:1013200002070000000000000000000000000000B4
:1013300000000000000000000000000000000702A4
:101340000901010101010101010101010101010185
:10135000010101010101010101010101010102027B
:10136000100101010101010101010101010101015E
:10137000010101010101010101010101010101015D
:1013800001010F02140303031211020202060800F6
:10139000000000000000000000000000000000004D
:1013A000000000000000000000000000000000003D
:1013B00000000000000000000A020202020A000011
:1013C0000000000A020B0000000000000000000006
:1013D000000000000000000000000000000000000D
:1013E00000000000000000050202000000000000F4
:1013F00000000000000000000000000000000000ED
:1014000000000000000007020901010101010101C3
:1014100001010101010101010101010101010101BC
:10142000010101010110020F01010101010101018E
:10143000010101010101010101010101010101019C
:1014400001010101010101010109020B0303030371
:10145000030312130202020705000000000000004F
:10146000000000000000000000000000000000007C
:101470000000000000000000000000000000050B5C
:101480000202020B050000000000000006020A0034
:10149000000000000000000000000000000000004C
:1014A000000000000000000000000000000000003C
:1014B00006020E0000000000000000000000000016
:1014C0000000000000000000000000000000070213
:1014D00009010101010101010101010101010101F4
:1014E0000101010101010101010101010109020DD7
:1014F00001010101010101010101010101010101DC
:1015000001010101010101010101010101010101CB
:101510001002021203030303030303031102020276
:1015200006080000000000000000000000000000AD
:1015300000000000000000000000000000000000AB
:10154000000000000008020202020A000000000081
:10155000000000000E020605000000000000000070
:10156000000000000000000000000000000000007B
:10157000000000000000000007020A000000000058
:10158000000000000000000000000000000000005B
:101590000000000000000702090101010101010132
:1015A000010101010101010101010101010101012B
:1015B00001010101010D0209010101010101010106
:1015C000010101010101010101010101010101010B
:1015D00001010101010101010D02110303030303D4
:1015E00003030303031213020202070000000000BA
:1015F00000000000000000000000000000000000EB
:1016000000000000000000000000000007020202CD
:101610000B05000000000000000000000007020CA5
:1016200000000000000000000000000000000000BA
:1016300000000000000000000000000000000000AA
:101640000802070000000000000000000000000089
:101650000000000000000000000000000000070281
:101660000901010101010101010101010101010162
:101670000101010101010101010101010102021049
:10168000010101010101010101010101010101014A
:10169000010101010101010101010101010101102B
:1016A000020F1203030303030303030303030311E2
:1016B0000202020605000000000000000000000019
:1016C000000000000000000000000000000000001A
:1016D000000005060202020C0000000000000000ED
:1016E00000000000000502020E00000000000000E3
:1016F00000000000000000000000000000000000EA
:1017000000000000000000000502020000000000D0
:1017100000000000000000000000000000000000C9
:1017200000000000000007020901010101010101A0
:101730000101010101010101010101010101010199
:101740000101010110020F0101010101010101016B
:101750000101010101010101010101010101010179
:10176000010101010101010F021603030303030339
:10177000030303030303030314130202020800001C
:101780000000000000000000000000000000000059
:1017900000000000000000000008020202060E0027
:1017A00000000000000000000000000000000A022D
:1017B0000B0000000000000000000000000000001E
:1017C0000000000000000000000000000000000019
:1017D0000006020E000000000000000000000000F3
:1017E00000000000000000000000000000000702F0
:1017F00009010101010101010101010101010101D1
:1018000001010101010101010101010109020D01B3
:1018100001010101010101010101010101010101B8
:10182000010101010101010101010101010109029F
:101830000B03030303030303030303030303030370
:101840000312110202020700000000000000000065
:101850000000000000000000000000000000000088
:10186000070202020705000000000000000000005F
:101870000000000000000006020A00000000000056
:101880000000000000000000000000000000000058
:1018900000000000000000000007020A0000000035
:1018A0000000000000000000000008080A07070709
:1018B0000B02020202020202020202020202020FF2
:1018C0000D0D0D0D090910010101010101010101B9
:1018D000010101010D0209010101010101010101E3
:1018E00001010101010101010101010101010101E8
:1018F00001010101011002021203030303030303A8
:101900000303030303030303030303140202020696
:1019100005000000000000000000000000000000C2
:10192000000000000000050B0202020C0000000095
:101930000000000000000000000000000000000E99
:10194000020605000000000000000000000000008A
:101950000000000000000000000000000000000087
:10196000000802070000000000000005080C070B3B
:101970000202020202020202020202020202020247
:101980000202020202020202020202020202020237
:101990000F0D0D09100101010101010102021001E9
:1019A0000101010101010101010101010101010127
:1019B000010101010101010101010101010D0211FA
:1019C00003030303030303030303030303030303E7
:1019D00003030303141302020608000000000000C2
:1019E00000000000000000000000000000050602EA
:1019F00002060800000000000000000000000000D7
:101A0000000000000000000007020C0000000000C1
:101A100000000000000000000000000000000000C6
:101A200000000000000000000005020200000008A5
:101A30000C07020202020202020202020202020772
:101A4000070707070A08080817080808070707070D
:101A500007060202020202020202020202020F0D45
:101A600009100110020F0101010101010101010131
:101A70000101010101010101010101010101010156
:101A80000101010110020F12030303030303030307
:101A900003030303030303030303030303121302F8
:101AA000020208000000000000000000000000002A
:101AB000000000000802020206050000000000000D
:101AC0000000000000000000000000000000000016
:101AD0000502020E000000000000000000000000EF
:101AE00000000000000000000000000000000000F6
:101AF000000015020B0602020202020202020207A5
:101B0000070A080E000000000000000000000000AE
:101B100000000000000000000000000005080807A9
:101B2000070602020202020202020215020B010172
:101B30000101010101010101010101010101010195
:101B40000101010101010101010101010F0216035F
:101B50000303030303030303030303030303030355
:101B60000303030303030311020202070000000042
:101B70000000000000000000000000080202020750
:101B80000500000000000000000000000000000050
:101B90000000000000000000000A020B000000002E
:101BA0000000000000000000000000000000000035
:101BB000000000000000000E0A0B020202020202F6
:101BC0000206070A080000000000000000000000F4
:101BD0000000000000000000000000000000000005
:101BE00000000000000000000000000E08070B02CB
:101BF0000202020202020F0D0901010101010101AD
:101C000001010101010101010101010101010101C4
:101C100001010109020B030303030303030303038D
:101C20000303030303030303030303030303030384
:101C30001402020207000000000000000000000083
:101C40000000070202020700000000000000000080
:101C50000000000000000000000000000000000084
:101C6000000006020A000000000000000000000062
:101C70000000000000000000000000000E0C060242
:101C800002020202020B0C08050000000000000026
:101C90000000000000000000000000000000000044
:101CA0000000000000000000000000000000000034
:101CB0000000000000000000080A07020202020201
:101CC00002020D09010101010101010101010101EE
:101CD00001010101010101010101100202180303C8
:101CE00003030303030303030303030303030303C4
:101CF00003030303030303030314020202060500A4
:101D000000000000000000000007020202080000BE
:101D100000000000000000000000000000000000C3
:101D2000000000000000000000000E020605000098
:101D300000000000000000000000000000000000A3
:101D400000050C0602020202020607080500000058
:101D50000000000000000000000000000000000083
:101D60000000000000000000000000000000000073
:101D70000000000000000000000000000000000063
:101D800000000000080C0B0202020202020D10010A
:101D90000101010101010101010101010101010133
:101DA00001010D020D0303030303030303030303F4
:101DB00003030303030303030303030303030303F3
:101DC00003031213020206050000000000000000D9
:101DD00007020202080000000000000000000000EE
:101DE00000000000000000000000000000000000F3
:101DF00000000007020C00000000000000000000CE
:101E0000000000000000000A0B0202020202060CA1
:101E10000E000000000000000000000000000000B4
:101E200000000000000000000000000004040404A2
:101E3000040000000000000000000000000000009E
:101E4000000000000000000000000000000000058D
:101E50000A0B02020202020F0D1001010101010131
:101E600001010101010101010110020F120303032D
:101E70000303030303030303030303030303030332
:101E80000303030303030303030303121302020602
:101E9000050000000000050B02020608000000001B
:101EA0000000000000000000000000000000000032
:101EB00000000000000000000000000502020E000B
:101EC000000000000000000000000000050C0202FD
:101ED000020202060C0E00000000000000000000DC
:101EE00000000000000000000000000000000000F2
:101EF00000000004040000000404000000000000D2
:101F000000000000000000000000000000000000D1
:101F100000000000000000000000050A0B020202A1
:101F200002020F1001010101010101010101010182
:101F3000010F021603030303030303030303030355
:101F40000303030303030303030303030303030361
:101F50000303030312130202060800000005060231
:101F60000206050000000000000000000000000064
:101F70000000000000000000000000000000000061
:101F8000000000000A020B0000000000000000003A
:101F900000000E0B0202020202070E000000000009
:101FA0000000000000000000000000000000000031
:101FB0000000000000000000000000000000000021
:101FC0000404000000000000000000000000000009
:101FD0000000000000000000000000000000000001
:101FE0000000000000050C06020202020F090101B8
:101FF000010101010101010109020F0303030303B0
:1020000003030303030303030303030303030303A0
:102010000303030303030303030303030303110283
:10202000020208000506020206050000000000008A
:1020300000000000000000000000000000000000A0
:102040000000000000000000000000000006020A7E
:1020500000000000000000000A0B02020202060A53
:102060000500000000000000000000040404040457
:102070000000000000000000000000000000000060
:102080000000000000040404040000000000000040
:102090000000000000000000000000000000000040
:1020A0000404040000000000000000000000000024
:1020B000080B020202020F0D1001010101010110C3
:1020C00002021803030303030303030303030303CD
:1020D00003030303030303030303030303030303D0
:1020E0000303030303030311020202080B020206A7
:1020F00005000000000000000000000000000000DB
:1021000000000000000000000000000000000000CF
:1021100000000000000E02060500000000000A0694
:10212000020202020B0E000000000000000000008E
:10213000000004040000000404000000000000008F
:10214000000000000000000000000000000000008F
:102150000404000000000000000000000000000077
:10216000000000000000000404040400000000005F
:1021700000000000000000000000050C0202020246
:10218000020D10010101010D020D030303030303FE
:10219000030303030303030303030303030303030F
:1021A00003030303030303030303030303030303FF
:1021B000110202060202021B0000000000000000E3
:1021C000000000000000000000000000000000000F
:1021D00000000000000000000000000000000702F6
:1021E0000C0000000A06020202020C0500000000BA
:1021F00000000000000000000000000000000004DB
:1022000004000000000000000000000000000000CA
:1022100000000004040000000404000000000000AE
:1022200000000000000000000000000000000404A6
:102230000004040000000000000000000000000096
:1022400000000000000A06020202020D1001100246
:102250000F12030303030303030303030303030333
:10226000030303030303030303030303030303033E
:102270000303030303030303110202170506020607
:102280000500000000000000000000000000000049
:10229000000000000000000000000000000000003E
:1022A0000000000000000502020E0E0B02020202F6
:1022B0000C0500000000000000000000000000000D
:1022C0000000000000040404000000000000000002
:1022D00000000000000000000000000004040404EE
:1022E00004000000000000000000000000000000EA
:1022F00000000000000404000004040000000000CE
:102300000000000000000000000000000000000AC3
:10231000060202020F090F0216030303030303035D
:10232000030303030303030303030303030303037D
:10233000030303030303030303030303030303115F
:10234000020217000005060206050000000000005A
:10235000000000000000000000000000000000007D
:102360000000000000000000000000000000000A63
:102370000202020202020C05000000000000000040
:102380000000000000000000000000000404000045
:10239000000000000000000000000000000000003D
:1023A000000000000000000000000000000000002D
:1023B0000000000000000000000000000004040411
:1023C00004040404000000000000000000000000FD
:1023D0000000000000000000000A06020202020FD6
:1023E00003030303030303030303030303030303BD
:1023F00003030303030303030303030303030303AD
:102400000303030303031102020800000000050692
:1024100002060500000000000000000000000000AF
:1024200000000000000000000000000000000000AC
:10243000000000000000050C020202020705000077
:10244000000000000000000000000000000000008C
:10245000000000040400000404000000000000006C
:10246000000000000000000000000000000000006C
:10247000000000000000000000000000000000005C
:102480000000000000000000000404000000000044
:10249000000000000000000000000000000000003C
:1024A0000000000A020202021312030303030303E3
:1024B00003030303030303030303030303030303EC
:1024C00003030303030303030303030303110202D0
:1024D00008000000000000050602060500000000DC
:1024E00000000000000000000000000000000000EC
:1024F00000000000000000000000000000080602CC
:1025000002020B0E000000000000000000000000AE
:1025100000000000000000000000040404040404A3
:1025200004000000000000000000000000000000A7
:10253000000000000000000000000000000000009B
:10254000000000000000000000000000000000008B
:10255000040404040000000000000000000000006B
:10256000000000000000000000000000050C020256
:10257000020211030303030303030303030303031F
:10258000030303030303030303030303030303031B
:102590000303030311020208000000000000000012
:1025A0000506020605000000000000000000000013
:1025B000000000000000000000000000000000001B
:1025C000000000050B0202020608000000000000E7
:1025D00000000000000000000000000000000000FB
:1025E00000000000000000000000000000000000EB
:1025F00000000000000000000000000000000000DB
:1026000000000000000000000000000000000000CA
:1026100000000000000000000000000000000000BA
:1026200000000000000000000000000000000000AA
:10263000000000000000050B020202131403030354
:10264000030303030303030303030303030303035A
:10265000030303030303030303030311020208003C
:102660000000000000000000000506020605000052
:10267000000000000000000000000000000000005A
:10268000000000000000000000000A020202020C2C
:10269000000000000000000000000000000000003A
:1026A000000000000000000000000000000000002A
:1026B000000000000000000000000000000000001A
:1026C000000000000000000000000000000000000A
:1026D00000000000000000000000000000000000FA
:1026E00000000000000000000000000000000000EA
:1026F00000000000000000000000000000000000DA
:102700000806020202111203030303030303030377
:102710000303030303030303030303030303030389
:102720000303110202080000000000000000000086
:102730000000050602060500000000000000000081
:102740000000000000000000000000000000000089
:10275000050B0202020B0E0000000000000000004A
:102760000000000000000000000000000000000069
:102770000000000000000000000000000000000059
:102780000000000000000000000000000000000049
:102790000000000000000000000000000000000039
:1027A0000000000000000000000000000000000029
:1027B0000000000000000000000000000000000019
:1027C000000000000000000000050C0202021314CB
:1027D00003030303030303030303030303030303C9
:1027E00003030303030303030311020208000000B1
:1027F00000000000000000000000000506020605C1
:1028000000000000000000000000000000000000C8
:102810000000000000000008060202020A0000009A
:1028200000000000000404000000000000000000A0
:102830000000000000000000000000000000000098
:102840000000000000000000000000000000000088
:102850000000000000000000000000000000000078
:102860000000000000000000000000000000000068
:102870000000000000000000000000000000000058
:10288000000000000004040404040404000000002C
:102890000000000E060202021103030303030303F8
:1028A00003030303030303030303030303030303F8
:1028B00011020208000000000000000000000000FB
:1028C00000000000050602060500000000000000F0
:1028D00000000000000000000000000000000702EF
:1028E00002020B05000000000000000004040400C8
:1028F00000000000000000000000000000000000D8
:1029000000000000000000000000000000000000C7
:1029100000000000000000000000000000000000B7
:1029200000000000000000000000000000000000A7
:102930000000000000000000000000000000000097
:10294000000000000000000000000000000404007F
:10295000000000000000000000000000000C020267
:102960000213120303030303030303030303030319
:102970000303030303030311020208000000000025
:10298000000000000000000000000000000506023A
:10299000060500000000000000000000000000002C
:1029A0000000000005060202020C0000000000000A
:1029B000000000000004040000000000000000000F
:1029C0000000000000000000000000000000000007
:1029D00000000000000000000000000000000000F7
:1029E00000000000000000000000000000000000E7
:1029F00000000000000000000000000000000000D7
:102A000000000000000000000000000000000000C6
:102A100000000000000404000000000000000000AE
:102A20000000000000000806020202140303030372
:102A30000303030303030303030303030303110259
:102A4000020800000000000000000000000000007C
:102A5000000000000000050602060500000000005E
:102A60000000000000000000000000080202020652
:102A70000E00000000000000000000000004040040
:102A80000000000000000000000000000000000046
:102A90000000000000000000000000000000000036
:102AA0000000000000000000000000000000000026
:102AB0000000000000000000000000000000000016
:102AC0000000000000000000000000000000000006
:102AD00000000000000000000000000000040404EA
:102AE00004040400000000000000000000000005D5
:102AF0000702020211030303030303030303030397
:102B00000303030303110202080000000000000099
:102B100000000000000000000000000000000005B0
:102B20000602060500000000000000000000000092
:102B3000000007020202070500000000000000007C
:102B4000000000000004040000000000000000007D
:102B50000000000000000000000000000000000075
:102B60000000000000000000000000000000000065
:102B70000000000000000000000000000000000055
:102B80000000000000000000000000000000000045
:102B90000000000000000000000000000000000035
:102BA000000000000000000000000404000000001D
:102BB0000000000000000000000A020202131203DD
:102BC00003030303030303030303030311020208C4
:102BD00000000000000000000000000000000000F5
:102BE00000000000000000000506020605000000CD
:102BF000000000000000000005070202020C0000B7
:102C000000000000000000000000000000040400BC
:102C100000000000000000000000000000000000B4
:102C200000000000000000000000000000000000A4
:102C30000000000000000000000000000000000094
:102C40000000000000000000000000000000000084
:102C50000000000000000000000000000000000074
:102C6000000000000000000000000000000404005C
:102C7000000004040000000000000000000000004C
:102C800000000806020213120303030303030303F5
:102C9000030303110202080000000000000000000E
:102CA0000000000000000000000000000000000024
:102CB00000050602060500000000000000000005F7
:102CC00006020202080000000000000000000000F0
:102CD00000000004040404040400000000000000DC
:102CE00000000000000000000000000000000000E4
:102CF00000000000000000000000000000000000D4
:102D000000000000000000000000000000000000C3
:102D100000000000000000000000000000000000B3
:102D200000000000000000000000000000000000A3
:102D3000000000000000040404040400000000007F
:102D40000000000000000000000000050602020272
:102D50001403030303030303030311020208000027
:102D60000000000000000000000000000000000063
:102D7000000000000000000000000506020605003B
:102D80000000000000000E06020206050000000020
:102D90000000000000000000000000000000000033
:102DA0000000000000000000000000000000000023
:102DB0000000000000000000000000000000000013
:102DC0000000000000000000000000000000000003
:102DD00000000000000000000000000000000000F3
:102DE00000000000000000000000000000000000E3
:102DF00000000000000000000000000000000000D3
:102E000000000000000000000000000000000000C2
:102E1000000000000007020202140303030303037F
:102E20000311020208000000000000000000000082
:102E30000000000000000000000000000000000092
:102E4000000000050602060500000000000802025E
:102E5000020B050000000000000000000000000060
:102E60000000000000000000000000000000000062
:102E70000000000000000000000000000000000052
:102E80000000000000000000000000000000000042
:102E90000000000000000000000000000000000032
:102EA0000000000000000000000000000000000022
:102EB0000000000000000000000000000000000012
:102EC0000000000000000000000000000000000002
:102ED00000000000000000000000000000000C02E4
:102EE00002021103030303031102020800000000A1
:102EF00000000000000000000000000000000000D2
:102F000000000000000000000000000005060206AE
:102F10000500000008020202070000000000000097
:102F200000000000000000000000000000000000A1
:102F30000000000000000000000000000000000091
:102F40000000000000000000000000000000000081
:102F50000000000000000000000000000000000071
:102F60000000000000000000000000000000000061
:102F70000000000000000000000000000000000051
:102F80000000000000000000000000000000000041
:102F90000000000000000000000000000000000031
:102FA00000000000000000080202021103030311E8
:102FB0000202080000000000000000000000000005
:102FC0000000000000000000000000000000000001
:102FD00000000000000506020605000802020207C4
:102FE00000000000000000000000000000000000E1
:102FF00000000000000000000000000000000000D1
:1030000000000000000000000000000000000000C0
:1030100000000000000000000000000000000000B0
:1030200000000000000000000000000000000000A0
:103030000000000000000000000000000000000090
:103040000000000000000000000000000000000080
:103050000000000000000000000000000000000070
:103060000000000000000000000000000000000060
:103070000802020211031102020800000000000011
:103080000000000000000000000000000000000040
:103090000000000000000000000000000000050625
:1030A0000206170202020A000000000000000000F1
:1030B0000000000000000000000000000000000010
:1030C0000000000000000000000000000000000000
:1030D00000000000000000000000000000000000F0
:1030E00000000000000000000000000000000000E0
:1030F00000000000000000000000000000000000D0
:1031000000000000000000000000000000000000BF
:1031100000000000000000000000000000000000AF
:10312000000000000000000000000000000000009F
:103130000000000000000000000E06020213020260
:103140000800000000000000000000000000000077
:10315000000000000000000000000000000000006F
:103160000000000000000005060202020208000044
:10317000000000000000000000000000000000004F
:10318000000000000000000000000000000000003F
:10319000000000000000000000000000000000002F
:1031A000000000000000000000000000000000001F
:1031B000000000000000000000000000000000000F
:1031C00000000000000000000000000000000000FF
:1031D00000000000000000000000000000000000EF
:1031E00000000000000000000000000000000000DF
:1031F00000000000000000000000000000000000CF
:1032000000000506020202080000000000000000A5
:1032100000000000000000000000000000000000AE
:10322000000000000000000000000000000000009E
:10323000050202020800000000000000000000007B
:10324000000000000000000000000000000000007E
:10325000000000000000000000000000000000006E
:10326000000000000000000000000000000000005E
:10327000000000000000000000000000000000004E
:10328000000000000000000000000000000000003E
:10329000000000000000000000000000000000002E
:1032A000000000000000000000000000000000001E
:1032B000000000000000000000000000000000000E
:1032C00000000000000000000000000502021C00D9
:1032D00000000000000000000000000000000000EE
:1032E00000000000000000000000000000000000DE
:1032F00000000000000000000000000E00000000C0
:1033000000000000000000000000000000000000BD
:1033100000000000000000000000000000000000AD
:10332000000000000000000000000000000000009D
:10333000000000000000000000000000000000008D
:10334000000000000000000000000000000000007D
:10335000000000000000000000000000000000006D
:10336000000000000000000000000000000000005D
:10337000000000000000000000000000000000004D
:10338000000000000000000000000000000000003D
:103390000000000005050000000000000000000023
:1033A000000000000000000000000000000000001D
:1033B000000000000000000000000000000000000D
:1033C00000000000000000000000000000000000FD
:1033D00000000000000000000000000000000000ED
:1033E00000000000000000000000000000000000DD
:1033F00000000000000000000000000000000000CD
:1034000000000000000000000000000000000000BC
:1034100000000000000000000000000000000000AC
:10342000000000000000000000000000000000009C
:10343000000000000000000000000000000000008C
:10344000000000000000000000000000000000007C
:10345000000000000000000000000000000000006C
:10346000000000000000000000000000000000005C
:10347000000000000000000000000000000000004C
:103480000000000000000000000000000000000438
:103490000404000000000000000000000000000024
:1034A000000000000000000000000000000000001C
:1034B000000000000000000000000000000000000C
:1034C00000000000000000000000000000000000FC
:1034D00000000000000000000000000000000000EC
:1034E00000000000000000000000000000000000DC
:1034F00000000000000000000000000000000000CC
:1035000000000000000000000000000000000000BB
:10351000000000000000000000000000040404009F
:10352000000000000000000000000000000000009B
:10353000000000000000000000000000000000008B
:10354000000000000000000000000000000000007B
:10355000000000000000040400040400000000005B
:10356000000000000000000000000000000000005B
:10357000000000000000000000000000000000004B
:10358000000000000000000000000000000000003B
:10359000000000000000000000000000000000002B
:1035A000000000000000000000000000000000001B
:1035B000000000000000000000000000000000000B
:1035C00000000000000000000000000000000000FB
:1035D00000000000000000000000000000000000EB
:1035E00000000004040000000000000000000000D3
:1035F00000000000000000000000000000000000CB
:1036000000000000000000000000000000000000BA
:1036100000000000000000000000000000040400A2
:103620000000040400000000000000000000000092
:10363000000000000000000000000000000000008A
:10364000000000000000000000000000000000007A
:10365000000000000000000000000000000000006A
:10366000000000000000000000000000000000005A
:10367000000000000000000000000000000000004A
:10368000000000000000000000000000000000003A
:10369000000000000000000000000000000000002A
:1036A0000000000000000000000004040000000012
:1036B000000000000000000000000000000000000A
:1036C00000000000000000000000000000000000FA
:1036D00000000000000000000000000000000000EA
:1036E00000000000000404000000040400000000CA
:1036F00000000000000000000000000000000000CA
:1037000000000000000000000000000000000000B9
:1037100000000000000000000000000000000000A9
:103720000000000000000000000000000000000099
:103730000000000000000000000000000000000089
:103740000000000000000000000000000000000079
:103750000000000000000000000000000000000069
:103760000000000000000000000000000000000059
:103770000000040404040404000000000000000031
:103780000000000000000000000000000000000039
:103790000000000000000000000000000000000029
:1037A0000000000000000000000000000004040011
:1037B0000000040400000000000000000000000001
:1037C00000000000000000000000000000000000F9
:1037D00000000000000000000000000000000000E9
:1037E00000000000000000000000000000000000D9
:1037F00000000000000000000000000000000000C9
:1038000000000000000000000000000000000000B8
:1038100000000000000000000000000000000000A8
:103820000000000000000000000000000000000098
:10383000000000000000000000000404000000047C
:103840000400000000000000000000000000000074
:103850000000000000000000000000000000000068
:103860000000000000000000000000000000000058
:103870000000000000000404000404000000000038
:103880000000000000000000000000000000000038
:103890000000000000000000000000000000000028
:1038A0000000000000000000000000000000000018
:1038B0000000000000000000000000000000000008
:1038C00000000000000000000000000000000000F8
:1038D00000000000000000000000000000000000E8
:1038E00000000000000000000000000000000000D8
:1038F00000000000000000000000000000000000C8
:1039000000000404000000040400000000000000A7
:1039100000000000000000000000000000000000A7
:103920000000000000000000000000000000000097
:103930000000000000000000000000000000000483
:10394000040400000000000000000000000000006F
:103950000000000000000000000000000000000067
:103960000000000000000000000000000000000057
:103970000000000000000000000000000000000047
:103980000000000000000000000000000000000037
:103990000000000000000000000000000000000027
:1039A0000000000000000000000000000000000017
:1039B0000000000000000000000000000000000007
:1039C00000000000000000000000000404040404E3
:1039D00000000000000000000000000000000000E7
:1039E000000000000000000000000000000008428D
:1039F0002A4402020202020202020202020202023D
:103A00000202020202020202020202020202020296
:103A10000202020202020202020202020202020286
:103A20000202020202020202020202020202020276
:103A30000202020202020202020202020202020266
:103A40000202020202020202020202020202020256
:103A50000202020202020202020202020202020246
:103A60000202020202020202020202020202020236
:103A70000202442A42420000007E2A02020202029E
:103A80000202020202020202020202020202020216
:103A90000202020202020202020202020202020206
:103AA00002020202020202020202020202020202F6
:103AB00002020202020202020202020202020202E6
:103AC00002020202020202020202020202020202D6
:103AD00002020202020202020202020202020202C6
:103AE00002020202020202020202020202020202B6
:103AF00002020202020202020202020202020202A6
:103B000002347F00082902020202020202020202BB
:103B10000202020202020202020202020202020285
:103B20000202020202020202020202020202020275
:103B30000202020202020202020202020202020265
:103B40000202020202020202020202020202020255
:103B50000202020202020202020202020202020245
:103B60000202020202020202020202020202020235
:103B70000202020202020202020202020202020225
:103B800002020202020202020202020202022908E8
:103B9000C302020202020202020202020202020244
:103BA00002020202020202020202020202020202F5
:103BB00002020202020202020202020202020202E5
:103BC00002020202020202020202020202020202D5
:103BD00002020202020202020202020202020202C5
:103BE00002020202020202020202020202020202B5
:103BF00002020202020202020202020202020202A5
:103C00000202020202020202020202020202020294
:103C10000202020202020202020202C4290202029B
:103C2000463C0404040404040404040404040404DA
:103C30000404040404040404040404040404040444
:103C40000404040404040404040404040404040434
:103C50000404040404040404040404040404040424
:103C60000404040404040404040404040404040414
:103C70000404040404040404040404040404040404
:103C800004040404040404040404040404040404F4
:103C900004040404040404040404040404040404E4
:103CA00004043C460202022943020202A701010168
:103CB00001010101010101010101010101010101F4
:103CC00001010101010101010101010101010101E4
:103CD00001010101010101010101010101010101D4
:103CE00001010101010101010101010101010101C4
:103CF00001010101010101010101010101010101B4
:103D000001010101010101010101010101010101A3
:103D10000101010101010101010101010101010193
:103D2000010101010101010101010101010101760E
:103D30000202024302020202070101010101010124
:103D40000101010101010101010101010101010163
:103D50000101010101010101010101010101010153
:103D60000101010101010101010101010101010143
:103D70000101010101010101010101010101010133
:103D80000101010101010101010101010101010123
:103D90000101010101010101010101010101010113
:103DA0000101010101010101010101010101010103
:103DB00001010101010101010101010702020202E9
:103DC00002020202070101010101010101010101D9
:103DD00001010101010101010101010101010101D3
:103DE00001010101010101010101010101010101C3
:103DF00001010101010101010101010101010101B3
:103E000001010101010101010101010101010101A2
:103E10000101010101010101010101010101010192
:103E20000101010101010101010101010101010182
:103E30000101010101010101010101010101010172
:103E40000101010101010107020202020202020254
:103E5000070101010101010101010101010101014C
:103E60000101010101010101010101010101010142
:103E70000101010101010101010101010101010132
:103E80000101010101010101010101010101010122
:103E90000101010101010101010101010101010112
:103EA0000101010101010101010101010101010102
:103EB00001010101010101010101010101010101F2
:103EC00001010101010101010101010101010101E2
:103ED00001010107020202020202020207010101BE
:103EE00001010101010101010101010101010101C2
:103EF00001010101010101010101010101010101B2
:103F000001010101010101010101010101010101A1
:103F10000101010101010101010101010101010191
:103F20000101010101010101010101010101010181
:103F30000101010101010101010101010101010171
:103F40000101010101010101010101010101010161
:103F5000010101010101010101010101010101074B
:103F6000020202020202020207010101B14C2357C0
:103F700001010101010101015A382F26010101014E
:103F80000101010101010101010101010101010121
:103F90000101010101010101010101010101010111
:103FA0000101010101010101010101010101010101
:103FB00001010101010101010101010101010101F1
:103FC00001010101010101010101010101010101E1
:103FD00001010101010101010101010101010101D1
:103FE00001010101010101010101010702020202B7
:103FF00002020202070101BF1A03032F320101016D
:104000000101010198030303AB0101010101010159
:104010000101010101010101010101010101010190
:104020000101010101010101010101010101010180
:104030000101010101010101010101010101010170
:104040000101010101010101010101010101010160
:104050000101010101010101010101010101010150
:104060000101010101010101010101010101010140
:104070000101010101010107020202020202020222
:10408000070101321503030392010101010101013E
:10409000940303031A7C01010101010101010101E3
:1040A0000101010101010101010101010101010100
:1040B00001010101010101010101010101010101F0
:1040C00001010101010101010101010101010101E0
:1040D00001010101010101010101010101010101D0
:1040E00001010101010101010101010101010101C0
:1040F00001010101010101010101010101010101B0
:10410000010101070202020202020202070101018B
:104110009A030303033B010101010101B98A03036F
:10412000038C3201010101010101010101010101C1
:10413000010101010101010101010101010101016F
:10414000010101010101010101010101010101015F
:10415000010101010101010101010101010101014F
:10416000010101010101010101010101010101013F
:10417000010101010101010101010101010101012F
:104180000101010101010101010101010101010719
:1041900002020202020202020701010111240303CA
:1041A000031540010101010101AF030303033812AC
:1041B00001010101010101010101010101010101EF
:1041C00001010101010101010101010101010101DF
:1041D00001010101010101010101010101010101CF
:1041E00001010101010101010101010101010101BF
:1041F00001010101010101010101010101010101AF
:10420000010101010101010101010101010101019E
:104210000101010101010101010101070202020284
:1042200002020202070101010131370303032F5A81
:104230000101010101014E030303037701010101A3
:10424000010101010101010101010101010101015E
:10425000010101010101010101010101010101014E
:10426000010101010101010101010101010101013E
:10427000010101010101010101010101010101012E
:10428000010101010101010101010101010101011E
:10429000010101010101010101010101010101010E
:1042A00001010101010101070202020202020202F0
:1042B000070101010101B30303030391120101018D
:1042C0000101116B030303037901010101010101E4
:1042D00001010101010101010101010101010101CE
:1042E00001010101010101010101010101010101BE
:1042F00001010101010101010101010101010101AE
:10430000010101010101010101010101010101019D
:10431000010101010101010101010101010101018D
:10432000010101010101010101010101010101017D
:104330000101010702020202020202020701010159
:10434000010101A903030303AA0101010101017D88
:104350001C030303373101010101010101010101C6
:10436000010101010101010101010101010101013D
:10437000010101010101010101010101010101012D
:10438000010101010101010101010101010101011D
:10439000010101010101010101010101010101010D
:1043A00001010101010101010101010101010101FD
:1043B00001010101010101010101010101010107E7
:1043C000020202020202020207010101010101339D
:1043D000D60303031555010101010101551503031E
:1043E0000323C201010101010101010101010101D8
:1043F00001010101010101010101010101010101AD
:10440000010101010101010101010101010101019C
:10441000010101010101010101010101010101018C
:10442000010101010101010101010101010101017C
:10443000010101010101010101010101010101016C
:104440000101010101010101010101070202020252
:10445000020202020701010101010101591C0303CB
:104460000368BC0101010101013B03030303970140
:10447000010101010101010101010101010101012C
:10448000010101010101010101010101010101011C
:10449000010101010101010101010101010101010C
:1044A00001010101010101010101010101010101FC
:1044B00001010101010101010101010101010101EC
:1044C00001010101010101010101010101010101DC
:1044D00001010101010101070202020202020202BE
:1044E0000701010101010101015215030303D83342
:1044F0000101010101016C03030303AC010101018E
:10450000010101010101010101010101010101019B
:10451000010101010101010101010101010101018B
:10452000010101010101010101010101010101017B
:10453000010101010101010101010101010101016B
:10454000010101010101010101010101010101015B
:10455000010101010101010101010101010101014B
:104560000101010702020202020202020701010127
:10457000010101010101EF03030303EE0101010148
:104580000101224C0303031A56010101010101013B
:10459000010101010101010101010101010101010B
:1045A00001010101010101010101010101010101FB
:1045B00001010101010101010101010101010101EB
:1045C00001010101010101010101010101010101DB
:1045D00001010101010101010101010101010101CB
:1045E00001010101010101010101010101010107B5
:1045F000020202020202020207010101010101019D
:104600000101129003030303060101010101015797
:104610008A0303034B220101010101010101010190
:10462000010101010101010101010101010101017A
:10463000010101010101010101010101010101016A
:10464000010101010101010101010101010101015A
:10465000010101010101010101010101010101014A
:10466000010101010101010101010101010101013A
:104670000101010101010101010101070202020220
:1046800002020202070101C011010101010101BD85
:10469000680303031C7D010101010101AE03030353
:1046A000034D0101010101010101010101010101AC
:1046B00001010101010101010101010101010101EA
:1046C00001010101010101010101010101010101DA
:1046D00001010101010101010101010101010101CA
:1046E00001010101010101010101010101010101BA
:1046F00001010101010101010101010101010101AA
:10470000010101010101010702020202020202028B
:104710000701010D99010101010101013F15030389
:10472000038F3301010101010198030303032601F3
:104730000101010101010101010101010101010169
:104740000101010101010101010101010101010159
:104750000101010101010101010101010101010149
:104760000101010101010101010101010101010139
:104770000101010101010101010101010101010129
:104780000101010101010101010101010101010119
:104790000101010702020202020202020701010DE9
:1047A0000378010101010101012603030303A801AC
:1047B0000101010101112403030315B401010101E9
:1047C00001010101010101010101010101010101D9
:1047D00001010101010101010101010101010101C9
:1047E00001010101010101010101010101010101B9
:1047F00001010101010101010101010101010101A9
:104800000101010101010101010101010101010198
:104810000101010101010101010101010101010782
:1048200002020202020202020701010D034A0D0107
:104830000101010101013803030303B20101010178
:104840000101411C0303031C41010101010101019C
:104850000101010101010101010101010101010148
:104860000101010101010101010101010101010138
:104870000101010101010101010101010101010128
:104880000101010101010101010101010101010118
:104890000101010101010101010101010101010108
:1048A00001010101010101010101010702020202EE
:1048B000020202020701010D03036AC201010101A4
:1048C0000101BE2F030303D4310101010101015293
:1048D000150303032411010101010101010101017B
:1048E00001010101010101010101010101010101B8
:1048F00001010101010101010101010101010101A8
:104900000101010101010101010101010101010197
:104910000101010101010101010101010101010187
:104920000101010101010101010101010101010177
:104930000101010101010107020202020202020259
:104940000701010D0303033901010101010101B751
:1049500015030303241101010101010126030303CF
:10496000039506060606060606060606060606065B
:1049700006060606060606060606060606060606D7
:1049800006060606060606060606060606060606C7
:1049900006060606060606060606060606060606B7
:1049A00006060606060606060606060606060606A7
:1049B000060606060606060606060606063F110158
:1049C0000101010702020202020202020701010DB7
:1049D00003030303B001010101010101F00303031B
:1049E0000399010101010101014D030303030303C5
:1049F0000303030303030303030303030303030387
:104A00000303030303030303030303030303030376
:104A10000303030303030303030303030303030366
:104A20000303030303030303030303030303030356
:104A30000303030303030303030303030303030346
:104A4000030303030303030303032311010101070A
:104A500002020202020202020701010D0303030324
:104A60008BBA010101010101010503030303780170
:104A70000101010101224B030303030303030303A9
:104A800003030303030303030303030303030303F6
:104A900003030303030303030303030303030303E6
:104AA00003030303030303030303030303030303D6
:104AB00003030303030303030303030303030303C6
:104AC00003030303030303030303030303030303B6
:104AD00003030303030303B60101010702020202F9
:104AE000020202020701010D03030303038EC10149
:104AF0000101010101228D0303034A0D010101019E
:104B00000101561A0303030303030303030303030F
:104B10000303030303030303030303030303030365
:104B20000303030303030303030303030303030355
:104B30000303030303030303030303030303030345
:104B40000303030303030303030303030303030335
:104B50000303030303030303030303030303030325
:104B600003031A59010101070202020202020202B2
:104B70000701010D03030303030396010101010172
:104B80000101FA2E0303036AC20101010101014080
:104B90009305050505050505050505050505050537
:104BA00005050505050505050505050505050505B5
:104BB00005050505050505050505050505050505A5
:104BC0000505050505050505050505050505050595
:104BD0000505050505050505050505050505050585
:104BE000050505050505050505050505056D3F01D7
:104BF0000101010702020202020202020701010D85
:104C000003030303030303AD01010101010101F2E9
:104C10000303030339010101010101010101010144
:104C20000101010101010101010101010101010174
:104C30000101010101010101010101010101010164
:104C40000101010101010101010101010101010154
:104C50000101010101010101010101010101010144
:104C60000101010101010101010101010101010134
:104C7000010101010101010101010101010101071E
:104C800002020202020202020701010D03030303F2
:104C90000303038AB801010101010101DA030303DF
:104CA00003BB010101010101010101010101010138
:104CB00001010101010101010101010101010101E4
:104CC00001010101010101010101010101010101D4
:104CD00001010101010101010101010101010101C4
:104CE00001010101010101010101010101010101B4
:104CF00001010101010101010101010101010101A4
:104D00000101010101010101010101070202020289
:104D1000020202020701010D030303030303038AD6
:104D2000B8010101010101016D03030303BB01018E
:104D30000101010101010101010101010101010163
:104D40000101010101010101010101010101010153
:104D50000101010101010101010101010101010143
:104D60000101010101010101010101010101010133
:104D70000101010101010101010101010101010123
:104D80000101010101010101010101010101010113
:104D900001010101010101070202020202020202F5
:104DA0000701010D03030303030303AD0101010127
:104DB000010101F303030303DB010101010101010F
:104DC00001010101010101010101010101010101D3
:104DD00001010101010101010101010101010101C3
:104DE00001010101010101010101010101010101B3
:104DF00001010101010101010101010101010101A3
:104E00000101010101010101010101010101010192
:104E10000101010101010101010101010101010182
:104E20000101010702020202020202020701010D52
:104E300003030303030396010101010101017C1A2D
:104E4000030303D55C010101010101409305050540
:104E50000505050505050505050505050505050502
:104E600005050505050505050505050505050505F2
:104E700005050505050505050505050505050505E2
:104E800005050505050505050505050505050505D2
:104E900005050505050505050505050505050505C2
:104EA0000505050505050505056D3F01010101071E
:104EB00002020202020202020701010D03030303C0
:104EC000038EC1010101010101228D0303034A5830
:104ED000010101010101561A030303030303030344
:104EE0000303030303030303030303030303030392
:104EF0000303030303030303030303030303030382
:104F00000303030303030303030303030303030371
:104F10000303030303030303030303030303030361
:104F20000303030303030303030303030303030351
:104F30000303030303031A590101010702020202DA
:104F4000020202020701010D030303038BBA0101F0
:104F500001010101016C03030303F40101010101DB
:104F600001224B03030303030303030303030303AC
:104F70000303030303030303030303030303030301
:104F800003030303030303030303030303030303F1
:104F900003030303030303030303030303030303E1
:104FA00003030303030303030303030303030303D1
:104FB00003030303030303030303030303030303C1
:104FC000030303B601010107020202020202020208
:104FD0000701010D03030303B001010101010101F8
:104FE000F1030303034E010101010101014D03031C
:104FF0000303030303030303030303030303030381
:105000000303030303030303030303030303030370
:105010000303030303030303030303030303030360
:105020000303030303030303030303030303030350
:105030000303030303030303030303030303030340
:105040000303030303030303030303030303231102
:105050000101010702020202020202020701010D20
:105060000303033901010101010101B71503030322
:105070002311010101010101260303030395060623
:1050800006060606060606060606060606060606C0
:1050900006060606060606060606060606060606B0
:1050A00006060606060606060606060606060606A0
:1050B0000606060606060606060606060606060690
:1050C0000606060606060606060606060606060680
:1050D0000606060606060606063F1101010101073F
:1050E00002020202020202020701010D03036AC268
:1050F000010101010101BE2F030303D331010101AD
:1051000001010152150303032411010101010101F1
:10511000010101010101010101010101010101017F
:10512000010101010101010101010101010101016F
:10513000010101010101010101010101010101015F
:10514000010101010101010101010101010101014F
:10515000010101010101010101010101010101013F
:105160000101010101010101010101070202020225
:10517000020202020701010D034A0D0101010101B2
:105180000101D903030303B2010101010101411C23
:105190000303031C4101010101010101010101019E
:1051A00001010101010101010101010101010101EF
:1051B00001010101010101010101010101010101DF
:1051C00001010101010101010101010101010101CF
:1051D00001010101010101010101010101010101BF
:1051E00001010101010101010101010101010101AF
:1051F0000101010101010107020202020202020291
:105200000701010D0378010101010101013B0303C5
:105210000303A8010101010101112403030315B4D3
:10522000010101010101010101010101010101016E
:10523000010101010101010101010101010101015E
:10524000010101010101010101010101010101014E
:10525000010101010101010101010101010101013E
:10526000010101010101010101010101010101012E
:10527000010101010101010101010101010101011E
:105280000101010702020202020202020701010DEE
:10529000990101010101010140150303036B330171
:1052A000010101010198030303032601010101012A
:1052B00001010101010101010101010101010101DE
:1052C00001010101010101010101010101010101CE
:1052D00001010101010101010101010101010101BE
:1052E00001010101010101010101010101010101AE
:1052F000010101010101010101010101010101019E
:105300000101010101010101010101010101010787
:105310000202020202020202070101C011010101A0
:10532000010101BD690303033741010101010101CD
:10533000AE030303034D01010101010128ECE02547
:1053400025A1F60F0101010101010E0B0B0B0B0B47
:105350000B0B0B3E0F01010101010104E69F9D7043
:10536000720E010101010101010101011075719D20
:105370006F510C01010101010101013E0B0B0B0BEF
:105380000B0B0B0B0701010101FCF80B0B0B0B0BBB
:105390000C210101010101010101010702020202C8
:1053A0000202020207010101010101010101129043
:1053B0000303030379010101010101578A03030378
:1053C0004B220101010101715E0202020202022C64
:1053D0002001010101DD02020202020202020202B8
:1053E0008401010101FB630A020202020202833D01
:1053F00001010101010110661E02020202020247C0
:1054000020010101010187020202020202020202DE
:1054100002170101165D0202020202020202C84FD7
:105420002801010101010107020202020202020237
:10543000070101010101010101017703030303EDEC
:10544000010101010101224C0303031A560101016C
:1054500001017002020218CE855E02020272010191
:1054600001480202020202020202020219010101C3
:1054700030350202023536610202020AE7010101FB
:10548000010447020202341846020202026E0101C0
:1054900001010A02020202020202020202250101C5
:1054A0009C020202020202020202020288010101BF
:1054B00001010107020202020202020207010101C8
:1054C00001010101015215030303D7330101010159
:1054D00001016C03030303AC01010101010F5F0231
:1054E00002A40101015B63020284010101180202AE
:1054F000710E0E0E0E0E0E040101011B8002021F22
:10550000EB0101013C2C0202360101010182020281
:1055100034A4090101F98202025D28010109020295
:1055200002740E0E0E0E0E0EFC0101011702028512
:10553000040404217A63020202FB01010101010754
:10554000020202020202020207010101010101013D
:10555000591C03030368BC0101010101013B030362
:105560000303970101010101011B020202F901017C
:105570000101093A19140101011802025101010146
:10558000010101010101016E02021E3E0101010142
:1055900001FBC90A25010101A6020202A6010101BF
:1055A0000101FECF0A1901010109020202300101C5
:1055B00001010101010101011702021901010101AB
:1055C000011B0202023C0101010101070202020269
:1055D000020202020701010101010133D6030303A4
:1055E0001555010101010101551503030323C201F2
:1055F00001010101010F5E02022CA03E0101010127
:105600000101010101180202A4FFFFFFFFFF0F01CA
:10561000010101470202650101010101010101FFD0
:1056200001010101640202480101010101010101BE
:10563000FF01010101090202023DFFFFFFFFFF011F
:10564000010101011702021901010101010E02020B
:1056500002540101010101070202020202020202D8
:1056600007010101010101A903030303AA010101CB
:105670000101017D1C030303373101010101010117
:1056800001017002020202025ECC6E530F010101A1
:10569000011802020202020202020236FD01090A98
:1056A0000202A5010101010110101010FF0101010A
:1056B000180202670101010101FE10101009010129
:1056C00001090202020202020202020A860101012B
:1056D0001702024920202020E3180202CD01010117
:1056E0000101010702020202020202020701010196
:1056F0000101B30303030391120101010101116BC5
:105700000303030379010101010101010101017397
:1057100049020202020202022C7601010118020271
:10572000020202020202021E21011B020202750194
:105730000101102C02020202C6E401018102029E54
:105740000101010162020202020A6601010902026C
:1057500002020202020202021F01010117020202FA
:105760000202020202020A895B0101010101010732
:1057700002020202020202020701010101313703A3
:105780000303695A0101010101014E030303037779
:10579000010101010101010101010101010EE59B6E
:1057A000CA0A0202025D7A0101180202DC1616160C
:1057B000161614040101090A020250010101FC2B12
:1057C00002020202022D01011802028901010101F7
:1057D00013020202020218010109020202E3161674
:1057E00016161653FD0101011702020A1E1E1E0A9B
:1057F00002020235B50101010101010702020202A4
:1058000002020202070101011124030303154001F2
:105810000101010101AF030303033812010101017A
:10582000010101010101287B0F01010101279F5D99
:1058300002029C0101180202510101010101010152
:10584000010101130202D001010101273D3D1702B0
:10585000022D01012D02021301010101FEF73DA3FA
:1058600002021801010902020230010101010101D5
:105870000101010117020219010101017B1F02024E
:1058800019010101010101070202020202020202E2
:10589000070101019A030303033B01010101010117
:1058A000B98A0303038C32010101010101010101E5
:1058B0000101360283280101010101D10202D20156
:1058C0000118020251010101010101010101013A26
:1058D00002025D300101010101094802022D0101AE
:1058E000E802020250010101010101D00202180187
:1058F000010902020230010101010101010101015E
:1059000017020219010101010167020247010101A9
:105910000101010702020202020202020701013232
:105920001503030392010101010101019403030323
:105930001A7C0101010101010101010101FF2B029A
:105940000287FC01010154810202E40101180202F4
:10595000DC141414141414140E0101108102025FDB
:10596000512801010CCC0202022D010101CB0202DF
:105970005D3A1B0101FB65020202180101090202E6
:1059800002A214141414141453FC01011702021976
:105990000101010101A002026001010101010107F1
:1059A0000202020202020202070101BF1A03032FD0
:1059B000320101010101010198030303AB0101015F
:1059C00001010101010101010101E10202025D4940
:1059D00062180A020236280101480202020202028B
:1059E000020202020AB501017AC70202025D813594
:1059F00002025E2B022D01010127180202020A1F7A
:105A00008002020A6002180101010A020202020277
:105A100002020202025EFD011702021901010101E8
:105A200001740202020401010101010702020202E3
:105A30000202020207010101B14C235701010101D9
:105A4000010101015A382F26010101010101010163
:105A500001010101010101A6470202020202020A3C
:105A6000D01B01010125020202020202020202020F
:105A7000347B010101FB880A0202020202180B8634
:105A800002650101010110661E020202020280E9A4
:105A90002502490101011902020202020202020268
:105AA0000261FE01E20202670101010101FC340210
:105AB0005D07010101010107020202020202020266
:105AC00007010101010101010101010101010101C0
:105AD00001010101010101010101010101010101B6
