:020000040000FA
:10000000F8020010F90000000101000003010000E7
:1000100005010000070100000901000000000000C8
:100020000000000000000000000000000B010000C4
:100030000D010000000000000F0100001101000090
:100040001301000013010000130100001301000060
:100050001301000013010000130100001301000050
:100060001301000013010000130100001301000040
:100070001301000000000000130100001301000044
:100080001301000013010000130100001301000020
:100090001301000013010000130100001301000010
:1000A0001301000013010000130100001301000000
:1000B00013010000130100001301000013010000F0
:1000C00013010000130100001301000013010000E0
:1000D00013010000130100001301000013010000D0
:1000E00013010000DFF80CD000F0FCFA00480047D4
:1000F000FB1C0000F8020010064880470648004735
:10010000FEE7FEE7FEE7FEE7FEE7FEE7FEE7FEE7C7
:10011000FEE7FEE7D5170000E500000040EA010316
:100120009B0703D009E008C9121F08C0042AFAD2AD
:1001300003E011F8013B00F8013B521EF9D2704771
:10014000D2B201E000F8012B491EFBD27047002219
:10015000F6E710B504460846114602462046FFF76A
:10016000EFFF204610BDF0B480EA0102D20F430039
:10017000B3EB410F02D20346084619464B0042D06A
:10018000C30DDDB2C1F3C7542C1B202C35DAC1F3EB
:10019000160141F4000502B16D42C4F1200605FAD2
:1001A00006F125412844B3EBD05F23D0C2B1012C26
:1001B000A0EBC35009DCF0BC4FF0004202EAC3528E
:1001C00000F50000DBB200F0FFB9400000F18070E4
:1001D00000EBC350A0F1807040EAD170490009E003
:1001E000490841EAC071A0EBC35000F50000400887
:1001F00000EBC350F0BC00F0DEB95142012303EB29
:100200004101801AF6E7F0BC704781F00041AAE78F
:1002100080F00040A7E780EA010210B502F000423A
:10022000400026D04B0023D04FEA106101EB136150
:10023000C0F35600C3F3560340F4000043F4000338
:10024000A0FB0330A1F17F014FEA00401C0401D064
:1002500000F1010050EA134001D44000491EC3B22E
:100260000C0604EBD010401C4008802B02D003E0A9
:10027000002010BD20F00100002900DA002010430A
:1002800010BDC10F80EAE0700844CA079623002120
:1002900000F09AB900F0004220F00040C10DC0F318
:1002A000160040F400007F2901DA002070479629EB
:1002B00003DCC1F19601C84001E096398840002A6C
:1002C000F4D04042704700F0004230F000400DD0C2
:1002D000C10D01F5607142EA01510022C0F3160020
:1002E000520742EAD00240071143704700200146FE
:1002F00070470146886880B270477047FFFFFFFF74
:1003000080EA010202F0004330B430F0004221F0F4
:10031000004015D0A0B1C0F3C755C2F3C754C2F313
:100320001601C0F31600651B41F4000140F4000003
:100330007D35814201D36D1C00E04900002D02DAB9
:1003400030BC002070474FF400020024814201D3EA
:10035000091A144352084FEA4101F7D151B18142C1
:1003600002D14FF0004105E002D24FF0010101E05F
:100370006FF0010104EBC55030BC184400F01BB90C
:100380002DE9FE4F074681EA0300C00F0E4601909B
:1003900021F0004123F00044B81AA14105D23846AB
:1003A000314617461E460B46024623F000401043D6
:1003B00004D13846314603B0BDE8F08F350DC5F3A2
:1003C0000A00C3F30A510290401A0090402867DAED
:1003D000C3F3130040F4801B0198924620B1002320
:1003E000D2EB030A63EB0B0B00985946C0F14002B5
:1003F000504600F0AFF880460C4650465946009AE9
:1004000000F0C7F8C0197141EF1785EA11533B435B
:100410003FD0019A4AB3009A012A11DC0022801AC7
:100420004FF0004361EB055103EA05538018CDE915
:10043000002341F580114246234600F0FFF8BAE759
:100440002E050025401B61EB0601401941F5801285
:10045000001852412818A6F5001343EB020140EAA8
:10046000D47018EB0808644113E064084FEA3808B8
:100470004FF0000244EAC0744FEA0553801A61EB62
:100480000301801841F5801149084FEA30008018B7
:1004900059414246234603B0BDE8F04F00F0C1B8D1
:1004A0000198012240000023D0EB020263EBE073CD
:1004B00001984FEAE074381A66EB0401EBE783F029
:1004C00000435DE781F000415AE7000030B50029A4
:1004D00004DB4FF00044404264EB0101002B04DBDD
:1004E0004FF00044524264EB03038B4208BF824248
:1004F00030BD000030B5002904DB4FF0004440421D
:1005000064EB0101002B04DB4FF00044524264EB2A
:100510000303994208BF904230BD000001F0004241
:1005200030B421F0004150EA010306D00B0DA3F5D1
:100530006073C1F31301002B02DC30BC0020704754
:10054000440F44EAC104C100A01830BC00EBC35002
:1005500000F031B8202A04DB203A00FA02F1002032
:1005600070479140C2F1200320FA03F319439040F1
:100570007047202A04DB203A21FA02F0002170475C
:1005800021FA02F3D040C2F12002914008431946FB
:100590007047202A06DBCB17203A41FA02F043EAE3
:1005A000E07306E041FA02F3D040C2F1200291402C
:1005B0000843194670470029A8BF7047401C4900EE
:1005C00008BF20F00100704710B4B0FA80FC00FAB8
:1005D0000CF050EA010404BF10BC704749B1CCF1E3
:1005E000200421FA04F411FA0CF118BF012121436F
:1005F0000843A3EB0C01CB1D0106000A002BBEBF74
:10060000002010BC704700EBC35010440029A4BF69
:1006100010BC7047401C490008BF20F0010010BC0E
:10062000704710B5002B08DA401C41F10001921808
:100630005B411A4301D120F0010010BD2DE9FF4DAF
:10064000934611B1B1FA81F202E0B0FA80F22032A1
:100650009246FFF77FFF039A0746884640EA0B0061
:1006600011435B46084304D13846414604B0BDE817
:10067000F08D114653EA010016D0CAF140025846E7
:10068000FFF777FF04460D464FF0010658465246E5
:100690000399FFF75FFF084300D10026344345EA82
:1006A000E675274345EA08080E984FF00005A0EBD1
:1006B0000A014FEAD7200A314FEA47532A4640EA57
:1006C00048504FEAD82402D500200146CEE728182A
:1006D00044EB0151DDE90C45001904B06941BDE866
:1006E000F04D9EE7064C074D06E0E06840F0010340
:1006F00094E8070098471034AC42F6D3FFF7F6FCB5
:100700006828000088280000012907D1084A1268DB
:1007100042EA0002074BC3F8C42007E031B9044A9B
:10072000126822EA0002034BC3F8C420704700009D
:10073000C4C00F4000C00F40014631B1012907D0AD
:10074000022908D003290CD108E007480068704747
:1007500006480068FBE706480068F8E705480068B7
:10076000F5E700BFFEE70000080000100C000010D5
:10077000100000101400001010B54FF0000109E047
:100780004FF0320200BF1300A2F10104E2B2FAD12D
:1007900001F101018142F3D310BD10B54FF000010A
:1007A00009E04FF0320200BF1300A2F10104E2B2EF
:1007B000FAD101F101018142F3D310BDF8B504462D
:1007C0000D464FF6FF70A4F102018AB2A4F10F01A9
:1007D000009088B22B46294600F0E8F94FF6FF70EA
:1007E0002B46009004F10F0082B22946A01C80B273
:1007F00000F0DCF94FF6FF700090A81E83B20D38B0
:1008000081B22246204600F0D1F94FF6FF700090E9
:1008100005F10F0083B22246A81C81B2204600F0E9
:10082000C5F94BF6F040E11F8AB20839009088B252
:1008300005F10F018BB289B200F0B8F94BF6F04028
:10084000A4F10F018AB2009088B205F10F018BB2BA
:10085000E91D89B200F0AAF94BF6F040A5F10F06A8
:10086000B3B2E61FB2B2A5F10F06B1B2A4F10F0602
:100870000090B0B200F09AF94BF6F040A5F10F06E7
:10088000B3B2A4F10F06B2B2EE1FB1B2A4F10F06DB
:100890000090B0B200F08AF94BF6F040009005F1FC
:1008A0000F0083B204F10F0082B205F10F0081B294
:1008B000E01D80B200F07AF94BF6F040009005F1AF
:1008C0000F0083B204F10F0082B2E81D81B204F17F
:1008D0000F0080B200F06AF94BF6F0400090A5F1ED
:1008E0000F0083B281B204F10F0082B2E01D80B22A
:1008F00000F05CF94BF6F0400090E81F83B2083836
:1009000081B204F10F0082B280B200F04FF9F8BD5D
:1009100070B506464FF0000510E04FF0000407E008
:1009200032462946204600F0D5F904F1010084B290
:10093000B4F5F07FF4DB05F1010085B2B5F5887FF1
:10094000EBDB70BD10B505220C21022000F058FA37
:1009500007220621022000F053FA07221146022046
:1009600000F04EFA07220821022000F049FA07227F
:100970000921022000F044FA07221421012000F08E
:100980003FFA07221521012000F03AFA072216212A
:10099000012000F035FA07221721012000F030FA7B
:1009A00007221821012000F02BFA0722192101202B
:1009B00000F026FA07220D21022000F021FA07227A
:1009C0001A21012000F01CFA07221B21012000F04F
:1009D00017FA07221C21012000F012FA07221D211C
:1009E000012000F00DFA07220221084600F008FA63
:1009F00007220021022000F003FA0722052102202D
:100A000000F0FEF907220321022000F0F9F9072285
:100A10000421022000F0F4F901220221084600F02E
:100A2000A0F90221084600F0B2F901210846FFF7BB
:100A30006BFE4148006820F001003F4908604FF01C
:100A400000003E4988610846806920F00E008861F8
:100A50000846806940F00C0088610846806940F0D3
:100A6000200088610846806940F4807088614FF0FA
:100A7000000033490860334800F0A4F92F49896821
:100A800040EA01002D498860084680688860084671
:100A9000806840F4006088600846806840F48050B8
:100AA000886008468068886008468068264940EA71
:100AB0000100224988604FF0000008600846006885
:100AC00040F0740008600846006840F498500860E0
:100AD0000846006840F4803008600846006840F02E
:100AE000807008604FF0000048600846406840F29F
:100AF0000F1140EA0100114948600846406840F47F
:100B0000605048600846406840F40030486008463D
:100B1000406840F0007048600C48086148614FF040
:100B2000000406E04FF00001094840F8241004F1E9
:100B30000104802CF6D310BD008C08200080082012
:100B4000B8C10F4000127A000000DF01000010A0C1
:100B500000820820014699B1134A926942F00102CD
:100B6000114B9A6142F2107001E0A0F101000028DF
:100B7000FBD10D4A926942F400620B4B9A6112E07C
:100B8000094A926922F40062074B9A6142F210709E
:100B900001E0A0F101000028FBD1034A926922F094
:100BA0000102014B9A617047008008202DE9F04F47
:100BB00004460D4691469A46DDF824B04C4503DDC7
:100BC0000FFA89F7A146BCB2554503DD0FFA8AF743
:100BD000AA46BDB2A9EB04000FFA80F8AAEB050003
:100BE00006B2B8F1000F0CD100BF5A462946204684
:100BF00000F070F805F1010085B2AA45F5DABDE80C
:100C0000F08F5EB900BF5A462946204600F062F8D0
:100C100004F1010084B2A145F5DAF0E7B04526DD24
:100C2000C8EB460007B21AE05A462946204600F0B3
:100C300051F804F1010084B2002F0BDD05F1010031
:100C400085B24FEA46004FF0020101FB180038441C
:100C500007B204E04FF0020000FB067007B24C45FB
:100C6000E2D15A462946204600F034F825E0C6EB8A
:100C7000480007B21AE05A462946204600F02AF8F2
:100C800005F1010085B2002F0BDD04F1010084B2F3
:100C90004FEA46004FF0020101FB1800384407B24A
:100CA00004E04FF0020000FB067007B25545E2D1A8
:100CB0005A462946204600F00DF800BF9FE710B5C0
:100CC0000020FFF747FFFFF73DFE0120FFF742FF3F
:100CD00010BD000010B5044BC1EB011400EB44142F
:100CE00023F8142010BD0000000010A070B50646C7
:100CF0000C46304600F004F8054605B1EC6170BDC5
:100D000001464FF00000062910D2DFE801F003058C
:100D100007090B0D07480AE0074808E0074806E006
:100D2000074804E0074802E0074800E000BF00BFB2
:100D300070470000008009202080092040800920A1
:100D40006080092080800920A080092070B50546B8
:100D50002846FFF7D5FF04460CB1606970BD00203E
:100D6000FCE72DE9F04107460D4616463846FFF7E9
:100D7000C7FF04464CB126B1206840EA0500206058
:100D800003E0206820EA05002060BDE8F08170B52E
:100D900006460C463046FFF7B3FF054605B1AC6189
:100DA00070BD000070B505460C46A4F12000044A51
:100DB00002EB00114FF010022846FFF7AFF970BDAB
:100DC0007822000010B502464FF0010101E001F168
:100DD00001010A4B1B68B3FBF1F3934201D93F2990
:100DE000F5D9012902D84FF0806005E001F01F031A
:100DF000C1F3441443EAC46010BD000008000010B1
:100E00002DE9F04106460F4615464FF000043946DD
:100E1000304600F01BF88046B8F1050F02D10A48B1
:100E2000BDE8F0813946304600F06EF8044620688F
:100E300020F00700206005F00701206840EA01006B
:100E400020604FF00000EBE70100001002464FF079
:100E50000500062A54D2DFE802F00334404142453F
:100E6000062907DD0A2901DB0B2903DD0E2904DB36
:100E7000162902DC4FF0000022E00C2905D00D29D4
:100E800003D0172904DB1A2902DC4FF0010017E018
:100E90001D2903D01E2901D01F2902D14FF00200C5
:100EA0000EE01B2901D01C2902D14FF0030007E0FE
:100EB000072903D0082901D0092901D14FF00400E6
:100EC0001FE01D2902DC4FF0000005E01E2901D0C3
:100ED0001F2901D14FF0010013E000BF00BF4FF008
:100EE00000000EE0012901DD042902D14FF00000CD
:100EF00005E0022901D0032901D14FF0030000E0F1
:100F000000BF00BF7047000010B502464FF0000060
:100F100001EB4213014C04EB830010BD00C0024002
:100F20002DE9FF5F06460F4690469946DDF838B03A
:100F300041466846FFF736FF4FF0000422E01DF8F7
:100F400004A04FF0000518E0C5F107004AFA00F0D0
:100F500010F0010F07D03A1991B2721990B24A46B7
:100F6000FFF7B8FE06E03A1991B2721990B25A46EC
:100F7000FFF7B0FE05F1010085B2082DE4DB04F1B6
:100F8000010084B2102CDADBBDE8FF9F70B50020B1
:100F900000F022FE05464FEA05244FF00100FFF75E
:100FA000EBFB002000F018FE054644EA05044FEA7A
:100FB000E404C4F30B04204670BD0000F0B597B004
:100FC0004FF000074FF048016846FFF7C0F800BF38
:100FD00015A916A800F0A4FC16984DF8270009A83A
:100FE000159940F8271007F10100C7B24FF0020031
:100FF000FFF7ACFE10F4006F01D1092FE8DB092FD9
:101000007ED1DDE900010844029908444FF0030154
:1010100090FBF1F01290DDE90301084405990844C2
:101020004FF0030190FBF1F01390DDE90601084455
:10103000089908444FF0030190FBF1F01490DDE9AA
:101040001201A0EB0104DDE91301A0EB01051299E7
:101050001498A0EB0106002C01DD204601E0C4F14C
:1010600000000446002D01DD284601E0C5F1000026
:101070000546002E01DD304601E0C6F100000646BF
:10108000022C06DD022D04DD022E02DD002017B049
:10109000F0BDAC4217DAA6420ADA149A129901EBB3
:1010A000020000EBD0714FEA6101514A116021E06A
:1010B000DDE9121201EB020000EBD0714FEA610191
:1010C0004B4A116016E0AE420ADA149A129901EB0B
:1010D000020000EBD0714FEA6101454A116009E05E
:1010E000DDE9131201EB020000EBD0714FEA610160
:1010F0003F4A1160DDE9091001440B98084400E003
:1011000074E04FF0030190FBF1F01290DDE90C1058
:1011100001440E9808444FF0030190FBF1F0139046
:10112000DDE90F100144119808444FF0030190FBD2
:10113000F1F01490DDE91201A0EB0104DDE91301E7
:10114000A0EB010512991498A0EB0106002C01DD1B
:10115000204601E0C4F100000446002D01DD2846D0
:1011600001E0C5F100000546002E01DD304601E03A
:10117000C6F100000646022C05DD022D03DD022E1D
:1011800001DD002083E7AC4217DAA6420ADA149A9E
:10119000129901EB020000EBD0714FEA6101144A91
:1011A000516021E0DDE9121201EB020000EBD07189
:1011B0004FEA61010E4A516016E0AE420ADA149A13
:1011C000129901EB020000EBD0714FEA6101084A6D
:1011D000516009E0DDE9131201EB020000EBD07170
:1011E0004FEA6101024A5160014850E700204EE792
:1011F0000000001010B54FF400010220FFF776FD4B
:101200000120FFF7B9FA902000F0E6FC0120FFF77B
:10121000B3FAFFF7BBFE04464FF400014FF00200A3
:10122000FFF7B5FD204610BD10B54FF400010220B8
:10123000FFF75CFD0120FFF79FFAD02000F0CCFC07
:101240000120FFF799FAFFF7A1FE04464FF40001D1
:101250004FF00200FFF79BFD204610BD70B5012244
:1012600010210220FFF7CCFD012211210220FFF7FF
:10127000C7FD012212210220FFF7C2FD0122142125
:101280000220FFF7BDFD012218210220FFF7B8FD63
:1012900001221C210220FFF7B3FD01221D210220A3
:1012A000FFF7AEFD012219210420FFF7A9FD4FF041
:1012B000000406E00122E1B20320FFF7A1FD04F1E2
:1012C0000104102CF6D34FF0000406E00122E1B235
:1012D0000420FFF795FD04F101040F2CF6D34448D8
:1012E000006840F400604349C1F8C4000846D0F8E3
:1012F000DC0140F00800C1F8DC010846D0F8DC0150
:1013000040F40060C1F8DC010846D0F8DC0140F48C
:101310000020394908604FF00100384908608862B0
:101320004FF00000C1F804010846D0F8040140F471
:101330004070C1F804010846D0F8040140F00300F1
:101340002F4908604FF003002C4908634FF0060056
:1013500048634FF0090088634FF00100C8634FF005
:10136000060008644FF0030048644FF008008864EA
:10137000C8644FF0090008654FF0020048654FF05F
:10138000030088654FF4D0601E49086040F2831066
:101390001A49086241F2707401E0A4F10104002CC2
:1013A000FBD140F20310154908624FF00200486279
:1013B0004FF4807401E0A4F10104002CFBD14FF044
:1013C0003A000E4948624FF0830008620E480568F3
:1013D0004FF0000008620B48006840F40020C1F89C
:1013E00000010A4C01E0A4F10104002CFBD170BD06
:1013F000C4C00F4000C00F40DCC10F4000C0092036
:1014000004C1092000C10920003003A0A08601000A
:10141000012904D1426842F00202426003E04268BE
:1014200002F00D02426070474FF0000141608160A0
:10143000044941614FF0070101604FF00001C160B4
:101440000161704740420F000246D068084201D057
:10145000012000E00020C0B27047000070B50546D2
:101460000C461748854204D101214805FFF74CF985
:1014700010E01448854204D101210015FFF744F91A
:1014800008E01148854204D101210805FFF73CF925
:1014900000E070BDD4E9010140EA0100216940EAA1
:1014A0000100216840EA010086B22E60E06800F089
:1014B0000F066E602846616900F0ADFE00BFE8E7E8
:1014C000008008400000034000C00A40816070476F
:1014D00030B5B448006810F4807F74D1B14808304A
:1014E000006810F0010F2FD1AE48006810F01F0FF8
:1014F00002D14FF0000006E0AA48006800F01F008B
:10150000A949B1FBF0F0A9490860A648A4300068D9
:1015100010F01F0F02D14FF0000006E0A448006851
:1015200000F01F00A049B1FBF0F0A2490860A248FA
:10153000006800F0010000F101009C490968B1FB5E
:10154000F0F09E490860C8E099480838006810F03B
:10155000400F08D14FF00000944908609549086099
:1015600096490860B9E08F48006810F01F0F02D15B
:101570004FF0000006E08B48006800F01F008A4929
:10158000B1FBF0F0894908608948006810F01F0F2E
:1015900002D14FF0000006E08548006800F01F000F
:1015A0008149B1FBF0F0834908608348006800F08E
:1015B000010000F101007D490968B1FBF0F07F49AD
:1015C00008608AE0FFE77C487838006810F4807F84
:1015D00008D14FF0000075490860764908607749E6
:1015E00008607AE06F480830006810F0010F32D1CF
:1015F000734C246804F01F0404F10100714CD4F80A
:10160000044104F01F016A4C246804F01F026D4C71
:10161000D4F8004104F0010404F1010311B94FF0C2
:10162000000404E0604C00FB04F4B4FBF1F45F4DF3
:101630002C6012B94FF0000404E05B4C00FB04F492
:10164000B4FBF2F45B4D2C60584C2468B4FBF3F40B
:101650005A4D2C6041E056480838006810F0400FA1
:1016600008D14FF0000051490860524908605349C1
:10167000086032E0524C246804F01F0404F10100B9
:10168000504CD4F8044104F01F01494C246804F084
:101690001F024C4CD4F8004104F0010404F1010392
:1016A00011B94FF0000404E03F4C00FB04F4B4FB1C
:1016B000F1F43E4D2C6012B94FF0000404E03A4CB6
:1016C00000FB04F4B4FBF2F43A4D2C60374C246870
:1016D000B4FBF3F4394D2C6000BF3248001D0068A4
:1016E00010F4807F36D02F48001D006810F01F00D6
:1016F00004D0042807D0062826D105E04FF00000CA
:101700003149086025E000BF2D4A126802F01F022F
:1017100002F101002B4AD2F8082102F01F012B4AE6
:10172000126812F0010F07D01F4A00FB02F2B2FB51
:10173000F1F2254B1A6006E01B4A00FB02F2B2FBF5
:10174000F1F2214B1A6004E04FF000001E490860DE
:1017500000BF26E01348001D006810F4007F1CD075
:101760001A48006810F0010F0BD01948006800F00B
:101770001F0000F101000C4900FB01F01249086054
:101780000FE00F48006800F01F0000F1010006495B
:1017900000FB01F00C49086003E04FF000000A492B
:1017A000086030BD04C10F40001BB70008000010E6
:1017B000A8C10F400C00001000C10F401000001025
:1017C00088C00F4000C00F40140000100CC10F4033
:1017D000A8C00F4000B54FF021003349086000BF9A
:1017E0003148006810F0400FFAD04FF001002F4947
:1017F00008604FF009002E49C1F884004FF0010045
:101800002C4908604FF0AA002B4908604FF05500A2
:10181000086000BF2848001F006810F4806FF9D0EE
:101820004FF02300254908604FF001002049C1F81E
:10183000A0004FF0AA00224908604FF055001C4953
:10184000C1F8AC0000BF1D48001D006810F4806F97
:10185000F9D040F201101B49086040F20120144900
:10186000C1F808014FF00100174908604FF002006D
:10187000164908601648174908604FF480700C49F3
:10188000C1F8C8010846D0F8B00140F00300124981
:10189000086045F23A00064908604FF000000F4921
:1018A0000860FFF715FE00BDA0C10F400CC10F403E
:1018B00000C00F4080C00F408CC00F40A4C00F403C
:1018C000ACC00F4004C10F4000C10F40A8C10F4081
:1018D000DE872804C4C00F40B0C10F4008ED00E00F
:1018E00070B505460C464FF4784221462846FFF76E
:1018F000F1F94FF478422146681C80B2FFF7EAF90B
:101900004FF47842601C81B22846FFF7E3F94FF4A8
:101910007842601C81B2681C80B2FFF7DBF970BDB1
:101920002DE9F04104460D46FFF764FC06464FF0F2
:101930000100FEF721FFFFF777FC074626602F60C6
:10194000BDE8F08100B587B0002217210220FFF723
:1019500057FA022216211046FFF752FA02221A21E4
:101960001046FFF74DFA02221B211046FFF748FAF6
:101970000122D1050220FFF7F4F94FF40001022003
:10198000FFF705FA00220B210220FFF739FA0022A7
:101990004FF400610220FFF7E4F901A8FFF744FDCE
:1019A0000548069001A90548FFF758FD01210348A5
:1019B000FFF72EFD07B000BD90D003000080084067
:1019C0002DE9F84305460C464FF014006C490860B9
:1019D0004860A5F1140088604FF014016848C160A8
:1019E000A5F1140066490861A4F1140048614FF0A4
:1019F00014008861A4F11400C861284605EBD07179
:101A00004FEA61015E4A1162204604EBD0714FEA51
:101A100061025B494A624FF0000621E00020FEF7B8
:101A200077FF5848FEF7B9FE554A02EBC6025268E6
:101A300091B2534A52F8362090B2FEF7BFFE00BF73
:101A4000FFF7BCFA0746002FFAD04F49386841F833
:101A5000360001EBC6017868486006F10100C6B2A5
:101A6000052EDBDB46480068484948614448406829
:101A7000C863454800680860434840688862404839
:101A80008168424881613E48C168404801643E48DF
:101A900080683E4948603C48C1683C48C16238485B
:101AA00001693A48C161364841693848416436485D
:101AB00000693649886034484169344801633048D8
:101AC0008169324801622E48C169304881642E48DC
:101AD00080692E49C8602C48C1692C484163284858
:101AE000016A2A4841622648416A2848C16426485A
:101AF000006A264908612448416A2448816300F04D
:101B00000DF92248006D224908602048406D486068
:101B10001E48806D88601D48C06DC8601B48006EFF
:101B200008611A48406E48611848806E886100203C
:101B3000FEF7EEFE0020A04604EBD8725210103AD9
:101B400091B2A5F58C7909EBD9720090C2F34F00E0
:101B50004FF478430FA200F05BF8002004EBD8723A
:101B60005110A5F1F80909EBD9720090C2F34F00AA
:101B70004FF4784310A200F04BF8BDE8F883000062
:101B800018000010A0860100640000108C000010F6
:101B9000480000105468616E6B20796F7520666F85
:101BA00072207573696E672048592D4C5043313748
:101BB00038382D436F7265007777772E706F7765B1
:101BC000726D63752E636F6D207777772E686F74F3
:101BD0006D63752E636F6D0010B5044600BF102154
:101BE0000A48FFF731FC0128F9D021460748FFF7E2
:101BF0006DFC00BF04210548FFF726FC0028F9D042
:101C00000248FEF776FBC0B210BD0000008008401D
:101C10002DE9F84305460E4614469846DDF8209017
:101C200000BF14F8017B43463A4631462846CDF8BA
:101C30000090FFF775F9B5F5467F03DA05F1080066
:101C400085B20BE0B6F5E87F05DA4FF0000506F146
:101C5000100086B202E04FF000052E4620780028E2
:101C6000DFD1BDE8F88302E008C8121F08C1002ACE
:101C7000FAD17047002001E001C1121F002AFBD1F8
:101C80007047000010B5FFF799F90446064A21464F
:101C9000064800F00DF8054A526891B2034A1268EE
:101CA00090B2FFF71DFE10BD48000010400000106C
:101CB00070B503464FF000009469DCB114680D68FC
:101CC0006C4355684E6805FB064495682C4495693D
:101CD00094FBF5F41C60D4680D6804FB05F41569E9
:101CE0004E6805FB064455692C44956994FBF5F450
:101CF0005C6001E04FF0010070BDFFF723FEFFF7CD
:101D0000ADFAFEF7DCFF4FF488714FF4F070FFF787
:101D100057FE01E0FFF7B6FFFCE7000001B59AB0FF
:101D20004FF08F4008904FF00000139014901590E2
:101D3000169017901890199056E01898FEF7C3FA6D
:101D40000022FF4BCDE90401FEF71AFBCDE90601A5
:101D5000FEF7E4FB1890DDE9191050F82100069019
:101D6000FEF78FFA07901799FEF7FDF917901A986A
:101D70002830199950F821000690FEF782FA079052
:101D80001699FEF7F0F91690DDE9191050F82100C8
:101D900040430690FEF775FA07901599FEF7E3F9B0
:101DA00015901A982830199950F821004043069050
:101DB000FEF767FA07901499FEF7D5F91490DDE95C
:101DC000191050F821102830199A50F82200484371
:101DD0000690FEF756FA07901399FEF7C4F9139090
:101DE000199800F10100199019980528A5DBDDE983
:101DF0001510FEF710FA049013991798FEF70BFAD6
:101E000003900499FEF701FA05901699FEF703FA7C
:101E1000079014991798FEF7FEF9029016991398F7
:101E2000FEF7F9F901900299FEF7EFF9039017997F
:101E3000FEF7F1F9059013990846FEF7ECF90290C8
:101E4000DDE91410FEF7E7F901900299FEF7DDF9DC
:101E500003901899FEF7DFF904900599FEF783F9CE
:101E600006900799FEF77FF90F900F98FEF72BFA6F
:101E7000B44AB54BCDE90601FEF728FB0CD20F980A
:101E8000FEF721FAAF4AB14BCDE90601FEF732FB6E
:101E900002D200201BB000BD13990846FEF7BBF923
:101EA0000690DDE91410FEF7B6F905900699FEF7E5
:101EB000ACF907900F99FEF723FA0E901499179832
:101EC000FEF7A9F9069016991398FEF7A4F9059064
:101ED0000699FEF79AF907900F99FEF711FA0D90FF
:101EE000DDE91510FEF797F9069013991798FEF79C
:101EF00092F905900699FEF788F907900F99FEF779
:101F0000FFF90C9016990846FEF785F9069014998A
:101F10001898FEF780F905900699FEF776F9079074
:101F20000F99FEF7EDF90B9013991898FEF773F9D6
:101F30000690DDE91610FEF76EF905900699FEF79A
:101F400064F907900F99FEF7DBF90A901799084694
:101F5000FEF761F9069015991898FEF75CF905905F
:101F60000699FEF752F907900F99FEF7C9F9099003
:101F70004FF00000109011901290199035E01A98CF
:101F80001430199950F821000690FEF77AF907905D
:101F90001299FEF7E8F812901A981430199950F82F
:101FA0002100DDE9192151F8221048430690FEF77F
:101FB00068F907901199FEF7D6F811901A98143025
:101FC000199950F821101A982830199A50F82200BF
:101FD00048430690FEF755F907901099FEF7C3F8AD
:101FE0001090199800F10100199019980528C6DB86
:101FF00010990C98FEF70FF9059011990D98FEF7BE
:102000000AF9039012990E98FEF705F902900399C8
:10201000FEF7A9F804900599FEF7A5F8069008992F
:10202000FEF7F9F80790FEF735F901461A98816531
:1020300010990A98FEF7EFF8059011990B98FEF7A2
:10204000EAF8039012990D98FEF7E5F802900399CB
:10205000FEF789F804900599FEF785F8069008992F
:10206000FEF7D9F80790FEF715F901461A980165B1
:1020700010990998FEF7CFF8059011990A98FEF784
:10208000CAF8039012990C98FEF7C5F802900399CC
:10209000FEF769F804900599FEF765F8069008992F
:1020A000FEF7B9F80790FEF7F5F801461A98416572
:1020B0004FF00000109011901290199036E01A988D
:1020C00000F13C01199851F820000690FEF7D9F86C
:1020D00007901299FEF747F812901A983C30199918
:1020E00050F82100DDE9192151F8221048430690EB
:1020F000FEF7C7F807901199FEF735F811901A9876
:102100003C30199950F821101A982830199A50F833
:10211000220048430690FEF7B4F807901099FEF7A6
:1021200022F81090199800F10100199019980528CB
:10213000C5DB10990C98FEF76EF80590119907E031
:102140000000F03F9A9999999999B93F9999B9BF27
:102150000D98FEF760F8039012990E98FEF75BF861
:1021600002900399FDF7FFFF04900599FDF7FBFF2F
:1021700006900899FEF74FF80790FEF78BF8014696
:102180001A98416610990A98FEF745F8059011993A
:102190000B98FEF740F8039012990D98FEF73BF864
:1021A00002900399FDF7DFFF04900599FDF7DBFF2F
:1021B00006900899FEF72FF80790FEF76BF8014696
:1021C0001A98C16510990998FEF725F8059011999C
:1021D0000A98FEF720F8039012990C98FEF71BF866
:1021E00002900399FDF7BFFF04900599FDF7BBFF2F
:1021F00006900899FEF70FF80790FEF74BF8014696
:102200001A9801660898FEF745F801461A98816603
:102210004FF001003EE62DE9F04704460E464FF030
:102220000100FEF789FA81464FF000054FF0FF38B4
:102230004FF002070FE005F1010000FB07F0B9FBCA
:10224000F0F8B04507D905F10105FF2D03D94FF08E
:10225000000507F10207B045EDD82068C0B2206044
:1022600020684FF6FF7101EA052140EA0100206075
:10227000F8B22061BDE8F087000000000000000017
:102280000000000000000000000000183C3C3C186A
:1022900018001818000000000000006666660000C4
:1022A000000000000000000000000036367F3636D7
:1022B000367F3636000000000018183C6660301883
:1022C0000C06663C18180000000070D8DA760C186E
:1022D000306E5B1B0E000000000000386C6C386034
:1022E0006F66663B00000000000000181818000030
:1022F00000000000000000000000000C1818303042
:1023000030303018180C00000000003018180C0C89
:102310000C0C0C18183000000000000000361C7F68
:102320001C36000000000000000000000018187EAD
:10233000181800000000000000000000000000006D
:1023400000001C1C0C180000000000000000007EB3
:10235000000000000000000000000000000000007D
:1023600000001C1C0000000000000006060C0C18F9
:1023700018303060600000000000001E3337373333
:102380003B3B331E000000000000000C1C7C0C0CCA
:102390000C0C0C0C000000000000003C6666060CF3
:1023A0001830607E000000000000003C6666061CDD
:1023B0000666663C0000000000000030303636360D
:1023C000667F0606000000000000007E6060607C02
:1023D00006060C78000000000000001C18307C6627
:1023E0006666663C000000000000007E060C0C18CB
:1023F00018303030000000000000003C6666763C7B
:102400006E66663C000000000000003C6666666682
:102410003E0C18380000000000000000001C1C00EA
:1024200000001C1C0000000000000000001C1C003C
:1024300000001C1C0C180000000000060C18306086
:1024400030180C06000000000000000000007E00B4
:102450007E000000000000000000006030180C0644
:102460000C183060000000000000003C66660C188C
:1024700018001818000000000000007EC3C3CFDB66
:10248000DBCFC07F00000000000000183C666666DD
:102490007E666666000000000000007C6666667C62
:1024A0006666667C000000000000003C66666060B6
:1024B0006066663C00000000000000786C6666669E
:1024C00066666C78000000000000007E6060607C42
:1024D0006060607E000000000000007E6060607C44
:1024E00060606060000000000000003C66666060A4
:1024F0006E66663E00000000000000666666667E4E
:1025000066666666000000000000003C1818181897
:102510001818183C00000000000000060606060619
:102520000666663C0000000000000066666C6C7881
:102530006C6C666600000000000000606060606017
:102540006060607E000000000000006363776B6BDA
:102550006B636363000000000000006363737B6FC4
:1025600067636363000000000000003C6666666607
:102570006666663C000000000000007C6666667CC3
:1025800060606060000000000000003C66666666F7
:102590006666663C0C0600000000007C6666667C91
:1025A0006C666666000000000000003C6660301843
:1025B0000C06663C000000000000007E1818181889
:1025C00018181818000000000000006666666666AD
:1025D0006666663C0000000000000066666666668F
:1025E00066663C18000000000000006363636B6BCC
:1025F0006B3636360000000000000066663418189E
:102600002C66666600000000000000666666663C98
:1026100018181818000000000000007E06060C18AC
:102620003060607E000000000000003C3030303040
:102630003030303030303C00000000606030301806
:10264000180C0C06060000000000003C0C0C0C0CE2
:102650000C0C0C0C0C0C3C0000183C66000000003C
:10266000000000000000000000000000000000006A
:10267000000000000000FF00000000181818000013
:10268000000000000000000000000000003C060602
:102690003E66663E0000000000000060607C6666EA
:1026A0006666667C0000000000000000003C66607A
:1026B0006060663C0000000000000006063E6666A2
:1026C0006666663E0000000000000000003C666692
:1026D0007E60603C000000000000001E3030307E54
:1026E000303030300000000000000000003E666620
:1026F0006666663E06067C0000000060607C6666DA
:102700006666666600000000000018180078181859
:102710001818187E0000000000000C0C003C0C0C87
:102720000C0C0C0C0C0C7800000000606066666CF1
:10273000786C666600000000000000781818181811
:102740001818187E0000000000000000007E6B6B6F
:102750006B6B6B630000000000000000007C66668D
:10276000666666660000000000000000003C6666C9
:102770006666663C0000000000000000007C6666A3
:102780006666667C6060600000000000003E666671
:102790006666663E060606000000000000666E7073
:1027A000606060600000000000000000003E6060AB
:1027B0003C06067C0000000000000030307E303017
:1027C0003030301E00000000000000000066666629
:1027D0006666663E00000000000000000066666657
:1027E00066663C18000000000000000000636B6B90
:1027F0006B6B363600000000000000000066663C8F
:10280000183C666600000000000000000066666676
:102810006666663C0C18F00000000000007E060CA6
:102820001830607E000000000000000C18181830FE
:1028300060301818180C000000000018181818183C
:102840001818181818181800000000301818180C5C
:10285000060C18181830000000000071DB8E000014
:1028600000000000000000008828000000000010A8
:1028700048000000661C0000D0280000480000103E
:10288000B0020000741C0000000000000000000006
:10289000000E27070087930300879303006CDC0278
:1028A00014000000140000000C03000014000000DD
:1028B0000C030000CC01000014000000CC0100005B
:1028C00090010000F0000000000000000000000087
:04000005000000E512
:00000001FF
