:020000040000FA
:10000000303F001081010000890100008B010000D9
:100010008D0100008F010000910100000000000030
:10002000000000000000000000000000F9000000D7
:10003000950100000000000029010000D503000028
:100040009B0100009B0100009B0100009B01000040
:100050009B0100009B0100009B0100009B01000030
:100060009B0100009B0100009B0100009B01000020
:100070009B010000000000009B0100009B010000AC
:100080009B0100009B0100009B0100009B01000000
:100090009B0100009B0100009B0100009B010000F0
:1000A0009B0100009B0100009B0100009B010000E0
:1000B0009B0100009B0100009B0100009B010000D0
:1000C0009B0100009B0100009B0100009B010000C0
:1000D0009B0100009B0100009B0100009B010000B0
:1000E0009B010000DFF80CD000F07CF800480047CE
:1000F00021080000303F0010194B19680868B0E86B
:10010000F00F80F309884FF0000080F311884EF063
:100110000D0E70470000000002480068006880F380
:10012000088800DF08ED00E0EFF309800C4B1A6847
:1001300020E9F00F106008B54FF0BF0080F3118880
:1001400000F096FE4FF0000080F31188BDE80840F3
:1001500019680868B0E8F00F80F30988704700BF9D
:100160000000001001B44FF0BF0080F3118801BC03
:10017000704701B44FF0000080F3118801BC704754
:100180000648804706480047FEE7FEE7FEE7FEE731
:10019000FEE7FEE7FEE7FEE7FEE7FEE7F906000002
:1001A000E5000000D2B201E000F8012B491EFBD2AD
:1001B00070470022F6E710B504460846114602468D
:1001C0002046FFF7EFFF204610BD10B5044604E0BF
:1001D0000B7800F8013B03B1491C521EF8D22046AF
:1001E00010BD0000064C074D06E0E06840F001033A
:1001F00094E8070098471034AC42F6D3FFF776FF37
:10020000141100003411000070B506460C4630464B
:1002100000F004F8054605B1EC6170BD01464FF0F1
:100220000000062910D2DFE801F0030507090B0DD5
:1002300007480AE0074808E0074806E0074804E0E6
:10024000074802E0074800E000BF00BF7047000019
:10025000008009202080092040800920608009203A
:1002600080800920A08009202DE9F04107460D4635
:1002700016463846FFF7D2FF04464CB126B1206837
:1002800040EA0500206003E0206820EA05002060C5
:10029000BDE8F08170B506460C463046FFF7BEFF5C
:1002A000054605B1AC6170BD2DE9F04106460F462B
:1002B00015464FF000043946304600F021F88046DC
:1002C000B8F1050F02D10A48BDE8F0813946304641
:1002D00000F074F80446206820F00700206005F064
:1002E0000701206840EA010020604FF00000EBE7C2
:1002F000010000107047000000000000FFFFFFFF3A
:1003000002464FF00500062A54D2DFE802F003341B
:1003100040414245062907DD0A2901DB0B2903DD9F
:100320000E2904DB162902DC4FF0000022E00C2924
:1003300005D00D2903D0172904DB1A2902DC4FF060
:10034000010017E01D2903D01E2901D01F2902D169
:100350004FF002000EE01B2901D01C2902D14FF002
:10036000030007E0072903D0082901D0092901D19A
:100370004FF004001FE01D2902DC4FF0000005E0F3
:100380001E2901D01F2901D14FF0010013E000BF49
:1003900000BF4FF000000EE0012901DD042902D169
:1003A0004FF0000005E0022901D0032901D14FF0F0
:1003B000030000E000BF00BF7047000010B5024618
:1003C0004FF0000001EB4213014C04EB830010BD21
:1003D00000C0024010B54FF08050054908604FF052
:1003E0000004FFF7BFFE00F0AFFCFFF7C2FE10BD38
:1003F00004ED00E030B5B448006810F4807F74D19B
:10040000B1480830006810F0010F2FD1AE480068E5
:1004100010F01F0F02D14FF0000006E0AA4800685C
:1004200000F01F00A949B1FBF0F0A9490860A648F7
:10043000A430006810F01F0F02D14FF0000006E05A
:10044000A448006800F01F00A049B1FBF0F0A249E9
:100450000860A248006800F0010000F101009C491A
:100460000968B1FBF0F09E490860C8E09948083877
:10047000006810F0400F08D14FF000009449086068
:100480009549086096490860B9E08F48006810F007
:100490001F0F02D14FF0000006E08B48006800F00B
:1004A0001F008A49B1FBF0F089490860894800685B
:1004B00010F01F0F02D14FF0000006E085480068E1
:1004C00000F01F008149B1FBF0F0834908608348C8
:1004D000006800F0010000F101007D490968B1FBEE
:1004E000F0F07F4908608AE0FFE77C4878380068D0
:1004F00010F4807F08D14FF00000754908607649FC
:100500000860774908607AE06F480830006810F0AA
:10051000010F32D1734C246804F01F0404F1010070
:10052000714CD4F8044104F01F016A4C246804F0B3
:100530001F026D4CD4F8004104F0010404F10103E2
:1005400011B94FF0000404E0604C00FB04F4B4FB6C
:10055000F1F45F4D2C6012B94FF0000404E05B4CE5
:1005600000FB04F4B4FBF2F45B4D2C60584C24689F
:10057000B4FBF3F45A4D2C6041E05648083800684B
:1005800010F0400F08D14FF0000051490860524967
:1005900008605349086032E0524C246804F01F049C
:1005A00004F10100504CD4F8044104F01F01494CFF
:1005B000246804F01F024C4CD4F8004104F00104FC
:1005C00004F1010311B94FF0000404E03F4C00FBBB
:1005D00004F4B4FBF1F43E4D2C6012B94FF000046A
:1005E00004E03A4C00FB04F4B4FBF2F43A4D2C6006
:1005F000374C2468B4FBF3F4394D2C6000BF32480B
:10060000001D006810F4807F36D02F48001D006860
:1006100010F01F0004D0042807D0062826D105E0DA
:100620004FF000003149086025E000BF2D4A1268F4
:1006300002F01F0202F101002B4AD2F8082102F059
:100640001F012B4A126812F0010F07D01F4A00FB4E
:1006500002F2B2FBF1F2254B1A6006E01B4A00FBE6
:1006600002F2B2FBF1F2214B1A6004E04FF00000FD
:100670001E49086000BF26E01348001D006810F402
:10068000007F1CD01A48006810F0010F0BD01948E9
:10069000006800F01F0000F101000C4900FB01F0B0
:1006A000124908600FE00F48006800F01F0000F1D9
:1006B0000100064900FB01F00C49086003E04FF01F
:1006C00000000A49086030BD04C10F40001BB7009C
:1006D00054000010A8C10F405800001000C10F4086
:1006E0005C00001088C00F4000C00F406000001088
:1006F0000CC10F40A8C00F4000B54FF02100334996
:10070000086000BF3148006810F0400FFAD04FF089
:1007100001002F4908604FF009002E49C1F88400FC
:100720004FF001002C4908604FF0AA002B490860E7
:100730004FF05500086000BF2848001F006810F403
:10074000806FF9D04FF02300254908604FF0010079
:100750002049C1F8A0004FF0AA00224908604FF0DC
:1007600055001C49C1F8AC0000BF1D48001D0068C1
:1007700010F4806FF9D040F201101B49086040F27C
:1007800001201449C1F808014FF001001749086021
:100790004FF00200164908601648174908604FF4E8
:1007A00080700C49C1F8C8010846D0F8B00140F08B
:1007B00003001249086045F23A00064908604FF00C
:1007C00000000F490860FFF715FE00BDA0C10F40F3
:1007D0000CC10F4000C00F4080C00F408CC00F40C4
:1007E000A4C00F40ACC00F4004C10F4000C10F4077
:1007F000A8C10F40DE872804C4C00F40B0C10F401D
:1008000008ED00E002E008C8121F08C1002AFAD172
:100810007047002001E001C1121F002AFBD1704780
:100820001FB500200123CDE900300290034680224D
:1008300001460390034800F06FFB00F0E9FA002046
:1008400004B010BD030B000070B505460E464FF016
:10085000440000F0D1F804469CB11EB9A80000F095
:10086000CBF800E030462063206B28B9204600F02A
:100870000BFA4FF0000404E0A900A522206BFFF75B
:1008800091FC204670BD000070B51A48006878B32E
:1008900000F0E4FA1848006810B94FF0010001E0D8
:1008A0004FF00000054600F0C1FB0DBB00F0D0F991
:1008B0001148006818B11048C068C06801E04FF0E6
:1008C0000000044604F1040000F0ADF90B48006894
:1008D000A0F101000949086006480068A0F1010084
:1008E0000449086000F0C0F9204600F009F800BF94
:1008F00070BD00000400001004010010080000108A
:1009000010B50446206B00F0BFF9204600F0BCF99A
:1009100010BD000000BFFFF7B7FF034800680128C3
:10092000F9D900F0D3F9F6E7640000102DE9F041A1
:1009300004460E4615469846069F4FF01002314673
:1009400004F13400FFF741FC4FF000014FF0430089
:100950000155052D01D34FF00405E562201D00F07F
:1009600034F904F1180000F030F92461C5F10500F4
:10097000A0616462BDE8F08110B54FF0000408E0AA
:1009800004EB84010F4A02EB810000F010F904F13E
:100990000104052CF4D30C4800F009F90B4800F0D1
:1009A00006F90B4800F003F90A4800F000F90A487C
:1009B00000F0FDF804480949086004480849086047
:1009C00010BD000064000010C8000010DC00001022
:1009D000F000001004010010180100103000001099
:1009E0003400001003484FF0E02148614FF0070049
:1009F000086170473F1901002DE9F04104464FF0AE
:100A0000000800F02BFA30480068A8B92F49304A96
:100A10001160414651604FF470512E4A51604FF0C1
:100A20000001116029484FF4705141601146016086
:100A30004FF00100244908604CB104F1100414F097
:100A4000070F04D004F00700C0F108000444002C94
:100A500035D0B4F5705F32D21D4F3846056801E0DD
:100A60002F462D686868A04202D228680028F7D176
:100A70001848854223D0386800F11008286838608B
:100A80006868A0EB0400202812D905EB040668680A
:100A9000A0EB040070606C6071680D4800E00068B5
:100AA000026852688A42FAD302683260066000BF68
:100AB000094968680968A1EB00000749086000F06F
:100AC000B5FA4046BDE8F0813C000010300100104E
:100AD000400000104800001038000010A0F1040091
:100AE0004FF080730360A0F104000160A0F10400E6
:100AF0004FF000030360A0F114000260A0F1200099
:100B00007047002215210220FFF7CEFB012251057C
:100B10000220FFF7A9FB00220D210120FFF7C4FBF3
:100B2000012251031046FFF79FFB002211460520CA
:100B3000FFF7BAFB012211460520FFF795FB0022C3
:100B400001210520FFF7B0FB012202210520FFF75C
:100B50008BFB2BE04FF400110220FFF755FB4FF405
:100B600000510120FFF750FB01210520FFF74CFB4E
:100B700002210520FFF748FB4FF4FA7000F0AEF8B1
:100B80004FF400110220FFF785FB4FF400510120C4
:100B9000FFF780FB01210520FFF77CFB02210520E8
:100BA000FFF778FB4FF4FA7000F098F8D2E700F105
:100BB000080141604FF0FF31816000F10801C16020
:100BC00001614FF00001016070474FF000010161C9
:100BD000704710B502460B685C1C01D1106907E034
:100BE00002F1080000E04068446824689C42FAD999
:100BF00044684C604C68A160886041600A61146878
:100C000004F10104146010BD426853684B604368EE
:100C10008B6053689960516041600861036803F11B
:100C2000010303607047D0E901329A60D0E90123E3
:100C30005A6001694A68824201D182684A604FF075
:100C4000000202610A68A2F101020A607047000016
:100C500010B5FFF787FA0348006800F10100014969
:100C6000086010BD5000001010B506480068A0F1E3
:100C70000100044908600846006808B9FFF779FADE
:100C800010BD00005000001070B506463546BEB1DC
:100C9000A5F110052C4600F0E1F86168094800E074
:100CA0000068026852688A42FAD3026822600460CF
:100CB00005496068096808440349086000F0B6F90E
:100CC00070BD000040000010380000104FF0805050
:100CD000014908607047000004ED00E070B504466B
:100CE0004FF0000624B300F0B9F81348006800EB99
:100CF00004051248006800F10400FFF794FF0F4854
:100D0000006845600C480068854207D20B480168BE
:100D1000091D0B480068FFF75CFF06E00748016803
:100D2000091D08480068FFF754FF00F07FF90646E8
:100D30000EB9FFF7CBFF70BD0C00001000000010D3
:100D4000340000103000001010B529480068002859
:100D500046D12848006800F101002649086008468D
:100D6000006870B92449086824490968224A11605A
:100D7000224908602249096801F10101204A1160F5
:100D800000BF1FE01B4960680968884200D925E060
:100D9000201DFFF748FFA06A18B104F11800FFF703
:100DA00042FF1849E06A0968884202D91549E06A99
:100DB0000860E16A01EB8101134A02EB8100211D09
:100DC000FFF722FF0C480068006820B10A4800685D
:100DD000C068C06800E000200400D3D100BF05E077
:100DE0000A48006800F101000849086010BD0000D1
:100DF0001C0000100C000010300000103400001027
:100E000028000010140000106400001020000010E2
:100E10001FB50020009001900290034680220AA195
:100E200003900B4800F078F80446012C0AD1FFF734
:100E300099F92046074908604FF00000064908600C
:100E400000F050F81FBD000049444C450000000070
:100E500015090000180000100C000010034800687D
:100E600000F1010001490860704700001C000010FB
:100E70001748006820B14FF001001649086070471C
:100E800005E015480068A0F1010013490860124808
:100E9000006800EB8000114951F820000028F0D0D4
:100EA0000D49096801EB81010C4A02EB81004168A0
:100EB0004968416000F1080142688A4202D14168F4
:100EC000496841604168C968054A116000BFD6E7BA
:100ED0001C0000102400001014000010640000101A
:100EE0000000001010B50A48006840F47F0008496F
:100EF00008600846006840F07F400860FFF772FD18
:100F00004FF0000003490860FFF706F9002010BD0C
:100F100020ED00E0500000102DE9FF4F81B0804629
:100F200015469946DDE90E7A28461099FFF78CFCA4
:100F30000446002C5AD0A5F10100216B01EB800B77
:100F40002BF0070B00953A462046119B0299FFF7BC
:100F5000EDFC4A4641465846FFF7C0FD2060BAF115
:100F6000000F01D0CAF80040FFF772FE2848006861
:100F700000F10100264908602648006840B925486C
:100F800004600846006801280CD1FFF7F5FC09E071
:100F90002148006830B91F480068C06AB84201D8CB
:100FA0001C4804601D49E06A0968884202D91B494F
:100FB000E06A08601A48006800F1010018490860FA
:100FC0001849E06A0968884202D91649E06A08604F
:100FD000E16A01EB8101144A02EB8100211DFFF758
:100FE00013FE4FF00106FFF73FFE01E04FF0FF3622
:100FF000012E09D10848006830B106480068C06A6F
:10100000B84201D2FFF762FE304605B0BDE8F08F6E
:101010000800001000000010180000101000001060
:101020002C000010140000106400001070B54FF088
:101030000005FFF70DFE2F480068A0F101002D49C3
:10104000086008460068002850D12B480068002836
:101050004CD02E461FE004F11800FFF7E4FD201DE0
:10106000FFF7E1FD2549E06A0968884202D9234972
:10107000E06A0860E16A01EB8101214A02EB81002C
:10108000211DFFF7C1FD1F49E06A0968C96A88424E
:1010900001D34FF001061C48006818B11A48C06817
:1010A000C06800E000200400D5D11848006870B185
:1010B00007E0FFF749FE15480068A0F10100134959
:1010C0000860124800680028F3D14FF00106012E95
:1010D00003D00F480068012807D14FF001054FF0F9
:1010E00000000B490860FFF7F1FD00BFFFF7BCFDF2
:1010F000284670BD1C0000100800001014000010ED
:101100006400001000000010F0000010200000102B
:1011100024000010341100000000001064000000E2
:10112000040800009811000064000010CC3E00008C
:101130001208000000000000000000000000000095
:10114000000000000000000000000000000000009F
:10115000000000000000000000000000000000008F
:10116000000000000000000000000000003C000043
:10117000000000000000000000000000000000006F
:1011800000000000AAAAAAAA000E2707008793035E
:0811900000879303006CDC02F0
:04000005000000E512
:00000001FF
