:020000040000FA
:1000000010020010F90000000101000003010000CF
:1000100005010000070100000901000000000000C8
:100020000000000000000000000000000B010000C4
:100030000D010000000000000F0100001101000090
:100040001301000013010000130100001301000060
:100050001301000013010000130100001301000050
:100060001301000013010000130100001301000040
:100070001301000000000000130100001301000044
:100080001301000013010000130100001301000020
:100090001301000013010000130100001301000010
:1000A0001301000013010000130100001301000000
:1000B00013010000130100001301000013010000F0
:1000C00013010000130100001301000013010000E0
:1000D00013010000130100001301000013010000D0
:1000E00013010000DFF80CD000F018F800480047BA
:1000F00045070000100200100648804706480047E8
:10010000FEE7FEE7FEE7FEE7FEE7FEE7FEE7FEE7C7
:10011000FEE7FEE71D060000E5000000064C074D67
:1001200006E0E06840F0010394E8070098471034C7
:10013000AC42F6D3FFF7DAFFFC0700001C08000012
:1001400001E0A0F101000028FBD1704770B5064620
:100150000C46304600F004F8054605B1EC6170BD70
:1001600001464FF00000062910D2DFE801F0030538
:1001700007090B0D07480AE0074808E0074806E0B2
:10018000074804E0074802E0074800E000BF00BF5E
:10019000704700000080092020800920408009204D
:1001A0006080092080800920A08009202DE9F0418D
:1001B00007460D4616463846FFF7D2FF04464CB1B7
:1001C00026B1206840EA0500206003E0206820EAAC
:1001D00005002060BDE8F08170B506460C4630464B
:1001E000FFF7BEFF054605B1AC6170BD2DE9F041DA
:1001F00006460F4615464FF000043946304600F0DB
:100200001BF88046B8F1050F02D10A48BDE8F0811D
:100210003946304600F074F80446206820F00700A4
:10022000206005F00701206840EA010020604FF0DF
:100230000000EBE70100001002464FF00500062A1F
:1002400054D2DFE802F0033440414245062907DD7D
:100250000A2901DB0B2903DD0E2904DB162902DC48
:100260004FF0000022E00C2905D00D2903D01729FA
:1002700004DB1A2902DC4FF0010017E01D2903D02E
:100280001E2901D01F2902D14FF002000EE01B29C8
:1002900001D01C2902D14FF0030007E0072903D049
:1002A000082901D0092901D14FF004001FE01D29C0
:1002B00002DC4FF0000005E01E2901D01F2901D10A
:1002C0004FF0010013E000BF00BF4FF000000EE050
:1002D000012901DD042902D14FF0000005E00229C7
:1002E00001D0032901D14FF0030000E000BF00BF9F
:1002F000704770470000000000000000FFFFFFFF94
:1003000010B502464FF0000001EB4213014C04EB24
:10031000830010BD00C0024030B5B448006810F43E
:10032000807F74D1B1480830006810F0010F2FD1E0
:10033000AE48006810F01F0F02D14FF0000006E039
:10034000AA48006800F01F00A949B1FBF0F0A949D4
:100350000860A648A430006810F01F0F02D14FF0CB
:10036000000006E0A448006800F01F00A049B1FBAF
:10037000F0F0A2490860A248006800F0010000F116
:1003800001009C490968B1FBF0F09E490860C8E093
:1003900099480838006810F0400F08D14FF000006D
:1003A000944908609549086096490860B9E08F480B
:1003B000006810F01F0F02D14FF0000006E08B48DC
:1003C000006800F01F008A49B1FBF0F0894908601D
:1003D0008948006810F01F0F02D14FF0000006E0BE
:1003E0008548006800F01F008149B1FBF0F08349A7
:1003F00008608348006800F0010000F101007D49B9
:100400000968B1FBF0F07F4908608AE0FFE77C48AB
:100410007838006810F4807F08D14FF000007549EB
:10042000086076490860774908607AE06F480830CC
:10043000006810F0010F32D1734C246804F01F04DF
:1004400004F10100714CD4F8044104F01F016A4C1E
:10045000246804F01F026D4CD4F8004104F001043C
:1004600004F1010311B94FF0000404E0604C00FBFB
:1004700004F4B4FBF1F45F4D2C6012B94FF00004AA
:1004800004E05B4C00FB04F4B4FBF2F45B4D2C6025
:10049000584C2468B4FBF3F45A4D2C6041E05648A4
:1004A0000838006810F0400F08D14FF000005149A3
:1004B0000860524908605349086032E0524C246891
:1004C00004F01F0404F10100504CD4F8044104F07E
:1004D0001F01494C246804F01F024C4CD4F8004121
:1004E00004F0010404F1010311B94FF0000404E029
:1004F0003F4C00FB04F4B4FBF1F43E4D2C6012B908
:100500004FF0000404E03A4C00FB04F4B4FBF2F4B6
:100510003A4D2C60374C2468B4FBF3F4394D2C6011
:1005200000BF3248001D006810F4807F36D02F488D
:10053000001D006810F01F0004D0042807D0062812
:1005400026D105E04FF000003149086025E000BFEA
:100550002D4A126802F01F0202F101002B4AD2F864
:10056000082102F01F012B4A126812F0010F07D078
:100570001F4A00FB02F2B2FBF1F2254B1A6006E0C3
:100580001B4A00FB02F2B2FBF1F2214B1A6004E0BD
:100590004FF000001E49086000BF26E01348001D10
:1005A000006810F4007F1CD01A48006810F0010F9A
:1005B0000BD01948006800F01F0000F101000C4941
:1005C00000FB01F0124908600FE00F48006800F0DE
:1005D0001F0000F10100064900FB01F00C49086012
:1005E00003E04FF000000A49086030BD04C10F402D
:1005F000001BB70000000010A8C10F40040000104D
:1006000000C10F400800001088C00F4000C00F401C
:100610000C0000100CC10F40A8C00F4000B54FF0F7
:1006200021003349086000BF3148006810F0400FD6
:10063000FAD04FF001002F4908604FF009002E4911
:10064000C1F884004FF001002C4908604FF0AA0067
:100650002B4908604FF05500086000BF2848001F74
:10066000006810F4806FF9D04FF02300254908602E
:100670004FF001002049C1F8A0004FF0AA00224924
:1006800008604FF055001C49C1F8AC0000BF1D4880
:10069000001D006810F4806FF9D040F201101B4972
:1006A000086040F201201449C1F808014FF0010030
:1006B000174908604FF002001649086016481749AC
:1006C00008604FF480700C49C1F8C8010846D0F8A2
:1006D000B00140F003001249086045F23A000649B3
:1006E00008604FF000000F490860FFF715FE00BDDD
:1006F000A0C10F400CC10F4000C00F4080C00F4090
:100700008CC00F40A4C00F40ACC00F4004C10F40CC
:1007100000C10F40A8C10F40DE872804C4C00F40AD
:10072000B0C10F4008ED00E002E008C8121F08C188
:10073000002AFAD17047002001E001C1121F002AEF
:10074000FBD17047002215210220FFF74FFD012247
:1007500051050220FFF72AFD00220D210120FFF79D
:1007600045FD012251031046FFF720FD00221146EE
:100770000520FFF73BFD012211460520FFF716FD7E
:10078000002201210520FFF731FD01220221052071
:10079000FFF70CFD00BF4FF400110220FFF7D6FC5D
:1007A0004FF400510120FFF7D1FC01210520FFF794
:1007B000CDFC02210520FFF7C9FC0F48FFF7C0FC64
:1007C0000D48FFF7BDFC4FF400110220FFF704FDB8
:1007D0004FF400510120FFF7FFFC01210520FFF736
:1007E000FBFC02210520FFF7F7FC0348FFF7A8FCFC
:1007F0000148FFF7A5FCCEE7FFFF0F001C08000033
:100800000000001010000000280700002C08000065
:10081000100000100002000036070000000E27073D
:0C0820000087930300879303006CDC0248
:04000005000000E512
:00000001FF
