:020000040000FA
:1000000058020020F9000000010100000301000077
:1000100005010000070100000901000000000000C8
:100020000000000000000000000000000B010000C4
:100030000D010000000000000F0100001101000090
:100040001301000013010000130100001301000060
:100050001301000013010000130100001301000050
:100060001301000013010000130100001301000040
:100070001301000000000000130100001301000044
:100080001301000013010000130100001301000020
:100090001301000013010000130100001301000010
:1000A0001301000013010000130100001301000000
:1000B00013010000130100001301000013010000F0
:1000C00013010000130100001301000013010000E0
:1000D00013010000130100001301000013010000D0
:1000E00013010000DFF80CD000F088F8004800474A
:1000F0003322000058020020064880470648004787
:10010000FEE7FEE7FEE7FEE7FEE7FEE7FEE7FEE7C7
:10011000FEE7FEE7D1110000E50000002DE9F05FE9
:100120000546002092469B46884606468146402466
:100130001BE0284641464746224600F02FF852462B
:100140005B46801A994110D310461946224600F0AA
:1001500016F82D1A67EB01084F46224601200021B0
:1001600000F00DF817EB00094E41201EA4F1010428
:10017000DFDC484631462A464346BDE8F09F202A48
:1001800004DB203A00FA02F1002070479140C2F1EE
:10019000200320FA03F3194390407047202A04DB20
:1001A000203A21FA02F00021704721FA02F3D040F0
:1001B000C2F120029140084319467047D2B201E0D3
:1001C00000F8012B491EFBD270470022F6E710B55C
:1001D00004460846114602462046FFF7EFFF204638
:1001E00010BD30B504460020034600E05B1C93427E
:1001F00003D2E05CCD5C401BF8D030BD064C074D0F
:1002000006E0E06840F0010394E8070098471034E6
:10021000AC42F6D3FFF76AFF2825000058250000FE
:10022000012907D1084A126842EA0002074BC3F8C5
:10023000C42007E031B9044A126822EA0002034BE5
:10024000C3F8C42070470000C4C00F4000C00F4076
:10025000014631B1012907D0022908D003290CD168
:1002600008E007480068704706480068FBE7064852
:100270000068F8E705480068F5E700BFFEE7000002
:1002800044000020480000204C00002050000020C6
:1002900010B504464FF0AA000D4908804FF05500F4
:1002A0000C4908804FF08000094908804FF0AA00EF
:1002B00008804FF05500074908804FF03001A4F145
:1002C000E04001804FF4200000F072F810BD000003
:1002D000AA0A0090540500904FF0F0004FF0104132
:1002E00008804FF000007047416841F00201416012
:1002F000416821F00201416070477047FFFFFFFF36
:1003000070B506460D4636B1012E12D0022E1ED013
:10031000032E3ED129E02148006820F01F0405F09B
:100320001F0040EA04041E48C0F8044100F0CEFD5E
:1003300031E01C48006820F01F0405F01F0040EA6F
:1003400004041748C0F8A84100F0C0FD23E0164897
:10035000006820F0010405F0010040EA04041048A0
:10036000C0F8004100F0B2FD15E01048006820F030
:100370001F0405F01F0040EA04040948D0F80801F2
:1003800005F01F0140EA01000849086000F09EFDE9
:1003900001E000BFFEE700BF70BD000004C10F40D8
:1003A00000C00F40A8C10F4000C10F4008C10F405E
:1003B000F0B501464FF0000213464FF001040E461F
:1003C000154601E005F10105B5F5FA7FFAD32DE0F8
:1003D000A1F101014FF01040008882B24FF01040AF
:1003E000008883B202F0400003F04007B84201D118
:1003F0000020F0BD02F02000202801D04FF00104C1
:100400004FF01040008882B24FF01040008883B255
:1004100002F0400003F04007B84201D10020E8E7B5
:1004200002F02000202801D10220E2E709B1002CCF
:10043000CED109B94FF003042046DAE700B585B004
:100440004FF001008DF800004FF000008DF805001E
:100450004FF001008DF803004FF010008DF80100FF
:100460004FF000008DF804008DF802004FF00200FC
:100470008DF806008DF807004FF01F008DF80A0078
:100480008DF809008DF808008DF80B00684600F023
:100490007FFC4FF001008DF80C00049003AA4FF090
:1004A00000014FF0402000F091FF642000F0F2FFC7
:1004B0000A2000F0EFFF05B000BD000010B54FF0BE
:1004C000AA030C4C23804FF055030B4C23804FF0B4
:1004D000F004A1F1E0431C8008E0A1F1E0431B8897
:1004E00020F8023B01F10201A2F10102002AF4D13D
:1004F00010BD0000AA0A0090540500904FF0AA0118
:100500000D4A11804FF055010C4A11804FF09001B7
:10051000094A11804FF01041098801804FF01041C5
:10052000498841804FF01041898B81804FF0104104
:10053000C98BC18070470000AA0A00905405009042
:1005400070B5FFF77BFFFFF7C7FE4C48FFF7D6FFFC
:10055000FFF7C2FE49480088012816D14748408865
:10056000A0F508517E3910D144488088A0F5085183
:1005700010390AD14148C088B0F5085F05D140A1C3
:1005800000204C4A1268904704E04BA10020494AE1
:10059000126890474FF000064FF064054FEA05409F
:1005A000FFF776FE4FF000040BE04CF25030B4FB46
:1005B000F0F100FB11402844484921F8140004F1EF
:1005C0000104B4F5804FF0D329044FF4804243482E
:1005D00000F09AF84FF400414148FFF7F6FD290476
:1005E0004FF480423E48FFF769FF4FF400423C4918
:1005F0003A48FFF7F6FD10B106F10100C6B24FF020
:1006000000040CE04CF25030B4FBF0F100FB114060
:1006100005FB0500314921F8140004F10104B4F58B
:10062000804FEFD34FF4004202EB054152102B48AC
:1006300000F06AF84FF400412948FFF7C6FD4FF477
:10064000004202EB054152102548FFF737FF4FF4F7
:10065000004223492148FFF7C4FD10B106F1010013
:10066000C6B22EB91FA10020124A1268904704E0BA
:1006700020A100200F4A1268904770BD00000020A2
:100680000D0A4E4F522054797065203D2053323967
:10069000474C3036344E20384D204E4F5220466C59
:1006A00061736820202D2D2D2D2D2D2D2D2D2020F9
:1006B000000000000C0000200D0A4E4F522054791B
:1006C0007065203D20556E6B6E6F7720202D2D2D8F
:1006D0002D2D2D2D2D2D20200000000000000010BC
:1006E000008000104E6F7220466C617368204F4B83
:1006F000200D0A004E6F7220466C6173682065728F
:10070000726F72200D0A0000F0B504460D461646C1
:100710004FF0010700BF34F8021B284600F00AF82A
:10072000074605F10205A6F101060FB9002EF2D128
:100730003846F0BD30B505460C464FF0AA000949D1
:1007400008804FF05500084908804FF0A000054987
:10075000088021B2A5F1E04001804FF4A050FFF7DE
:1007600027FE30BDAA0A00905405009010B5002065
:10077000FFF76EFD0B49884204D901210220FFF7E3
:10078000BFFD03E000210220FFF7BAFD0121C802EE
:10079000FFF746FD4FF00100034908604FF00000ED
:1007A00010BD000000B4C40400C0092010B5034609
:1007B00033B1012B2DD0022B54D0032B28D17AE05A
:1007C000062922D2DFE801F003080D12171C02F0FF
:1007D0000F004F4C20601AE002F00F004D4C2060DB
:1007E00015E002F01F004C4C206010E002F01F00EA
:1007F0004A4C20600BE002F01F00494C206006E0EC
:1008000002F00F00474C206001E0022010BD00BF45
:100810007AE0062922D2DFE801F003080D12171C46
:1008200002F00F00404C20601AE002F00F003F4C35
:10083000206015E002F01F003D4C206010E002F047
:100840001F003C4C20600BE002F01F003A4C20607F
:1008500006E002F00F00394C206001E00220D5E7ED
:1008600000BF51E0062922D2DFE801F003080D1293
:10087000171C02F00F00324C20601AE002F00F004B
:10088000304C206015E002F01F002F4C206010E07B
:1008900002F01F002D4C20600BE002F01F002C4CDA
:1008A000206006E002F00F002A4C206001E00220E8
:1008B000ACE700BF28E0062922D2DFE801F00308F8
:1008C0000D12171C02F00F00234C20601AE002F0FA
:1008D0000F00224C206015E002F01F00204C206029
:1008E00010E002F01F001F4C20600BE002F01F0020
:1008F0001D4C206006E002F00F001C4C206001E05F
:10090000022083E700BF00BF00BF00207EE7000099
:1009100004C2092008C209200CC2092010C2092003
:1009200014C2092018C2092024C2092028C20920A3
:100930002CC2092030C2092034C2092038C2092043
:1009400044C2092048C209204CC2092050C20920D3
:1009500054C2092058C2092064C2092068C2092073
:100960006CC2092070C2092074C2092078C2092013
:10097000024632B1012A15D0022A24D0032A44D1DA
:1009800032E02448006820F48070234BC3F8000252
:100990002048006801F4807340EA03001E4BC3F84E
:1009A000000234E01D48006820F480701A4BC3F840
:1009B00020021A48006801F4807340EA0300164BD5
:1009C000C3F8200223E01648006820F48070124B20
:1009D000C3F840021248006801F4807340EA030043
:1009E0000D4BC3F8400212E00E48006820F48070FE
:1009F000094BC3F860020B48006801F4807340EAB9
:100A00000300054BC3F8600201E00220704700BFFD
:100A10000020FBE700C2092000C0092020C20920F5
:100A200040C2092060C2092010B502460B464FF0B3
:100A30000001082B04D0102B05D0202B09D105E094
:100A40004FF0000107E04FF0010104E04FF0020118
:100A500001E0022010BD00BF32B1012A13D0022AEA
:100A600020D0032A3CD12CE02048006820F003006D
:100A70001F4CC4F800022046D0F8000240EA0100F2
:100A8000C4F800022EE01B48006820F00300184C58
:100A9000C4F820022046D0F8200240EA0100C4F841
:100AA00020021FE01448006820F00300104CC4F836
:100AB00040022046D0F8400240EA0100C4F840025B
:100AC00010E00E48006820F00300094CC4F86002F2
:100AD0002046D0F8600240EA0100C4F8600201E05C
:100AE0000220B7E700BF0020B4E7000000C20920E1
:100AF00000C0092020C2092040C2092060C209208C
:100B0000024632B1012A15D0022A24D0032A44D148
:100B100032E02448006820F08000234BC3F8000234
:100B20002048006801F0800340EA03001E4BC3F830
:100B3000000234E01D48006820F080001A4BC3F822
:100B400020021A48006801F0800340EA0300164BB7
:100B5000C3F8200223E01648006820F08000124B02
:100B6000C3F840021248006801F0800340EA030025
:100B70000D4BC3F8400212E00E48006820F08000E0
:100B8000094BC3F860020B48006801F0800340EA9B
:100B90000300054BC3F8600201E00220704700BF6C
:100BA0000020FBE700C2092000C0092020C2092064
:100BB00040C2092060C20920024632B1012A15D084
:100BC000022A24D0032A44D132E02448006820F0CD
:100BD0000800234BC3F800022048006801F0080316
:100BE00040EA03001E4BC3F8000234E01D480068D1
:100BF00020F008001A4BC3F820021A48006801F0E0
:100C0000080340EA0300164BC3F8200223E016480D
:100C1000006820F00800124BC3F840021248006838
:100C200001F0080340EA03000D4BC3F8400212E054
:100C30000E48006820F00800094BC3F860020B481A
:100C4000006801F0080340EA0300054BC3F86002A6
:100C500001E00220704700BF0020FBE700C209202E
:100C600000C0092020C2092040C2092060C209201A
:100C70002DE9F04106460F4615464FF0000439466F
:100C8000304600F01BF88046B8F1050F02D10A4843
:100C9000BDE8F0813946304600F06EF80446206821
:100CA00020F00700206005F00701206840EA0100FD
:100CB00020604FF00000EBE70100001002464FF00B
:100CC0000500062A54D2DFE802F0033440414245D1
:100CD000062907DD0A2901DB0B2903DD0E2904DBC8
:100CE000162902DC4FF0000022E00C2905D00D2966
:100CF00003D0172904DB1A2902DC4FF0010017E0AA
:100D00001D2903D01E2901D01F2902D14FF0020056
:100D10000EE01B2901D01C2902D14FF0030007E08F
:100D2000072903D0082901D0092901D14FF0040077
:100D30001FE01D2902DC4FF0000005E01E2901D054
:100D40001F2901D14FF0010013E000BF00BF4FF099
:100D500000000EE0012901DD042902D14FF000005E
:100D600005E0022901D0032901D14FF0030000E082
:100D700000BF00BF7047000010B502464FF00000F2
:100D800001EB4213014C04EB830010BD00C0024094
:100D900070B504464FF000054FF001024FF00E0110
:100DA0004FF00200FFF764FF01220F210220FFF73E
:100DB0005FFF2E460BE00122F1B20320FFF758FF40
:100DC0000122F1B20420FFF753FF06F10106202EA5
:100DD000F1D3012200210520FFF74AFF012211462D
:100DE0000520FFF745FFFFF7C1FC40EA05056079E4
:100DF00028B13548006840F0020033490860617846
:100E00002078FFF711FE40EA0505A07830B1207880
:100E10000821FFF7D1FE40EA050505E02078002112
:100E2000FFF7CAFE40EA0505E07830B1207880215E
:100E3000FFF766FE40EA050505E020780021FFF790
:100E40005FFE40EA0505207938B120784FF48071C3
:100E5000FFF78EFD40EA050505E020780021FFF749
:100E600087FD40EA0505A27920780021FFF79EFC66
:100E700040EA0505E27920784FF00101FFF796FC82
:100E800040EA0505227A20784FF00201FFF78EFC38
:100E900040EA0505627A20784FF00301FFF786FCEF
:100EA00040EA0505A27A20784FF00401FFF77EFCA6
:100EB00040EA0505E27A20784FF00501FFF776FC5D
:100EC00040EA0505284670BD00C0092030B5B44889
:100ED000006810F4807F74D1B1480830006810F0C9
:100EE000010F2FD1AE48006810F01F0F02D14FF054
:100EF000000006E0AA48006800F01F00A949B1FB05
:100F0000F0F0A9490860A648A430006810F01F0F4F
:100F100002D14FF0000006E0A448006800F01F0076
:100F2000A049B1FBF0F0A2490860A248006800F0B7
:100F3000010000F101009C490968B1FBF0F09E49F5
:100F40000860C8E099480838006810F0400F08D1E0
:100F50004FF0000094490860954908609649086080
:100F6000B9E08F48006810F01F0F02D14FF0000069
:100F700006E08B48006800F01F008A49B1FBF0F0E2
:100F8000894908608948006810F01F0F02D14FF0AE
:100F9000000006E08548006800F01F008149B1FBB1
:100FA000F0F0834908608348006800F0010000F118
:100FB00001007D490968B1FBF0F07F4908608AE0D3
:100FC000FFE77C487838006810F4807F08D14FF044
:100FD00000007549086076490860774908607AE042
:100FE0006F480830006810F0010F32D1734C24684C
:100FF00004F01F0404F10100714CD4F8044104F022
:101000001F016A4C246804F01F026D4CD4F80041A3
:1010100004F0010404F1010311B94FF0000404E0ED
:10102000604C00FB04F4B4FBF1F45F4D2C6012B98A
:101030004FF0000404E05B4C00FB04F4B4FBF2F45A
:101040005B4D2C60584C2468B4FBF3F45A4D2C6073
:1010500041E056480838006810F0400F08D14FF0C2
:10106000000051490860524908605349086032E065
:10107000524C246804F01F0404F10100504CD4F8D1
:10108000044104F01F01494C246804F01F024C4C39
:10109000D4F8004104F0010404F1010311B94FF048
:1010A000000404E03F4C00FB04F4B4FBF1F43E4DBB
:1010B0002C6012B94FF0000404E03A4C00FB04F439
:1010C000B4FBF2F43A4D2C60374C2468B4FBF3F4D3
:1010D000394D2C6000BF3248001D006810F4807F3D
:1010E00036D02F48001D006810F01F0004D00428DF
:1010F00007D0062826D105E04FF0000031490860EE
:1011000025E000BF2D4A126802F01F0202F1010023
:101110002B4AD2F8082102F01F012B4A126812F064
:10112000010F07D01F4A00FB02F2B2FBF1F2254B80
:101130001A6006E01B4A00FB02F2B2FBF1F2214BFF
:101140001A6004E04FF000001E49086000BF26E06E
:101150001348001D006810F4007F1CD01A48006876
:1011600010F0010F0BD01948006800F01F0000F1CB
:1011700001000C4900FB01F0124908600FE00F4824
:10118000006800F01F0000F10100064900FB01F0BB
:101190000C49086003E04FF000000A49086030BDC8
:1011A00004C10F40001BB70044000020A8C10F403D
:1011B0004800002000C10F404C00002088C00F40B4
:1011C00000C00F40500000200CC10F40A8C00F40CD
:1011D00000B54FF021003349086000BF3148006876
:1011E00010F0400FFAD04FF001002F4908604FF087
:1011F00009002E49C1F884004FF001002C49086015
:101200004FF0AA002B4908604FF05500086000BF5E
:101210002848001F006810F4806FF9D04FF02300B9
:10122000254908604FF001002049C1F8A0004FF0A7
:10123000AA00224908604FF055001C49C1F8AC00D3
:1012400000BF1D48001D006810F4806FF9D040F207
:1012500001101B49086040F201201449C1F808013F
:101260004FF00100174908604FF00200164908606E
:101270001648174908604FF480700C49C1F8C8013E
:101280000846D0F8B00140F003001249086045F26A
:101290003A00064908604FF000000F490860FFF768
:1012A00015FE00BDA0C10F400CC10F4000C00F4093
:1012B00080C00F408CC00F40A4C00F40ACC00F4096
:1012C00004C10F4000C10F40A8C10F40DE872804B1
:1012D000C4C00F40B0C10F4008ED00E0012904D1A7
:1012E000426842F00102426003E0426822F00102DB
:1012F0004260704710B50A7832B1012A07D0022A3D
:1013000008D0032A0CD108E08A6882610AE08A6862
:10131000C26107E08A68026204E08A68426201E012
:1013200000BFFEE700BF42690B7803EB43044FF0B8
:10133000070303FA04F322EA030242614A7852B136
:1013400042690B7803EB43044FF0010303FA04F303
:1013500042EA03024261CA7862B142690B7803EB48
:10136000430303F101034FF0010404FA03F442EADA
:10137000040242618A7862B142690B7803EB43034D
:1013800003F102034FF0010404FA03F442EA0402F9
:101390004261C26B0B784FF0040404EB43044FF03E
:1013A000030303FA04F322EA0302C2630A7902F098
:1013B00003020B784FF0040404EB430302FA03F238
:1013C000C36B42EA0302C26310BD00002DE9F0477F
:1013D00004460F461546B4F1402F04D101210220E6
:1013E000FEF71EFF16E02848844204D101210420A4
:1013F000FEF716FF0EE02548844204D1012188053E
:10140000FEF70EFF06E02248844203D10121C80501
:10141000FEF706FF206F20F003002067206F206793
:101420004FF00000A0602061E060606840F00200C2
:101430006060606820F00200606097B92E463078E6
:1014400020B97068A0F10100E06018E0204600F0CB
:1014500029FE8146716800F047FEA0F10100E060BE
:101460000DE0A846206F20F00C002067454698F854
:101470000100012803D1A06A40F00400A0624FF0EF
:10148000FF302060BDE8F087008000400000094088
:101490000040094010B504464FF47A7104FB01F096
:1014A00000F001F810BD1EB504464FF0FF304FF0BC
:1014B000402108604FF000008DF800004FF001005F
:1014C0008DF801008DF803008DF802004FF0000048
:1014D0008DF80400029469464FF04020FFF70AFFA0
:1014E00001214FF04020FFF7F9FE00BF4FF04020F0
:1014F000006810F0010FF9D04FF04020FEF7F4FE25
:101500001EBD38B504464FF0000000904FF00103B7
:101510001A466946204600F04BFC9DF8000038BD95
:1015200070B505460C460CB9002070BD00230122A1
:101530002146284600F03CFC08B10120F5E70020D8
:10154000F3E700002DE9FF4F83B00C4615461E4619
:101550004FF0000002900190002D03DC306007B0D6
:10156000BDE8F08F4FF00009012C02D14FF01000C0
:1015700005E014B94FF00A0001E04FF00000C7B2D7
:101580001FB94FF000003060E9E74FF0000889E034
:101590004FF00100019003461A4602A9039800F09B
:1015A00007FC9DF80800302808DB9DF80800392862
:1015B00004DC9DF80800A0F1300B39E0012C34D197
:1015C0004FF010079DF80800612811D008DCA0F149
:1015D0004100062824D2DFE800F00C1014181C206B
:1015E000623805281CD2DFE800F0070B0F13170044
:1015F00000BF4FF00A0B17E000BF4FF00B0B13E0DA
:1016000000BF4FF00C0B0FE000BF4FF00D0B0BE0D5
:1016100000BF4FF00E0B07E000BF4FF00F0B03E0D1
:101620004FF00000019000BF02E04FF00000019079
:101630004FF0010000900198B0B924B91DA10398A2
:1016400000F074FA05E0012C03D12549039800F05D
:101650006DFA09F10109B9F10A0F23D321A1039809
:1016600000F064FA00207AE79DF80810039800F073
:1016700051F8012D03D12F46284600900BE04FF082
:10168000010A06E00098784300900AF1010000F09A
:10169000FF0AAA45F6DB00980BFB00FBD844A5F136
:1016A0000100C5B2002D3FF773AFC6F800800120DE
:1016B00055E70000506C6561736520656E74657256
:1016C000206120636861722066726F6D2027302769
:1016D00020746F202739272121210D0A00000000E6
:1016E000CC2400005265616368206C696D69746187
:1016F00074696F6E206F662072652D7472696573F0
:101700002E2052657475726E204641494C45440D39
:101710000A00000013B504464FF001031A4601A960
:10172000204600F0CDFB1CBD2DE9F04105460C46DE
:101730004FF00A0094FBF0F100FB1140C6B24FF0ED
:101740000A0094FBF0F04FF00A0190FBF1F201FB6C
:101750001200C7B24FF0640094FBF0F090FBF1F27E
:1017600001FB120000F0FF0808F13000C1B228466A
:10177000FFF7D0FF07F13000C1B22846FFF7CAFFDC
:1017800006F13000C1B22846FFF7C4FFBDE8F08182
:101790002DE9F04705460C464FF00A0094FBF0F1A6
:1017A00000FB1140C6B24FF00A0094FBF0F04FF07E
:1017B0000A0190FBF1F201FB1200C7B24FF0640086
:1017C00094FBF0F090FBF1F201FB120000F0FF0837
:1017D0004FF47A7094FBF0F090FBF1F201FB1200F1
:1017E00000F0FF0942F2107094FBF0F090FBF1F270
:1017F00001FB120000F0FF0A0AF13000C1B22846D6
:10180000FFF788FF09F13000C1B22846FFF782FFD9
:1018100008F13000C1B22846FFF77CFF07F1300025
:10182000C1B22846FFF776FF06F13000C1B2284664
:10183000FFF770FFBDE8F0872DE9F34F83B00C464A
:101840004FF00A00B4FBF0F100FB1140C5B24FF0BD
:101850000A00B4FBF0F04FF00A01B0FBF1F201FB1B
:101860001200C6B24FF06400B4FBF0F0B0FBF1F22E
:1018700001FB1200C7B24FF47A70B4FBF0F0B0FB7A
:10188000F1F201FB120000F0FF0842F21070B4FB0D
:10189000F0F0B0FBF1F201FB120000F0FF09364856
:1018A000B4FBF0F0B0FBF1F201FB120000F0FF0A14
:1018B0003248B4FBF0F0B0FBF1F201FB120000F093
:1018C000FF0B2F48B4FBF0F0B0FBF1F201FB12006C
:1018D000C0B202902B48B4FBF0F0B0FBF1F201FB78
:1018E0001200C0B201902848B4FBF0F0B0FBF1F256
:1018F00001FB1200C0B20090009800F13000C1B2AC
:101900000398FFF707FF01983030C1B20398FFF743
:1019100001FF02983030C1B20398FFF7FBFE0BF1D4
:101920003000C1B20398FFF7F5FE0AF13000C1B2F2
:101930000398FFF7EFFE09F13000C1B20398FFF7FB
:10194000E9FE08F13000C1B20398FFF7E3FE07F1AA
:101950003000C1B20398FFF7DDFE06F13000C1B2DE
:101960000398FFF7D7FE05F13000C1B20398FFF7E7
:10197000D1FE05B0BDE8F08FA086010040420F0007
:101980008096980000E1F50500CA9A3B2DE9F041E8
:1019900007460D460FA1384600F0C8F84FF0010683
:1019A00000BF4FEA860045FA00F000F00F04092C52
:1019B00002DD04F1370001E004F13000C1B2384625
:1019C000FFF7A8FE3000A6F10101CEB2E9D1BDE8D3
:1019D000F0810000307800002DE9F04107460D4607
:1019E0000FA1384600F0A2F84FF0030600BF4FEAFF
:1019F000860045FA00F000F00F04092C02DD04F126
:101A0000370001E004F13000C1B23846FFF782FE32
:101A10003000A6F10101CEB2E9D1BDE8F0810000AD
:101A2000307800002DE9F04107460D464FF00306DF
:101A300000BF4FEA860045FA00F000F00F04092CC1
:101A400002DD04F1370001E004F13000C1B2384694
:101A5000FFF760FE3000A6F10101CEB2E9D1BDE88A
:101A6000F08100002DE9F04107460D460FA13846F0
:101A700000F05CF84FF0070600BF4FEA860025FA39
:101A800000F000F00F04092C02DD04F1370001E042
:101A900004F13000C1B23846FFF73CFE3000A6F139
:101AA0000101CEB2E9D1BDE8F0810000307800003C
:101AB0002DE9F04107460D464FF0070600BF4FEAFB
:101AC000860025FA00F000F00F04092C02DD04F175
:101AD000370001E004F13000C1B23846FFF71AFECA
:101AE0003000A6F10101CEB2E9D1BDE8F0812DE9C7
:101AF000F04107460D464FF0010600BF4FEA860051
:101B000045FA00F000F00F04092C02DD04F1370063
:101B100001E004F13000C1B23846FFF7FBFD3000B0
:101B2000A6F10101CEB2E9D1BDE8F08170B506465B
:101B30000D462C4604E014F8011B3046FFF7EAFD81
:101B400020780028F7D170BD70B504460D462946AF
:101B50002046FFF7EBFF02A12046FFF7E7FF70BD2D
:101B60000A0D00004FF4E13101604FF003014171B3
:101B70004FF0000101718171704700002DE9F041C3
:101B800006460F46052E40D2DFE806F00340040566
:101B9000740000BF00BF304600F052FB054626B976
:101BA00001210820FEF73CFB0CE0022E04D10121AC
:101BB0000806FEF735FB05E0032E03D10121480698
:101BC000FEF72EFB4FF0070028724FF0000028723E
:101BD00000E02C78287D10F0010FFAD14FF0800042
:101BE00085F8300000BF287D10F0200FFBD04FF0AB
:101BF000000085F8300068602873286285F84C0082
:101C000085F8540085F850002C7D60E001211020FB
:101C1000FEF706FB4FF00700614908724FF0000025
:101C2000087201E05E4804785D48007D10F0010F05
:101C3000F8D14FF080005B49087000BF5848007D24
:101C400010F0200FFAD04FF00000564908705449A8
:101C500048600873086281F84C0053490870504985
:101C600081F850000846047D4FF0000008740846D3
:101C7000047E2CE001210802FEF7D2FA4FF00700A3
:101C80004A4988604FF00000886001E047480468D6
:101C90004648406910F0010FF8D14FF00100434968
:101CA000C86500BF4148406910F0200FFAD04FF0DE
:101CB00000003E49C8654860C8600862C86448655D
:101CC0000865084644694FF00000486200BF00BF45
:101CD0003046396800F0CCFA012E04D13048007B40
:101CE00000F0C0040EE0042E04D13048C06800F0BB
:101CF000C00407E0304600F0A3FA0546287B00F058
:101D0000C00400BF787930B1012806D0022807D07E
:101D1000032808D108E000BF09E044F0010406E010
:101D200044F0020403E000BF44F0030400BF00BF1E
:101D30003879C0B144F008043879012806D0022867
:101D400006D0032807D004280BD107E000BF09E024
:101D500044F0100406E044F0200403E044F03004B2
:101D600000E000BF00BFB87928B1012802D144F0DB
:101D7000040401E000BF00BF00BF012E02D10849EA
:101D80000C730BE0042E03D1E0B20849C86005E0F3
:101D9000304600F055FA05462C7300BFBDE8F081CF
:101DA00000000140300001405400014000400A4062
:101DB0002DE9F04705460F46904699463C464FF0C0
:101DC000000A052D13D2DFE805F00306090C0F0009
:101DD000DFF890A00BE0DFF890A008E0DFF88CA01F
:101DE00005E0DFF88CA002E0DFF888A000BF00BFAC
:101DF0004246B9F1010F1DD14FF0000317E04FF03B
:101E0000FF3603E006B906E0A6F10106DAF80000A5
:101E100010F0010FF6D000BF06B90AE0284600F026
:101E20002BF804F8010BA2F1010203F10103002ACF
:101E3000E5D114E04FF000030EE0DAF8000010F0F6
:101E4000010F00D10AE0284600F016F804F8010B53
:101E500003F10103A2F10102002AEED100BF1846EE
:101E6000BDE8F08714C00040140001401480094010
:101E700014C0094014400A400146052914D2DFE885
:101E800001F00306090C0F00084800787047084865
:101E90000078FBE707480078F8E707480078F5E79F
:101EA00006480068C0B2F1E70020EFE700C000403C
:101EB000000001400080094000C0094000400A4085
:101EC0002DE9FF4F074691469A46019E4FF0000BC1
:101ED000052F13D2DFE807F00306090C0F00DFF827
:101EE000C0B00BE0DFF8BCB008E0DFF8BCB005E044
:101EF000DFF8B8B002E0DFF8B8B000BF00BF4B4673
:101F0000BAF1010F29D14FF0000423E04FF0FF3860
:101F100005E0B8F1000F00D106E0A8F10108DBF8F8
:101F2000000010F0200FF4D000BFB8F1000F00D176
:101F300012E04FF010050AE016F8011B384600F0D9
:101F400039F8A5F10105A3F1010304F101040DB174
:101F5000002BF1D1002BD9D11EE04FF0000418E086
:101F600003B918E0DBF8000010F0200F00D112E0F8
:101F70004FF010050AE016F8011B384600F01AF879
:101F8000A3F10103A5F1010504F101040DB1002B3A
:101F9000F1D1002BE4D100BF204604B0BDE8F08FA2
:101FA00014C00040140001401480094014C00940CE
:101FB00014400A40052813D2DFE800F00306090C9C
:101FC0000F00084A11700BE0074A117008E0074A39
:101FD000117005E0064A117002E0064A116000BF68
:101FE00000BF704700C00040000001400080094071
:101FF00000C0094000400A4070B504460D46012D5E
:102000001DD1012C07D11D48007840F080001C49EB
:1020100081F8300031E0042C06D11A48C06D40F040
:1020200001001849C86528E0204600F009F9064675
:1020300096F8300040F0800086F830001DE0012C5A
:1020400007D10E4800784FF000000D4981F83000AC
:1020500013E0042C06D10B48C06D4FF00000094975
:10206000C8650AE0204600F0EBF8064696F8300016
:102070004FF0000086F8300000BF70BD3000014016
:102080000000014000400A4002E008C8121F08C1D9
:10209000002AFAD17047002001E001C1121F002A76
:1020A000FBD1704701464FF0FF30B1F1402F02D114
:1020B0004FF0000010E0094A914202D14FF00100B8
:1020C0000AE0074A914202D14FF0020004E0054ABB
:1020D000914201D14FF003007047000000800040A2
:1020E00000000940004009402DE9F047814688463C
:1020F000484600F095F84FF0000504462B46204670
:10210000A0FB086C05FB08C204FB0321034A304610
:10211000FEF704F804462046BDE8F08740420F0071
:102120001CB5012202210020FEF7A2FD012203219D
:102130000020FEF79DFD6846FFF714FD694600206C
:10214000FFF71CFD01210020FFF756FF1648174935
:102150000860174817490860174818490860184868
:102160001849086018481949086019481949086051
:1021700019481A4908601A481A4908601A481B4940
:1021800008601B481B4908601B481C4908601C4824
:102190001C4908601C481D4908601D481D4908600D
:1021A0001D481E4908601CBD2D1B000008000020B2
:1021B000491B00000C000020151700001000002033
:1021C0008D19000020000020D919000024000020F3
:1021D000651A000028000020EF1A00002C000020E3
:1021E000251A000030000020B11A00003400002041
:1021F000291700001400002091170000180000208B
:10220000391800001C0000200315000038000020D1
:102210004515000040000020211500003C00002072
:1022200070B505464FF00100FEF712F8044620464F
:1022300070BDFFF775FFFEF783F900BFFEE70000F2
:1022400001464FF0000021B1022904D0032906D134
:1022500003E0044804E0044802E0044800E000BF52
:1022600000BF704700C000400080094000C0094026
:102270002DE9F34F95B08B464FF0000009904FF0D9
:102280000100FDF7E5FF08904FF0FF3003904FF09D
:1022900000000690059001460C460D464FF00108DF
:1022A00058E04FF0000007904BE00798404400FBD7
:1022B0000BFA00211C220898CDE90C10FDF75FFFF6
:1022C0000022A0FB083C01FB08C100FB02105246A3
:1022D000CDE900300023DDE90001FDF71FFF0646D0
:1022E0000F4604964FF0200230463946CDE90A7673
:1022F000FDF754FF81460498B0F1004F05D90498CA
:10230000C0F10000049009F10109B9F1000F02D0F9
:10231000B9F5803F00D910E0DDE9031088420BD207
:10232000049803904FF000054C4607980690CDF8AE
:102330001480039800B907E000BF079800F101007E
:10234000079007984045B0D300BF039800B904E058
:1023500008F10108B8F10F0FA3D900BF002184EAEA
:1023600001006940084302D117B0BDE8F08F08981A
:102370000009059900FB01FC084606990844002164
:10238000A0FB042301FB043100FB05100346CDE94B
:10239000002060460021FDF7C1FE029002988345AF
:1023A00004D90298ABEB0000039003E00298A0EB85
:1023B0000B0003904FF06401039800FB01F0B0FBA9
:1023C000FBF003900398032879D21598012822D1B5
:1023D0003C48007B40F080003A4908734FF0080207
:1023E00020462946CDE90E54FDF7D8FE354908713F
:1023F0000C700846007B00F07F0008734FF0F0017E
:10240000059801EA0010069901F00F0140EA010069
:102410002C49886250E01598042824D12A48C068C5
:1024200040F080002849C8604FF008022046294645
:10243000CDE91054FDF7B2FEC0B223494860E0B2C6
:1024400008600846C06800F07F00C8604FF0F001E7
:10245000059801EA0010069901F00F0140EA010019
:102460001949886228E01598FFF7EAFE82469AF833
:102470000C0040F080008AF80C004FF00802204663
:102480002946CDE91254FDF789FE8AF804008AF83E
:1024900000409AF80C0000F07F008AF80C004FF022
:1024A000F001059801EA0010069901F00F0140EAD9
:1024B00001008AF8280000BF4FF001000990099838
:1024C00052E700000000014000400A40506C656186
:1024D000736520656E746572206120636861722087
:1024E00066726F6D2027302720746F202739272CC4
:1024F00020616E642027612F41272C2027622F4204
:10250000272C20632F43272C2027642F44272C209F
:1025100027652F452720616E642027662F462721D7
:1025200021210D0A000000005825000000000020B5
:102530005400000088200000582500000000001012
:102540000000010096200000AC250000540000208F
:1025500004020000962000000000000000000000BF
:10256000000000000000000000000000000000006B
:10257000000000000000000000000000000000005B
:10258000000000000000000000000000000000004B
:10259000000000000000000000000000000E2707FF
:0C25A0000087930300879303006CDC02AB
:04000005000000E512
:00000001FF
