:020000040000FA
:1000000058040010F9000000010100000301000085
:1000100005010000070100000901000000000000C8
:100020000000000000000000000000000B010000C4
:100030000D010000000000000F0100001101000090
:100040001301000013010000130100001301000060
:100050001301000013010000130100001301000050
:100060001301000013010000130100001301000040
:100070001301000000000000130100001301000044
:100080001301000013010000130100001301000020
:100090001301000013010000130100001301000010
:1000A0001301000013010000130100001301000000
:1000B00013010000130100001301000013010000F0
:1000C00013010000130100001301000013010000E0
:1000D00013010000130100001301000013010000D0
:1000E00013010000DFF80CD000F076F8004800475C
:1000F000351C000058040010064880470648004799
:10010000FEE7FEE7FEE7FEE7FEE7FEE7FEE7FEE7C7
:10011000FEE7FEE7110E0000E50000002DE9F05FAC
:100120000546002092469B46884606468146402466
:100130001BE0284641464746224600F02FF852462B
:100140005B46801A994110D310461946224600F0AA
:1001500016F82D1A67EB01084F46224601200021B0
:1001600000F00DF817EB00094E41201EA4F1010428
:10017000DFDC484631462A464346BDE8F09F202A48
:1001800004DB203A00FA02F1002070479140C2F1EE
:10019000200320FA03F3194390407047202A04DB20
:1001A000203A21FA02F00021704721FA02F3D040F0
:1001B000C2F12002914008431946704730B5044609
:1001C0000020034600E05B1C934203D2E05CCD5C60
:1001D000401BF8D030BD0000064C074D06E0E0683B
:1001E00040F0010394E8070098471034AC42F6D37E
:1001F000FFF77CFFBC210000DC210000012907D1B2
:10020000084A126842EA0002074BC3F8C42007E01C
:1002100031B9044A126822EA0002034BC3F8C42031
:1002200070470000C4C00F4000C00F40014631B10C
:10023000012907D0022908D003290CD108E007487A
:100240000068704706480068FBE706480068F8E762
:1002500005480068F5E700BFFEE700004400001015
:10026000480000104C0000105000001010B504466B
:10027000204600F05BF810BD70B506460C463046CF
:1002800000F004F8054605B1EC6170BD01464FF081
:100290000000062910D2DFE801F0030507090B0D65
:1002A00007480AE0074808E0074806E0074804E076
:1002B000074802E0074800E000BF00BF70470000A9
:1002C00000800920208009204080092060800920CA
:1002D00080800920A080092070B506460C46304673
:1002E000FFF7D4FF054605B1AC6170BD01468868D3
:1002F00080B270478160704770470000FFFFFFFFCA
:100300002DE9F04107460D4616463846FFF7BEFF79
:1003100004464CB126B1206840EA0500206003E0A5
:10032000206820EA05002060BDE8F08110B5044691
:1003300000BF10210A4800F0EBF80128F9D021464F
:100340000748FFF7D7FF00BF0421054800F0E0F899
:100350000028F9D00248FFF7C9FFC0B210BD000065
:10036000008008402DE9F04106460F4615464FF043
:1003700000043946304600F01BF88046B8F1050FFE
:1003800002D10A48BDE8F0813946304600F06EF8E7
:100390000446206820F00700206005F0070120686F
:1003A00040EA010020604FF00000EBE70100001080
:1003B00002464FF00500062A54D2DFE802F003346B
:1003C00040414245062907DD0A2901DB0B2903DDEF
:1003D0000E2904DB162902DC4FF0000022E00C2974
:1003E00005D00D2903D0172904DB1A2902DC4FF0B0
:1003F000010017E01D2903D01E2901D01F2902D1B9
:100400004FF002000EE01B2901D01C2902D14FF051
:10041000030007E0072903D0082901D0092901D1E9
:100420004FF004001FE01D2902DC4FF0000005E042
:100430001E2901D01F2901D14FF0010013E000BF98
:1004400000BF4FF000000EE0012901DD042902D1B8
:100450004FF0000005E0022901D0032901D14FF03F
:10046000030000E000BF00BF7047000010B5024667
:100470004FF0000001EB4213014C04EB830010BD70
:1004800000C0024000B587B0002213210220FFF710
:1004900069FF022216211046FFF764FF02221A218B
:1004A0001046FFF75FFF02221B211046FFF75AFF9D
:1004B0000122D1040220FFF723FF01A800F018F861
:1004C00001A9044800F02EF80121024800F004F8C8
:1004D00007B000BD00800840012904D1426842F005
:1004E0000202426003E0426802F00D02426070477F
:1004F0004FF0000141608160044941614FF0070104
:1005000001604FF00001C1600161704740420F007F
:100510000246D068084201D0012000E00020C0B2AD
:100520007047000070B505460C461748854204D157
:1005300001214805FFF762FE10E01448854204D10E
:1005400001210015FFF75AFE08E01148854204D149
:1005500001210805FFF752FE00E070BDD4E901015A
:1005600040EA0100216940EA0100216840EA0100F7
:1005700086B22E60E06800F00F066E602846616962
:1005800001F010FC00BFE8E70080084000000340D5
:1005900000C00A402DE9F05F04460E464FF0000A05
:1005A000D34657463D46A846A946B4F5007F02D239
:1005B000B6F5007F03D34FF0FF30BDE8F09F4FF456
:1005C00000210220FFF758FE0520FFF74FFE002014
:1005D000FFF74CFE82464FF400214FF00200FFF778
:1005E0007BFE4FF400210220FFF746FE5020FFF76C
:1005F0003DFE4FF400210220FFF76EFE4FF4002174
:100600000220FFF739FE0120FFF730FE0020FFF740
:100610002DFE4FF400210220FFF75EFE4FF4002173
:100620000220FFF729FE0620FFF720FE4FF40021ED
:100630000220FFF751FEB44203D904F0FF0B344609
:100640005E46B4423ED14FF400210220FFF714FE73
:100650000620FFF70BFE4FF400210220FFF73CFEBF
:100660004FEA04354FF400214FF00200FFF704FE7B
:100670002020FFF7FBFDC5F30740FFF7F7FDC5F3AB
:100680000720FFF7F3FDE8B2FFF7F0FD4FF400217C
:100690000220FFF721FE00BF4FF400210220FFF7E8
:1006A000EBFD0520FFF7E2FD0020FFF7DFFD074629
:1006B0004FF400214FF00200FFF70EFE032FEBD0A6
:1006C00000207AE7301BA0F58071FF3923D14FF469
:1006D00000210220FFF7D0FD6020FFF7C7FD4FF497
:1006E00000210220FFF7F8FD00BF4FF40021022097
:1006F000FFF7C2FD0520FFF7B9FD0020FFF7B6FDAB
:1007000007464FF400214FF00200FFF7E5FD032FED
:10071000EBD0012051E7A6EB040000F10108A1464F
:1007200040E04FF400210220FFF7A6FD0620FFF76E
:100730009DFD4FF400210220FFF7CEFD4FEA093561
:100740004FF400214FF00200FFF796FD5220FFF713
:100750008DFDC5F30740FFF789FDC5F30720FFF7BF
:1007600085FDE8B2FFF782FD4FF400210220FFF77C
:10077000B3FD00BF4FF400210220FFF77DFD0520EF
:10078000FFF774FD0020FFF771FD07464FF40021CD
:100790004FF00200FFF7A0FD032FEBD009F108098D
:1007A000A8F10808B8F1080FBBD240E04FF40021CF
:1007B0000220FFF761FD0620FFF758FD4FF40021EE
:1007C0000220FFF789FD4FEA09354FF400214FF071
:1007D0000200FFF751FD2020FFF748FDC5F3074059
:1007E000FFF744FDC5F30720FFF740FDE8B2FFF730
:1007F0003DFD4FF400210220FFF76EFD00BF4FF4D6
:1008000000210220FFF738FD0520FFF72FFD002013
:10081000FFF72CFD07464FF400214FF00200FFF7D1
:100820005BFD032FEBD009F10109A8F10108B8F134
:10083000000FBBD14FF400210220FFF71DFD062061
:10084000FFF714FD4FF400210220FFF745FD4FF4A0
:1008500000210220FFF710FD5020FFF707FD4FF4A5
:1008600000210220FFF738FD4FF400210220FFF79E
:1008700003FD0120FFF7FAFC5046FFF7F7FC4FF4A9
:1008800000210220FFF728FD002096E62DE9F04127
:1008900004460F4615464FF0000604EB0500B0F580
:1008A000001F00D21DB94FF0FF30BDE8F0814FF4BA
:1008B00000210220FFF7E0FC0B20FFF7D7FCC4F378
:1008C0000740FFF7D3FCC4F30720FFF7CFFCE0B2EB
:1008D000FFF7CCFCFF20FFF7C9FC4FF0000605E056
:1008E000FF20FFF7C3FCB85506F10106AE42F7D36F
:1008F0004FF400210220FFF7EFFC0020D5E770B590
:1009000005460E464FF00004022D23D18104FFF767
:10091000B3FC9F20FFF7AAFC0020FFF7A7FC40EAEA
:1009200004004FEA00244FF00000FFF79FFC40EA6C
:1009300004004FEA00244FF00000FFF797FC40EA64
:1009400004044FF400214FF00200FFF7C5FC3460AF
:10095000002070BD0DB1012D1DD14FF400210220EA
:10096000FFF78AFC9020FFF781FC0020FFF77EFC58
:100970000020FFF77BFC2846FFF778FC0020FFF7FC
:1009800075FC04464FF400214FF00200FFF7A4FC71
:1009900034600020DDE74FF0FF30DAE72DE9F04763
:1009A00005460F4616464FF00008C146444605EB83
:1009B0000600A0F10100B0F5001F00D21EB94FF0F3
:1009C000FF30BDE8F0874FF400210220FFF754FC10
:1009D0000520FFF74BFCFF20FFF748FC80464FF453
:1009E00000214FF00200FFF777FC4FF400210220B6
:1009F000FFF742FC5020FFF739FC4FF400210220A2
:100A0000FFF76AFC4FF400210220FFF735FC0120BC
:100A1000FFF72CFC0020FFF729FC4FF400210220F7
:100A2000FFF75AFC4FF0000442E04FF4002102208F
:100A3000FFF722FC0620FFF719FC4FF400210220EB
:100A4000FFF74AFC4FF400210220FFF715FC0220BB
:100A5000FFF70CFC2919C1F30740FFF707FC291920
:100A6000C1F30720FFF702FC2919C8B2FFF7FEFB0C
:100A7000385DFFF7FBFB4FF400210220FFF72CFC51
:100A800000BF4FF400210220FFF7F6FB0520FFF71F
:100A9000EDFBFF20FFF7EAFB81464FF400214FF00A
:100AA0000200FFF719FCB9F1030FEAD004F10104C9
:100AB000B442BAD34FF400210220FFF7DDFB062039
:100AC000FFF7D4FB4FF400210220FFF705FC4FF4A1
:100AD00000210220FFF7D0FB5020FFF7C7FB4FF4A7
:100AE00000210220FFF7F8FB4FF400210220FFF75E
:100AF000C3FB0120FFF7BAFB4046FFF7B7FB4FF4FB
:100B000000210220FFF7E8FB00205AE730B5B44887
:100B1000006810F4807F74D1B1480830006810F08C
:100B2000010F2FD1AE48006810F01F0F02D14FF017
:100B3000000006E0AA48006800F01F00A949B1FBC8
:100B4000F0F0A9490860A648A430006810F01F0F13
:100B500002D14FF0000006E0A448006800F01F003A
:100B6000A049B1FBF0F0A2490860A248006800F07B
:100B7000010000F101009C490968B1FBF0F09E49B9
:100B80000860C8E099480838006810F0400F08D1A4
:100B90004FF0000094490860954908609649086044
:100BA000B9E08F48006810F01F0F02D14FF000002D
:100BB00006E08B48006800F01F008A49B1FBF0F0A6
:100BC000894908608948006810F01F0F02D14FF072
:100BD000000006E08548006800F01F008149B1FB75
:100BE000F0F0834908608348006800F0010000F1DC
:100BF00001007D490968B1FBF0F07F4908608AE097
:100C0000FFE77C487838006810F4807F08D14FF007
:100C100000007549086076490860774908607AE005
:100C20006F480830006810F0010F32D1734C24680F
:100C300004F01F0404F10100714CD4F8044104F0E5
:100C40001F016A4C246804F01F026D4CD4F8004167
:100C500004F0010404F1010311B94FF0000404E0B1
:100C6000604C00FB04F4B4FBF1F45F4D2C6012B94E
:100C70004FF0000404E05B4C00FB04F4B4FBF2F41E
:100C80005B4D2C60584C2468B4FBF3F45A4D2C6037
:100C900041E056480838006810F0400F08D14FF086
:100CA000000051490860524908605349086032E029
:100CB000524C246804F01F0404F10100504CD4F895
:100CC000044104F01F01494C246804F01F024C4CFD
:100CD000D4F8004104F0010404F1010311B94FF00C
:100CE000000404E03F4C00FB04F4B4FBF1F43E4D7F
:100CF0002C6012B94FF0000404E03A4C00FB04F4FD
:100D0000B4FBF2F43A4D2C60374C2468B4FBF3F496
:100D1000394D2C6000BF3248001D006810F4807F00
:100D200036D02F48001D006810F01F0004D00428A2
:100D300007D0062826D105E04FF0000031490860B1
:100D400025E000BF2D4A126802F01F0202F10100E7
:100D50002B4AD2F8082102F01F012B4A126812F028
:100D6000010F07D01F4A00FB02F2B2FBF1F2254B44
:100D70001A6006E01B4A00FB02F2B2FBF1F2214BC3
:100D80001A6004E04FF000001E49086000BF26E032
:100D90001348001D006810F4007F1CD01A4800683A
:100DA00010F0010F0BD01948006800F01F0000F18F
:100DB00001000C4900FB01F0124908600FE00F48E8
:100DC000006800F01F0000F10100064900FB01F07F
:100DD0000C49086003E04FF000000A49086030BD8C
:100DE00004C10F40001BB70044000010A8C10F4011
:100DF0004800001000C10F404C00001088C00F4098
:100E000000C00F40500000100CC10F40A8C00F40A0
:100E100000B54FF021003349086000BF3148006839
:100E200010F0400FFAD04FF001002F4908604FF04A
:100E300009002E49C1F884004FF001002C490860D8
:100E40004FF0AA002B4908604FF05500086000BF22
:100E50002848001F006810F4806FF9D04FF023007D
:100E6000254908604FF001002049C1F8A0004FF06B
:100E7000AA00224908604FF055001C49C1F8AC0097
:100E800000BF1D48001D006810F4806FF9D040F2CB
:100E900001101B49086040F201201449C1F8080103
:100EA0004FF00100174908604FF002001649086032
:100EB0001648174908604FF480700C49C1F8C80102
:100EC0000846D0F8B00140F003001249086045F22E
:100ED0003A00064908604FF000000F490860FFF72C
:100EE00015FE00BDA0C10F400CC10F4000C00F4057
:100EF00080C00F408CC00F40A4C00F40ACC00F405A
:100F000004C10F4000C10F40A8C10F40DE87280474
:100F1000C4C00F40B0C10F4008ED00E038B5044632
:100F20004FF0000000904FF001031A46694620463A
:100F300000F04AFC9DF8000038BD70B505460C462F
:100F40000CB9002070BD002301222146284600F084
:100F50003BFC08B10120F5E70020F3E72DE9FF4F46
:100F600083B00C4615461E464FF0000002900190DB
:100F7000002D03DC306007B0BDE8F08F4FF00009B2
:100F8000012C02D14FF0100005E014B94FF00A0017
:100F900001E04FF00000C7B21FB94FF00000306011
:100FA000E9E74FF0000889E04FF0010001900346A7
:100FB0001A4602A9039800F007FC9DF808003028A3
:100FC00008DB9DF80800392804DC9DF80800A0F132
:100FD000300B39E0012C34D14FF010079DF8080098
:100FE000612811D008DCA0F14100062824D2DFE8F6
:100FF00000F00C1014181C20623805281CD2DFE801
:1010000000F0070B0F13170000BF4FF00A0B17E09B
:1010100000BF4FF00B0B13E000BF4FF00C0B0FE0C5
:1010200000BF4FF00D0B0BE000BF4FF00E0B07E0C1
:1010300000BF4FF00F0B03E04FF00000019000BF26
:1010400002E04FF0000001904FF001000090019885
:10105000B0B924B91DA1039800F074FA05E0012C81
:1010600003D12549039800F06DFA09F10109B9F19E
:101070000A0F23D321A1039800F064FA00207AE735
:101080009DF80810039800F051F8012D03D12F4668
:10109000284600900BE04FF0010A06E000987843E4
:1010A00000900AF1010000F0FF0AAA45F6DB009863
:1010B0000BFB00FBD844A5F10100C5B2002D3FF7A2
:1010C00073AFC6F80080012055E70000506C6561E1
:1010D000736520656E74657220612063686172209B
:1010E00066726F6D2027302720746F2027392721E3
:1010F00021210D0A0000000060210000526561639B
:1011000068206C696D69746174696F6E206F662008
:1011100072652D74726965732E2052657475726ED6
:10112000204641494C45440D0A00000013B50446D1
:101130004FF001031A4601A9204600F0CDFB1CBD6B
:101140002DE9F04105460C464FF00A0094FBF0F102
:1011500000FB1140C6B24FF00A0094FBF0F04FF0D4
:101160000A0190FBF1F201FB1200C7B24FF06400DC
:1011700094FBF0F090FBF1F201FB120000F0FF088D
:1011800008F13000C1B22846FFF7D0FF07F1300068
:10119000C1B22846FFF7CAFF06F13000C1B22846A7
:1011A000FFF7C4FFBDE8F0812DE9F04705460C4686
:1011B0004FF00A0094FBF0F100FB1140C6B24FF073
:1011C0000A0094FBF0F04FF00A0190FBF1F201FBF2
:1011D0001200C7B24FF0640094FBF0F090FBF1F204
:1011E00001FB120000F0FF084FF47A7094FBF0F05E
:1011F00090FBF1F201FB120000F0FF0942F21070C7
:1012000094FBF0F090FBF1F201FB120000F0FF0AFA
:101210000AF13000C1B22846FFF788FF09F130001B
:10122000C1B22846FFF782FF08F13000C1B228465C
:10123000FFF77CFF07F13000C1B22846FFF776FFC9
:1012400006F13000C1B22846FFF770FFBDE8F08715
:101250002DE9F34F83B00C464FF00A00B4FBF0F1D8
:1012600000FB1140C5B24FF00A00B4FBF0F04FF0A4
:101270000A01B0FBF1F201FB1200C6B24FF06400AC
:10128000B4FBF0F0B0FBF1F201FB1200C7B24FF477
:101290007A70B4FBF0F0B0FBF1F201FB120000F049
:1012A000FF0842F21070B4FBF0F0B0FBF1F201FB6A
:1012B000120000F0FF093648B4FBF0F0B0FBF1F289
:1012C00001FB120000F0FF0A3248B4FBF0F0B0FB63
:1012D000F1F201FB120000F0FF0B2F48B4FBF0F01D
:1012E000B0FBF1F201FB1200C0B202902B48B4FB3C
:1012F000F0F0B0FBF1F201FB1200C0B201902848FF
:10130000B4FBF0F0B0FBF1F201FB1200C0B20090B0
:10131000009800F13000C1B20398FFF707FF019871
:101320003030C1B20398FFF701FF02983030C1B2EC
:101330000398FFF7FBFE0BF13000C1B20398FFF7F3
:10134000F5FE0AF13000C1B20398FFF7EFFE09F194
:101350003000C1B20398FFF7E9FE08F13000C1B2D6
:101360000398FFF7E3FE07F13000C1B20398FFF7DF
:10137000DDFE06F13000C1B20398FFF7D7FE05F19C
:101380003000C1B20398FFF7D1FE05B0BDE8F08F81
:10139000A086010040420F008096980000E1F5050C
:1013A00000CA9A3B2DE9F04107460D460FA1384689
:1013B00000F0C8F84FF0010600BF4FEA860045FA7A
:1013C00000F000F00F04092C02DD04F1370001E009
:1013D00004F13000C1B23846FFF7A8FE3000A6F194
:1013E0000101CEB2E9D1BDE8F08100003078000003
:1013F0002DE9F04107460D460FA1384600F0A2F84E
:101400004FF0030600BF4FEA860045FA00F000F0F7
:101410000F04092C02DD04F1370001E004F1300073
:10142000C1B23846FFF782FE3000A6F10101CEB20C
:10143000E9D1BDE8F0810000307800002DE9F041ED
:1014400007460D464FF0030600BF4FEA860045FAF7
:1014500000F000F00F04092C02DD04F1370001E078
:1014600004F13000C1B23846FFF760FE3000A6F14B
:101470000101CEB2E9D1BDE8F08100002DE9F041D3
:1014800007460D460FA1384600F05CF84FF00706FE
:1014900000BF4FEA860025FA00F000F00F04092C87
:1014A00002DD04F1370001E004F13000C1B238463A
:1014B000FFF73CFE3000A6F10101CEB2E9D1BDE854
:1014C000F0810000307800002DE9F04107460D461C
:1014D0004FF0070600BF4FEA860025FA00F000F043
:1014E0000F04092C02DD04F1370001E004F13000A3
:1014F000C1B23846FFF71AFE3000A6F10101CEB2A4
:10150000E9D1BDE8F0812DE9F04107460D464FF0E5
:10151000010600BF4FEA860045FA00F000F00F0414
:10152000092C02DD04F1370001E004F13000C1B202
:101530003846FFF7FBFD3000A6F10101CEB2E9D13C
:10154000BDE8F08170B506460D462C4604E014F85F
:10155000011B3046FFF7EAFD20780028F7D170BD67
:1015600070B504460D4629462046FFF7EBFF02A161
:101570002046FFF7E7FF70BD0A0D00004FF4E13190
:1015800001604FF0030141714FF000010171817161
:10159000704700002DE9F04106460F46052E40D267
:1015A000DFE806F003400405740000BF00BF3046CA
:1015B00000F02AFC054626B901210820FEF71EFE90
:1015C0000CE0022E04D101210806FEF717FE05E00B
:1015D000032E03D101214806FEF710FE4FF007004D
:1015E00028724FF00000287200E02C78287D10F05F
:1015F000010FFAD14FF0800085F8300000BF287D40
:1016000010F0200FFBD04FF0000085F8300068602C
:101610002873286285F84C0085F8540085F850003E
:101620002C7D60E001211020FEF7E8FD4FF007005F
:10163000614908724FF00000087201E05E480478CA
:101640005D48007D10F0010FF8D14FF080005B493C
:10165000087000BF5848007D10F0200FFAD04FF0FE
:10166000000056490870544948600873086281F8C0
:101670004C0053490870504981F850000846047DD9
:101680004FF0000008740846047E2CE00121080297
:10169000FEF7B4FD4FF007004A4988604FF00000A4
:1016A000886001E0474804684648406910F0010F2F
:1016B000F8D14FF001004349C86500BF4148406977
:1016C00010F0200FFAD04FF000003E49C865486086
:1016D000C8600862C86448650865084644694FF0F8
:1016E0000000486200BF00BF3046396800F0A4FB2C
:1016F000012E04D13048007B00F0C0040EE0042E1F
:1017000004D13048C06800F0C00407E0304600F063
:101710007BFB0546287B00F0C00400BF787930B120
:10172000012806D0022807D0032808D108E000BF0E
:1017300009E044F0010406E044F0020403E000BFC5
:1017400044F0030400BF00BF3879C0B144F008047E
:101750003879012806D0022806D0032807D00428AB
:101760000BD107E000BF09E044F0100406E044F0AC
:10177000200403E044F0300400E000BF00BFB8796B
:1017800028B1012802D144F0040401E000BF00BFE9
:1017900000BF012E02D108490C730BE0042E03D1C7
:1017A000E0B20849C86005E0304600F02DFB054670
:1017B0002C7300BFBDE8F081000001403000014003
:1017C0005400014000400A402DE9F04705460F460D
:1017D000904699463C464FF0000A052D13D2DFE8AB
:1017E00005F00306090C0F00DFF890A00BE0DFF80E
:1017F00090A008E0DFF88CA005E0DFF88CA002E004
:10180000DFF888A000BF00BF4246B9F1010F1DD12B
:101810004FF0000317E04FF0FF3603E006B906E093
:10182000A6F10106DAF8000010F0010FF6D000BFB3
:1018300006B90AE0284600F02BF804F8010BA2F1E3
:10184000010203F10103002AE5D114E04FF0000387
:101850000EE0DAF8000010F0010F00D10AE028468F
:1018600000F016F804F8010B03F10103A2F10102E4
:10187000002AEED100BF1846BDE8F08714C0004032
:10188000140001401480094014C0094014400A406B
:101890000146052914D2DFE801F00306090C0F0008
:1018A00008480078704708480078FBE70748007848
:1018B000F8E707480078F5E706480068C0B2F1E7A6
:1018C0000020EFE700C00040000001400080094018
:1018D00000C0094000400A402DE9FF4F07469146ED
:1018E0009A46019E4FF0000B052F13D2DFE807F058
:1018F0000306090C0F00DFF8C0B00BE0DFF8BCB046
:1019000008E0DFF8BCB005E0DFF8B8B002E0DFF8CF
:10191000B8B000BF00BF4B46BAF1010F29D14FF05C
:10192000000423E04FF0FF3805E0B8F1000F00D1CC
:1019300006E0A8F10108DBF8000010F0200FF4D059
:1019400000BFB8F1000F00D112E04FF010050AE01F
:1019500016F8011B384600F039F8A5F10105A3F18E
:10196000010304F101040DB1002BF1D1002BD9D1F9
:101970001EE04FF0000418E003B918E0DBF80000A7
:1019800010F0200F00D112E04FF010050AE016F819
:10199000011B384600F01AF8A3F10103A5F1010577
:1019A00004F101040DB1002BF1D1002BE4D100BFF3
:1019B000204604B0BDE8F08F14C000401400014080
:1019C0001480094014C0094014400A40052813D26D
:1019D000DFE800F00306090C0F00084A11700BE065
:1019E000074A117008E0074A117005E0064A1170B5
:1019F00002E0064A116000BF00BF704700C000400F
:101A0000000001400080094000C0094000400A4039
:101A100070B504460D46012D1DD1012C07D11D487E
:101A2000007840F080001C4981F8300031E0042C3F
:101A300006D11A48C06D40F001001849C86528E079
:101A4000204600F0E1F9064696F8300040F08000AC
:101A500086F830001DE0012C07D10E4800784FF0C9
:101A600000000D4981F8300013E0042C06D10B482A
:101A7000C06D4FF000000949C8650AE0204600F03B
:101A8000C3F9064696F830004FF0000086F83000A3
:101A900000BF70BD300001400000014000400A401E
:101AA00002E008C8121F08C1002AFAD170470020BE
:101AB00001E001C1121F002AFBD170471CB50122B1
:101AC00002210020FEF74EFC012203210020FEF738
:101AD00049FC6846FFF752FD69460020FFF75AFDB2
:101AE00001210020FFF794FF1648174908601748A6
:101AF00017490860174818490860184818490860CD
:101B000018481949086019481949086019481A49BC
:101B100008601A481A4908601A481B4908601B489F
:101B20001B4908601B481C4908601C481C49086088
:101B30001C481D4908601D481D4908601D481E4974
:101B400008601CBD4515000008000010611500006C
:101B50000C0000102D11000010000010A513000053
:101B600020000010F1130000240000107D1400007C
:101B700028000010071500002C0000103D14000084
:101B800030000010C91400003400001041110000A2
:101B900014000010A91100001800001051120000DC
:101BA0001C0000101D0F0000380000105D0F000029
:101BB000400000103B0F00003C00001070B50546CF
:101BC0000C46094800682044B0F5001F0AD222469E
:101BD000294605480068FEF759FE0348006820447E
:101BE0000149086070BD0000000000100149086054
:101BF000704700000000001070B505460C4609480B
:101C000000682044B0F5001F0AD222462946054844
:101C10000068FEF7C3FE03480068204401490860DD
:101C200070BD00000400001001490860704700000A
:101C30000400001008B54FF000000090FEF722FCF1
:101C4000FFF73CFF2F4900202F4A126890472D498B
:101C5000443100202C4A126890472A4988310020DC
:101C6000294A12689047274944310020264A1268C1
:101C7000904724490020244A126890476946022070
:101C8000FEF73DFE009820F07F4000901F4900982D
:101C9000884204D01EA100201B4A126890470020F1
:101CA000FFF7C2FF0020FFF7A1FF00210846FEF763
:101CB00071FC4FF0000404E022490C5504F10100CE
:101CC00084B2FF2CF8DD4FF480711E48FFF794FFBB
:101CD0004FF480711C48FFF771FF4FF480721A496E
:101CE0001848FEF76BFA28B918A10020064A1268B6
:101CF000904704E020A10020034A1268904700BFEB
:101D0000FEE70000942000000C0000104125BF00F9
:101D100048592D4C5043313738382D436F72652068
:101D200053504920466C61736820535354323556E2
:101D30004630313642205265616420494420466174
:101D40006C736500540100105400001048592D4C6C
:101D50005043313738382D436F7265205350492036
:101D6000466C6173682053535432355646303136D1
:101D700042204F4B0000000048592D4C5043313752
:101D800038382D436F72652053504920466C61737B
:101D9000682053535432355646303136422046611E
:101DA0006C7365002DE9F04704460E464FF00100C4
:101DB000FEF73CFA81464FF000054FF0FF384FF038
:101DC00002070FE005F1010000FB07F0B9FBF0F896
:101DD000B04507D905F10105FF2D03D94FF00005E6
:101DE00007F10207B045EDD82068C0B22060206836
:101DF0004FF6FF7101EA052140EA01002060F8B2C8
:101E00002061BDE8F087000001464FF0000021B1DD
:101E1000022904D0032906D103E0044804E0044861
:101E200002E0044800E000BF00BF704700C000406F
:101E30000080094000C009402DE9F34F95B08B4662
:101E40004FF0000009904FF00100FEF7EFF9089005
:101E50004FF0FF3003904FF00000069005900146D0
:101E60000C460D464FF0010858E04FF00000079077
:101E70004BE00798404400FB0BFA00211C22089815
:101E8000CDE90C10FEF77BF90022A0FB083C01FB1A
:101E900008C100FB02105246CDE900300023DDE905
:101EA0000001FEF73BF906460F4604964FF020026C
:101EB00030463946CDE90A76FEF770F98146049836
:101EC000B0F1004F05D90498C0F10000049009F169
:101ED0000109B9F1000F02D0B9F5803F00D910E037
:101EE000DDE9031088420BD2049803904FF00005FF
:101EF0004C4607980690CDF81480039800B907E087
:101F000000BF079800F10100079007984045B0D343
:101F100000BF039800B904E008F10108B8F10F0F01
:101F2000A3D900BF002184EA01006940084302D11F
:101F300017B0BDE8F08F08980009059900FB01FC77
:101F40000846069908440021A0FB042301FB043144
:101F500000FB05100346CDE9002060460021FEF796
:101F6000DDF802900298834504D90298ABEB00009B
:101F7000039003E00298A0EB0B0003904FF0640184
:101F8000039800FB01F0B0FBFBF0039003980328DB
:101F900079D21598012822D13C48007B40F080007E
:101FA0003A4908734FF0080220462946CDE90E54FD
:101FB000FEF7F4F8354908710C700846007B00F014
:101FC0007F0008734FF0F001059801EA00100699B0
:101FD00001F00F0140EA01002C49886250E0159899
:101FE000042824D12A48C06840F080002849C860ED
:101FF0004FF0080220462946CDE91054FEF7CEF8EE
:10200000C0B223494860E0B208600846C06800F0EA
:102010007F00C8604FF0F001059801EA00100699B2
:1020200001F00F0140EA01001949886228E0159883
:10203000FFF7EAFE82469AF80C0040F080008AF82A
:102040000C004FF0080220462946CDE91254FEF755
:10205000A5F88AF804008AF800409AF80C0000F00D
:102060007F008AF80C004FF0F001059801EA00109B
:10207000069901F00F0140EA01008AF8280000BF2C
:102080004FF001000990099852E70000000001405C
:1020900000400A402A2A2A2A2A2A2A2A2A2A2A2ABE
:1020A0002A2A2A2A2A2A2A2A2A2A2A2A2A2A2A2A90
:1020B0002A2A2A2A2A2A2A2A2A2A2A2A2A2A2A2A80
:1020C0002A2A2A2A2A2A2A2A2A2A2A2A2A2A2A2A70
:1020D0002A2A2A2A2A0A00002A202020202020201A
:1020E00020202020202020202020202020202020F0
:1020F00020202020202020202020202020202020E0
:1021000020202020202020202020202020202020CF
:1021100020202020202020202A0A00002A20202001
:102120005468616E6B20796F7520666F72207573CD
:10213000696E672048592D4C5043313738382D434C
:102140006F726520446576656C6F706D656E742086
:10215000426F61726420A3A15E5F5E20202A0A00A4
:10216000506C6561736520656E74657220612063D3
:102170006861722066726F6D2027302720746F208F
:102180002739272C20616E642027612F41272C20BE
:1021900027622F42272C20632F43272C2027642FD0
:1021A00044272C2027652F452720616E6420276651
:1021B0002F46272121210D0A00000000DC2100000C
:1021C0000000001054000000A01A0000302200009F
:1021D0005400001004040000AE1A000000000000CB
:1021E00000000000000000000000000000000000EF
:1021F00000000000000000000000000000000000DF
:1022000000000000000000000000000000000000CE
:1022100000000000000000000000000000000000BE
:10222000000E27070087930300879303006CDC02EE
:04000005000000E512
:00000001FF
