:020000040000FA
:10000000E0C90010F9000000010100000301000038
:1000100005010000070100000901000000000000C8
:100020000000000000000000000000000B010000C4
:100030000D0100000000000043030000A13100009A
:100040001301000013010000130100001301000060
:100050001301000013010000130100001301000050
:100060001301000013010000130100001301000040
:100070001301000000000000130100001301000044
:100080001301000013010000130100001301000020
:100090001301000013010000130100001301000010
:1000A0001301000013010000130100001301000000
:1000B00041090000130100001301000013010000BA
:1000C00013010000130100001301000013010000E0
:1000D00013010000130100001301000013010000D0
:1000E00013010000DFF80CD000F0C8F8004800470A
:1000F000E1650000E0C90010064880470648004757
:10010000FEE7FEE7FEE7FEE7FEE7FEE7FEE7FEE7C7
:10011000FEE7FEE7CD340000E50000002DE9F05FCA
:100120000546002092469B46884606468146402466
:100130001BE0284641464746224600F02FF852462B
:100140005B46801A994110D310461946224600F0AA
:1001500016F82D1A67EB01084F46224601200021B0
:1001600000F00DF817EB00094E41201EA4F1010428
:10017000DFDC484631462A464346BDE8F09F202A48
:1001800004DB203A00FA02F1002070479140C2F1EE
:10019000200320FA03F3194390407047202A04DB20
:1001A000203A21FA02F00021704721FA02F3D040F0
:1001B000C2F12002914008431946704740EA01030A
:1001C0009B0703D009E008C9121F08C0042AFAD20D
:1001D00003E011F8013B00F8013B521EF9D27047D1
:1001E000D2B201E000F8012B491EFBD27047002279
:1001F000F6E710B504460846114602462046FFF7CA
:10020000EFFF204610BD30B50EE003460A4601E080
:100210005B1C521C1C781578AC4201D1002CF7D124
:1002200015F0FF0F04D0401C0278002AEDD1002009
:1002300030BD30B505460020034600E05B1C93420C
:1002400005D2EC5CC85C201A01D1002CF6D130BD7F
:1002500030B50B46014600202022012409E021FA96
:1002600002F59D4205D303FA02F5491B04FA02F593
:100270002844151EA2F10102F1DC30BD064C074DE9
:1002800006E0E06840F0010394E807009847103466
:10029000AC42F6D3FFF72AFF04C4000024C40000D8
:1002A00070B501EB020410F8015B15F0070301D1F2
:1002B00010F8013B2A1106D110F8012B03E010F8C9
:1002C000016B01F8016B5B1EF9D12B0705D40023EC
:1002D000521E0FD401F8013BFAE710F8013B02F17E
:1002E0000202A1EB030303E013F8015B01F8015BD9
:1002F000521EF9D5A142D6D3002070BDFFFFFFFFEB
:10030000EFF3108072B6704780F3108870471D4875
:100310004FF0FF010170002080F309881A48012185
:1003200001701A484FF08051016062B6FEE717482D
:100330004FF080510160704714484FF080510160C8
:10034000704772B6EFF3098028B1203880E8F00FCB
:100350000F49096808600F480F490A7802700C4875
:100360000E490A680260106890E8F00F203080F3B0
:1003700009884EF0040E62B670474FF0010080F31A
:100380001088704722ED00E09600001004ED00E0B8
:100390009C0000108B0000108C000010A4000010C6
:1003A0007047000008B59DF8000000900823064A39
:1003B0000021064801F068FB00906A4604A108206D
:1003C00001F0F0FC08BD000054120010A1B60000BE
:1003D0005461736B204C454420426C696E6B000085
:1003E00008B59DF8000000900923064A0021064840
:1003F00001F04AFB00906A4604A1092001F0D2FCFA
:1004000008BD0000A00A001055B700005461736BCE
:10041000204C574950000000704710B5FFF7C2FF4D
:10042000FFF7DEFF10BD7047704770470A4800684D
:100430004FF47A71B0FBF1F4204602F0E3F801F0DA
:10044000F3FAFFF7EAFF00BF00231A46012118461E
:1004500001F092FEF8E700005C0000107047704762
:10046000012907D1084A126842EA0002074BC3F883
:10047000C42007E031B9044A126822EA0002034BA3
:10048000C3F8C42070470000C4C00F4000C00F4034
:10049000014631B1012907D0022908D003290CD126
:1004A00008E007480068704706480068FBE7064810
:1004B0000068F8E705480068F5E700BFFEE70000C0
:1004C0005C00001060000010640000106800001064
:1004D0002DE9F04104460E461748056807E04FF045
:1004E000000801E008F1010814488045FAD3002013
:1004F00000F026F80228F2D04FEAC50000F10050C3
:10050000076C5EB1A4F10100C0F30A0040F0404165
:100510004FEAC50000F1005041640AE0A4F1010077
:10052000C0F30A0040F000414FEAC50000F100505E
:1005300041643846BDE8F0812841082040420F0060
:1005400010B504464CB9124801681248D0F8282169
:100550001148006800F1010308E0104801680D48E7
:10056000D0F814210E48006800F10103914201D136
:10057000002010BD21B9581E904201D10220F8E799
:10058000501C814201D10220F3E70120F1E7000075
:100590002C41082000400820244108201841082050
:1005A00010410820034801684FEAC10000F10050E3
:1005B0000068704718410820054801684FEAC100EB
:1005C00000F10050006AC0F30A0000F1010070471A
:1005D00018410820034801684FEAC10000F10050AB
:1005E000006A704718410820034801684FEA8100FB
:1005F00000F10050806D70472841082070B5054615
:100600004FF02C0229464348FFF7D8FD0121880707
:10061000FFF726FF4FF44F403F4908604FF0780046
:100620003E4908604FF0640401E0A4F10104002C8D
:10063000FBD14FF00200384908604FF030004860AD
:100640004FF4C06048614FF00000FFF721FF3449CC
:10065000B0FBF1F600BF06E03248005DB04200DBBF
:1006600003E004F101040F2CF6D300BF0F2C01D3DB
:10067000002070BD04F10104A8892749486104F0F5
:100680000F004FF4004141EA800023490862084608
:10069000006A20F40040086243F20F7008614FF0D6
:1006A0001200C8604FF410701C490860286930B10E
:1006B000284629698847012801D00020D9E7A86881
:1006C00007F0F4FC07F088FC0AF06AFE4FF0260001
:1006D000154908604FF001014FF0FF0000F028F8C5
:1006E0004FF6FF701149086000F098F800F05CF8D0
:1006F0004FF01C004FF0010101FA00F14FEA5012D7
:100700004FF0E02303EB8202C2F8001100BF4FF06C
:100710000100AEE7581200100040082000410820F8
:10072000A025260069C1000000420820E84F0820EB
:10073000012906D1064A126842EA0002044B1A60F7
:1007400005E0034A126822EA0002014B1A60704772
:10075000E44F0820014601F01F00114B1B7903F004
:100760001F0340EA03200F4B98624FF001005862CC
:100770004FF0000200BF07E00A48406B10F0010F85
:1007800000D104E002F10102B2F5A02FF4D300BFC2
:100790004FF00000034B58621846006B80B2704760
:1007A00058120010004008200648006840F0010080
:1007B0000549C1F800010846006840F001000860E2
:1007C00070470000004108200040082078B10A4925
:1007D000496841F00101084A51600849096841F43B
:1007E0008061C2F800114FF01501916003E04FF0F5
:1007F0001201014A91607047004008200041082022
:1008000020B14FF48071044A916103E04FF0000180
:10081000014A9161704700000040082003480068C9
:1008200040F002000249C1F8000170470041082071
:10083000004008200549086800F101010846042924
:1008400001D14FF0000001490860704718410820AD
:100850000849086800F101010846074AD2F8242136
:1008600002F10102914201D14FF0000001490860FC
:100870007047000028410820004008202DE9F0477B
:100880000746D7F804903D681B48D0F814A005F13E
:1008900001004FF6FE7100EA0105B5FBFAF60DB94D
:1008A000BDE8F08722E0002E01DD504600E028463A
:1008B000044604B91CE02EB90121A0B2FFF708FEDE
:1008C000804604E00021A0B2FFF702FE804605E06A
:1008D00039F8020B28F8020BA4F10204002CF7D11E
:1008E000A6F10106A5EB0405FFF7B2FF002EDADA48
:1008F00000BF00BFD4E700000040082010B500F0A2
:100900001F030D4C247904F01F0443EA04230B4C0D
:10091000A3622346D9624FF0000200BF07E0074BF5
:100920005B6B13F0010F00D104E002F10102B2F59C
:10093000A02FF4D300BF10BD5812001000400820B3
:100940002DE9F0411AE19348056015F0030F50D0EE
:10095000FFF740FE06464FF0000416F4000F02D0E9
:100960004FF0100001E04FF0000040EA040416F0E0
:10097000807F02D04FF0080001E04FF0000040EA15
:10098000040416F0007F02D04FF0040001E04FF0A5
:10099000000040EA0404C6F3C06044EA000416F014
:1009A000805F02D04FF0400001E04FF0000040EACD
:1009B000040416F0005F02D04FF0200001E04FF079
:1009C000000040EA040416F4801F02D04FF4805067
:1009D00001E04FF0000040EA040414B925F00205DC
:1009E00006E06D48006A18B16B48016A20468847E6
:1009F00000BF15F0300F3ED0FFF7F6FD06464FF072
:100A0000000416F0806F02D04FF4007001E04FF048
:100A1000000040EA040416F0006F02D04FF480702A
:100A200001E04FF0000040EA040416F0805F02D0BD
:100A30004FF0800001E04FF0000040EA040416F09F
:100A4000005F02D04FF4806001E04FF0000040EA08
:100A5000040416F0804F02D04FF4006001E04FF024
:100A6000000040EA04044C48006A18B14A48016A90
:100A70002046884700BF15F0080F64D00120FFF71B
:100A80005FFD00285FD0FFF797FD0746002F5ADD76
:100A9000A7F10307FFF79EFD4049084253D14048A4
:100AA000007800EB40003F4901EB80203E49096897
:100AB00000EB4104FFF776FD06463B4800683844EA
:100AC0003949086008460068B0F5C06F0AD34FF096
:100AD000000008603048006AA0B32F48016A042073
:100AE00088472FE005E036F8020B24F8020BA7F147
:100AF0000207002FF7DCFFF76DFD10F0804F1FD0CD
:100B00002548806958B12649097801EB4101254BF8
:100B100003EB812020498A692349096890474FF0F7
:100B20000000214908601E48007800F101001C49BE
:100B3000087008460078022802DB4FF000000870B9
:100B4000FFF778FE00BF15F0400F05D01248C069CE
:100B500010B11149C869804715F4805F05D00E486F
:100B6000806A10B10C49886A804715F4005F05D08F
:100B70000948406A10B10849486A80470548083862
:100B800000680449091F0968084005007FF4DBAECE
:100B9000BDE8F081E84F0820581200100000901BBB
:100BA000580000108412001054000010704710B557
:100BB00000F07AF810BD000070B504460D460E48EE
:100BC0000E49097840F821400D490C4A127821F865
:100BD00012500A48007800F10100084908700846E0
:100BE0000078022802DB4FF000000870054800681A
:100BF00000F0C4FE70BD00001000001008000010DE
:100C00000A0000108001001070B506460C46304600
:100C100000F004F8054605B1EC6170BD01464FF0E7
:100C20000000062910D2DFE801F0030507090B0DCB
:100C300007480AE0074808E0074806E0074804E0DC
:100C4000074802E0074800E000BF00BF704700000F
:100C50000080092020800920408009206080092030
:100C600080800920A08009202DE9F04107460D462B
:100C700016463846FFF7D2FF04464CB126B120682D
:100C800040EA0500206003E0206820EA05002060BB
:100C9000BDE8F08170B506460C463046FFF7BEFF52
:100CA000054605B1AC6170BD10B58EB02FA103C96A
:100CB000CDE9010101220021104602F0D7F90122FD
:100CC0001146104602F0D2F901220421104602F02A
:100CD000CDF901220821104602F0C8F901220921AC
:100CE000104602F0C3F901220A21104602F0BEF9B3
:100CF00001220E21104602F0B9F901220F211046FF
:100D000002F0B4F901221021104602F0AFF90122DD
:100D10001121104602F0AAF94FF00000039001A83B
:100D200005904FF001008DF810004FF4C060ADF851
:100D30001800104807901048089010480990104873
:100D40000B904FF000000A900D900C9006E04FF4CD
:100D5000801401E0A4F10104002CFBD103A8FFF7EB
:100D60004DFC0028F3D00EB010BD000000000000C4
:100D700000010000F32E0000152F0000B90B000049
:100D8000AD0B000000B587B007F076FA05F084FCE3
:100D900005F0E6FD03F0EAFC1CA10020224A1268DF
:100DA0009047002007F035FB039003A91F480AF085
:100DB0001BFA039807F03BFB039807F021FB1CA1EB
:100DC0000020194A126890471F4804F081FC0690E1
:100DD0006FF0FF0004F07CFC05901B48633804F0C2
:100DE00077FC049019481A49002204ABCDE9002190
:100DF000029005AA06A9174806F09AFA154806F0C7
:100E0000E7FA144806F037FB07B000BD5443502FF3
:100E1000495020696E697469616C697A696E672EE0
:100E20002E2E200D0A0000001C000010D9350000F5
:100E30005443502F495020696E697469616C697A16
:100E400065642E200D0A00006400A8C039B20000BD
:100E50000D54000048AC001030B503460C461D464A
:100E60004FF0000106E06856A04201D1681830BD7D
:100E700001F101019142F6D30020F8E71D481E4818
:100E80001E481F481F482048204821482148224822
:100E900022482348234824482448254825482648F2
:100EA00026482748274828482848294829482A48C2
:100EB0002A482B482B482C482C482D482D482E4892
:100EC0002E482F482F483048304831483148324862
:100ED0003248334833483448344835483548364832
:100EE000364837483748384838483948394800BFC5
:100EF0007047000078C100007CC1000082C1000082
:100F000084C1000080C1000086C1000088C10000CB
:100F10008AC100008CC100008EC1000090C1000099
:100F200092C1000094C1000096C1000098C1000069
:100F30009AC100009CC100009EC10000A0C1000039
:100F4000A2C10000A4C10000A6C10000A8C1000009
:100F5000AAC10000ACC10000AEC10000B0C10000D9
:100F6000B2C10000B4C10000B6C10000B8C10000A9
:100F7000BAC10000BCC10000BEC10000C0C1000079
:100F8000C2C10000C4C10000C6C10000C8C1000049
:100F9000CAC10000CEC10000D0C10000D2C1000013
:100FA000D4C100009C3700101C3B0010D8C10000C9
:100FB000DAC10000DCC10000DEC10000E0C10000B9
:100FC000E2C10000E4C10000E6C10000E8C1000089
:100FD000D6C10000EAC100002DE9F04105460E46E9
:100FE00014464FF0000725B94FF004002070BDE80B
:100FF000F0811EB94FF00C002070F8E7124800781D
:1010000018B14FF012002070F1E72878012808D0BD
:10101000022807D0032802D0042804D100E000BF32
:1010200000BF00BF03E04FF001002070DFE700BF0A
:10103000FFF766F907466E613846FFF765F94FF02E
:101040000000207000BFD2E78900001010B500F04A
:1010500019F801F05DFC01F087FC01F0ABFC01F038
:1010600021FC01F0DBFB01F04BFD01F079FD01F00B
:10107000E5FC01F009FD01F077F900F00BF8FFF74E
:10108000FDFE10BD4FF000000149088070470000D0
:101090006C0000107047000010B54FF000041C48B1
:1010A0000078012833D1FFF72BF90446194800785E
:1010B00028B118480078A0F10100164908701548B9
:1010C000007808BB14480078F0B901F0B3FD13486C
:1010D0001349097850F82100124908601048007837
:1010E0001149097888420FD00E480068C06B00F1A2
:1010F00001000C490968C8630C48006800F1010050
:101100000A490860FFF718F92046FFF7FDF810BDFF
:1011100096000010890000108A000010342E001084
:101120008C000010A40000108B0000107000001054
:101130002DE9FC5F05460F4691461E464FF0000024
:10114000009035B94FF0620030704FF00000BDE8FC
:10115000FC9F15F0030F05D04FF0620030704FF088
:101160000000F4E7022F05D24FF05B0030704FF023
:101170000000ECE7B9F1040F05D24FF05C003070CD
:101180004FF00000E3E7FFF7BBF800901848046851
:10119000006820B11648006840681549086000984A
:1011A000FFF7B2F82CB94FF05A0030704FF0000042
:1011B000CDE7AA46A846A7F1010001904FF0000B29
:1011C00005E0C844CAF80080C2460BF1010B019843
:1011D0008345F6D34FF00000CAF800002560656033
:1011E0002761E760C4F8089030702046AFE7000040
:1011F000B00000102DE9F04104460D464FF0000705
:1012000034B94FF0600028704FF00000BDE8F08165
:10121000FFF776F80746206970B16668306860604D
:101220002069A0F1010020613846FFF76DF84FF00A
:10123000000028703046E9E73846FFF765F84FF0C0
:101240005D0028704FF00000E0E770B504460D46E1
:101250004FF000060CB9602070BD0DB95F20FBE7B0
:10126000FFF74EF80646D4E90310884204D330460F
:10127000FFF74AF85E20EFE7606828606560206944
:1012800000F1010020613046FFF73EF80020E3E75F
:101290002DE9F04106460F464FF00008224800783D
:1012A00010B10020BDE8F081FFF72AF880461F4802
:1012B0000468006820B11D48006840681B49086048
:1012C0004046FFF721F814B3FFF71AF88046184894
:1012D0000568EDB100680068154908604046FFF7F1
:1012E00013F86E6006EB8700A860EE602E61AF8297
:1012F0004FF00000E8824FF0020020704FF0000035
:10130000208165600BA06061204601F075FA09E05C
:10131000064800686060054804604046FEF7F4FF38
:101320004FF000042046BDE7890000107400001053
:10133000B40000103F0000002DE9F0470446894644
:1013400015464FF0000A2CB94FF0040028702046D3
:10135000BDE8F0872078022804D04FF00100287003
:101360002046F5E73948007820B14FF00F0028708B
:101370002046EDE7FEF7C4FF8246A07A10B14FF099
:10138000010801E04FF00008B9F1000F03D0B9F1F6
:10139000010F50D125E0B8F1000F1AD12CA06061E7
:1013A00066682C48006830602A4806604FF00000EC
:1013B00020702948006860604FF0000020812648B6
:1013C00004605046FEF7A0FF4FF00000287007466B
:1013D00006E05046FEF798FF4FF049002870274678
:1013E00031E005E0002304221946204601F026F9E9
:1013F000A07A0028F6D116A06061666815480068DA
:101400003060144806604FF00000207012480068F9
:1014100060604FF0000020810F4804605046FEF7E6
:1014200073FFB8F1010F01D101F0C6FB4FF00000CE
:101430002870074607E05046FEF766FF4FF00700AA
:101440002870274600BF00BF384681E7890000109A
:101450003F000000B40000107400001070B5054695
:101460004FF000060DB9042070BD2878022801D085
:101470000120F9E7FEF744FF06466C686068E0600B
:10148000606820614FF00000E0823046FEF73CFFCC
:101490000020E9E72DE9F0470646884615464FF05B
:1014A000000936B94FF0040028704FF00000BDE885
:1014B000F0873078022805D04FF0010028704FF0F7
:1014C0000000F4E74448007828B14FF0020028708B
:1014D0004FF00000EBE74148007828B14FF00D00D5
:1014E00028704FF00000E2E7FEF70AFF81467468BB
:1014F000E08AB0B1216901F1040020610F68E08A3F
:10150000A0F10100E082A1682069884201D16068F1
:1015100020614846FEF7F8FE4FF00000287038467C
:10152000C5E72F48006890F8340040F004002C49CB
:10153000096881F834004FF000002949096881F8F2
:10154000350027480068C0F83080304601F00CF9BB
:101550004846FEF7D9FE01F02FFBFEF7D1FE81468B
:101560001F48006890F8350020B1012810D00228EB
:101570000DD106E01A480068476A4FF00000287055
:1015800011E04FF000074FF00E0028700BE000BF95
:1015900031461348006801F0A1F84FF000074FF002
:1015A0000A00287000BF00BF4FF000000C49096816
:1015B00081F834000A49096881F83500084909684A
:1015C000C8610749096808620549096848624846D0
:1015D000FEF79AFE38466AE7890000108A0000107C
:1015E0009C0000102DE9F04105460E464FF0000723
:1015F00015B90420BDE8F0812878022801D0012027
:10160000F8E7FEF77DFE0746A87A60B100230422C2
:101610003146284601F012F83846FEF775FE01F013
:10162000CBFA0020E6E76C68E08AA18A884204DBF6
:101630003846FEF769FE1E20DCE7E16801F1040090
:10164000E0600E60E08A00F10100E082D4E902105F
:10165000884201D16068E0603846FEF755FE002000
:10166000C8E7000010B54FF000040C4800780128CE
:1016700012D1FEF745FE04460948007848B90948EA
:101680000078FF2805D20748007800F101000549DD
:1016900008702046FEF738FE10BD000096000010CE
:1016A000890000108A00001010B54FF000041448A3
:1016B0000078012822D1FEF723FE04461148007865
:1016C000C8B110480078A0F101000E490870084622
:1016D000007860B90C48007828B92046FEF714FE5F
:1016E00001F06AFA0AE02046FEF70EFE06E0204608
:1016F000FEF70AFE02E02046FEF706FE10BD0000DF
:10170000960000108A0000108900001070B5054690
:101710004FF000061148007808B1002070BDFEF7B8
:10172000EFFD06460E480468006820B10C480068CA
:1017300040680B4908603046FEF7E6FD5CB14FF0AB
:101740000300207025814FF00000606005A06061FB
:10175000204601F051F82046E0E700008900001023
:10176000740000103F0000002DE9F0470446884651
:1017700015464FF000092CB94FF0040028702046A0
:10178000BDE8F0872078032804D04FF001002870CE
:101790002046F5E73248007820B14FF00F0028705E
:1017A0002046EDE7FEF7ACFD8146A07A10B14FF080
:1017B000010701E04FF00007B8F1000F03D0B8F1C6
:1017C000010F41D11DE0A7B926A060614FF00000D4
:1017D00020702548006860604FF00000208122489A
:1017E00004604846FEF790FD4FF000002870064662
:1017F00006E04846FEF788FD4FF04900287026466F
:101800002AE005E0002301221946204600F016FFD9
:10181000A07A0028F6D113A060614FF0000020707C
:101820001148006860604FF0000020810E4804609D
:101830004846FEF769FD012F01D101F0BDF94FF0D7
:1018400000002870064607E04846FEF75DFD4FF0B1
:1018500007002870264600BF00BF304690E7000012
:10186000890000103F000000740000102DE9F041D5
:1018700005460E4614464FF0000725B94FF0040008
:101880002070BDE8F0812878032803D04FF00100D4
:101890002070F6E73648007818B14FF0020020704B
:1018A000EFE73448007818B14FF00D002070E8E7FA
:1018B000FEF726FD0746288950B12889A0F10100CE
:1018C00028813846FEF720FD4FF000002070D8E751
:1018D0002948006890F8340040F001002649096862
:1018E00081F834004FF000002349096881F8350081
:1018F000214800680663284600F036FF3846FEF7A8
:1019000003FD01F059F9FEF7FBFC07461A48006891
:1019100090F8350020B101280BD0022808D103E04F
:101920004FF0000020700DE04FF00E00207009E035
:1019300000BF29461048006800F0D0FE4FF00A00B2
:10194000207000BF00BF4FF000000B49096881F80C
:1019500034000949096881F8350007490968C861F8
:101960000549096808623846FEF7CEFC00BF88E7E3
:10197000890000108A0000109C00001070B5044619
:101980004FF000050CB9042070BD2078032801D069
:101990000120F9E7FEF7B4FC0546A07A60B1002308
:1019A00001221946204600F049FE2846FEF7ACFC0D
:1019B00001F002F90020E7E720894FF6FF71884225
:1019C00008D2208900F1010020812846FEF79CFC06
:1019D0000020D9E72846FEF797FC3320D4E7000023
:1019E00010B50B48007890B901F024F90948007847
:1019F0000949087009480749097850F82100084941
:101A000008600846006807490860FEF780FC10BDC2
:101A1000960000108C0000108B000010342E001077
:101A2000A40000109C00001010B54FF000044FF00F
:101A3000020000F05BFBFEF763FC04464FF0000081
:101A40000B4908602046FEF75FFC642000F04EFB67
:101A5000FEF756FC044606480068064908604FF049
:101A60000100054908702046FEF74EFC10BD00003D
:101A700098000010800000108800001010B5044687
:101A80002046FEF7C9FC10BD2DE9FE4F06460F4665
:101A900090461C464FF000093F2C02D92A20BDE891
:101AA000FE8FFEF72DFC81462048007820B1484685
:101AB000FEF72AFC3C20F2E71D4850F8240078BBD2
:101AC0004FF001001A4941F824004846FEF71CFC7B
:101AD000002342463946304600F040FA82464FF035
:101AE00000000090019003460246514602902046B5
:101AF00001F0B6F8054635B90E48007801280DD139
:101B000001F05AF80AE0FEF7FBFB81464FF00000B7
:101B1000074941F824004846FEF7F6FB2846BEE791
:101B2000FFE74846FEF7F0FB2820B8E789000010E1
:101B3000342E0010960000102DE9F04F85B081463C
:101B40008A4693461C46DDE90F78129D4FF000004F
:101B500003903F2C03D92A2005B0BDE8F08FFEF793
:101B6000CFFB03902248007820B10398FEF7CCFB0E
:101B70003C20F1E71F4850F8240098BB4FF00100CB
:101B80001C4941F824000398FEF7BEFB2A46414653
:101B9000384601F09FF92B465A465146484600F018
:101BA000DDF904901198CDE9008002953A4620466F
:101BB0000E9B049901F054F8064636B90E48007899
:101BC00001280DD100F0F8FF0AE0FEF799FB039021
:101BD0004FF00000074941F824000398FEF794FBFA
:101BE0003046B9E7FFE70398FEF78EFB2820B3E7FE
:101BF00089000010342E00109600001010B5044625
:101C00002046FEF710FC10BD2DE9F04105464FF0CF
:101C100000075448007810B14020BDE8F0813F2D06
:101C200001D13E20F9E73F2D03D3FF2D01D02A201B
:101C3000F3E7FEF765FB0746FF2D03D14A4800682E
:101C400090F83650494850F8254024B93846FEF7F8
:101C50005BFB4320E1E7012C04D13846FEF754FB3F
:101C60003D20DAE714F8380F4149085C61786FEAE3
:101C70000101C9B200EA010021783D4A505414F82C
:101C800038091146085C50B994F83A006FEA000030
:101C9000C0B23849097800EA010036490870E069A5
:101CA00018B12046E16900F019FD206A18B12046FC
:101CB000216A00F030FDA66A16B1304600F0DEFD64
:101CC0004FF00000206384F8340084F835002A487F
:101CD0000078FF2805D22848007800F10100264945
:101CE00008703846FEF710FB00F0A6FCFEF708FB74
:101CF00007462148007828B11F480078A0F101006C
:101D00001D490870204600F043F81C480078A0F1F7
:101D100001001A4908704FF00000144941F82500ED
:101D2000A06938B94FF000006169886114496069A1
:101D3000086005E0D4E905014861D4E9051088612F
:101D40001048006860610F4804600FA020653846A5
:101D5000FEF7DAFA0D480078012801D100F02CFFD7
:101D600000205AE7890000109C000010342E00105B
:101D70008E0000108D0000108A00001097000010E7
:101D8000A8000010A00000103F0000009600001006
:101D900010B504462046FEF747FB10BD10B5FEF710
:101DA00044FB10BD2DE9F04105460F4614464FF0A7
:101DB00000083F2D06D9FF2D04D04FF02A002070D7
:101DC000BDE8F0811FB94FF00C002070F8E716480D
:101DD000007818B14FF012002070F1E7FEF790FA8A
:101DE0008046FF2D03D11148006890F83650104806
:101DF00050F8256036B94046FEF786FA4FF04300AA
:101E00002070DDE7012E06D14046FEF77DFA4FF047
:101E100043002070D4E737654046FEF775FA4FF06F
:101E20000000207000BFCBE7890000109C0000106C
:101E3000342E00102DE9F04104460E464FF0000705
:101E40003F2C04D9FF2C02D02A20BDE8F0810EB926
:101E50000920FAE7FEF754FA0746FF2C03D10F4892
:101E6000006890F836400E4850F8245025B938469E
:101E7000FEF74AFA2920E8E7012D04D13846FEF79B
:101E800043FA4320E1E758222946304600F02DFE70
:101E90003846FEF739FA0020D7E700009C00001012
:101EA000342E0010704710B5FEF7D8FA10BD0000B0
:101EB0002DE9F04706460C464FF0000A3F2E04D9A4
:101EC000FF2E02D02A20BDE8F0870CB90920FAE7DE
:101ED0004FF0000020606060FEF712FA8246FF2E8D
:101EE00003D11C48006890F836601B4850F8265013
:101EF00025B95046FEF708FA4320E4E7012D04D146
:101F00005046FEF701FA4320DDE7288A10F0010F62
:101F100004D15046FEF7F8F94520D4E74FF000070A
:101F2000D5F80C90D5F808805046FEF7EDF901E0A1
:101F300007F1010758F8041B0029F9D04FEA870080
:101F40002060A9EB07004FEA800060604FF00000BE
:101F5000B9E700009C000010342E001070B5044654
:101F600010464FF080750560A0F1040528462C60EE
:101F7000284EA0F1040528462E604FF01236A0F13D
:101F8000040528462E604FF00336A0F104052846CC
:101F90002E604FF00236A0F1040528462E604FF067
:101FA0000136A0F1040528462E60A0F1040528465C
:101FB00029604FF01136A0F1040528462E604FF03D
:101FC0001036A0F1040528462E604FF00936A0F126
:101FD000040528462E604FF00836A0F10405284677
:101FE0002E604FF00736A0F1040528462E604FF012
:101FF0000636A0F1040528462E604FF00536A0F104
:10200000040528462E604FF00436A0F1040528464A
:102010002E6070BDE92D00002DE9F04105464FF01E
:1020200000083F2D02D14720BDE8F0813F2D03D3AA
:10203000FF2D01D02A20F7E7FEF762F98046FF2D39
:1020400006D12648006890F836504FF001060AE0A5
:102050002248006890F83600A84202D14FF00106ED
:1020600001E04FF000061E4850F8254024B94046D4
:10207000FEF74AF94820D7E7012C04D14046FEF785
:1020800043F94320D0E794F838701648C05D94F8BF
:1020900039106FEA0101C9B200EA01001149C855BF
:1020A0000846C05D50B994F83A006FEA0000C0B22B
:1020B0000D49097800EA01000B49087094F83400D2
:1020C00040F0080084F834004046FEF71DF9012E68
:1020D00001D100F071FD0020A6E700009C00001077
:1020E000342E00108E0000108D00001070B50546D3
:1020F0004FF000061B48007800B170BD1A48007808
:1021000000B1FAE75DB3FEF7FBF806461748006832
:1021100090F838401648005D1449096891F8391064
:102120006FEA0101C9B200EA0100114908550846E9
:10213000005D60B90D48006890F83A006FEA000051
:10214000C0B20C49097800EA01000A490870074842
:10215000006805633046FEF7D7F800F02DFD00BF9C
:10216000CBE70000890000108A0000109C000010DE
:102170008E0000108D0000102DE9F04107460D463D
:1021800016461C461C48007810B15520BDE8F08169
:102190001A48007808B13220F8E727B91DB916B9F6
:1021A0000CB95420F2E73B2D01D95120EEE73B2E2C
:1021B00001D95220EAE7B4F57A7F01D35320E5E74D
:1021C0004FF47A7004FB00F04FF47A71B0FBF1F138
:1021D0004FF4616007FB00F0C5EB051200EB8200D5
:1021E000304400EB4002C2EBC01001EBC008404697
:1021F000FFF77CFF0020C9E7890000108A0000106B
:1022000070B54FF00005FEF77BF8054603480468FB
:102210002846FEF779F8204670BD0000B80000108F
:1022200070B54FF0000600F07FF8FEF769F806463B
:102230003748006800F10100354908603046FEF774
:1022400063F83448007801285FD13348007820B122
:10225000012805D002280CD105E04FF001050FE060
:102260004FF000050CE04FF0010528462A490870A0
:1022700006E04FF001054FF000002749087000BF4D
:1022800000BF05B970BD254804683AE0FEF738F88C
:102290000646206B88B3206BA0F101002063206B01
:1022A00058BB94F8340010F0370F0AD014F8340FEC
:1022B00000F0C80020704FF001006070A4F13404F9
:1022C00003E04FF0000084F8350094F8340010F07B
:1022D000080F12D104F13804A0781149097840EAB6
:1022E00001000F49087020780E49085C617840EAC7
:1022F000010014F838190B4A505464693046FEF74F
:1023000003F894F836003F28C0D100BFBAE70000B8
:10231000B800001096000010AC000010A8000010DB
:102320008D0000108E00001010B5FEF798F80848D8
:10233000008800F1010006490880084600886428EA
:1023400004D34FF00000088000F004F810BD000036
:102350006C00001010B503480068FFF70FFB04463F
:10236000204610BDC8000010F8B54FF420712D486C
:1023700000F0B0FB40212C4800F0ACFB4FF0000512
:1023800018E005F1010086B205EB8500254901EB57
:10239000C00406EB860001EBC0074FF0640020701C
:1023A0004FF0000084F82500E76020A0206205F1CE
:1023B000010085B20F2DE4D305EB8500194901EB2F
:1023C000C0044FF0640020704FF0000084F8250036
:1023D000E06016A020624FF0000015490860154922
:1023E00008804FF01000144908800E481349086017
:1023F0004FF00100FFF78AF9114908600020FFF74C
:1024000085F9104908606A460FA10D480068FEF77B
:10241000E3FD6A4611A10B480068FEF7DDFD00F000
:1024200027F8F8BD9C3700101C3B00103F0000004F
:10243000C0000010BE000010BC000010CC00001056
:10244000C4000010C800001075432F4F532D494998
:1024500020546D724C6F636B0000000075432F4F6A
:10246000532D494920546D725369676E616C0000A9
:1024700000B587B00320002140220A4BCDE901328C
:10248000CDE903104FF6FD703D23064AFC32009063
:102490000548FFF751FB06AA04A13D20FFF782FC87
:1024A00007B000BD1C3A00103525000075432F4FC2
:1024B000532D494920546D720000000070B50C4640
:1024C0004FF0030580F82550012C05D1174EC56942
:1024D0003668354445610CE085692DB9134EC569F0
:1024E00036683544456104E0104E856936683544E8
:1024F0004561456905F007030D4D05EBC3010D6806
:102500003DB908604FF00005C5604FF001058D80B2
:1025100007E00A680860C26010618D8805F1010556
:102520008D804FF00005056170BD0000C0000010F7
:102530001C3B001008B500BF00BF6A4600211B48C5
:102540000068FFF793F9FFF78DF81948006800F16C
:102550000100174908600846006800F007061548A2
:1025600000EBC608D8F800401BE0E7681049606936
:102570000968884214D1204600F01EF894F824001F
:10258000022804D101212046FFF798FF03E04FF015
:10259000020084F82500656815B12046A168A847A7
:1025A0003C46002CE1D1FFF77FF8C6E7C8000010D9
:1025B000C00000101C3B001030B5456905F0070451
:1025C0000F4D05EBC4031D68854206D1C168196033
:1025D00041B14FF000050D6104E00169C268CA60B5
:1025E00002B111614FF0010580F825504FF0000550
:1025F000C56005619D88A5F101059D8030BD000085
:102600001C3B0010A0F101014FF0E02251614FF09E
:10261000FF01084A11704FF0E021096941F00501FE
:102620004FF0E02211611146096941F00201116188
:102630007047000023ED00E0704700002DE9F04FE7
:1026400005460F4690469946A87A20490E5C05F14A
:102650000B00805D11F800B00BEBC60000F0FF0A24
:102660001B4850F82A404FF0000004F12404E060B9
:102670002760207C6FEA0801C9B200EA01002074DB
:1026800084F81190207CA4F1240410F0080F0FD1DD
:1026900094F83A000F49097840EA01000D490870A2
:1026A0000D48805D94F8391040EA01000A498855C8
:1026B0002946204600F012F8206A20B12046216AFF
:1026C00000F029F8E5615046BDE8F08FECC100004C
:1026D000342E00108D0000108E00001010B590F800
:1026E000382001F10B039B5C90F839406FEA040439
:1026F000E4B203EA040301F10B04A35423469B5CF8
:1027000043B98B7A90F83A406FEA0404E4B203EAE2
:1027100004038B7210BDF0B5024612F8384F95785D
:102720005678A2F138020B4618681AE000F10B0740
:102730003F5D6FEA060C0CF0FF0C07EA0C0700F196
:102740000B0C0CF8047067463F5D3FB9877A6FEA5F
:10275000050C0CF0FF0C07EA0C07877203F1040369
:1027600018680028E2D1F0BD10B5204A1268D06187
:102770001E4A126892F8383000F10B02D25C1B4BF3
:102780001B6893F8393042EA0302184B1B6893F830
:10279000384000F10B031A55827A144B1B6893F8EA
:1027A0003A3042EA03028272104A126892F83810F4
:1027B0000F4A525C0D4B1B6893F839306FEA0303E4
:1027C000DBB202EA03020A4B5A541A46525C62B95F
:1027D000064A126892F83A206FEA0202D2B2054B1A
:1027E0001B7802EA0302034B1A7010BD9C00001014
:1027F0008E0000108D00001001464FF000028A721A
:10280000104607E04FF0000301F10B02135400F1F2
:102810000102D0B20828F5D3704700002DE9F0413D
:102820005021134800F056F94FF0000510E005F173
:10283000010086B20E4800EB051400EB06174FF0BE
:102840000000207067600BA0E06005F1010085B218
:10285000042DECD3064800EB05144FF00000207067
:10286000606004A0E060024803490860BDE8F081B0
:10287000642C00103F0000007800001030B50146C5
:102880004A68086832B9CC68606030B14FF0000522
:10289000456002E0106000B142608B684FF00005B7
:1028A0009D6230BD70B54FF4F071164800F012F91A
:1028B0004FF0000414E004F1010085B204EB440081
:1028C000104901EBC00305EB450001EBC0064FF0DA
:1028D000000018705E600CA0586104F1010084B221
:1028E000132CE8D304EB4400064901EBC0034FF07E
:1028F00000001870586004A0586108460349086039
:1029000070BD0000842A00103F0000007400001019
:102910004FF000000A4908600A4908700A49087027
:102920000A4908700A4908700A4908600A4908609B
:102930000A4908600A4908600A490870704700009F
:10294000B8000010890000108A00001097000010E5
:102950009600001070000010980000108400001015
:1029600080000010880000104FF000010B4A117029
:10297000084606E04FF00001094A115400F1010138
:10298000C8B20828F6D34FF00001064A1170064A73
:102990001170064A1160064A116070478D000010E0
:1029A0008E0000108B0000108C000010A40000109E
:1029B0009C00001070B54FF4F2611B4800F08AF8DB
:1029C0004FF48071194800F085F84FF0000415E0CD
:1029D00004F10100C5B204EB440000EBC40012494D
:1029E00001EBC00305EB450000EBC50001EBC006A1
:1029F0005E610FA0186504F10100C4B2152CE7D385
:102A000004EB440000EBC400074901EBC0034FF0A6
:102A10000000586106A018654FF0000005490860E5
:102A200001480549086070BD342F0010342E001095
:102A30003F000000A8000010A000001000B587B003
:102A40000320002120220A4BCDE90132CDE90310F9
:102A50004FF6FF703F23064A7C3200900548FFF78F
:102A60006BF806AA04A13F20FFF79CF907B000BD50
:102A7000B42D0010BD2D000075432F4F532D494933
:102A80002049646C6500000000B587B00320002178
:102A900040220A4BCDE90132CDE903104FF6FE701A
:102AA0003E23064AFC3200900548FFF745F806AA87
:102AB00004A13E20FFF776F907B000BDB42C00104A
:102AC000012E000075432F4F532D49492053746147
:102AD0007400000006E04FF0000200F8012BA1F1A5
:102AE000010291B20029F6D1704706E011F8013BCE
:102AF00000F8013BA2F101039AB2002AF6D1704717
:102B000070B578211348FFF7E5FF4FF0000410E09F
:102B100004EB44000F4901EBC00504F1010000EB98
:102B2000400001EBC00068600BA0686104F1010087
:102B300084B2042CECD304EB4400064901EBC0053D
:102B40004FF00000686004A068610846034908600F
:102B500070BD0000C43600103F000000B00000103F
:102B60002DE9F04160211248FFF7B4FF4FF0000457
:102B70000FE004F1010086B204EB44000C4901EBC4
:102B8000C00506EB460001EBC0072F6004F1010011
:102B900084B2032CEDD304EB4400054901EBC005DE
:102BA0004FF000002860084602490860BDE8F08147
:102BB0003C370010B400001010B54FF00004FDF7D2
:102BC0009FFB04461448007808BB14480078F0B90D
:102BD00000F030F812481349097850F821001249E2
:102BE0000860104800781149097888420FD00E48D3
:102BF0000068C06B00F101000B490968C8630C480C
:102C0000006800F101000A490860FDF790FB2046CA
:102C1000FDF77AFB10BD0000890000108A0000104B
:102C2000342E00108C000010A40000108B00001047
:102C3000700000100649074A1278885C0649095C52
:102C4000034A515C01EBC001044A11707047000057
:102C5000ECC100008D0000108E0000108C000010F0
:102C60002DE9F84F05460F4690469946DDE90AAB37
:102C70004FF000000090FDF743FB009048480468C7
:102C8000002C7DD004F11C0454F8080C4449086061
:102C90000098FDF739FB44F81C7CA5764FF0000046
:102CA00020766076606144F818BC44F810AC44F8B3
:102CB000148C0C9824F80C0C24F80A9C4FF000009B
:102CC000E0774FEAE500207705F00700E076217F06
:102CD0004FF0010000FA01F0A077E17E4FF0010013
:102CE00000FA01F060774FF0000020606060E06063
:102CF000A0602062A0626062E062206329A060633D
:102D0000A4F11C044FF0000608E04FF0000104F1AC
:102D1000540040F8261006F10100C6B2002EF4D08F
:102D20002046FEF7ABFE2046FEF768FFFDF7E8FA07
:102D300000901D4840F825401C48006860614FF035
:102D40000000A0611948006810B11848006884614B
:102D50001648046004F13804A0781549097840EA5F
:102D600001001349087020781249085C617840EA34
:102D7000010014F838190F4A50540F48007800E049
:102D800009E000F101000C4908700098FDF7BCFA59
:102D90000020BDE8F88F0098FDF7B6FA4220F8E76A
:102DA000A00000103F000000342E0010A80000100A
:102DB0008D0000108E000010970000104FF00004EE
:102DC00000BF00BFFDF79CFA04460648006800F10A
:102DD0000100044908602046FDF796FAFEF7DEFF81
:102DE000F0E700009800001010B504480068FFF7F5
:102DF00059F8FF20FEF708FF10BD00009C000010EE
:102E00004FF0000400BF02E0C820FFF76FF91C4834
:102E100000780028F8D01B4800684FF06401B0FB30
:102E2000F1F0184908600846006838B94FF0000012
:102E3000154908704FF0FF00FFF7EEF800BFFDF7EF
:102E40005FFA044611480068114908604FF000001D
:102E50000E4908602046FDF757FA0D4800680949F9
:102E60000968B0FBF1F0C0F1640007490870FFF792
:102E70001AF800F00FF86420FFF738F9DFE70000D8
:102E800088000010800000107C00001098000010E6
:102E9000840000107CB54FF0000515E06946284617
:102EA000FFF706F8064666B9094850F8254044B1D0
:102EB000012C06D0D4E9020100EB8100A064019846
:102EC000E06405F10100C5B23F2DE7D97CBD0000EB
:102ED000342E001012F0010F0AD012F0020F07D0AA
:102EE00004E0A1F101014FF0000308C00029F8D16E
:102EF000704710B5044600F00DF8002801DA0020F4
:102F000010BD206800F021F8002801DA0020F7E762
:102F10000120F5E770B54FF400410020FDF7EEFC0D
:102F20004FF480140CE00020FDF714FC054615F466
:102F3000084F00D106E00CB9002070BDA4F10104D7
:102F4000002CF0DA00BF0120F7E72DE9F04104463C
:102F50004FF00200FDF7FEFB06464FF00300FDF7C1
:102F6000F9FB0746072E35D140F60F40B0EB271F7F
:102F700030D1052C29D2DFE804F00310161C220002
:102F80004FF440510020FDF7B9FC4FF4801501E0EB
:102F9000A5F10105002DFBDA1BE04DF6FF710020C5
:102FA000FDF7ACFC15E04FF6FF710020FDF7A6FC25
:102FB0000FE04FF404510020FDF7A0FC09E04FF6AC
:102FC000FF610020FDF79AFC03E04FF0FF30BDE801
:102FD000F08102E04FF0FF30F9E700F007F8002839
:102FE00002DA4FF0FF30F2E70020F0E770B54FF45F
:102FF00080150DE00120FDF7ADFB044614F0040F31
:1030000000D007E015B94FF0FF3070BDA5F1010504
:10301000002DEFDA00BF14F4804F02D114F4805F6A
:1030200003D00120FDF7D2FB08E014F4005F02D1C9
:1030300014F4006F02D00020FDF7C8FB14F4004F19
:1030400005D114F4804F02D114F4005F03D00120A5
:10305000FDF7D6FB08E014F4805F02D114F4006F92
:1030600002D00020FDF7CCFB0020CEE72DE9F04197
:1030700006460F4615464FF000043946304600F02C
:103080001BF88046B8F1050F02D10A48BDE8F0816F
:103090003946304600F06EF80446206820F00700FC
:1030A000206005F00701206840EA010020604FF031
:1030B0000000EBE70100001002464FF00500062A71
:1030C00054D2DFE802F0033440414245062907DDCF
:1030D0000A2901DB0B2903DD0E2904DB162902DC9A
:1030E0004FF0000022E00C2905D00D2903D017294C
:1030F00004DB1A2902DC4FF0010017E01D2903D080
:103100001E2901D01F2902D14FF002000EE01B2919
:1031100001D01C2902D14FF0030007E0072903D09A
:10312000082901D0092901D14FF004001FE01D2911
:1031300002DC4FF0000005E01E2901D01F2901D15B
:103140004FF0010013E000BF00BF4FF000000EE0A1
:10315000012901DD042902D14FF0000005E0022918
:1031600001D0032901D14FF0030000E000BF00BFF0
:103170007047000010B502464FF0000001EB42130B
:10318000014C04EB830010BD00C002407CB5054635
:103190000C46019500946846FDF770FB7CBD00006D
:1031A00010B5FDF7ADF804460648007800F10100BF
:1031B000044908702046FDF7A7F8FFF731F8FDF73E
:1031C0006BFF10BD8900001030B5B448006810F4E2
:1031D000807F74D1B1480830006810F0010F2FD102
:1031E000AE48006810F01F0F02D14FF0000006E05B
:1031F000AA48006800F01F00A949B1FBF0F0A949F6
:103200000860A648A430006810F01F0F02D14FF0EC
:10321000000006E0A448006800F01F00A049B1FBD0
:10322000F0F0A2490860A248006800F0010000F137
:1032300001009C490968B1FBF0F09E490860C8E0B4
:1032400099480838006810F0400F08D14FF000008E
:10325000944908609549086096490860B9E08F482C
:10326000006810F01F0F02D14FF0000006E08B48FD
:10327000006800F01F008A49B1FBF0F0894908603E
:103280008948006810F01F0F02D14FF0000006E0DF
:103290008548006800F01F008149B1FBF0F08349C8
:1032A00008608348006800F0010000F101007D49DA
:1032B0000968B1FBF0F07F4908608AE0FFE77C48CD
:1032C0007838006810F4807F08D14FF0000075490D
:1032D000086076490860774908607AE06F480830EE
:1032E000006810F0010F32D1734C246804F01F0401
:1032F00004F10100714CD4F8044104F01F016A4C40
:10330000246804F01F026D4CD4F8004104F001045D
:1033100004F1010311B94FF0000404E0604C00FB1C
:1033200004F4B4FBF1F45F4D2C6012B94FF00004CB
:1033300004E05B4C00FB04F4B4FBF2F45B4D2C6046
:10334000584C2468B4FBF3F45A4D2C6041E05648C5
:103350000838006810F0400F08D14FF000005149C4
:103360000860524908605349086032E0524C2468B2
:1033700004F01F0404F10100504CD4F8044104F09F
:103380001F01494C246804F01F024C4CD4F8004142
:1033900004F0010404F1010311B94FF0000404E04A
:1033A0003F4C00FB04F4B4FBF1F43E4D2C6012B929
:1033B0004FF0000404E03A4C00FB04F4B4FBF2F4D8
:1033C0003A4D2C60374C2468B4FBF3F4394D2C6033
:1033D00000BF3248001D006810F4807F36D02F48AF
:1033E000001D006810F01F0004D0042807D0062834
:1033F00026D105E04FF000003149086025E000BF0C
:103400002D4A126802F01F0202F101002B4AD2F885
:10341000082102F01F012B4A126812F0010F07D099
:103420001F4A00FB02F2B2FBF1F2254B1A6006E0E4
:103430001B4A00FB02F2B2FBF1F2214B1A6004E0DE
:103440004FF000001E49086000BF26E01348001D31
:10345000006810F4007F1CD01A48006810F0010FBB
:103460000BD01948006800F01F0000F101000C4962
:1034700000FB01F0124908600FE00F48006800F0FF
:103480001F0000F10100064900FB01F00C49086033
:1034900003E04FF000000A49086030BD04C10F404E
:1034A000001BB7005C000010A8C10F4060000010B6
:1034B00000C10F406400001088C00F4000C00F40E2
:1034C000680000100CC10F40A8C00F4000B54FF0BD
:1034D00021003349086000BF3148006810F0400FF8
:1034E000FAD04FF001002F4908604FF009002E4933
:1034F000C1F884004FF001002C4908604FF0AA0089
:103500002B4908604FF05500086000BF2848001F95
:10351000006810F4806FF9D04FF02300254908604F
:103520004FF001002049C1F8A0004FF0AA00224945
:1035300008604FF055001C49C1F8AC0000BF1D48A1
:10354000001D006810F4806FF9D040F201101B4993
:10355000086040F201201449C1F808014FF0010051
:10356000174908604FF002001649086016481749CD
:1035700008604FF480700C49C1F8C8010846D0F8C3
:10358000B00140F003001249086045F23A000649D4
:1035900008604FF000000F490860FFF715FE00BDFE
:1035A000A0C10F400CC10F4000C00F4080C00F40B1
:1035B0008CC00F40A4C00F40ACC00F4004C10F40EE
:1035C00000C10F40A8C10F40DE872804C4C00F40CF
:1035D000B0C10F4008ED00E070B5044625462868EC
:1035E00004F01FFF70BD38B504464FF00000009096
:1035F0004FF001031A466946204600F04BFC9DF847
:10360000000038BD70B505460C460CB9002070BDF1
:10361000002301222146284600F03CFC08B101208D
:10362000F5E70020F3E700002DE9FF4F83B00C46DB
:1036300015461E464FF0000002900190002D03DC5D
:10364000306007B0BDE8F08F4FF00009012C02D1C7
:103650004FF0100005E014B94FF00A0001E04FF000
:103660000000C7B21FB94FF000003060E9E74FF02B
:10367000000889E04FF00100019003461A4602A9B4
:10368000039800F007FC9DF80800302808DB9DF83F
:103690000800392804DC9DF80800A0F1300B39E05F
:1036A000012C34D14FF010079DF80800612811D08B
:1036B00008DCA0F14100062824D2DFE800F00C105D
:1036C00014181C20623805281CD2DFE800F0070B14
:1036D0000F13170000BF4FF00A0B17E000BF4FF0A9
:1036E0000B0B13E000BF4FF00C0B0FE000BF4FF0CF
:1036F0000D0B0BE000BF4FF00E0B07E000BF4FF0CB
:103700000F0B03E04FF00000019000BF02E04FF00C
:10371000000001904FF0010000900198B0B924B969
:103720001DA1039800F074FA05E0012C03D125498E
:10373000039800F06DFA09F10109B9F10A0F23D3DA
:1037400021A1039800F064FA00207AE79DF80810A0
:10375000039800F051F8012D03D12F462846009020
:103760000BE04FF0010A06E00098784300900AF160
:10377000010000F0FF0AAA45F6DB00980BFB00FBF6
:10378000D844A5F10100C5B2002D3FF773AFC6F8CC
:103790000080012055E70000506C6561736520656D
:1037A0006E746572206120636861722066726F6D4D
:1037B0002027302720746F202739272121210D0A47
:1037C0000000000010C100005265616368206C6950
:1037D0006D69746174696F6E206F662072652D74F7
:1037E000726965732E2052657475726E2046414968
:1037F0004C45440D0A00000013B504464FF0010388
:103800001A4601A9204600F0CDFB1CBD2DE9F04170
:1038100005460C464FF00A0094FBF0F100FB114006
:10382000C6B24FF00A0094FBF0F04FF00A0190FB93
:10383000F1F201FB1200C7B24FF0640094FBF0F00C
:1038400090FBF1F201FB120000F0FF0808F13000DC
:10385000C1B22846FFF7D0FF07F13000C1B22846B9
:10386000FFF7CAFF06F13000C1B22846FFF7C4FFD8
:10387000BDE8F0812DE9F04705460C464FF00A00FF
:1038800094FBF0F100FB1140C6B24FF00A0094FB2C
:10389000F0F04FF00A0190FBF1F201FB1200C7B209
:1038A0004FF0640094FBF0F090FBF1F201FB12008A
:1038B00000F0FF084FF47A7094FBF0F090FBF1F207
:1038C00001FB120000F0FF0942F2107094FBF0F0CF
:1038D00090FBF1F201FB120000F0FF0A0AF1300048
:1038E000C1B22846FFF788FF09F13000C1B228466F
:1038F000FFF782FF08F13000C1B22846FFF77CFFD6
:1039000007F13000C1B22846FFF776FF06F130001C
:10391000C1B22846FFF770FFBDE8F0872DE9F34FED
:1039200083B00C464FF00A00B4FBF0F100FB1140ED
:10393000C5B24FF00A00B4FBF0F04FF00A01B0FB43
:10394000F1F201FB1200C6B24FF06400B4FBF0F0DC
:10395000B0FBF1F201FB1200C7B24FF47A70B4FB76
:10396000F0F0B0FBF1F201FB120000F0FF0842F2B0
:103970001070B4FBF0F0B0FBF1F201FB120000F0AC
:10398000FF093648B4FBF0F0B0FBF1F201FB120086
:1039900000F0FF0A3248B4FBF0F0B0FBF1F201FB9B
:1039A000120000F0FF0B2F48B4FBF0F0B0FBF1F277
:1039B00001FB1200C0B202902B48B4FBF0F0B0FB48
:1039C000F1F201FB1200C0B201902848B4FBF0F004
:1039D000B0FBF1F201FB1200C0B20090009800F1C0
:1039E0003000C1B20398FFF707FF01983030C1B231
:1039F0000398FFF701FF02983030C1B20398FFF738
:103A0000FBFE0BF13000C1B20398FFF7F5FE0AF19F
:103A10003000C1B20398FFF7EFFE09F13000C1B2E8
:103A20000398FFF7E9FE08F13000C1B20398FFF7F1
:103A3000E3FE07F13000C1B20398FFF7DDFE06F1A7
:103A40003000C1B20398FFF7D7FE05F13000C1B2D4
:103A50000398FFF7D1FE05B0BDE8F08FA086010006
:103A600040420F008096980000E1F50500CA9A3B9D
:103A70002DE9F04107460D460FA1384600F0C8F881
:103A80004FF0010600BF4FEA860045FA00F000F053
:103A90000F04092C02DD04F1370001E004F13000CD
:103AA000C1B23846FFF7A8FE3000A6F10101CEB240
:103AB000E9D1BDE8F0810000307800002DE9F04147
:103AC00007460D460FA1384600F0A2F84FF0030656
:103AD00000BF4FEA860045FA00F000F00F04092C01
:103AE00002DD04F1370001E004F13000C1B23846D4
:103AF000FFF782FE3000A6F10101CEB2E9D1BDE8A8
:103B0000F0810000307800002DE9F04107460D46B5
:103B10004FF0030600BF4FEA860045FA00F000F0C0
:103B20000F04092C02DD04F1370001E004F130003C
:103B3000C1B23846FFF760FE3000A6F10101CEB2F7
:103B4000E9D1BDE8F08100002DE9F04107460D46BE
:103B50000FA1384600F05CF84FF0070600BF4FEAAF
:103B6000860025FA00F000F00F04092C02DD04F1B4
:103B7000370001E004F13000C1B23846FFF73CFEE7
:103B80003000A6F10101CEB2E9D1BDE8F08100001C
:103B9000307800002DE9F04107460D464FF007064A
:103BA00000BF4FEA860025FA00F000F00F04092C50
:103BB00002DD04F1370001E004F13000C1B2384603
:103BC000FFF71AFE3000A6F10101CEB2E9D1BDE83F
:103BD000F0812DE9F04107460D464FF0010600BF88
:103BE0004FEA860045FA00F000F00F04092C02DDD0
:103BF00004F1370001E004F13000C1B23846FFF7AC
:103C0000FBFD3000A6F10101CEB2E9D1BDE8F081A3
:103C100070B506460D462C4604E014F8011B3046EC
:103C2000FFF7EAFD20780028F7D170BD70B5044693
:103C30000D4629462046FFF7EBFF02A12046FFF77D
:103C4000E7FF70BD0A0D00004FF4E13101604FF055
:103C5000030141714FF00001017181717047000053
:103C60002DE9F04106460F46052E40D2DFE806F06A
:103C700003400405740000BF00BF304607F0CAFBD4
:103C8000054626B901210820FCF7EAFB0CE0022ECC
:103C900004D101210806FCF7E3FB05E0032E03D164
:103CA00001214806FCF7DCFB4FF0070028724FF0BB
:103CB0000000287200E02C78287D10F0010FFAD166
:103CC0004FF0800085F8300000BF287D10F0200FF5
:103CD000FBD04FF0000085F8300068602873286240
:103CE00085F84C0085F8540085F850002C7D60E084
:103CF00001211020FCF7B4FB4FF007006149087266
:103D00004FF00000087201E05E4804785D48007DD5
:103D100010F0010FF8D14FF080005B49087000BF30
:103D20005848007D10F0200FFAD04FF0000056499F
:103D30000870544948600873086281F84C00534980
:103D40000870504981F850000846047D4FF000008B
:103D500008740846047E2CE001210802FCF780FB71
:103D60004FF007004A4988604FF00000886001E08A
:103D7000474804684648406910F0010FF8D14FF0F9
:103D800001004349C86500BF4148406910F0200F59
:103D9000FAD04FF000003E49C8654860C86008622C
:103DA000C86448650865084644694FF000004862E9
:103DB00000BF00BF3046396807F044FB012E04D134
:103DC0003048007B00F0C0040EE0042E04D13048DF
:103DD000C06800F0C00407E0304607F01BFB054652
:103DE000287B00F0C00400BF787930B1012806D0EC
:103DF000022807D0032808D108E000BF09E044F0FA
:103E0000010406E044F0020403E000BF44F00304B0
:103E100000BF00BF3879C0B144F0080438790128E8
:103E200006D0022806D0032807D004280BD107E0CB
:103E300000BF09E044F0100406E044F0200403E071
:103E400044F0300400E000BF00BFB87928B1012879
:103E500002D144F0040401E000BF00BF00BF012E06
:103E600002D108490C730BE0042E03D1E0B20849DB
:103E7000C86005E0304607F0CDFA05462C7300BF58
:103E8000BDE8F081000001403000014054000140D5
:103E900000400A402DE9F04705460F4690469946F6
:103EA0003C464FF0000A052D13D2DFE805F003066B
:103EB000090C0F00DFF890A00BE0DFF890A008E0FD
:103EC000DFF88CA005E0DFF88CA002E0DFF888A026
:103ED00000BF00BF4246B9F1010F1DD14FF00003F2
:103EE00017E04FF0FF3603E006B906E0A6F1010641
:103EF000DAF8000010F0010FF6D000BF06B90AE0B2
:103F0000284600F02BF804F8010BA2F1010203F19E
:103F10000103002AE5D114E04FF000030EE0DAF8C7
:103F2000000010F0010F00D10AE0284600F016F85A
:103F300004F8010B03F10103A2F10102002AEED102
:103F400000BF1846BDE8F08714C0004014000140CF
:103F50001480094014C0094014400A400146052954
:103F600014D2DFE801F00306090C0F0008480078BE
:103F7000704708480078FBE707480078F8E70748EB
:103F80000078F5E706480068C0B2F1E70020EFE7E7
:103F900000C00040000001400080094000C009400E
:103FA00000400A402DE9FF4F074691469A46019E80
:103FB0004FF0000B052F13D2DFE807F00306090CC2
:103FC0000F00DFF8C0B00BE0DFF8BCB008E0DFF8AE
:103FD000BCB005E0DFF8B8B002E0DFF8B8B000BF71
:103FE00000BF4B46BAF1010F29D14FF0000423E086
:103FF0004FF0FF3805E0B8F1000F00D106E0A8F15E
:104000000108DBF8000010F0200FF4D000BFB8F179
:10401000000F00D112E04FF010050AE016F8011B66
:10402000384600F039F8A5F10105A3F1010304F1C8
:1040300001040DB1002BF1D1002BD9D11EE04FF0BE
:10404000000418E003B918E0DBF8000010F0200FBE
:1040500000D112E04FF010050AE016F8011B3846B7
:1040600000F01AF8A3F10103A5F1010504F1010420
:104070000DB1002BF1D1002BE4D100BF204604B0DC
:10408000BDE8F08F14C000401400014014800940C6
:1040900014C0094014400A40052813D2DFE800F09C
:1040A0000306090C0F00084A11700BE0074A117053
:1040B00008E0074A117005E0064A117002E0064A5E
:1040C000116000BF00BF704700C000400000014009
:1040D0000080094000C0094000400A4070B5044615
:1040E0000D46012D1DD1012C07D11D48007840F04F
:1040F00080001C4981F8300031E0042C06D11A48B8
:10410000C06D40F001001849C86528E0204607F05E
:1041100081F9064696F8300040F0800086F83000BD
:104120001DE0012C07D10E4800784FF000000D492A
:1041300081F8300013E0042C06D10B48C06D4FF01D
:1041400000000949C8650AE0204607F063F9064601
:1041500096F830004FF0000086F8300000BF70BDC8
:10416000300001400000014000400A400FB4054B00
:1041700010B503A9044A029800F0C4F810BC5DF819
:1041800014FB0000A1560000A00100100FB4084B62
:1041900010B504A902AA039800F0B4F8044602A9D5
:1041A000002000F053FA204610BC5DF814FB00001C
:1041B0004D46000070B5064640F2B45232493348CD
:1041C000FBF7FCFF40F2B453042231A12F4802F068
:1041D00053FC050004D022462FA12846FFF7D6FF46
:1041E00040F2B45304222DA1284802F045FC0500FA
:1041F00027D04FF0640004FB00F04FF47A6190FB8D
:10420000F1F084B24FF0640094FBF0F000F1300064
:1042100040B228704FF00A0094FBF0F04FF00A0112
:1042200090FBF1F201FB120000F1300040B2687027
:10423000084694FBF0F100FB114000F1300040B261
:10424000A87040F2B453042216A1104802F014FCE6
:1042500005000AD015480088401C80B21349088028
:10426000024613A12846FFF791FF01232C2211A13A
:10427000304602F0DDFF012340F2B45203493046DC
:1042800002F0D6FF70BD00005CBB0000A40A001065
:10429000414438250000000025336400414437259F
:1042A0000000000041443125000000000000001023
:1042B00025337500485454502F312E312032303080
:1042C000204F4B0D0A436F6E74656E742D747970B8
:1042D000653A20746578742F68746D6C0D0A0D0A48
:1042E0000000000002E008C8121F08C1002AFAD12D
:1042F00070477047002001E001C1121F002AFBD166
:10430000704700002DE9FF4F8DB005468846002616
:1043100067E125287AD100246D1CB64AA146A34640
:1043200001212B78203B01FA03F0104202D0044314
:104330006D1CF6E728782A2810D06FF02F02287815
:10434000A0F13001092915D809EB890102EB4101DF
:1043500044F0020400EB01096D1CF0E758F8049BDF
:10436000B9F1000103DA44F40054C1F1000944F04A
:1043700002046D1C28782E2817D115F8010F44F07F
:1043800004042A280ED06FF02F022878A0F1300103
:1043900009290AD80BEB8B0102EB410100EB010B61
:1043A0006D1CF2E758F804BB6D1C28786C280FD000
:1043B00006DC4C2817D068280DD06A2814D104E0F8
:1043C000742810D07A280FD10DE044F400140AE0CC
:1043D00044F4801401E044F440146978814202D12D
:1043E0006D1C04F580146D1C2878692866D007DCE4
:1043F000002875D0632828D0642807D15EE005E046
:104400006E2808D073282AD075287AD0DDE90F12DB
:104410009047761CE4E0C4F30250022809D0032838
:104420000DD0D8F8001004280DD00E6008F1040853
:10443000D6E0D8F80010F217C1E90062F6E7D8F824
:1044400000100E80F2E70E70F0E758F8041B8DF8AC
:10445000001000208DF80100EA46012003E058F822
:1044600004AB4FF0FF3061074FF0000701D40AE0C2
:104470007F1C5F450DDA8742FADB1AF80710002926
:10448000F6D106E07F1C8742FCDB1AF807100029F2
:10449000F8D1DDE90F23A9EB07008146214600F0A2
:1044A000BEF83044C61904E0DDE90F121AF8010B1A
:1044B00090477F1EF8D2214648468CE00A2758F8DC
:1044C000040BC4F30251032900D100B2042900D126
:1044D00040B2002806DAC0F100004FF02D0104E0E0
:1044E00083E00EE0210504D52B218DF82C1001214D
:1044F00003E0E10710D02021F7E70DF1200A099130
:1045000013E00A2758F8040BC4F30251032900D121
:1045100080B2042900D1C0B20021EEE73946FBF792
:1045200097FE01F130020AF8012D0028F6D1ADEB1B
:104530000A0000F120000890600702D524F48034BE
:1045400001E04FF0010B089A00205946934501DD28
:10455000A1EB0200834600EB020109980144A9EB9C
:1045600001000A90E00306D4DDE90F2321460A98F2
:1045700000F055F8064400270DF12C0906E0DDE9AE
:104580000F1219F807009047761C7F1C0998874284
:10459000F5DBE0030CD5DDE90F2321460A9800F096
:1045A0003EF8064404E0DDE90F1230209047761C07
:1045B000BBF10001ABF1010BF5DC05E0DDE90F1209
:1045C0001AF8010B9047761C0899481E089000299C
:1045D000F4DC0A982146DDE90F2300F00DF80644CB
:1045E0006D1C287800287FF494AE11B03046BDE8E9
:1045F000F08F0000092801002DE9F0410446002554
:1046000017461E46880405D406E039462020B047E8
:1046100005F10105641EF8D52846BDE8F0812DE9B5
:10462000F04104460025302790461E46C80300D4BA
:104630002027880405D506E041463846B04705F1F5
:104640000105641EF8D52846BDE8F0810A68531CB0
:104650000B601070704700002DE9F04106460F46D0
:104660009046354600BF686900280CD100BF19A3E9
:104670004FF4BA7221A12CA0FFF778FD00BF6FF0B4
:104680000800BDE8F08100BF2878A96A02F03AFB73
:10469000044614B94FF0FF30F3E76760204603F09B
:1046A0001BFD84F808802146686903F097FE40B13D
:1046B0004FF000006060204602F028FC4FF0FF3011
:1046C000DFE7A86A20B1002211462846AB6A984766
:1046D0000020D6E72E2E5C555345525C6C776970EE
:1046E0002D312E332E325C7372635C6170695C61B4
:1046F00070695F6D73672E6300000000616363651E
:1047000070745F66756E6374696F6E3A20696E7659
:10471000616C696420636F6E6E2D3E6163636570CA
:10472000746D626F78000000417373657274696F15
:104730006E2022257322206661696C656420617495
:10474000206C696E6520256420696E2025730A003F
:1047500010B5044600F0CEFD0022034941F2883036
:1047600003F0E4FE10BD0000514700001CB501221B
:1047700002210020FEF77AFC012203210020FEF72F
:1047800075FC6846FFF760FA69460020FFF768FA93
:1047900001210020FFF7A2FC1648174908601748BE
:1047A00017490860174818490860184818490860F0
:1047B00018481949086019481949086019481A49E0
:1047C00008601A481A4908601A481B4908601B48C3
:1047D0001B4908601B481C4908601C481C490860AC
:1047E0001C481D4908601D481D4908601D481E4998
:1047F00008601CBD113C0000180000102D3C00009A
:104800001C000010F937000020000010713A000071
:1048100030000010BD3A000034000010493B000099
:1048200038000010D33B00003C000010093B0000A2
:1048300040000010953B0000440000100D380000BF
:104840002400001075380000280000101D390000F9
:104850002C000010E7350000480000102936000049
:1048600050000010053600004C00001010B5044642
:10487000206890F9080010F1040F2CDB20684068D4
:1048800028B32068007800F0F000102814D0202809
:1048900009D0402819D1D4E90021506803F06DFAFD
:1048A0002168087212E02289D4E90031586806F0C4
:1048B0007DFF2168087209E02289D4E90031586837
:1048C00003F072FF2168087200E000BF03E04FF0C0
:1048D000F700216808722168C86803F0A2FD10BDC6
:1048E00010B504462068406858B120680078102848
:1048F00007D14FF0040021684870206800F00AF8E2
:1049000007E04FF0F700216808722168C86803F0DB
:1049100088FD10BD70B504464FF00001606803F0DB
:1049200041FF6068007C012804D10021606803F029
:10493000C9FE14E00021606805F0F0FF0021606806
:1049400003F0C0FE0021606806F07CF9042200211B
:10495000606805F0E9F90021606804F0D0FA606849
:1049600003F0E2FF0546B5B94FF0000060706060EB
:104970002072A06A20B1002211462046A36A9847FF
:10498000A06A20B1002202212046A36A9847E0686D
:1049900003F047FD10E00949606806F053F904226E
:1049A0000749606805F0C0F90649606804F0A7FA95
:1049B0002146606803F0F6FE70BD00005D800000D7
:1049C000557D0000934C000010B5044620684068F7
:1049D00010B32068007800F0F000102812D02028D2
:1049E00006D0402816D12168486803F023FA12E067
:1049F0004FF0000021684968C8612168486806F0E6
:104A0000F5FF08E04FF00400216848702068FFF7C8
:104A100081FF10BD00BF00BF2068806A20B1206800
:104A200000221146836A98472068806A20B1206876
:104A300000220221836A98472068C06818B1216863
:104A4000C86803F0EEFC00BFE3E7000070B5044661
:104A5000206890F9080010F1040F47DB20684068D7
:104A6000002843D02068007810283FD12068406893
:104A7000007C002836D121684868FF2104F0E4FD5D
:104A8000054625B94FF0FF002168087229E020682B
:104A9000006938B12168086903F04EFC4FF000004E
:104AA000216808612068406948B9142003F058FC67
:104AB0002168486118B94FF0FF002168087220682A
:104AC000007A70B94FF00200216848702068456094
:104AD0002168486803F066FE21684868064903F0CB
:104AE000F1FD03E04FF0F800216808722168C86802
:104AF00003F097FC70BD00005946000010B5044655
:104B00002068406810B9204603F088F82168C8681A
:104B100003F087FC10BD10B50446206890F908002A
:104B200010F1040F0BDB2068406840B1206800786A
:104B3000102804D1A1882268506805F009FF216877
:104B4000C86803F06EFC10BD10B50446206890F9EB
:104B5000080010F1040F18DB2068406888B1206855
:104B6000007810280DD14FF00100216848702068AE
:104B700004624FF0000021684862206800F00BF8E2
:104B800010BD4FF0F700216808722168C86803F073
:104B900048FC00BFF4E72DE9F04704464FF0000A57
:104BA000206A4068616A00EB0109206A8068616AD6
:104BB000A0EB0108B8F5803F02D34FF6FF7601E085
:104BC0001FFA88F66068B0F86E70B74200DA3E46A9
:104BD000216A0B7B32464946606806F060FA05465A
:104BE000002D40D1606A30446062D4E908018068D9
:104BF000814205D14FF0010A284620626062607050
:104C00006068806F98B1606890F8220010F0440FDF
:104C10000DD16068406F60B16068406F006830B966
:104C20006068406F80896168098F884201DB0120DC
:104C300000E0002018B1606804F006FE01E04FF0CB
:104C4000000045B22572C5B96068B0F86E0040F644
:104C50006831884211DCA06A78B1324603212046CF
:104C6000A36A984709E0681C04D1606804F0ECFD71
:104C7000054602E025724FF0010ABAF1000F05D097
:104C80004FF000006070E06803F0CBFB0020BDE84F
:104C9000F08770B505460E462C464FF00000606068
:104CA0002672206950B1A06A20B100221146204628
:104CB000A36A98470021206903F076FBE06840B1C1
:104CC0006078032805D14FF000006070E06803F0C1
:104CD000A8FB606950B1A06A20B1002211462046AD
:104CE000A36A98470021606903F05EFB60780128A1
:104CF00002D06078042805D14FF000006070E068B1
:104D000003F08FFB70BD00002DE9FC4706468A4684
:104D1000174600BF56B900BF4FA340F27D2258A1ED
:104D20005BA0FFF723FA00BFBDE8FC8700BF7889CE
:104D30002A2803DA384602F07FFEF5E7D7F8048028
:104D400008F10E044FF0010000F0D0FC21888842E9
:104D500015D140F2046000F0C9FCA18888420ED150
:104D60004FF4006000F0C2FC6188884207D140F631
:104D7000060000F0BBFCB8F80C10884203D038469F
:104D800002F05AFED0E7D4F80E000190A06900901E
:104D9000706810B94FF000090AE000987168884205
:104DA00002D14FF0010001E04FF0000000F0FF09D8
:104DB000B9F1000F07D0012304F1080201A9304620
:104DC00006F034FE06E0002304F1080201A9304693
:104DD00006F02CFEE08800F089FC012802D00228B1
:104DE00032D130E0B9F1000F2BD0022000F07EFC70
:104DF000E080D4F80E00A0617068C4F80E004FF097
:104E0000060517E0A5F10100C5B204F10800415DF7
:104E100004F11200415504F10800405D08F8050056
:104E20001AF8051004F1080041551AF8051008F1A8
:104E300006004155002DE5DC39463046B269904701
:104E400000E000BF01E000E000BF00BF384602F014
:104E5000F3FD00BF68E700002E2E5C555345525C01
:104E60006C7769702D312E332E325C7372635C6EF9
:104E7000657469665C6574686172702E6300000019
:104E80006E6574696620213D204E554C4C00000033
:104E9000417373657274696F6E20222573222066D8
:104EA00061696C6564206174206C696E652025649D
:104EB00020696E2025730A002DE9F04104460F4653
:104EC00000BF54B900BF11A34FF4127219A11DA065
:104ED000FFF74CF900BFBDE8F08100BF7D6805F128
:104EE0000E06F068A16800EA0100D4E9011201EAA7
:104EF0000201884200D0EEE70023AA1D06F10C0152
:104F0000204606F093FD00BFE5E700002E2E5C551D
:104F10005345525C6C7769702D312E332E325C73A1
:104F200072635C6E657469665C6574686172702E2C
:104F3000630000006E6574696620213D204E554C6B
:104F40004C000000417373657274696F6E202225F6
:104F50007322206661696C6564206174206C696EDF
:104F60006520256420696E2025730A002DE9FC4127
:104F700004460E4615464FF00E01304602F090FDF5
:104F800018B16FF00100BDE8FC814FF00007214629
:104F9000284600F059FD08B1274F44E04FF070401B
:104FA00002F07FFA296800EA01084FF0604002F041
:104FB00078FA804521D14FF001008DF800004FF0C4
:104FC00000008DF801004FF05E008DF802002868A7
:104FD00002F067FAC0F306408DF80300286802F07B
:104FE00060FA4FEA10208DF80400286802F059FAA0
:104FF000C0B28DF805006F4615E02868A16808402A
:10500000D4E901121140884207D0E06810B104F1E0
:105010000C0502E06FF00300B5E732462946204652
:1050200000F00CF8AFE73B4604F12302314620467E
:1050300000F03EF9A7E7000089C300002DE9F84F12
:1050400081460F46164609F1230A4FF0FF300090C3
:105050004946384600F0F8FC78B94FF0704002F04D
:1050600020FA396800EA01054FF0604002F019FAB1
:10507000854202D00FB1386818B96FF00900BDE859
:10508000F88F0121384600F013FA0446002C01DAAB
:105090002046F4E704EB8400494901EB8000807B63
:1050A00038B94FF0010004EB8401454A02EB81015D
:1050B000887304EB8400424901EB8000807B012867
:1050C00000D02EB93946484600F0DAF8009000BF0B
:1050D000002E72D004EB8400394901EB8000807B04
:1050E00002280CD104EB840001EB800000F10803DE
:1050F00052463146484600F0DBF800905DE004EB94
:1051000084002F4901EB8000807B012855D14FF0AE
:10511000000B354606E0287B012802D04FF0010B3A
:1051200002E02D68002DF6D100BFBBF1000F11D0B9
:1051300029890022032002F0C0F9054675B13146E5
:10514000284602F005FB48B1284602F075FC4FF0F6
:10515000000503E03546284602F05AFD65B30A20F3
:1051600001F036FC8046B8F1000F21D04FF000006E
:10517000C8F80000C8F8045004EB8400104951F846
:10518000200060B104EB84010D4A52F8210000E0D8
:10519000006801680029FBD1C0F8008004E004EB3E
:1051A0008400074941F820804FF00000009002E0A1
:1051B000284602F041FC00BF00BF00985FE70000F6
:1051C00080AB00102DE9F84F8046894692469B46F9
:1051D0004FF00000009002464FF02A014FF003000C
:1051E00002F06BF907461FB94FF0FF30BDE8F88FAA
:1051F0007E6806F10E050D9800F078FAE8804FF011
:10520000060414E0A4F10100C4B21BF8041005F177
:10521000080001550B98015D05F1120001551AF8BF
:105220000400305519F8041006F106000155002C51
:10523000E8DC0A980068C5F80E000C980068A861C0
:10524000012000F053FA28804FF4006000F04EFA7D
:10525000688040F2046000F049FAA88040F6060039
:1052600000F044FAB08139464046D8F818209047FB
:105270000090384602F0E0FB4FF000070098B5E7D9
:105280007FB504460D464FF00101074A04F10400C2
:1052900004F123038DE825000391044A19462046B2
:1052A000FFF790FF04B070BD8FC3000089C30000FA
:1052B0002DE9F04706460F46904699467D684FF027
:1052C00006040AE0A4F10100C4B219F8040028554C
:1052D00018F8041005F106000155002CF2DC4FF41B
:1052E000006000F003FAA88139463046B269904761
:1052F000BDE8F08710B54FF000044AE004EB8400ED
:10530000254901EB8000C07B00F1010004EB840122
:10531000214A02EB8101C87304EB8400114601EBC2
:105320008000807B022806D104EB840001EB800022
:10533000C07BF0280EDA04EB8400174901EB8000F3
:10534000807B012822D104EB840001EB8000C07B2C
:1053500002281BDB04EB84000F4951F8200068B1E0
:1053600004EB84010C4A52F8210000F0A2F94FF03E
:10537000000004EB8401084A42F821004FF00000CD
:1053800004EB8401044A02EB8101887304F10100FB
:10539000C4B20A2CB2DB10BD80AB00102DE9F04185
:1053A00004460D466668B08900F0A0F90746B7F5D7
:1053B000006F04D0A7F5006006381CD114E0214628
:1053C0002846FFF779FD6FF00D01204602F068FBDB
:1053D00028B1204602F030FB4FF0000403E02946DC
:1053E000204600F009FC0CE0224605F12301284686
:1053F000FFF78AFC05E0204602F01EFB4FF0000498
:1054000000BF00BF0020BDE8F081000070B5044679
:105410004FF0080001F076F9054615B94FF0FF305E
:1054200070BDE5614FF0730084F82A004FF07401FD
:105430004FF02B000155064860610648A06104F159
:1054400023002860204600F0D7FF0020E8E7000096
:105450006D4F00001D65000008B50446124C4FF06A
:105460000000FCF753F91149086000BF6A460021AB
:105470000E480068FCF7FAF99DF8000098B900BFE3
:10548000204600F0FBFF05465DB121462846226913
:105490009047064626B1284602F0CEFA4FF00005A6
:1054A000EEE700BF00BFE1E748AC0010800100104C
:1054B0002DE9FC5F05460F464FF00A08C1464646F7
:1054C0004FF00004A34620460190B2460090CDB1B3
:1054D0007148007800EB8000704901EB8000807B10
:1054E00002280FD128686C49097801EB81016B4AC9
:1054F00002EB81014968884204D16748007840B2D4
:10550000BDE8FC9F4FF0000474E00A2E08D104EBC4
:105510008400624901EB8000807B08B966B266E0D6
:1055200004EB84005D4901EB8000807B012836D1CB
:1055300065B1286804EB8401584A02EB810149688F
:10554000884203D15448047060B2D9E704EB840068
:10555000524951F8200088B104EB840001EB80002F
:10556000C17B0098814242DB4FFA84FA04EB84004D
:105570004A4901EB8000C07B009038E004EB8400D6
:10558000464901EB8000C07B584530DB4FFA84F878
:1055900004EB840001EB800090F80FB027E004EBEF
:1055A00084003E4901EB8000807B02281FD165B159
:1055B000286804EB8401394A02EB8101496888427A
:1055C00003D13548047060B29AE704EB8400334994
:1055D00001EB8000C17B0198814208DB4FFA84F91E
:1055E00004EB84002D4901EB8000C07B019004F1A5
:1055F0000100C4B20A2C88DB0A2E02D117F0010F79
:1056000002D017F0020F02D04FF0FF3078E70A2ED9
:1056100001DAF4B222E0B9F10A0F02DA09F0FF046C
:105620001CE0B8F10A0F02DA08F0FF0416E0BAF144
:105630000A0F10DA0AF0FF0404EB8401174A52F84B
:10564000210000F036F84FF0000004EB8401134A0B
:1056500042F8210002E04FF0FF3051E74FF0000028
:1056600004EB84010D4A02EB8101887345B105B951
:1056700000E0286804EB8401084A02EB81014860DD
:105680004FF0000004EB8401044A02EB8101C8736F
:105690000148047060B233E77601001080AB00105F
:1056A00038B504468DF8000069460320ABBE20469D
:1056B00038BD70B5044608E025462468686802F0E5
:1056C000BBF929460A2001F03DF9002CF4D170BD48
:1056D00001464FEA016001F47F4240EA022001F4F2
:1056E0007F0240EA122040EA116070470146C8B2CA
:1056F0004FEA112242EA0020704770B505460C4679
:1057000022464FF00301284600F0CFF870BD2DE986
:10571000FF5F054689466C68208801F0C8FEC0F32B
:1057200003204FEA8008C8F10001284602F0B8F9CA
:1057300010B92889042800D2AEE0686890F800A06B
:10574000BAF1080F73D14FF001074FF0704001F02C
:10575000A8FE216900EA010B4FF0604001F0A1FEB4
:10576000834501D14FF00007494604F1100000F0D5
:105770006BF908B14FF0000727B9284602F05CF931
:10578000BDE8FF9F2889082800D285E0284600F060
:10579000DAF818B1284602F04FF9F1E7242128463B
:1057A00002F07EF908B34146284602F079F900B1CB
:1057B00076E029890022022001F07FFE074607B922
:1057C0006EE02946384601F0C3FF00B168E07C680E
:1057D000C8F1000001B2384602F062F900B15FE0A2
:1057E000284602F029F93D4606E06FF023012846DD
:1057F00002F056F900B153E06E68E068039020694A
:10580000E060039820614FF0000030704FF2FF70AD
:10581000FFF76CFF718888420ADC4FF40060FFF7E5
:1058200065FF00F1010071880844708007E02DE0F9
:105830004FF40060FFF75AFF718808447080208998
:1058400001F035FEC0B240F47F473846FFF74EFF07
:1058500020814FF0000060814FF01401204600F0DD
:1058600068F860814146284602F01AF968B90120BB
:105870000021FF230A46CDE90109009104F10C0142
:10588000284600F0A9FA074600BF00E000BF00BFAD
:10589000284602F0D1F873E7284602F0CDF86FE70A
:1058A000284602F0C9F800BF6AE72DE9FC47064622
:1058B0000F4690464FF000024FF024014FF00100D8
:1058C00001F0FBFD05460DB9BDE8FC87D6F8049054
:1058D0006C68277084F801804FF00000A080E080A1
:1058E00071686A6802F108004FF01C02FAF766FC62
:1058F0004FF0000060806989204600F01AF860804F
:1059000001200021FF2309F10C02CDE900102846F7
:1059100000F048FA284602F08FF800BFD4E770B5CF
:1059200005460C4622464FF00B012846FFF7BDFF07
:1059300070BD70B504460D462946204600F024FE91
:10594000C04380B270BD2DE9F04106464FF000041F
:105950002746354618E06989686800F015FE04445A
:10596000A0B200EB1444688900EBD0714FEA6101EA
:10597000B0EB410107D0C7F10100C7B2E0B2C4F3F8
:10598000072141EA00242D68002DE4D127B1E0B2BF
:10599000C4F3072141EA0024E04380B2BDE8F0816E
:1059A0002DE9F05F80460E4617469946DDF828B08F
:1059B0004FF00004A246454619E06989686800F086
:1059C000E3FD0444A0B200EB1444688900EBD071FD
:1059D0004FEA6101B0EB410108D0CAF1010000F0CB
:1059E000FF0AE0B2C4F3072141EA00242D68002D2C
:1059F000E3D1BAF1000F04D0E0B2C4F3072141EAC9
:105A00000024306880B2044430684FF6FF7101EA28
:105A100010400444386880B20444386801EA1040F9
:105A200004444846FFF762FE04445846FFF75EFE12
:105A30000444A0B200EB1444A0B200EB14446FEA9B
:105A4000040080B2BDE8F09F30B503461A68D04329
:105A500000D00AB9012030BD91F8290010F0020FE2
:105A600001D10020F7E74868904201D10020F2E719
:105A700018688C682040D1E901452C40A04208D12B
:105A8000886822EA00008D68EC43A04201D1012021
:105A9000E1E70020DFE700002DE9F74F86B08846F8
:105AA000B8F8200004904FF0140001904FF002026B
:105AB0004FF00001104601F000FD054625B94FF0FA
:105AC000FF3009B0BDE8F08F04986881288149480B
:105AD00020F0030068606C6806984FF0140241687B
