:020000040000FA
:10000000683C0010F900000001010000030100003D
:1000100005010000070100000901000000000000C8
:100020000000000000000000000000000B010000C4
:100030000D010000000000000F0100001101000090
:100040001301000013010000130100001301000060
:100050001301000013010000130100001301000050
:100060001301000013010000130100001301000040
:100070001301000000000000130100001301000044
:100080001301000013010000130100001301000020
:100090001301000013010000130100001301000010
:1000A0004D3F000013010000130100001301000088
:1000B00013010000130100001301000013010000F0
:1000C00013010000130100001301000013010000E0
:1000D00013010000130100001301000013010000D0
:1000E00013010000DFF80CD000F04AFA0048004786
:1000F000F94A0000683C001006488047064800475F
:10010000FEE7FEE7FEE7FEE7FEE7FEE7FEE7FEE7C7
:10011000FEE7FEE751320000E50000002DE9F05F48
:100120000546002092469B46884606468146402466
:100130001BE0284641464746224600F02FF852462B
:100140005B46801A994110D310461946224600F0AA
:1001500016F82D1A67EB01084F46224601200021B0
:1001600000F00DF817EB00094E41201EA4F1010428
:10017000DFDC484631462A464346BDE8F09F202A48
:1001800004DB203A00FA02F1002070479140C2F1EE
:10019000200320FA03F3194390407047202A04DB20
:1001A000203A21FA02F00021704721FA02F3D040F0
:1001B000C2F12002914008431946704740EA01030A
:1001C0009B0703D009E008C9121F08C0042AFAD20D
:1001D00003E011F8013B00F8013B521EF9D27047D1
:1001E00030B50B46014600202022012409E021FA07
:1001F00002F59D4205D303FA02F5491B04FA02F504
:100200002844151EA2F10102F1DC30BD2DE9FE4F9C
:1002100081EA030421F0004504F0004423F000418A
:100220004FF0000A009450EA050302D052EA01039D
:1002300004D10020014603B0BDE8F08FC1F30A539A
:10024000C5F30A541C44A0FB02B3C5F3130545F4DF
:10025000801CC1F3130141F480180CFB023300FB36
:10026000083EA4F2F334810A930A41EA8C5143EA2E
:1002700088530194A1FB03474FEA9C2505FB0373B8
:100280004FEA982601FB06373D05260545EA143559
:10029000BBEB06016EEB0503850E920E45EA8C154D
:1002A00042EA8812A5FB0206261E67EB00070C0D2A
:1002B00044EA0334A61947EB1350C1F313044FF07B
:1002C00000031946E5FB02014FEA033343EA1453E6
:1002D0004FEA0432019C43EA0603A4F10C040294A1
:1002E000009CCDE900A400F07CF9A4E74FF00001E8
:1002F000016041608160C16070477047FFFFFFFF90
:100300002DE9FE4F074681EA0300C00F0E4601901B
:1003100021F0004123F00044B81AA14105D238462B
:10032000314617461E460B46024623F00040104356
:1003300004D13846314603B0BDE8F08F350DC5F322
:100340000A00C3F30A510290401A0090402867DA6D
:10035000C3F3130040F4801B0198924620B10023A0
:10036000D2EB030A63EB0B0B00985946C0F1400235
:100370005046FFF704FF80460C4650465946009A07
:1003800000F010F9C0197141EF1785EA11533B4392
:100390003FD0019A4AB3009A012A11DC0022801A48
:1003A0004FF0004361EB055103EA05538018CDE996
:1003B000002341F580114246234600F012F9BAE7C6
:1003C0002E050025401B61EB0601401941F5801206
:1003D000001852412818A6F5001343EB020140EA29
:1003E000D47018EB0808644113E064084FEA380839
:1003F0004FF0000244EAC0744FEA0553801A61EBE3
:100400000301801841F5801149084FEA3000801837
:1004100059414246234603B0BDE8F04F00F0D4B83E
:100420000198012240000023D0EB020263EBE0734D
:1004300001984FEAE074381A66EB0401EBE783F0A9
:1004400000435DE781F000415AE72DE9F04D81EA74
:10045000030404F0004B21F0004714464FF0000A5B
:1004600023F0004150EA070220D054EA01021DD0D7
:10047000C1F30A550246C1F31300C7F30A56C7F386
:10048000130340F4801143F48013A6EB0508101BFE
:10049000D64608F2FD3873EB010002D308F10108DB
:1004A00001E092185B41B8F1000F03DA0020014629
:1004B000BDE8F08D00204FF48015064607460EE09B
:1004C000B2EB040C73EB010C04D3121B064363EB79
:1004D00001032F436D084FEA300092185B4150EA48
:1004E000050CEDD152EA030012D082EA040083EA3F
:1004F0000105284303D100224FF0004308E0101B00
:100500008B4102D20122002302E06FF0010253105E
:100510001AEB060047EB085110EB0A0041EB0B0108
:10052000BDE8F04D00F050B8C1F30A52C1F3130119
:1005300040F2FF3341F480119A4202DA0020014672
:10054000704740F233439A42A2F2334202DC5242F5
:10055000FFF724BEFFF713BE30B5002904DB4FF0D0
:100560000044404264EB0101002B04DB4FF00044E7
:10057000524264EB0303994208BF904230BD000031
:10058000064C074D06E0E06840F0010394E80700E0
:1005900098471034AC42F6D3FFF7A8FDE04E0000B8
:1005A000004F0000202A06DBCB17203A41FA02F068
:1005B00043EAE07306E041FA02F3D040C2F12002C0
:1005C000914008431946704710B5002B08DA401CCB
:1005D00041F1000192185B411A4301D120F0010062
:1005E00010BD2DE9FF4D934611B1B1FA81F202E041
:1005F000B0FA80F220329246FFF7C1FD039A074617
:10060000884640EA0B0011435B46084304D1384654
:10061000414604B0BDE8F08D114653EA010016D002
:10062000CAF140025846FFF7B9FD04460D464FF0A7
:100630000106584652460399FFF7A1FD084300D131
:100640000026344345EAE675274345EA08080E9834
:100650004FF00005A0EB0A014FEAD7200A314FEA1C
:1006600047532A4640EA48504FEAD82402D5002092
:100670000146CEE7281844EB0151DDE90C4500198D
:1006800004B06941BDE8F04D9EE770B501EB02048E
:1006900010F8015B15F0070301D110F8013B2A1196
:1006A00006D110F8012B03E010F8016B01F8016B83
:1006B0005B1EF9D12B0705D40023521E0FD401F87D
:1006C000013BFAE710F8013B02F10202A1EB030340
:1006D00003E013F8015B01F8015B521EF9D5A1425A
:1006E000D6D3002070BD0000012907D1084A126846
:1006F00042EA0002074BC3F8C42007E031B9044ABC
:10070000126822EA0002034BC3F8C42070470000BD
:10071000C4C00F4000C00F40014631B1012907D0CD
:10072000022908D003290CD108E007480068704767
:1007300006480068FBE706480068F8E705480068D7
:10074000F5E700BFFEE70000FC010010000200100A
:1007500004020010080200102DE9F14F9AB0894CF4
:100760004FF0000004900390A4F108004568207E3B
:1007700060BB85A11A9801F013FAB0B9834890F8CC
:100780003200022803D18148C06AA06006E07F4899
:10079000806B7E49897BB0FBF1F0A0604FF00000D8
:1007A000E0604FF0010020763FE021461A9800F00B
:1007B000A1FA8046B8F1000F03D14FF00100207676
:1007C00033E06FF013001BB0BDE8F08F4FF0000A6C
:1007D00000BF23E06B48083840680AEBCA0202EB0E
:1007E000420200EB82011A9801F0DAF990B96548EB
:1007F000083840680AEBCA0202EB420200EB8200B2
:1008000000F150011C222046FFF7D8FC4FF00100F8
:10081000207608E00AF101001FFA80FA59480838EA
:1008200000685045D6D800BF00BF4FF000005549C2
:10083000A1F108010860A06800F0EAFC8146534875
:10084000817B01EB090BCDF8649095E050480121C4
:100850000268199801F0CCFF4D48006802907DE0D5
:100860006FF01308029800F0ABF8C6B2042E01D066
:10087000032E6CD1029F042E0AD105A9029800F024
:1008800035FE05A9284601F0B1F94FF000082CE02B
:10089000032E2AD10298407B039005A800903B4884
:1008A00080893B4909684318394819A9026802A898
:1008B00000F00AFD04900498002816DD05A92846DA
:1008C00001F094F9029F05A9029800F00FFE02982A
:1008D00000F076F8C6B2042E07D1029800F088FF27
:1008E0000399884201D14FF00008B8F1000F2ED1D2
:1008F000F97A4FF05400415507F1140002F00AFB59
:10090000244901EA0041A96507F11A0002F002FB3F
:10091000A96D40EA0100A8654FF00001E96507F103
:100920001C0002F002FB2865199929661848006826
:10093000A7EB0001696605F16C051248A0F10800FB
:10094000006800F101000F49A1F108010860012EC3
:1009500000D10CE0029800F1200002900B48808941
:100960000B4909680844029988423FF679AF00BFF5
:10097000199800F10100199019985845FFF466AFD5
:10098000002020E72C3900102E000000AC380010A9
:10099000E80100100000FFFF014608480068884297
:1009A00001D8002070470548406801EBC10303EB04
:1009B000430300EB83021046F4E7000024390010E3
:1009C0000146087808B9012070470878E52801D168
:1009D0000220F9E7C87A0F2801D10320F4E70420A8
:1009E000F2E700002DE9FF4F83B0884616461C460B
:1009F0004FF0000A4148C16B0398A0F102003F4A42
:100A0000927B00FB021002903C488089B8FBF0F119
:100A100002980844019039488089B4FBF0F087B20D
:100A200036488089B8FBF0F100FB1189B9F1000F5D
:100A300028D0334801210268019801F0D9FE2F48DF
:100A40008089A0EB0900A04204D82C488089A0EB43
:100A5000090000E0204683464D4607E0284800682C
:100A6000405D307006F1010605F1010509EB0B0050
:100A7000A842F3D8DA44D844A4EB0B04019800F15F
:100A8000010001901D488089B4FBF0F0E0B11B48E3
:100A90008089B4FBF0F087B232463946019801F004
:100AA000A7FE1648808907FB00661448808907FB6B
:100AB00000AA1248808907FB00881048808907FB3C
:100AC00010440198384401909CB10D4801210268FE
:100AD000019801F08DFE4FF0000507E0084800681E
:100AE000405D307006F1010605F10105A542F5D320
:100AF000A244504607B0BDE8F08F0000AC380010AB
:100B0000E80100102DE9FF4F83B0884616461C46C9
:100B10004FF0000A039800F07BFB02904248808966
:100B2000B8FBF0F10298084401903F488089B4FB7B
:100B3000F0F087B23C488089B8FBF0F100FB1189E6
:100B4000B9F1000F2ED0394801210268019801F057
:100B50004FFE35488089A0EB0900A04204D83248F6
:100B60008089A0EB090000E0204683464D4607E05F
:100B700030782E490968485506F1010605F101054E
:100B800009EB0B00A842F3D828480121026801981C
:100B900001F082FEDA44D844A4EB0B04019800F182
:100BA0000100019020488089B4FBF0F0E0B11E48BC
:100BB0008089B4FBF0F087B232463946019801F0E3
:100BC0006BFE1948808907FB00661748808907FB80
:100BD00000AA1548808907FB00881348808907FB15
:100BE0001044019838440190CCB1104801210268AA
:100BF000019801F0FDFD4FF0000507E030780B494A
:100C00000968485506F1010605F10105A542F5D32D
:100C1000064801210268019801F03EFEA2445046B8
:100C200007B0BDE8F08F0000AC380010E8010010FC
:100C30002DE9F04106460D464FF00004304600F025
:100C40008BFA2A4807782946304600F053F80446C4
:100C500014B92046BDE8F081002F1DDD234800783F
:100C6000A0F101002149087029464FF0000000F072
:100C700041F8044614B16FF01300EBE71B4800780D
:100C800000F10100194908702946A86800F056F9DA
:100C900004464CB12046DDE72946002000F04EF91D
:100CA00004460CB12046D5E71049097801EB8101D3
:100CB0000F4A02EB011000F07FFC0B280ADC0B4905
:100CC000097801EB81010A4A02EB0110294600F084
:100CD000C7FE09E00549097801EB8101044A02EBEE
:100CE0000110294600F0A0FD2046B3E7680100107E
:100CF000483900102DE9F84F82460F464FF00009A1
:100D0000BAF1000F02D0504600F026FA2B4890F8B6
:100D1000320002280AD12948C66A304600F078FA23
:100D200004462648807B00EB04080CE02348806BD7
:100D30002249897BB0FBF1F62048846B806B1F4908
:100D4000496B00EB010834E000941DE009EB8900D9
:100D50001B4A02EB00113A46684600F035F805469A
:100D600045B918480078814504DA09F1010000F01E
:100D7000FF090CE015F1140002D02846BDE8F88FF9
:100D8000009800F10100009000984045DED300BFBC
:100D90000DB9BE6803E0304600F080FB064606B998
:100DA00008E0304600F034FA04460448807B00EB4B
:100DB0000408C9E700BF6FF01300DFE7AC3800108C
:100DC00048390010680100102DE9F04397B005463E
:100DD0000F4614464FF00008C146554928680A6876
:100DE0004FF0010101F004FD51480068029093E0CA
:100DF0000298FFF7E5FDC6B2042E30D103A9029890
:100E000000F074FB03A9384600F0CAFE00287AD12E
:100E10000298143002F07EF8464901EA0040A060D2
:100E2000029800F11A0002F075F8A16840EA01008A
:100E3000A0604FF00000E060029800F11C0002F09A
:100E400074F8206028682061394902980968A0EB8D
:100E5000010060614FF0000017B0BDE8F083032E81
:100E600051D1029890F80D9003A8009032488089E3
:100E70002F49096843182E482946026802A800F045
:100E800023FA8046B8F1000F3DDD03A9384600F093
:100E900087FE98BB03A9029800F028FB0298FFF791
:100EA0008FFDC6B2042E2AD1029800F0A1FC48455D
:100EB00025D10298143002F02DF81E4901EA0040B5
:100EC000A060029800F11A0002F024F8A16840EA3C
:100ED0000100A0604FF00000E060029800F11C00EB
:100EE00002F023F8206028682061114902980968FF
:100EF000A0EB010060614FF00000ADE703E0029855
:100F0000A0F120000290012E02D16FF01900A3E79A
:100F1000029800F12000029007488089044909687E
:100F20000844029988423FF663AF6FF0130093E7DD
:100F3000E80100100000FFFFAC3800102DE9F05F61
:100F400082468846BAF1000F16D12D4890F832003B
:100F5000022809D12A49C86A00F05AF904462848EB
:100F6000817B01EB04060FE02548846B806B2449EC
:100F7000496B00EB010607E0504600F049F90446D2
:100F80001F48817B01EB0406254633E06FF0130B0D
:100F90001C484FF001010268284601F029FC19485D
:100FA000076817E03846FFF70BFD00F0FF09B9F1BD
:100FB000020F02D0B9F1010F0AD1C8F81050114840
:100FC0000068A7EB0000C8F814004FF0000B08E021
:100FD00007F120070A4880890A4909680844B8428D
:100FE000E0D800BF1BF1140002D05846BDE8F09FC6
:100FF00005F10105B542C9D36FF01800F6E700000E
:10100000AC380010E80100102DE9F04305460E460B
:101010004FF00008C146284600F0CEFA80464B4605
:101020001F4605E04FF00000F05507F10100C7B280
:101030000B2FF7DB02E003F10100C3B2E85C2E28BE
:10104000F9D04FF0000415E0285D20280FD0285D6E
:10105000612807DB285D7A2804DBE85CA0F120002A
:10106000305501E0E85C305504F10100C4B203F1F1
:101070000100C3B2434504DAE85C2E2801D0082CF5
:10108000E2DBA8F10100C3B204E003B905E0A3F17B
:101090000100C3B2E85C2E28F7D100BFA8EB030023
:1010A00000F0FF0903F10100C3B2B9F1000F10DD38
:1010B0007BB14FF000070AE0184603F10101CBB203
:1010C000295C07F10800315407F10100C7B24F4510
:1010D000F2DB05E04FF02000305504F10100C4B20E
:1010E000062CF7DB4FF07E00B0714FF03100F0714D
:1010F000BDE8F08370B505462C4605E0284600F0B3
:10110000CDF9044604B12546002CF7D1284670BD20
:1011100010B5104C648B14B10E4C618B01E00D4C7A
:10112000E1690C4CE46BA1EB04030A4CA47BB3FB18
:10113000F4F240F6F574A24202D24FF0000008E04B
:101140004FF6F574A24202D24FF0010001E04FF0D9
:10115000020010BDAC380010F0B502464FF000039D
:101160001C464FF0F00519460AE04FF0000001EB75
:101170008106254F07EB0616307001F10100C1B260
:101180000329F2DB4FF0000136E0505C40B94FF02C
:10119000000003EB83061C4F07EB061630552DE0CD
:1011A000505C5C2811D14FF0000003EB8306164F12
:1011B00007EB0616305503F10100C3B24FF00004EF
:1011C000032B16DB6FF01A00F0BD505C03EB8306B7
:1011D0000D4F07EB0616305504F10100C4B2502C38
:1011E00007DB505C5C2804D0505C10B16FF01A0033
:1011F000EAE701F10100C1B2A942C6D300BF03482A
:1012000003700020E0E7000048390010680100107A
:1012100001460448C26BA1F10200024B9B7B00FB1C
:1012200003207047AC3800102DE9F047244890F8AF
:101230003200022802D14FF0040001E04FF002001A
:10124000C6B21F48848A90F83200022802D11C4896
:10125000406A01E01A48008C1949897D00FB01F7BA
:1012600026E0184801210268204601F0C1FA4FF03B
:10127000000517E013490968481901F056FE20F0EF
:101280007049B9F1000F0CD10D48808AA4EB000021
:101290000B49898900FB0150B0FBF6F84046BDE8D8
:1012A000F087354406488089A842E3D804F1010458
:1012B0000348808A3844A042D3D80020EFE70000DA
:1012C000AC380010E80100102DE9FF4F85B08146D1
:1012D0008A464FF000000490D9F8004007460646C1
:1012E00083460190009000BF06E04FF000006A497D
:1012F000885506F1010046B2502EF6DB607B019066
:1013000094F8008018F0800F03D0002009B0BDE8E9
:10131000F08F18F0400F01D10020F7E708F01F0010
:1013200000907DE04FF000000390617B01988142C6
:1013300001D00020EAE794F8008008F01F0100982F
:10134000814201D00020E1E70098A0F10100C0B285
:1013500000904FF001050EE0605D18B94FF00100FC
:1013600003900AE0625D384607F10101CFB24A49B5
:101370000A5405F102050A2DEED900BF4FF00E0503
:101380000EE0605D18B94FF0010003900DE0625D62
:10139000384607F10101CFB23F490A5405F1020571
:1013A000192D02D803980028EBD000BF4FF01C0580
:1013B0000EE0605D18B94FF0010003900DE0625D32
:1013C000384607F10101CFB233490A5405F102054D
:1013D0001F2D02D803980028EBD000BF4FF0000269
:1013E000384607F10101CFB22B490A5404F1200419
:1013F000049800F1200004900898A04210D80798A3
:10140000C9F80000079CDAF8000000F10100CAF8F2
:101410000000DAF800004FF00101079A01F0E8F946
:10142000E07A0F283FF47EAF002F2FDD78B20290D4
:10143000A7F1010046B223E01748805D00B1E6B98C
:101440000EB9B34603E006F101004FFA80FB10E04D
:10145000114810F80B0040B10F4810F80B1012980B
:101460000170129800F1010012900BF101004FFA87
:1014700080FB02988345EBDB0296A6F1010046B2A1
:10148000002ED9DA4FF0000112980170C9F800401F
:101490000498C0B23AE700005C38001070B5054609
:1014A000284600F045FB064634460E4890F83200C8
:1014B00018B940F6F870844210D20A4890F8320009
:1014C000012803D14FF6F870844207D2054890F8FE
:1014D0003200022804D10448844201D34FF00004B2
:1014E000204670BDAC380010F8FFFF0F78B50646F7
:1014F0000C466D462146304600F042F829463046FB
:1015000000F019F801E004F1010420780028FAD174
:10151000287820B14FF02E00207004F1010405E07E
:101520002878207004F1010405F1010528780028CD
:10153000F6D1207078BD4FF0000203E000F1010009
:1015400002F10102082AF9D34FF0000207E0037804
:101550000B7001F1010100F1010002F10102032A07
:10156000F5D34FF000030B70A1F1010104E04FF03F
:1015700000030B70A1F101010B78202BF7D070470D
:101580004FF0000207E003780B7001F1010100F158
:10159000010002F10102082AF5D34FF000030B709D
:1015A000A1F1010104E04FF000030B70A1F1010172
:1015B0000B78202BF7D0704701464FF0000004E075
:1015C00000F10102D0B201F101010A78002AF7D13D
:1015D000704700002DE9F0414FF000007F4908609E
:1015E0007F48486001F108044FF00000A060E0600F
:1015F000206020616061207605460EE0C5EBC500E5
:10160000784901EB80044FF00000A060E0602060AA
:1016100020616061207605F10105022DEEDB724844
:1016200001210268002001F0E3F86F48006800F52E
:10163000FF7001F06FFC0746A7F52A40553802D02D
:101640006FF01606C7E0684800680078EB2812D0F3
:10165000654800680078E9280DD06348006800F507
:10166000E37001F062FC6149086008685E490A683D
:10167000012101F0BDF84FF000050AE005F103007B
:1016800059490968095C594800F10400415505F1C0
:101690000105082DF2DB544800680B3001F03AFCDC
:1016A0005249888150480068407B88734E480068E2
:1016B0000E3001F02FFC4D49096808444B498882DF
:1016C00049480068007C88754748006800F11100AF
:1016D00001F020FC4549088343480068133001F0BD
:1016E00019FC4249488340480068203001F01DFC45
:1016F0003E49C86108468089897B48433B49086167
:10170000FFF706FD394981F83200084690F83200AB
:1017100020B1084690F83200012807D1324800680D
:10172000163001F0F7FB3149088422E02E480068AA
:10173000243001F0FAFB2D4948622B48006828301C
:1017400001F0E8FB29490885274800682A3001F0A4
:10175000E1FB26494885244800682C3001F0E5FB70
:101760002249C86220480068303001F0D3FB1F498D
:1017700008861E48818A90F83200022802D11B4850
:10178000406A01E01948008C184A927D00FB021063
:101790001649886308468089A0F10100098B00EB97
:1017A00041101249898990FBF1F0104948630846BD
:1017B000806B496B08440D49C8634FF0000608462A
:1017C00090F83200012806D0084690F8320002282E
:1017D00001D06FF014063046BDE8F08124390010C6
:1017E0005C020010EC380010E8010010AC3800106A
:1017F00030B501464FF000004FF00B0211E010F041
:10180000010F02D04FF0800301E04FF0000303EB23
:10181000600411F8015B04EB0503D8B2A2F10103E7
:101820005AB2002AEBD130BD2DE9F04F85B0814688
:101830000F464FF0000AD34655464846FFF7BCFE18
:10184000824669464846FFF7DFFB0AF10C004FF07D
:101850000D0190FBF1F0C0B20490D7F810B07D6993
:101860007D484FF001010268584600F0C1FF4FF07B
:101870000006B0466846FFF7BBFF0390DDF8108016
:10188000C2E0A8F1010000EB800101EBC000C6B28C
:101890004FF0010427E0564510DC19F8060005EB6F
:1018A00004016D4A126850544FF0000105EB04002A
:1018B00000F10100684A126811540EE04FF0FF0079
:1018C00005EB0401644A12685054014605EB04001C
:1018D00000F10100604A1268115406F10100C6B21D
:1018E00004F10200C4B20A2CD5DD4FF00E0427E04B
:1018F000564510DC19F8060005EB0401564A12683B
:1019000050544FF0000105EB040000F10100524A71
:10191000126811540EE04FF0FF0005EB04014E4A2F
:1019200012685054014605EB040000F101004A4AD8
:101930001268115406F10100C6B204F10200C4B2EB
:10194000192CD5DD4FF01C0427E0564510DC19F8A2
:10195000060005EB0401404A126850544FF00001A4
:1019600005EB040000F101003B4A126811540EE03F
:101970004FF0FF0005EB0401374A1268505401464E
:1019800005EB040000F10100334A1268115406F11E
:101990000100C6B204F10200C4B21F2CD5DD4FF025
:1019A0000F012D48026805F10B0011542A490398D4
:1019B0000A6805F10D0150540498804505D108F1DD
:1019C000400025490968485503E02348006800F8AD
:1019D000058005F1200521488089A84210D81E49BC
:1019E00038690A68012100F057FF0BF1010B1A4812
:1019F0004FF001010268584600F0FAFE4FF0000572
:101A0000A8F1010000F0FF08B8F1000F3FF739AF6F
:101A10004FF0000409E01DF8040005EB04010E4A34
:101A20001268505404F10100C4B20B2CF3DB4FF0E8
:101A300020010948026805F10B00115406484FF0D7
:101A400001010268584600F027FFC7F810B07D6119
:101A500005B0BDE8F08F0000E8010010AC380010C0
:101A600070B506460D46314928690A684FF00101F4
:101A700000F0BEFE4FF000041BE030782E280ED19F
:101A800008E04FF0200069692144284A1268505448
:101A900004F10104082CF4D306F1010607E03078C4
:101AA00069692144214A1268505406F1010604F183
:101AB0000104082CE1D34FF0080419E030782E28F7
:101AC0000CD108E04FF0200069692144174A1268E0
:101AD000505404F101040B2CF4D307E03078696909
:101AE0002144124A1268505406F1010604F101041F
:101AF0000B2CE3D34FF02000696921440B4A126894
:101B000050544FF00C0408E04FF000006969214484
:101B1000064A1268505404F10104202CF4D30349FE
:101B200028690A68012100F0B7FE70BDE8010010C5
:101B30002DE9F0410446184890F83200022802D1FD
:101B40004FEA840001E04FEA4400074612488089CA
:101B5000B7FBF0F01049898A00EB01080E48808934
:101B6000B7FBF0F100FB11750C484FF00101026862
:101B7000404600F03DFE084890F83200022805D1AA
:101B800006480068405920F0704602E003480068AB
:101B9000465B3046BDE8F081AC380010E80100102B
:101BA000024615E010780B78984209D0137808782F
:101BB0002030834204D0137808782038834204D13F
:101BC00002F1010201F1010102E06FF01300704720
:101BD000107810B108780028E4D1107818B9087886
:101BE00008B90020F3E76FF01300F0E702464FF06A
:101BF000000005E011F8013B02F8013B00F1010093
:101C00000B78002BF6D113707047000070B50446B6
:101C10002669656913484FF001010268304600F0FB
:101C2000E7FDA268110C0F4A136805F11402981819
:101C300002F054FAA26891B20A4A136805F11A0236
:101C4000981802F04BFA074A2168136805F11C0244
:101C5000981802F04BFA034801210268304600F060
:101C60001BFE70BDE80100102DE9F04706460C464A
:101C7000214890F83200022802D14FEA860001E0A4
:101C80004FEA460080461C488089B8FBF0F01A49AC
:101C9000898A00EB010918488089B8FBF0F100FB44
:101CA000118516484FF001010268484600F0A0FD7A
:101CB000114890F83200022810D110480068475DA2
:101CC0004FF0000724F0704447EA04070B49096805
:101CD00001EB0500394602F009FA05E007490968F9
:101CE0004819A1B202F0FAF90448012102684846F5
:101CF00000F0D2FDBDE8F087AC380010E80100101C
:101D000070B50446256966690A484FF0010102680A
:101D1000284600F06DFD074A2168136806F11C0291
:101D2000981802F0E3F9034801210268284600F000
:101D3000B3FD70BDE801001070B50546A5F10100C6
:101D4000C0EBC000074901EB80042046FFF7D8FF35
:101D50004FF00000A060E0602060206160612076AC
:101D600070BD0000EC3800102DE9F04180460F46B0
:101D70004FF0000634464FF0FF3500BF681C0546A3
:101D8000C0EBC000154901EB8000007E18B9C5EB1F
:101D9000C50001EB80040CB9012DEFDB1CB96FF01D
:101DA0001500BDE8F081012F0AD121464046FEF71B
:101DB000A1FF06467EB93846207605F101060AE005
:101DC00021464046FEF734FF064626B94FF0010093
:101DD000207605F101063046E3E70000EC380010FC
:101DE0002DE9F84F824688469146AAF10100C0EBE2
:101DF000C000354901EB80044FF0000B206810B99A
:101E00000020BDE8F88F2068484501D94D4600E024
:101E1000256800BFA068FFF741FB074617BB2B49A9
:101E200020680969B0FBF1F201FB1200E168884209
:101E300001D10020E5E7254920680969B0FBF1F2EE
:101E400001FB1200E168401AA84209D21F4920682C
:101E50000969B0FBF1F201FB1200E168A0EB01059A
:101E600000950DE019480069E168401AA84206D2C1
:101E700016480069E168A0EB0100009000E00095C1
:101E8000D4E902014246009BFEF7ACFD0646B04491
:101E9000B344A5EB0605E16801EB06000B490969AF
:101EA000884203D34FF00000E06002E0E068304475
:101EB000E060E06820B90FB1384600E0A068A0609B
:101EC000002DA7D158469CE7EC380010AC38001024
:101ED0002DE9F84F824688469146AAF10100C0EBF1
:101EE000C000414901EB80044FF0000B4E46B9F1B0
:101EF000000F0ED0206878B9FFF796F905464FF02D
:101F0000FF312846FFF7B0FEA5602046FFF77EFEB2
:101F100002E00020BDE8F88FA068FFF7EBF8A060B2
:101F2000324920680969B0FBF1F201FB1200E06060
:101F3000E068A0B9206890B18EB1E06878B9FFF789
:101F400073F905460DB95846E4E72946A068FFF73E
:101F50008BFE6FF070412846FFF786FEA56000BF3C
:101F600022480069E168401AB04206D21F48006961
:101F7000E168A0EB0100009000E00096D4E90201C6
:101F80004246009BFEF7BEFD0746B844BB44A6EBA5
:101F900007062068384420602046FFF7B1FEE0685D
:101FA000384412490969884203D34FF00000E060C9
:101FB00002E0E0683844E0608EB1E06878B9FFF78D
:101FC00033F905460DB95846A4E72946A068FFF73E
:101FD0004BFE6FF070412846FFF746FEA560002ECD
:101FE000BED1584696E70000EC380010AC3800101F
:101FF0002DE9F05F8046894616469A46DDE90A5B80
:102000004FF0000706E04FF000002C490968C85562
:1020100007F101071F2FF6D335B1032D0AD0122D7A
:102020000BD0252D0CD102E04FF000040BE04FF057
:10203000080408E04FF0120405E04FF0240402E029
:1020400009FB06F400BF00BF1D491C48006802F0F0
:102050004DF81C48016819480068001D02F046F858
:10206000214616480068083002F040F8BAF1010F26
:1020700002D14FF0000000E0504610490968087393
:102080000E48006880F80EB00C480068C573032D38
:1020900001D0122D03D109490968CC7405E04146ED
:1020A00006480068113002F00BF83146034800681A
:1020B000163001F0FDFFBDE8F09F0000E4010010C4
:1020C000555342436C01001010B54FF00054354891
:1020D000046004F580703449086004F58870334961
:1020E000086004F590703249086004F59870314931
:1020F000086004F5A0703049086004F5A8702F4905
:10210000086004F5E8702E49086004F580502D49F8
:1021100008600846006800F112002B490860084674
:10212000006800F109002949086021480068FEF7AD
:10213000DDF820480068FEF7D9F81F480068FEF770
:10214000D5F81948006800F03FFB1848006800F017
:102150003BFB1448006800F0AFF9322000F0A6F80D
:102160004FF000001A494860086288624FF0010091
:102170008860184848630846406820F0C00040F076
:10218000800048604FF48030086506480068886128
:102190000846C068C96840EA01000D49C8600E4899
:1021A000086110BDDC010010D4010010D80100103E
:1021B000C8010010CC010010D0010010E401001093
:1021C000E8010010F0010010F4010010EC01001013
:1021D00000C00820DF2E7827520000802DE9F84744
:1021E00006460F4690469946DDE9094A4B46424667
:1021F00039463046009400F029F908230F480021A1
:1022000002680F48006800F063FA05469DB944B1C2
:10221000234652464FF480110948006800F058FAEE
:10222000054645B900231A464FF4002104480068CA
:1022300000F04EFA05462846BDE8F887E401001094
:10224000C80100102DE9F84706460F46904699460A
:10225000DDE9094A4B46424639463046009400F0D3
:10226000F5F808230F48002102680F48006800F0C5
:102270002FFA05469DB944B1234652464FF400213A
:102280000948006800F024FA054645B900231A46BB
:102290004FF480110448006800F01AFA05462846F9
:1022A000BDE8F887E4010010C801001010B503462E
:1022B0004FF0000405E04FF47A7000F005F804F1E7
:1022C00001049C42F7D310BD4FF0000101E001F181
:1022D000010182008A42FAD8704700003CB500BF75
:1022E000544800680028FBD06420FFF7DFFF524805
:1022F000006810F0010F0DD04FF010004F494865F5
:1023000000BF4E48406D10F0100FFAD14FF480100E
:102310004A4948654848006810F0020F0DD04FF058
:1023200010004649886500BF4448806D10F0100FCA
:10233000FAD14FF4801041498865C820FFF7B6FFF5
:102340004FF490103E49096808603E4800684FF01D
:1023500012014FF000034FF48072CDE900104FF0EE
:1023600006014FF08000FFF739FF04460CB120460C
:102370003CBD34480068C0794FEA004030490968E4
:1023800008604FF00000009003464FF001024FF04C
:1023900005010190FFF756FF04460CB12046E7E720
:1023A0000220FFF783FF26480068006840F0010024
:1023B000234909680860244800684FF009014FF07C
:1023C00000034FF40072CDE900104FF006014FF00A
:1023D0008000FFF703FF04460CB12046C8E71A4807
:1023E0000068801C00F096FD054617480068002331
:1023F0004FF400720621CDE900508020FFF7EEFE79
:1024000004460CB12046B3E700F0ECF804460CB1EA
:102410002046ADE7002000900346012209210190EB
:10242000FFF710FF04464FF06400FFF73FFF204620
:102430009EE70000B0010010B801001000C00820A5
:10244000C8010010F0010010F40100102DE9F04364
:1024500005460E4617469846DDF81C904FF00004DE
:1024600006E04FF0000010490968085504F1010426
:102470004C45F6DB0C48006805700B480068467058
:10248000394609480068801C01F028FE414606488C
:102490000068001D01F022FE494603480068801DC7
:1024A00001F01CFEBDE8F083E40100100148007853
:1024B00070470000B40100104FF0000109E04FF038
:1024C000000240F82120A0F88020C0F8842001F10B
:1024D00001012029F3D3704710B53C48006840F053
:1024E00000403B49C1F8C4004FF019003949086069
:1024F00000BF3848001D006800F019001928F8D105
:102500004FF001003449086002464FF01D014FF0C2
:10251000000000F05FFC01221E21002000F05AFCA8
:1025200001220921022000F055FC0122122110464F
:1025300000F050FC02221321012000F04BFC01228C
:102540001B21104600F046FC01221F21002000F054
:1025500041FC03220E21002000F03CFC01220D2151
:10256000002000F037FC01220C21002000F032FC9A
:1025700001221F21104600F02DFCFFF7A5FD4FF0B2
:1025800018004FF0010101FA00F14FEA50124FF02C
:10259000E02303EB8202C2F8001100BF4FF00001FC
:1025A00000280ADA4FEAC1624FEA12620B4B00F0D0
:1025B0000F04A4F104041A5505E04FEAC1624FEA82
:1025C0001262074B1A5400BF10BD0000C4C00F4078
:1025D00000C00F40F4CF082010C1082018ED00E023
:1025E00000E400E010B5364802684FF0000450786F
:1025F000022802D06FF00A0010BD107802444FE0AC
:102600005078042802D0052846D111E050790828D6
:102610000DD1907906280AD1D079502807D14FF0F2
:1026200001044FF00000274908701078024436E09A
:10263000D07800F0030002282BD1907810F0800FA2
:1026400013D0101D00F066FC917801F07F014FF06F
:10265000010343EAC11141F4805141EA00401A49A3
:10266000096808601078024415E0101D00F052FC63
:10267000917801F07F014FF0010343EAC11141F469
:10268000006141EA0040114909680860107802447D
:1026900001E01078024402E01078024400BF00BF5D
:1026A00007480068801C00F035FC054909680844AB
:1026B0009042A5D10CB100209EE76FF00B009BE784
:1026C000F4010010B4010010CC010010D001001082
:1026D00070B504460D46164636480068844206D159
:1026E00015B94FF0007204E04FF0407201E04FF076
:1026F000000245F4802040EA020040F070402E497C
:10270000096808604FF000002C49096808602A48F1
:10271000006846604FF00000284909684860274873
:1027200000682549096888604FF00000234909685E
:102730008860A3F1010030441F490968C8604FF068
:1027400000001E490968C860A06800F002001A492C
:10275000096840EA0100A0601848006860604FF016
:102760000000E0601348006884420CD11448046201
:10277000806840F00200124988600846406840F0D6
:10278000100048600BE00E488462806840F004004E
:102790000B4988600846406840F02000486000F01F
:1027A0001BF80848007808B9002070BD4FF0FF30D2
:1027B000FBE70000C8010010D4010010D801001090
:1027C00000C00820C00100104FF00001016041600E
:1027D0008160C1607047000000BF044800680028A5
:1027E000FBD04FF00000014908607047BC010010A9
:1027F0002DE9FC4781460D461646B0464FF00007CE
:1028000005E04FF0000008F8010B07F101071E4832
:1028100000686843B842F4D80A20282180232A4659
:10282000CDE90010184801684846FFF7E1FB1F2377
:1028300016484FF40021026815480068FFF748FF6A
:102840000446ECB91048006800FB05F332464FF42B
:10285000801110480068FFF73BFF044684B90D2340
:102860000A484FF4801102680A480068FFF730FFF9
:1028700004462CB905480068007B08B16FF00904D4
:102880002046BDE8FC87000070010010E401001044
:10289000D0010010CC0100102DE9FC4106460D4688
:1028A00017464FF00A004FF02A014FF000032A4666
:1028B000CDE90010184801683046FFF799FB1F2347
:1028C00016484FF40021026815480068FFF700FF22
:1028D0000446ECB91048006800FB05F33A464FF493
:1028E00000210F480068FFF7F3FE044684B90D236A
:1028F0000A484FF4801102680A480068FFF7E8FEB2
:1029000004462CB905480068007B08B16FF0090443
:102910002046BDE8FC81000070010010E4010010B9
:10292000D0010010CC0100101CB50748006801213F
:1029300000231A46CDE90010FE21A120FFF74EFC2E
:10294000044620461CBD0000E40100101CB5062012
:10295000032180230022CDE9001011461046FFF725
:1029600047FB1F2313484FF40021026812480068F8
:10297000FFF7AEFE0446DCB912230E484FF4801177
:1029800002680E480068FFF7A3FE044684B90D23D1
:1029900008484FF48011026808480068FFF798FE65
:1029A00004462CB903480068007B08B16FF00904A5
:1029B00020461CBDE4010010D0010010CC01001025
:1029C0002DE9F04105460E461746FFF7ADFF4FF0E3
:1029D00050080AE000F0DAF8044604B908E0FFF70E
:1029E000B5FFA8F1010000F0FF08B8F1000FF1D128
:1029F00000BF44B123464B220A490BA001F026F93F
:102A00002046BDE8F0812946304600F073F80446C0
:102A10000E4928680860384600F01AF80446204637
:102A2000EFE700007C4E00004552524F523A2049D9
:102A30006E202573206174204C696E6520257520F9
:102A40002D207263203D2025640A000070010010D3
:102A50007CB504464FF006004FF012014FF08003A2
:102A60004FF00002CDE9001011461046FFF7C0FA02
:102A70001F231D484FF4002102681C480068FFF71F
:102A800027FE054675BB242317484FF480110268C2
:102A900017480068FFF71CFE05461DBB8CB14FF0C0
:102AA00000060CE010480068007804F8010B0E489E
:102AB000006800F101000C49086006F10106242EAF
:102AC000F0D30D2308484FF48011026808480068CD
:102AD000FFF7FEFD05462DB903480068007B08B1ED
:102AE0006FF0090528467CBDE4010010D0010010FC
:102AF000CC0100107CB505460E464FF00A004FF0A1
:102B000025014FF080034FF00002CDE9001011467F
:102B10001046FFF76DFA1F2319484FF40021026891
:102B200018480068FFF7D4FD04463CBB082314484E
:102B30005904026814480068FFF7CAFD0446ECB95E
:102B400025B10F48006800F0D5F928602EB10C4877
:102B50000068001D00F0CEF930600D2308484FF4E6
:102B60008011026808480068FFF7B2FD04462CB9DE
:102B700003480068007B08B16FF0090420467CBD63
:102B8000E4010010D0010010CC0100101CB506209B
:102B9000002101230A46CDE900100846FFF728FA74
:102BA0001F230E484FF4002102680D480068FFF70C
:102BB0008FFD044684B90D2308484FF48011026844
:102BC00008480068FFF784FD04462CB903480068F4
:102BD000007B08B16FF0090420461CBDE401001021
:102BE000D0010010CC01001070B501211DA0FFF72D
:102BF000BBF80646002E2DDD02211DA0FFF7B4F81C
:102C00000446002C1ADD1D4A1D4801681DA001F074
:102C10001DF800BF4FF47A62214801683046FFF783
:102C2000DFF805462A461E4801682046FFF750F99E
:102C3000002DEFD12046FFF77FF804E00CA119A08A
:102C400001F004F870BD3046FFF776F81BA000F0E5
:102C5000FDFF04E003A113A000F0F8FFF2E700BFBE
:102C6000F0E700004D53524541442E5458540000A3
:102C70004D5357524954452E545854000C020010DD
:102C800064010010436F7079696E672066696C6536
:102C900020257320746F2025732E2E2E0A0000002D
:102CA000EC010010436F756C64206E6F74206F70C0
:102CB000656E2066696C652025730A00436F707924
:102CC00020636F6D706C657465640A002DE9F843CC
:102CD00006464FF000073D463046FDF73DFD804675
:102CE00031461AA000F0B2FF22A024A324A226A1FC
:102CF000009026A000F0AAFFB8F1000F24D122E036
:102D00003846FDF749FE04460CB9BDE8F883542067
:102D1000005D10F0100F09D005F1010520A322A2DB
:102D2000294622A0009400F091FF0AE0206D40B1F6
:102D300005F1010500941CA3294621A0226D00F095
:102D400085FF07F10107DBE700BFDEE746696C6539
:102D5000732F466F6C6465727320696E20746865AA
:102D6000206469726563746F727920222573223A38
:102D70000A0000004E616D650000000044495200E9
:102D800053697A65000000004E6F2E0025337309E9
:102D900025313073092536730925730A00000000B8
:102DA0003C4449523E0000002000000025336409E5
:102DB00025313073092536730925730A0000000098
:102DC0002533640925313064092536730925730AD2
:102DD000000000002DE9F04106460F4615464FF071
:102DE00000043946304600F01BF88046B8F1050F64
:102DF00002D10A48BDE8F0813946304600F06EF84D
:102E00000446206820F00700206005F007012068D4
:102E100040EA010020604FF00000EBE701000010E5
:102E200002464FF00500062A54D2DFE802F00334D0
:102E300040414245062907DD0A2901DB0B2903DD54
:102E40000E2904DB162902DC4FF0000022E00C29D9
:102E500005D00D2903D0172904DB1A2902DC4FF015
:102E6000010017E01D2903D01E2901D01F2902D11E
:102E70004FF002000EE01B2901D01C2902D14FF0B7
:102E8000030007E0072903D0082901D0092901D14F
:102E90004FF004001FE01D2902DC4FF0000005E0A8
:102EA0001E2901D01F2901D14FF0010013E000BFFE
:102EB00000BF4FF000000EE0012901DD042902D11E
:102EC0004FF0000005E0022901D0032901D14FF0A5
:102ED000030000E000BF00BF7047000010B50246CD
:102EE0004FF0000001EB4213014C04EB830010BDD6
:102EF00000C0024008B50146C8788DF80000887807
:102F00008DF8010048788DF8020008788DF80300EC
:102F1000009808BD08B5014608788DF8000048788B
:102F20008DF80100BDF8000008BD08B5014608781D
:102F30008DF8000048788DF8010088788DF802003F
:102F4000C8788DF80300009808BD000030B5B4487B
:102F5000006810F4807F74D1B1480830006810F028
:102F6000010F2FD1AE48006810F01F0F02D14FF0B3
:102F7000000006E0AA48006800F01F00A949B1FB64
:102F8000F0F0A9490860A648A430006810F01F0FAF
:102F900002D14FF0000006E0A448006800F01F00D6
:102FA000A049B1FBF0F0A2490860A248006800F017
:102FB000010000F101009C490968B1FBF0F09E4955
:102FC0000860C8E099480838006810F0400F08D140
:102FD0004FF00000944908609549086096490860E0
:102FE000B9E08F48006810F01F0F02D14FF00000C9
:102FF00006E08B48006800F01F008A49B1FBF0F042
:10300000894908608948006810F01F0F02D14FF00D
:10301000000006E08548006800F01F008149B1FB10
:10302000F0F0834908608348006800F0010000F177
:1030300001007D490968B1FBF0F07F4908608AE032
:10304000FFE77C487838006810F4807F08D14FF0A3
:1030500000007549086076490860774908607AE0A1
:103060006F480830006810F0010F32D1734C2468AB
:1030700004F01F0404F10100714CD4F8044104F081
:103080001F016A4C246804F01F026D4CD4F8004103
:1030900004F0010404F1010311B94FF0000404E04D
:1030A000604C00FB04F4B4FBF1F45F4D2C6012B9EA
:1030B0004FF0000404E05B4C00FB04F4B4FBF2F4BA
:1030C0005B4D2C60584C2468B4FBF3F45A4D2C60D3
:1030D00041E056480838006810F0400F08D14FF022
:1030E000000051490860524908605349086032E0C5
:1030F000524C246804F01F0404F10100504CD4F831
:10310000044104F01F01494C246804F01F024C4C98
:10311000D4F8004104F0010404F1010311B94FF0A7
:10312000000404E03F4C00FB04F4B4FBF1F43E4D1A
:103130002C6012B94FF0000404E03A4C00FB04F498
:10314000B4FBF2F43A4D2C60374C2468B4FBF3F432
:10315000394D2C6000BF3248001D006810F4807F9C
:1031600036D02F48001D006810F01F0004D004283E
:1031700007D0062826D105E04FF00000314908604D
:1031800025E000BF2D4A126802F01F0202F1010083
:103190002B4AD2F8082102F01F012B4A126812F0C4
:1031A000010F07D01F4A00FB02F2B2FBF1F2254BE0
:1031B0001A6006E01B4A00FB02F2B2FBF1F2214B5F
:1031C0001A6004E04FF000001E49086000BF26E0CE
:1031D0001348001D006810F4007F1CD01A480068D6
:1031E00010F0010F0BD01948006800F01F0000F12B
:1031F00001000C4900FB01F0124908600FE00F4884
:10320000006800F01F0000F10100064900FB01F01A
:103210000C49086003E04FF000000A49086030BD27
:1032200004C10F40001BB700FC010010A8C10F40F3
:103230000002001000C10F400402001088C00F40BF
:1032400000C00F40080200100CC10F40A8C00F4082
:1032500000B54FF021003349086000BF31480068D5
:1032600010F0400FFAD04FF001002F4908604FF0E6
:1032700009002E49C1F884004FF001002C49086074
:103280004FF0AA002B4908604FF05500086000BFBE
:103290002848001F006810F4806FF9D04FF0230019
:1032A000254908604FF001002049C1F8A0004FF007
:1032B000AA00224908604FF055001C49C1F8AC0033
:1032C00000BF1D48001D006810F4806FF9D040F267
:1032D00001101B49086040F201201449C1F808019F
:1032E0004FF00100174908604FF0020016490860CE
:1032F0001648174908604FF480700C49C1F8C8019E
:103300000846D0F8B00140F003001249086045F2C9
:103310003A00064908604FF000000F490860FFF7C7
:1033200015FE00BDA0C10F400CC10F4000C00F40F2
:1033300080C00F408CC00F40A4C00F40ACC00F40F5
:1033400004C10F4000C10F40A8C10F40DE87280410
:10335000C4C00F40B0C10F4008ED00E038B50446CE
:103360004FF0000000904FF001031A4669462046D6
:1033700000F080FC9DF8000038BD70B505460C4695
:103380000CB9002070BD002301222146284600F020
:1033900071FC08B10120F5E70020F3E72DE9FF4FAC
:1033A00083B00C4615461E464FF000000290019077
:1033B000002D03DC306007B0BDE8F08F4FF000094E
:1033C000012C02D14FF0100005E014B94FF00A00B3
:1033D00001E04FF00000C7B21FB94FF000003060AD
:1033E000E9E74FF0000889E04FF001000190034643
:1033F0001A4602A9039800F03DFC9DF80800302809
:1034000008DB9DF80800392804DC9DF80800A0F1CD
:10341000300B39E0012C34D14FF010079DF8080033
:10342000612811D008DCA0F14100062824D2DFE891
:1034300000F00C1014181C20623805281CD2DFE89C
:1034400000F0070B0F13170000BF4FF00A0B17E037
:1034500000BF4FF00B0B13E000BF4FF00C0B0FE061
:1034600000BF4FF00D0B0BE000BF4FF00E0B07E05D
:1034700000BF4FF00F0B03E04FF00000019000BFC2
:1034800002E04FF0000001904FF001000090019821
:10349000B0B924B91DA1039800F074FA05E0012C1D
:1034A00003D12549039800F06DFA09F10109B9F13A
:1034B0000A0F23D321A1039800F064FA00207AE7D1
:1034C0009DF80810039800F051F8012D03D12F4604
:1034D000284600900BE04FF0010A06E00098784380
:1034E00000900AF1010000F0FF0AAA45F6DB0098FF
:1034F0000BFB00FBD844A5F10100C5B2002D3FF73E
:1035000073AFC6F80080012055E70000506C65617C
:10351000736520656E746572206120636861722036
:1035200066726F6D2027302720746F20273927217E
:1035300021210D0A00000000844E000052656163E5
:1035400068206C696D69746174696F6E206F6620A4
:1035500072652D74726965732E2052657475726E72
:10356000204641494C45440D0A00000013B504466D
:103570004FF001031A4601A9204600F003FC1CBDD0
:103580002DE9F04105460C464FF00A0094FBF0F19E
:1035900000FB1140C6B24FF00A0094FBF0F04FF070
:1035A0000A0190FBF1F201FB1200C7B24FF0640078
:1035B00094FBF0F090FBF1F201FB120000F0FF0829
:1035C00008F13000C1B22846FFF7D0FF07F1300004
:1035D000C1B22846FFF7CAFF06F13000C1B2284643
:1035E000FFF7C4FFBDE8F0812DE9F04705460C4622
:1035F0004FF00A0094FBF0F100FB1140C6B24FF00F
:103600000A0094FBF0F04FF00A0190FBF1F201FB8D
:103610001200C7B24FF0640094FBF0F090FBF1F29F
:1036200001FB120000F0FF084FF47A7094FBF0F0F9
:1036300090FBF1F201FB120000F0FF0942F2107062
:1036400094FBF0F090FBF1F201FB120000F0FF0A96
:103650000AF13000C1B22846FFF788FF09F13000B7
:10366000C1B22846FFF782FF08F13000C1B22846F8
:10367000FFF77CFF07F13000C1B22846FFF776FF65
:1036800006F13000C1B22846FFF770FFBDE8F087B1
:103690002DE9F34F83B00C464FF00A00B4FBF0F174
:1036A00000FB1140C5B24FF00A00B4FBF0F04FF040
:1036B0000A01B0FBF1F201FB1200C6B24FF0640048
:1036C000B4FBF0F0B0FBF1F201FB1200C7B24FF413
:1036D0007A70B4FBF0F0B0FBF1F201FB120000F0E5
:1036E000FF0842F21070B4FBF0F0B0FBF1F201FB06
:1036F000120000F0FF093648B4FBF0F0B0FBF1F225
:1037000001FB120000F0FF0A3248B4FBF0F0B0FBFE
:10371000F1F201FB120000F0FF0B2F48B4FBF0F0B8
:10372000B0FBF1F201FB1200C0B202902B48B4FBD7
:10373000F0F0B0FBF1F201FB1200C0B2019028489A
:10374000B4FBF0F0B0FBF1F201FB1200C0B200904C
:10375000009800F13000C1B20398FFF707FF01980D
:103760003030C1B20398FFF701FF02983030C1B288
:103770000398FFF7FBFE0BF13000C1B20398FFF78F
:10378000F5FE0AF13000C1B20398FFF7EFFE09F130
:103790003000C1B20398FFF7E9FE08F13000C1B272
:1037A0000398FFF7E3FE07F13000C1B20398FFF77B
:1037B000DDFE06F13000C1B20398FFF7D7FE05F138
:1037C0003000C1B20398FFF7D1FE05B0BDE8F08F1D
:1037D000A086010040420F008096980000E1F505A8
:1037E00000CA9A3B2DE9F04107460D460FA1384625
:1037F00000F0C8F84FF0010600BF4FEA860045FA16
:1038000000F000F00F04092C02DD04F1370001E0A4
:1038100004F13000C1B23846FFF7A8FE3000A6F12F
:103820000101CEB2E9D1BDE8F0810000307800009E
:103830002DE9F04107460D460FA1384600F0A2F8E9
:103840004FF0030600BF4FEA860045FA00F000F093
:103850000F04092C02DD04F1370001E004F130000F
:10386000C1B23846FFF782FE3000A6F10101CEB2A8
:10387000E9D1BDE8F0810000307800002DE9F04189
:1038800007460D464FF0030600BF4FEA860045FA93
:1038900000F000F00F04092C02DD04F1370001E014
:1038A00004F13000C1B23846FFF760FE3000A6F1E7
:1038B0000101CEB2E9D1BDE8F08100002DE9F0416F
:1038C00007460D460FA1384600F05CF84FF007069A
:1038D00000BF4FEA860025FA00F000F00F04092C23
:1038E00002DD04F1370001E004F13000C1B23846D6
:1038F000FFF73CFE3000A6F10101CEB2E9D1BDE8F0
:10390000F0810000307800002DE9F04107460D46B7
:103910004FF0070600BF4FEA860025FA00F000F0DE
:103920000F04092C02DD04F1370001E004F130003E
:10393000C1B23846FFF71AFE3000A6F10101CEB23F
:10394000E9D1BDE8F0812DE9F04107460D464FF081
:10395000010600BF4FEA860045FA00F000F00F04B0
:10396000092C02DD04F1370001E004F13000C1B29E
:103970003846FFF7FBFD3000A6F10101CEB2E9D1D8
:10398000BDE8F08170B506460D462C4604E014F8FB
:10399000011B3046FFF7EAFD20780028F7D170BD03
:1039A00070B504460D4629462046FFF7EBFF02A1FD
:1039B0002046FFF7E7FF70BD0A0D00004FF4E1312C
:1039C00001604FF0030141714FF0000101718171FD
:1039D000704700002DE9F04106460F46052E40D203
:1039E000DFE806F003400405740000BF00BF304666
:1039F00001F0FEF8054626B901210820FCF774FE07
:103A00000CE0022E04D101210806FCF76DFE05E052
:103A1000032E03D101214806FCF766FE4FF0070094
:103A200028724FF00000287200E02C78287D10F0FA
:103A3000010FFAD14FF0800085F8300000BF287DDB
:103A400010F0200FFBD04FF0000085F830006860C8
:103A50002873286285F84C0085F8540085F85000DA
:103A60002C7D60E001211020FCF73EFE4FF00700A6
:103A7000614908724FF00000087201E05E48047866
:103A80005D48007D10F0010FF8D14FF080005B49D8
:103A9000087000BF5848007D10F0200FFAD04FF09A
:103AA000000056490870544948600873086281F85C
:103AB0004C0053490870504981F850000846047D75
:103AC0004FF0000008740846047E2CE00121080233
:103AD000FCF70AFE4FF007004A4988604FF00000EB
:103AE000886001E0474804684648406910F0010FCB
:103AF000F8D14FF001004349C86500BF4148406913
:103B000010F0200FFAD04FF000003E49C865486021
:103B1000C8600862C86448650865084644694FF093
:103B20000000486200BF00BF3046396801F078F8F5
:103B3000012E04D13048007B00F0C0040EE0042EBA
:103B400004D13048C06800F0C00407E0304601F0FE
:103B50004FF80546287B00F0C00400BF787930B1EB
:103B6000012806D0022807D0032808D108E000BFAA
:103B700009E044F0010406E044F0020403E000BF61
:103B800044F0030400BF00BF3879C0B144F008041A
:103B90003879012806D0022806D0032807D0042847
:103BA0000BD107E000BF09E044F0100406E044F048
:103BB000200403E044F0300400E000BF00BFB87907
:103BC00028B1012802D144F0040401E000BF00BF85
:103BD00000BF012E02D108490C730BE0042E03D163
:103BE000E0B20849C86005E0304601F001F805463A
:103BF0002C7300BFBDE8F08100000140300001409F
:103C00005400014000400A4010B5044621464FF0E0
:103C10000000024A1268904710BD00007C010010AD
:103C200010B504460EE020780A2807D114F8010BDD
:103C3000FFF7EAFF0D20FFF7E7FF03E014F8010BA1
:103C4000FFF7E2FF20780028EDD110BD0FB408B5D2
:103C500003A800900648009A029900F055FA4FF028
:103C6000000000900248FFF7DBFF01B05DF814FB95
:103C7000383A00102DE9F04705460F469046994620
:103C80003C464FF0000A052D13D2DFE805F003068D
:103C9000090C0F00DFF890A00BE0DFF890A008E01F
:103CA000DFF88CA005E0DFF88CA002E0DFF888A048
:103CB00000BF00BF4246B9F1010F1DD14FF0000314
:103CC00017E04FF0FF3603E006B906E0A6F1010663
:103CD000DAF8000010F0010FF6D000BF06B90AE0D4
:103CE000284600F02BF804F8010BA2F1010203F1C1
:103CF0000103002AE5D114E04FF000030EE0DAF8EA
:103D0000000010F0010F00D10AE0284600F016F87C
:103D100004F8010B03F10103A2F10102002AEED124
:103D200000BF1846BDE8F08714C0004014000140F1
:103D30001480094014C0094014400A400146052976
:103D400014D2DFE801F00306090C0F0008480078E0
:103D5000704708480078FBE707480078F8E707480D
:103D60000078F5E706480068C0B2F1E70020EFE709
:103D700000C00040000001400080094000C0094030
:103D800000400A402DE9FF4F074691469A46019EA2
:103D90004FF0000B052F13D2DFE807F00306090CE4
:103DA0000F00DFF8C0B00BE0DFF8BCB008E0DFF8D0
:103DB000BCB005E0DFF8B8B002E0DFF8B8B000BF93
:103DC00000BF4B46BAF1010F29D14FF0000423E0A8
:103DD0004FF0FF3805E0B8F1000F00D106E0A8F180
:103DE0000108DBF8000010F0200FF4D000BFB8F19C
:103DF000000F00D112E04FF010050AE016F8011B89
:103E0000384600F039F8A5F10105A3F1010304F1EA
:103E100001040DB1002BF1D1002BD9D11EE04FF0E0
:103E2000000418E003B918E0DBF8000010F0200FE0
:103E300000D112E04FF010050AE016F8011B3846D9
:103E400000F01AF8A3F10103A5F1010504F1010442
:103E50000DB1002BF1D1002BE4D100BF204604B0FE
:103E6000BDE8F08F14C000401400014014800940E8
:103E700014C0094014400A40052813D2DFE800F0BE
:103E80000306090C0F00084A11700BE0074A117075
:103E900008E0074A117005E0064A117002E0064A80
:103EA000116000BF00BF704700C00040000001402B
:103EB0000080094000C0094000400A4070B5044637
:103EC0000D46012D1DD1012C07D11D48007840F071
:103ED00080001C4981F8300031E0042C06D11A48DA
:103EE000C06D40F001001849C86528E0204600F088
:103EF0007FFE064696F8300040F0800086F83000DD
:103F00001DE0012C07D10E4800784FF000000D494C
:103F100081F8300013E0042C06D10B48C06D4FF03F
:103F200000000949C8650AE0204600F061FE064627
:103F300096F830004FF0000086F8300000BF70BDEA
:103F4000300001400000014000400A40514AD06862
:103F50001169084200D1704700EA010010F0400FDB
:103F60007BD04C4A526D12F4803F2FD0494A126DDB
:103F700012F4004F06D0484A126842F00102464B44
:103F80001A601FE0434A526D12F0010F10D04FF03B
:103F90000002424B1A70424B1A603F4A126842F0CC
:103FA00001023D4B1A604FF001023E4B1A6009E0DE
:103FB000394A126822F00102374B1A604FF00002B2
:103FC000384B1A604FF48032324B5A65314A926D49
:103FD00012F4803F2FD02F4A126D12F4004F06D0FA
:103FE0002D4A126842F002022B4B1A601FE0294A48
:103FF000926D12F0010F10D04FF00002274B1A7093
:10400000274B1A60244A126842F00202224B1A60BF
:104010004FF00102234B1A6009E01F4A126822F098
:1040200002021D4B1A604FF000021E4B1A604FF443
:104030008032184B9A65174A526D12F4801F03D0D4
:104040004FF48012134B5A65124A926D12F4801F7E
:1040500003D04FF480120F4B9A6510F0020F0CD072
:104060004FF001020E4B1A600F4A126812684FF0AF
:104070000F0303EA1272094B1A7010F0100F05D0EB
:104080000A4A126802F10102084B1A60014AD06024
:1040900000BF60E700C00820B8010010C001001098
:1040A000BC010010B0010010D4010010C4010010C8
:1040B00003B59DF8051001709DF8041041700CBD0A
:1040C00003B59DF8071001709DF8061041709DF82A
:1040D000051081709DF80410C1700CBD03B59DF8EA
:1040E000041001709DF8051041700CBD03B59DF8DA
:1040F000041001709DF8051041709DF80610817044
:104100009DF80710C1700CBD37B508461146054B28
:104110006A4600F0C1F804466946002000F066FCDB
:1041200020463EBDED49000002E008C8121F08C14C
:10413000002AFAD17047002001E001C1121F002AB5
:10414000FBD170472DE9FF5FDDE90210020DDDF8BC
:1041500038B001430FD10F9801244AA3012807D09A
:1041600000980F9AC0E90031C0E90242BDE8FF9F04
:104170006FEA0B01F4E7A2F2FF3244F6105042431B
:1041800015140F9801280FD0A5EB0B00401CB0F1BF
:10419000000A4FF000043C4EDFF8F090A046CAF150
:1041A000000717DB074615E0CBF10000EFE7F80743
:1041B00007D02246334640464946FCF727F880465A
:1041C00089462246334610461946FCF71FF8044636
:1041D0000E467F10002FEAD1DDE90201BAF1000F8F
:1041E00042464B4602DAFCF711F801E0FCF72DF9E4
:1041F00004460E460022264BFCF7AEF903D84FF0DA
:10420000FF30014607E00022224B20463146FCF7F2
:1042100077F8FCF789F9102409E0002C0ADB0A2260
:104220000023FBF77BFF019B30321A55641E50EAD6
:104230000102F2D1641C019AC4F1110314440F9AD3
:10424000012A07D00122084301D15B450DDD002280
:104250006D1C0DE0084303D1A3EB0B056D1E09E0B7
:1042600000204FF0110B0F908BE701DA00226D1E3A
:10427000002A86D000980F99C0E90231C0E90045B4
:1042800074E7000030000000000024400000F03F10
:104290000000F0430000E03F2DE9FF4F95B00646D7
:1042A0009B468946002521E2252801D01799A6E0E2
:1042B0000024F9492746761C4FF0010A059432780C
:1042C000203A0AFA02F0084202D00443761CF6E7CC
:1042D00030782A2811D06FF02F023078A0F1300109
:1042E000092916D8059944F0020401EB810102EB7B
:1042F00041010844761C0590EFE759F8041B05912D
:10430000002903DA484244F40054059044F00204C2
:10431000761C30782E2816D116F8010F44F00404CC
:104320002A280DD06FF02F013078A0F13002092A31
:1043300009D807EB870201EB42028718761CF3E7E6
:1043400059F8047B761C30786C280FD006DC4C289A
:1043500017D068280DD06A2814D104E0742810D032
:104360007A280FD10DE044F400140AE044F48014DC
:1043700001E044F440147178814202D1761C04F5C6
:104380008014761C96F800C0BCF1660F10D01ADCC1
:10439000BCF1580F70D00CDCBCF1000F6DD0BCF13B
:1043A000450FF3D0BCF1460FF0D0BCF1470F24D13C
:1043B000A4E1BCF1630F40D0BCF1640F74D0BCF138
:1043C000650F1AD19AE1BCF1700F6ED00CDCBCF114
:1043D000670FEDD0BCF1690F75D0BCF16E0F12D034
:1043E000BCF16F0F09D1B3E0BCF1730F2FD0BCF15A
:1043F000750F76D0BCF1780F74D0179960465A4685
:1044000090476D1C70E1C4F30250022809D00328C4
:104410000DD0D9F8001004280DD00D6009F1040961
:1044200062E1D9F80010EA17C1E90052F6E7D9F8BD
:1044300000100D80F2E70D70F0E759F8041B8DF8BD
:10444000001000208DF80100EA46012003E059F831
:1044500004AB4FF0FF3061074FF0000102D40FE0D2
:1044600008F101018846B94211DA8045F8DB1AF8F3
:1044700008100029F4D10AE05DE03BE108F10101F8
:1044800088468142FADB1AF808100029F6D105980F
:104490005B46A0EB080721463846179A00F08FFAD2
:1044A000284400EB080506E00DE049E01AF8010B8E
:1044B0005A4617999047B8F10108F7D25B46214652
:1044C0003846179A0DE10A20C4F302524FF0000A51
:1044D0000090022A07D059F8040BC117032A0AD00A
:1044E0000BE024E025E009F1070020F00702F2E8E4
:1044F0000201914605E000B2C117042A01D140B281
:10450000C117002906DA0A460021404261EB020188
:104510002D2202E0220504D52B228DF80420012251
:1045200003E0E20701D02022F7E7904654E00A209A
:104530000FE010200DE010214FF0000A00910BE079
:1045400010214FF0000A44F004040827009103E012
:1045500008204FF0000A0090C4F30252022A05D04E
:1045600059F8040B0021032A08D009E009F10700DB
:1045700020F00702F2E80201914605E080B2002136
:10458000042A01D1C0B200214FF00008220723D530
:10459000BCF1700F29D0009B83F0100353EA0A038B
:1045A00009D150EA010206D030228DF804208DF89E
:1045B00005C002229046009B83F0080353EA0A03D9
:1045C0000AD150EA010201D1620705D530228DF8E7
:1045D00004204FF001087F1E30A2BCF1580F00D01C
:1045E00033A203920EAA02920FE040228DF804201B
:1045F0000122DFE75346009AFBF790FD039B9B5C8B
:10460000029AA2F101020292137050EA0102F1D162
:10461000029806A9A1EB000000F1200A600702D56C
:1046200024F4803400E0012700205146574501DD85
:10463000A7EB010000EB0A01009005984144A0EBB4
:1046400001000590E00306D45B462146179A0598C1
:1046500000F0B5F90544002706E001A85A46C05D00
:10466000179990476D1C7F1C4745F6DBE0030CD57E
:104670005B462146179A059800F0A1F9054404E02D
:1046800030205A46179990476D1C0099481E00909B
:104690000029F5DC1FE00000092801003031323329
:1046A000343536373839414243444546000000002E
:1046B0003031323334353637383961626364656698
:1046C00000000000029802995A460078491C0291A5
:1046D000179990476D1CBAF10001AAF1010AF1DCAB
:1046E0004EE100F059F9054406F101063078002842
:1046F0007FF4DAAD19B02846BDE8F08F600700D42A
:10470000062709F1070020F00700F0E8022881469B
:1047100008F000439DA0190007D19DA0210504D4F5
:104720009CA0E10701D1AFF27C0028F00043149077
:10473000BCF1650F11D009DCBCF1450F0DD0BCF107
:10474000460F1FD0BCF1470F3FD13FE0BCF1660FD1
:1047500018D0BCF1670F7FD138E000211120112F54
:1047600000DA781CCDE9000106A90EA8FFF7EAFCE3
:10477000DDE90F010E9A03910021009207F1010A71
:1047800004914DE04FF000400097CDE901A006A94B
:104790000EA8FFF7D7FCDDE91020DDE90E3103920A
:1047A0000022DDF80CA00093049218B907F1010073
:1047B00001EB000AB7EB0A0004D4C0F1FF3007F1A7
:1047C000010A0490AAEB0700019045E0012F00DAEE
:1047D000012700211120112F00DC3846CDE900010E
:1047E00006A90EA8FFF7AEFCDDE90F010E9A0391B2
:1047F000002104910092BA4621070CD40399B942D2
:1048000000DA8A46BAF1010F05DD009AAAF101012A
:10481000515C302908D0B84202DA10F1040F06DAF0
:104820000121CDE9011017E0AAF10101E9E7002813
:1048300005DC049901440491AAEB000102E0411C4B
:10484000514500DD8A460499A0EB010000F101000A
:1048500001904FF000400290200705D40198504588
:1048600002DB4FF0FF30019000208DF84F000298DE
:104870000DF14F07B0F1004F25D02B200E9002987C
:104880004FF0020800280CDA404202902D200E90D2
:1048900007E00A210298FBF7A3FC3031029007F8E9
:1048A000011DB8F10001A8F10108F2DC029800280E
:1048B000EFD1791E0E980870307800F0200040F09B
:1048C000450007F8020D12A8A0EB070000F1070849
:1048D0001498007800B1012000EB0A01019801EB67
:1048E000E07105984144A0EB0100A0F101000590A2
:1048F000E00306D45B462146179A059800F05FF85E
:1049000005441498007820B15A461799904705F14C
:104910000105E00323D55B462146179A059800F070
:104920004EF805441BE00498002807DBDDE903018D
:10493000884203DD0098405C179901E01799302008
:104940005A46904704986D1C401C04900198401EE4
:10495000019004D12E205A46179990476D1CBAF148
:104960000001AAF1010ADEDC05E017F8010B5A4646
:10497000179990476D1CB8F10001A8F10108F4DC0B
:104980005B462146179A0598ABE600002D00000013
:104990002B000000200000002DE9F0410446002516
:1049A00017461E46880405D406E039462020B04745
:1049B00005F10105641EF8D52846BDE8F0812DE912
:1049C000F04104460025302790461E46C80300D417
:1049D0002027880405D506E041463846B04705F152
:1049E0000105641EF8D52846BDE8F0810A68531C0D
:1049F0000B601070704700001CB5012202210020DE
:104A0000FEF7E8F9012203210020FEF7E3F96846EA
:104A1000FEF7D4FF69460020FEF7DCFF01210020ED
:104A2000FFF74CFA164817490860174817490860FD
:104A30001748184908601848184908601848194963
:104A4000086019481949086019481A4908601A4845
:104A50001A4908601A481B4908601B481B4908602E
:104A60001B481C4908601C481C4908601C481D491B
:104A700008601D481D4908601D481E4908601CBD8E
:104A80008539000074010010A13900007801001080
:104A90006D3500007C010010E53700008C0100102E
:104AA0003138000090010010BD3800009401001062
:104AB00047390000980100107D3800009C0100106B
:104AC00009390000A00100108135000080010010AC
:104AD000E9350000840100109136000088010010C3
:104AE0005D330000A40100109D330000AC010010F4
:104AF0007B330000A801001010B58CB0FFF77CFFDD
:104B000000F06AF8FDF7E8FC16A0FFF79FF81AA07E
:104B1000FFF79CF8FDF7E2FB0446CCB9FDF7C6FCB5
:104B2000B0B91DA0FFF792F801AA0BA90AA8FDF7DA
:104B300047FF044654B9FCF74DFD04461CB91EA0BE
:104B4000FEF7C4F809E000200CB010BD0020FBE720
:104B50001AA0FFF77BF80020F6E7FEF745F800BF44
:104B6000FEE70000486F737420496E697469616CD8
:104B7000697A65640A000000436F6E6E6563742095
:104B800061204D6173732053746F72616765206497
:104B900065766963650A00004D6173732053746F15
:104BA000726167652064657669636520636F6E6E08
:104BB00065637465640A00002E0000004E6F742067
:104BC00061204D6173732053746F72616765206457
:104BD00065766963650A000010B503490020034A41
:104BE0001268904710BD000000000010780100100E
:104BF00001464FF0000021B1022904D0032906D15B
:104C000003E0044804E0044802E0044800E000BF78
:104C100000BF704700C000400080094000C009404C
:104C20002DE9F34F95B08B464FF0000009904FF0FF
:104C30000100FBF771FD08904FF0FF3003904FF03B
:104C400000000690059001460C460D464FF0010805
:104C500058E04FF0000007904BE00798404400FBFD
:104C60000BFA00211C220898CDE90C10FBF787FAFB
:104C70000022A0FB083C01FB08C100FB02105246C9
:104C8000CDE900300023DDE90001FBF747FA0646D5
:104C90000F4604964FF0200230463946CDE90A7699
:104CA000FBF77CFA81460498B0F1004F05D90498CF
:104CB000C0F10000049009F10109B9F1000F02D020
:104CC000B9F5803F00D910E0DDE9031088420BD22E
:104CD000049803904FF000054C4607980690CDF8D5
:104CE0001480039800B907E000BF079800F10100A5
:104CF000079007984045B0D300BF039800B904E07F
:104D000008F10108B8F10F0FA3D900BF002184EA10
:104D100001006940084302D117B0BDE8F08F089840
:104D20000009059900FB01FC08460699084400218A
:104D3000A0FB042301FB043100FB05100346CDE971
:104D4000002060460021FBF7E9F9029002988345B4
:104D500004D90298ABEB0000039003E00298A0EBAB
:104D60000B0003904FF06401039800FB01F0B0FBCF
:104D7000FBF003900398032879D21598012822D1DB
:104D80003C48007B40F080003A4908734FF008022D
:104D900020462946CDE90E54FBF700FA3549087143
:104DA0000C700846007B00F07F0008734FF0F001A4
:104DB000059801EA0010069901F00F0140EA010090
:104DC0002C49886250E01598042824D12A48C068EC
:104DD00040F080002849C8604FF00802204629466C
:104DE000CDE91054FBF7DAF9C0B223494860E0B2CC
:104DF00008600846C06800F07F00C8604FF0F0010E
:104E0000059801EA0010069901F00F0140EA01003F
:104E10001949886228E01598FFF7EAFE82469AF859
:104E20000C0040F080008AF80C004FF00802204689
:104E30002946CDE91254FBF7B1F98AF804008AF843
:104E400000409AF80C0000F07F008AF80C004FF048
:104E5000F001059801EA0010069901F00F0140EAFF
:104E600001008AF8280000BF4FF00100099009985E
:104E700052E700000000014000400A404D535F49E6
:104E80006E697400506C6561736520656E7465723F
:104E9000206120636861722066726F6D2027302761
:104EA00020746F202739272C20616E642027612F02
:104EB00041272C2027622F42272C20632F43272CA9
:104EC0002027642F44272C2027652F452720616E3B
:104ED000642027662F46272121210D0A00000000AB
:104EE000004F0000000000100C0200008A060000C5
:104EF000C44F00000C0200105C3A00003641000074
:104F00000C4D0A0D2A01181D0A0D2048656C6C6FA6
:104F1000204E58502053656D69636F6E64756374DD
:104F20006F7273201C18175541525420486F7374C8
:104F3000204C697465206578616D706C651A581431
:104F400009202D204D43553A204C504331373778B6
:104F50005F3878165814436F72653A2041524D20DD
:104F6000434F525445582D4D331A394D3819436F1C
:104F70006D6D756E69636174696F6E3A203131359C
:104F80003230302062706F7D5468697365180B751C
:104F900073656420746F2074657F4C555342882D6F
:104FA00066756E633B0C402E0A0DFEC90103540A60
:104FB0000D024801140E27073C8793030404006C7C
:044FC000DC0200000F
:04000005000000E512
:00000001FF
