:020000040000FA
:10000000F81F0010F90000000101000003010000CA
:1000100005010000070100000901000000000000C8
:100020000000000000000000000000000B010000C4
:100030000D010000000000000F010000ED1C000099
:100040001301000013010000130100001301000060
:100050001301000013010000130100001301000050
:100060001301000013010000130100001301000040
:100070001301000000000000130100001301000044
:100080001301000013010000130100001301000020
:100090001301000013010000130100001301000010
:1000A0001301000013010000AD0200001301000065
:1000B00013010000011300001301000013010000F0
:1000C00013010000130100001301000013010000E0
:1000D00013010000130100001301000013010000D0
:1000E00013010000DFF80CD000F068F8004800476A
:1000F00055630000F81F0010064880470648004777
:10010000FEE7FEE7FEE7FEE7FEE7FEE7FEE7FEE7C7
:10011000FEE7FEE725200000E50000002DE9F05F86
:100120000546002092469B46884606468146402466
:100130001BE0284641464746224600F02FF852462B
:100140005B46801A994110D310461946224600F0AA
:1001500016F82D1A67EB01084F46224601200021B0
:1001600000F00DF817EB00094E41201EA4F1010428
:10017000DFDC484631462A464346BDE8F09F202A48
:1001800004DB203A00FA02F1002070479140C2F1EE
:10019000200320FA03F3194390407047202A04DB20
:1001A000203A21FA02F00021704721FA02F3D040F0
:1001B000C2F120029140084319467047064C074D92
:1001C00006E0E06840F0010394E807009847103427
:1001D000AC42F6D3FFF78AFF84820000A4820000BD
:1001E00070B501EB020410F8015B15F0070301D1B3
:1001F00010F8013B2A1106D110F8012B03E010F88A
:10020000016B01F8016B5B1EF9D12B0705D40023AC
:10021000521E0FD401F8013BFAE710F8013B02F13E
:100220000202A1EB030303E013F8015B01F8015B99
:10023000521EF9D5A142D6D3002070BD012907D1A5
:10024000084A126842EA0002074BC3F8C42007E0DC
:1002500031B9044A126822EA0002034BC3F8C420F1
:1002600070470000C4C00F4000C00F40014631B1CC
:10027000012907D0022908D003290CD108E007483A
:100280000068704706480068FBE706480068F8E722
:1002900005480068F5E700BFFEE700000000001019
:1002A00004000010080000100C00001010B500F051
:1002B00029FE10BD0246074B53F82200012904D144
:1002C000036943F00103036103E0036923F00103C1
:1002D00003617047CC00001000B585B04FF00000FE
:1002E00000900190029003900490684601F0BEF9DE
:1002F000002005B000BD704770470000FFFFFFFF02
:1003000038B94FF0010202FA01F2D2B2054B9A60FD
:1003100006E04FF0010202FA01F2D2B2014B1A617B
:10032000704700000000082010B501214807FFF7C2
:1003300085FF4FF000000B4908600B49C1F8300100
:100340000A4908600A4908600A4908600A490860C1
:100350000A4908600A4908604FF0FF0002498860B6
:10036000086110BD1001082000000820500108207D
:100370007001082090010820B0010820D001082059
:10038000F00108200246052A40D2DFE802F0030F00
:100390001B27330023480068012303FA01F3DBB273
:1003A000184201D0012070470020FCE71D48436837
:1003B000012000FA01F0C0B2034201D00120F2E7AF
:1003C0000020F0E71748C068012303FA01F3DBB20D
:1003D000184201D00120E6E70020E4E711488369D4
:1003E000012000FA01F0C0B2034201D00120DAE797
:1003F0000020D8E70B484069012303FA01F3DBB280
:10040000184201D00120CEE70020CCE70548C3699F
:10041000012000FA01F0C0B2034201D00120C2E77E
:100420000020C0E70000082070B501469E48C06962
:100430004FF001050E6805FA06F5EDB2284201D02D
:10044000002070BD994D086855F820204FF001003C
:100450000D6800FA05F0C0B2934DA8604FF001009E
:100460000D6800FA05F0C0B28F4D28614FF0000012
:10047000D0601061086A9060486907287ED2DFE882
:1004800000F0041B436B961C4400C86810600869A8
:1004900050604868C0F30B0040F410308D6805F0E0
:1004A000070540EA85408D6805F0070540EA45509C
:1004B00040F00C40D0607CE000BFC86810607C4D0C
:1004C000C86955F8200050607A4DC869285C00F072
:1004D0000705486865F31F30764ECD69755D05F0F8
:1004E000070540EAC530744ECD69755D05F0070516
:1004F00040EA8540CD69755D05F0070540EA455045
:1005000040F00440D06054E000BF694D886955F860
:100510002000106008695060664D8869285C00F012
:100520000705486865F31F30624E8D69755D05F0FB
:10053000070540EAC530604E8D69755D05F0070519
:1005400040EA85408D69755D05F0070540EA455034
:1005500040F00840D0602CE0554D886955F82000E7
:100560001060C86955F820005060524D8869285CB9
:1005700000F00705486865F31F3000E017E04D4EB6
:10058000CD69755D05F0070540EAC5304A4E8D69B5
:10059000755D05F0070540EA8540CD69755D05F09C
:1005A000070540EA455040F00040D06001E00020DF
:1005B00047E700BF8869082822D0886909281FD02A
:1005C00088690F280FD93D48D0F8C4018D69A5F17D
:1005D00010054FF0010606FA05F640EA0600374D11
:1005E000C5F8C4010CE03548D0F8C4014FF001054E
:1005F0008E6905FA06F520EA0500304DC5F8C401FC
:10060000C869082822D0C86909281FD0C8690F28DE
:100610000FD92A48D0F8C401CD69A5F110054FF0D3
:10062000010606FA05F640EA0600244DC5F8C401A5
:100630000CE02248D0F8C4014FF00105CE6905FA5C
:1006400006F520EA05001D4DC5F8C4014FF0010074
:10065000154D286300BF1448006B10F0010FFAD04D
:100660008B690F2B02D9A3F1100000E01846034656
:10067000CC690F2C02D9A4F1100000E020460446FA
:10068000486900F007004FF4404545EAC02003F0F8
:100690001F0540EA450004F01F0540EA851010617F
:1006A0004FF00100CDE6000000000820CC00001053
:1006B0004C00001089790000A979000000C00F40AB
:1006C00030B589B02D4800684FF47A72B0FBF2F073
:1006D000A0F10101B1F1807F00D327E021F07F403C
:1006E000A0F101004FF0E02250614FF0FF304FF0D9
:1006F0001F0200280ADA4FEAC2634FEA1363204C54
:1007000000F00F05A5F10405635505E04FEAC2634B
:100710004FEA13631B4C235400BF4FF000004FF00F
:10072000E02290614FF00700106100BF164801F011
:10073000A4FA4FF000000190029003904FF00100E6
:1007400004904FF00000059006904FF001000790D4
:1007500040F2DA70089001A90B4801F0A2FA0121D9
:10076000094801F059FA02F0F3FF08480849086007
:1007700008480949086009B030BD000000000010B9
:1007800018ED00E000E400E000400240196D0000B8
:100790003801001061600000300100102DE9F041C7
:1007A00089B005464FF0FF384FF020074FF00600A4
:1007B000009001954FF001000290039005A804906D
:1007C00028E0042000F0D2F88046B8F1000F03D0F2
:1007D000404609B0BDE8F08100F002FA88B96846E9
:1007E00000F01CF9044614B14FF0FF3809E00B4942
:1007F0000598084201D04816EBE7042000F0B6F84F
:10080000E7E74FF0000601E006F10106202EFBD3DA
:10081000A7F10107002FD4D14046DAE70880F8FDA0
:100820002DE9F04389B005464FF0FF39224840EAF0
:1008300085784FF400574FF029000090CDF80480E0
:100840004FF001000290039005A804904FF00000C3
:1008500001F044F82AE000F0C3F95FEA000918D17A
:10086000684600F0DBF8044614F0040F02D06FF085
:10087000020912E0059810F0004F02D16FF0020952
:100880000BE00598C0F380700C4908704FF0000928
:100890000EE0484609B0BDE8F0834FF0000601E0E5
:1008A00006F10106202EFBD3A7F10107002FD2D1BC
:1008B00000BF4846EEE700000080FF000C0100107A
:1008C00030B54FF0FF344FF0FF0026490870FFF7B6
:1008D00003FD08B1204630BD002000F0FFFF4FF0BF
:1008E000000501E005F10105B5F5405FFAD300F020
:1008F000BFF90446A01C01D12046ECE784B90120D1
:10090000FFF78EFF04000BD14FF00200154908706D
:100910001548007810B14FF0030008700020DAE7A6
:100920003CB10020FFF77CFF040002D10D490870A4
:10093000D1E7A4B1012000F0D1FF4FF0000501E0A4
:1009400005F10105B5F5405FFAD300F0D5F930B9EE
:100950004FF00100034908704FF00000BBE7002092
:10096000B9E700000D0100100C010010F8B50446B5
:100970004FF0FF374FF6FF7523E0684600F0EEFBBF
:1009800000B120E0009810F4807F02D16FF00407DE
:100990000EE00098C0F34320A04207D00098C0F3B7
:1009A0004320072804D06FF00300F8BD0020FCE7C7
:1009B000A5F101054FF0000601E006F10106202E29
:1009C000FBD3002DD9D100BF3846EEE71249486B62
:1009D00010F0010F03D04FF001010F4A916310F0A6
:1009E000040F03D04FF004010B4A916310F0400F45
:1009F00003D04FF04001084A916310F0800F03D0FC
:100A00004FF08001044A916310F4006F03D04FF45B
:100A10000061014A9163704700000C402DE9F041EC
:100A20000446D4F80080A6682769204600F01EFE20
:100A300007B936B13A463146404600F0DBFB054681
:100A400001E06FF001052846BDE8F0812DE9F0478F
:100A500089B0044688464FF0FF3AB8F1010F02D939
:100A60004FF0120601E04FF011064FF020050096FE
:100A700020480078032801D1019402E04FEA442085
:100A800001904FF001000290039005A804902DE022
:100A90000420FFF76BFF20B16FF0030009B0BDE841
:100AA000F0876846FFF7BAFF074617B14FF0FF3AE5
:100AB00012E011490598084201D04816EEE70520DA
:100AC000FFF754FF30B10420FFF750FF10B16FF073
:100AD0000300E3E70020E1E74FF0000901E009F13E
:100AE0000109B9F1200FFAD3A5F10105002DCFD1ED
:100AF0005046D3E70D0100100880F8FD2DE9F041C4
:100B000089B04FF0FF383348007838B13148007869
:100B1000022803D02F480078032802D12E48066807
:100B200001E04FF480364FF020044FF007000090B2
:100B300001964FF001000290039005A8049044E054
:100B40000320FFF713FFA0B10420FFF70FFF80B1D0
:100B50000520FFF70BFF60B10720FFF707FF40B14B
:100B60000820FFF703FF20B16FF0030009B0BDE8D4
:100B7000F0816846FFF752FF054615B14FF0FF3888
:100B80001AE016490598084201D04816EEE70320FE
:100B9000FFF7ECFE70B10420FFF7E8FE50B107202C
:100BA000FFF7E4FE30B10820FFF7E0FE10B16FF070
:100BB0000300DBE70020D9E74FF0000701E007F171
:100BC0000107202FFBD3A4F10104002CB8D140462B
:100BD000CCE700000D010010080100100880F8FDAE
:100BE0002DE9F04189B04FF0FF381F48007838B147
:100BF0001D480078022803D01B480078032802D142
:100C00001A48056801E04FF000054FF014044FF05A
:100C10003700009001954FF001000290039005A865
:100C2000049019E06846FFF7F9FE064616B14FF04A
:100C3000FF3808E0059810F0200F02D04FF00008B0
:100C40000CE06FF004084FF0000701E007F1010726
:100C5000202FFBD3A4F10104002CE3D100BF4046B8
:100C600009B0BDE8F08100000D010010080100107E
:100C70002DE9F04789B04FF0FF3A4FF001074FF0F0
:100C8000AA0848EA07294FF014064FF00800009020
:100C9000CDF804904FF001000290039005A8049055
:100CA00025E06846FFF7BAFE044614F0040F02D0B0
:100CB0006FF0020A12E00598C0B2404504D06FF010
:100CC000010009B0BDE8F0870598C0F30320B842E1
:100CD00002D06FF00100F4E70020F2E74FF00005CA
:100CE00001E005F10105202DFBD3A6F10106002E40
:100CF000D7D15046E5E70000F0B589B04FF0FF3797
:100D00004FF400764FF001000090164801904FF02C
:100D100001000290039005A804901CE06846FFF7CC
:100D20007DFE044614F0040F02D06FF0020709E0C4
:100D3000059810F0004F02D16FF0020702E04FF06B
:100D400000070AE04FF0000501E005F10105202D44
:100D5000FBD3A6F10106002EE0D100BF384609B052
:100D6000F0BD00000080FF00F0B589B04FF0FF3704
:100D70004FF00400FFF7FAFD10B9002009B0F0BDF4
:100D80004FF020044FF00C0000904FF00000019055
:100D90004FF001000290039005A804902EE005207A
:100DA000FFF7E4FD30B10620FFF7E0FD10B16FF072
:100DB0000300E3E76846FFF731FE054615B14FF043
:100DC000FF3712E00F490598084201D04816D5E7D1
:100DD0000720FFF7CBFD30B10420FFF7C7FD10B1AE
:100DE0006FF00300CAE70020C8E74FF0000601E0FB
:100DF00006F10106202EFBD3A4F10104002CCED174
:100E00003846BBE70880F8FD2DE9F04789B0044675
:100E100088464FF0FF3AB8F1010F02D94FF019069A
:100E200001E04FF018064FF02005009620480078AA
:100E3000032801D1019402E04FEA442001904FF0D1
:100E400001000290039005A804902DE00420FFF714
:100E50008DFD20B16FF0030009B0BDE8F087684652
:100E6000FFF7DCFD074617B14FF0FF3A12E01149DA
:100E70000598084201D04816EEE70620FFF776FDF8
:100E800030B10420FFF772FD10B16FF00300E3E70B
:100E90000020E1E74FF0000901E009F10109B9F193
:100EA000200FFAD3A5F10105002DCFD15046D3E78D
:100EB0000D0100100880F8FD00B50F48426B12F4D8
:100EC000807F0ED04FF480700B4988634FF0000094
:100ED0000A4908600A49086000F082FD00F048FBFA
:100EE00000BD12F4806F04D04FF480600249886323
:100EF000F6E700BFF4E7000000000C40EC00001033
:100F0000F000001010B500210846FFF73BFAF0B1E1
:100F100000210120FFF736FA48B100210846FFF70B
:100F2000EFF91D48006800F101001B49086000212D
:100F30000220FFF727FA68B300210120FFF7E0F94C
:100F40001648006800F101001449086022E0012100
:100F50000020FFF717FAE8B101210846FFF712FA5F
:100F600048B101210020FFF7CBF90D48006800F1DE
:100F700001000B49086001210220FFF703FA48B184
:100F800001210846FFF7BCF90648006800F101009E
:100F90000449086010BD0000100100101401001089
:100FA000180100101C0100101549486B10F0020FC9
:100FB00003D04FF00201124A916310F0080F03D0E2
:100FC0004FF008010E4A916310F0100F03D04FF05C
:100FD00010010B4A916310F0200F03D04FF0200155
:100FE000074A916310F4007F03D04FF40071044A64
:100FF00091634FF00001034A116003490860704794
:1010000000000C40EC000010F0000010F0B589B0BA
:1010100004464FF400774FF0020000904FF00000BC
:1010200001904FF0020002904FF00100039005A8DC
:1010300004903AE06846FFF7F1FC054615F0040F0E
:101040002AD134B305984FEA106020700598C0F398
:101050000F206080059820710698A06007984FEADD
:1010600010602073DDE907104FEA106061F31F2064
:1010700020610898C0F3045020750898C0F30B2035
:10108000E0820898C0F346002076089800F001003E
:101090006076002009B0F0BD4FF0000601E006F1D7
:1010A0000106202EFBD3A7F10107002FC2D1F81EA5
:1010B000F0E700002DE9F04189B0044622480078AD
:1010C00038B121480078022803D01F48007803284F
:1010D00002D11E48066801E04FF480364FF020052B
:1010E0004FF00900009001964FF0020002904FF07F
:1010F0000100039005A8049022E00320FFF736FCCE
:1011000020B16FF0030009B0BDE8F0816846FFF739
:1011100085FC074657B93CB1059820600698606089
:101120000798A0600898E0600020ECE74FF0000806
:1011300001E008F10108B8F1200FFAD3A5F101058B
:10114000002DDAD1681EDEE70D0100100801001045
:101150000148006870470000080100102DE9F043C5
:1011600089B004464FF0FF391CB9002009B0BDE832
:10117000F0831B48007838B119480078022803D062
:1011800017480078032802D11648076801E04FF499
:1011900080374FF020054FF00D00009001974FF081
:1011A00001000290039005A8049015E06846FFF73F
:1011B00035FC064616B14FF0FF3903E00598206074
:1011C0000020D3E7A5F101054FF0000801E008F188
:1011D0000108B8F1100FFAD3002DE7D14846C5E752
:1011E0000D01001008010010014890F9000070473F
:1011F0000D010010F0B503460C464FF000010E46FD
:101200000CB90020F0BD41E03648416B11F0040FED
:1012100012D041F00400334FB8634FF00000F86083
:101220004FF0FF30B8604FF0000601E006F1010614
:10123000102EFBD30846E5E711F0010F1ED041F058
:101240000100284FB8633846C06800F03F05012D03
:1012500003D0292D01D00C2D0ED14FF00000214FCD
:10126000F8604FF0FF30B8604FF0000601E006F183
:101270000106102EFBD30AE00846C3E711F0400F29
:1012800004D041F04000174FB86300E0BCE700BF56
:101290001448006900F03F0098420BD0012B09D0A0
:1012A000292B07D0022B05D0092B03D04FF0FF319B
:1012B0000846A7E79AB1012C03D10A48406910609B
:1012C0000DE0022C0BD10748406910600548806989
:1012D00050600448C06990600248006AD0600020F5
:1012E00090E7000000000C400148006870470000D3
:1012F000EC0000100148006870470000F00000108A
:1013000000B50F48436B40F23A20034202D0FFF78A
:101310004BFE00BD13F4A06F02D0FFF7CDFDF8E740
:101320000848034202D0FEF7E6FFF2E740F6C500A8
:10133000034202D0FFF74AFBEBE700BFE9E70000FA
:1013400000000C4000C40F0070B505464FF0FF00D0
:101350007E4908707E48006820F01F007D49C1F872
:1013600088000846D0F88C0020F01F00C1F88C00DF
:101370000846D0F8940020F01F00C1F894000846F9
:10138000D0F8980020F01F00C1F898000846D0F867
:101390009C0020F01F00C1F89C000846D0F8AC006B
:1013A00020F01F00C1F8AC000846D0F8B00000F0F3
:1013B0001F00C1F8B0006848006A41F6EC0140EA3D
:1013C0000100654908624FF48050C8634FF4006023
:1013D000C8634FF08000C8634FF04000C8634FF00F
:1013E000200088634FF00800C8634FF00400C86312
:1013F0004FF0000401E004F10104B4F5801FFAD3BA
:101400005648006840F080505549C1F8C40055481E
:10141000406810F4807F0CD05248406820F48070FF
:10142000504948604FF0000401E004F10104102C21
:10143000FBD34C48006810F0020F09D04FF00000B9
:1014400048490860044601E004F10104102CFBD374
:101450004FF000004349C8634FF0020211464FF0BD
:10146000010000F049FB02220321012000F044FBAF
:1014700002220521012000F03FFB0222062101206B
:1014800000F03AFB02220721012000F035FB022286
:101490000B21012000F030FB02220C21012000F082
:1014A0002BFB3DB93048006820F008002C49C1F8FA
:1014B000A00106E02C48006840F008002849C1F867
:1014C000A0016FF06040274948624FF00000C860FB
:1014D000044601E004F10104102CFBD34FF000009E
:1014E0002049C862044601E004F10104102CFBD33A
:1014F00040F2FF701B4988634FF0020008604FF014
:10150000000401E004F10104102CFBD34FF00004AF
:1015100001E004F10104B4F5002FFAD3134800F000
:10152000F9F91048006840F001000E4908604FF0DA
:10153000000401E004F10104102CFBD31D2000F095
:10154000CBFAFFF7BDF9002070BD00000D010010BF
:1015500088C0024000C0024000800920C4C00F4083
:1015600000C00F4000000C40A0C10F40801A0600D0
:101570000448C06B40F22A7120EA01000149C863A7
:101580007047000000000C400448C06B40F22A7114
:1015900040EA01000149C8637047000000000C40A8
:1015A0002DE9F04106460F4615464FF000084FEA78
:1015B0004520B0F5803F03D36FF00100BDE8F08116
:1015C0002348066040F2FF70224988634FF0000014
:1015D000C862044601E004F10104102CFBD304208E
:1015E000FFF7C4F910B16FF00300E7E7FFF7CCFF96
:1015F0001948184948624FEA452088624FF00100B7
:10160000164908604FF00000154908601549086048
:10161000154908704FF006024FF001010C480068B0
:1016200000F0A4F948F09B080A48C0F82C804FF05D
:10163000000401E004F10104102CFBD329463846D4
:10164000FFF704FA10B14FF0FF30B7E70020B5E71D
:10165000FC00001000000C40404B4C00EC0000105F
:10166000F000001004010010F40000102DE9F0411A
:1016700001464FF000000D684E688B68CF6812E09D
:101680004FF0000CDFF8A880C8F80CC04FF0000243
:1016900001E002F10102102AFBD344F4006CDFF8F0
:1016A0009080C8F838C0DFF888C0DCF8344014F403
:1016B000006FE5D105F03F0C4CEA000013B920F0B3
:1016C000C00008E0012B02D140F0400003E0022BF3
:1016D00001D140F0C000012F02D120F4807001E060
:1016E00040F4807040F4806040F2FF7CDFF840807E
:1016F000C8F838C0C446CCF80860CCF80C004FF0ED
:10170000000201E002F10102102AFBD300BFDFF862
:1017100020C0DCF834C0BCF1000FF8D000BFDFF807
:1017200010C0DCF834C01CF4006FF8D1BDE8F081C3
:1017300000000C402DE9F04189B005464FF0FF381C
:101740004FF020074FF01000009001954FF001007E
:101750000290039005A8049023E00420FFF706F907
:1017600020B16FF0030009B0BDE8F0816846FFF7D3
:1017700055F9044614B14FF0FF3809E00B490598BC
:10178000084201D04816EEE70420FFF7EFF8EAE739
:101790004FF0000601E006F10106202EFBD3A7F171
:1017A0000107002FD9D14046DDE700000880F8FD91
:1017B00070B504464FF0000634B91648406820F46E
:1017C00000601449486009E0012C07D111484068C5
:1017D00040F400600F4948604FF00A064FF00005E2
:1017E00001E005F10105102DFBD30B48007838B15D
:1017F00009480078022803D007480078032806D15A
:101800003046FEF7CBFF10B14FF0FF3070BD002027
:10181000FCE7000000000C400D0100102DE9F04134
:1018200086B04FF0FF382B48007838B1294800784F
:10183000022803D027480078032802D14FF0000681
:1018400001E04FF480364FF020044FF00300009089
:1018500001964FF001000290039005A8049035E036
:101860006846FFF7DBF8054615F0040F02D06FF06D
:10187000020822E0059810F4807F02D16FF004087E
:101880001BE00598C0F34320022802D06FF0030844
:1018900013E04FF6FF71059801EA10400E49086009
:1018A000084600684FEA004008604FF0000000F072
:1018B00015F8002006B0BDE8F0814FF0000701E008
:1018C00007F10107202FFBD3A4F10104002CC7D19D
:1018D0004046EFE70D010010080100104FF0000135
:1018E000012806D10A4A126842F04002084B1A60E9
:1018F00005E0074A126802F08302054B1A604FF0B8
:10190000000101E001F101011029FBD37047000043
:1019100000000C402DE9F04104464FF000064FF066
:101920000100FEF7A3FC07464FF0020000FB047025
:10193000A0F101004FEA4401B0FBF1F60EB1A6F1AF
:1019400001060948406820F0FF0040F4807040EA3A
:101950000600054948604FF0000501E005F101056A
:10196000102DFBD3BDE8F08100000C4070B58AB0AB
:1019700005460E4614464FF4007002904FF00200E8
:10198000039006944FF0000009900196052C09D1B0
:101990000495124805904FF0000007904FF00100A9
:1019A00008900EE0062C09D10C48049005954FF0E4
:1019B000010007904FF00000089002E000200AB0FC
:1019C00070BD01A8FEF730FD0121F0B2FEF772FCF8
:1019D0001A2000F081F80120F1E7000080000C409F
:1019E0000448C06B40F21A7120EA01000149C86343
:1019F0007047000000000C400448C06B40F21A71B0
:101A000040EA01000149C8637047000000000C4033
:101A10002DE9F04106460F4615464FF000084FEA03
:101A20004520B0F5803F03D36FF00100BDE8F081A1
:101A30002248066040F2FF70214988634FF00000A1
:101A4000C862044601E004F10104102CFBD3042019
:101A5000FEF78CFF10B16FF00300E7E71948184953
:101A600048624FEA452088624FF00100164908603D
:101A70004FF00000154908601549087015490860C5
:101A8000FFF7BAFF29463846FFF7BEF910B14FF00D
:101A9000FF30CBE70522002108480068FFF766FF0A
:101AA00048F099080648C0F82C804FF0000401E087
:101AB00004F10104102CFBD30020B7E7F80000105C
:101AC00000000C40002D3101EC000010F00000106F
:101AD000F40000100001001000F01F024FF001019F
:101AE00001FA02F14FEA50124FF0E02303EB8202B9
:101AF000C2F80011704700002DE9F04106460F467C
:101B000015464FF000043946304600F01BF8804679
:101B1000B8F1050F02D10A48BDE8F08139463046D8
:101B200000F06EF80446206820F00700206005F001
:101B30000701206840EA010020604FF00000EBE759
:101B40000100001002464FF00500062A54D2DFE8DB
:101B500002F0033440414245062907DD0A2901DB32
:101B60000B2903DD0E2904DB162902DC4FF00000EF
:101B700022E00C2905D00D2903D0172904DB1A29EE
:101B800002DC4FF0010017E01D2903D01E2901D00F
:101B90001F2902D14FF002000EE01B2901D01C29A1
:101BA00002D14FF0030007E0072903D0082901D034
:101BB000092901D14FF004001FE01D2902DC4FF07C
:101BC000000005E01E2901D01F2901D14FF00100BE
:101BD00013E000BF00BF4FF000000EE0012901DD5F
:101BE000042902D14FF0000005E0022901D00329A9
:101BF00001D14FF0030000E000BF00BF70470000BC
:101C000010B502464FF0000001EB4213014C04EB0B
:101C1000830010BD00C00240012904D1027A42F0C5
:101C20000102027203E0027A02F0120202727047AD
:101C300000F12000027B02F01F02CA60027C02F069
:101C400007020A61828AC2F308024A61027A02F03C
:101C50001F028A60027902F03F024A60027802F0B5
:101C60003F020A60027E02F00F028A61828BA0F1BD
:101C70002000C2F30B02CA61704710B504464FF052
:101C800001014FF40070FEF7D9FA4FF00000207008
:101C9000207220734FF0FF0020744FF0000020648A
:101CA00010BDCA6802F01F0200F1200002730A6929
:101CB00002F0070202744A69C2F3080282828A684B
:101CC00002F01F0202724A6802F03F0202710A68C3
:101CD00002F03F0202708A6902F00F020276CA69BE
:101CE000C2F30B028283A0F12000704710B50A48AE
:101CF000006800F10100084908600848006800F128
:101D00000100064908600A2804D34FF0000008606B
:101D100002F0CEFA10BD0000400100105C0300107C
:101D200030B5B448006810F4807F74D1B1480830F1
:101D3000006810F0010F2FD1AE48006810F01F0F9F
:101D400002D14FF0000006E0AA48006800F01F0032
:101D5000A949B1FBF0F0A9490860A648A430006881
:101D600010F01F0F02D14FF0000006E0A4480068F9
:101D700000F01F00A049B1FBF0F0A2490860A248A2
:101D8000006800F0010000F101009C490968B1FB06
:101D9000F0F09E490860C8E099480838006810F0E3
:101DA000400F08D14FF00000944908609549086041
:101DB00096490860B9E08F48006810F01F0F02D103
:101DC0004FF0000006E08B48006800F01F008A49D1
:101DD000B1FBF0F0894908608948006810F01F0FD6
:101DE00002D14FF0000006E08548006800F01F00B7
:101DF0008149B1FBF0F0834908608348006800F036
:101E0000010000F101007D490968B1FBF0F07F4954
:101E100008608AE0FFE77C487838006810F4807F2B
:101E200008D14FF00000754908607649086077498D
:101E300008607AE06F480830006810F0010F32D176
:101E4000734C246804F01F0404F10100714CD4F8B1
:101E5000044104F01F016A4C246804F01F026D4C19
:101E6000D4F8004104F0010404F1010311B94FF06A
:101E7000000404E0604C00FB04F4B4FBF1F45F4D9B
:101E80002C6012B94FF0000404E05B4C00FB04F43A
:101E9000B4FBF2F45B4D2C60584C2468B4FBF3F4B3
:101EA0005A4D2C6041E056480838006810F0400F49
:101EB00008D14FF000005149086052490860534969
:101EC000086032E0524C246804F01F0404F1010061
:101ED000504CD4F8044104F01F01494C246804F02C
:101EE0001F024C4CD4F8004104F0010404F101033A
:101EF00011B94FF0000404E03F4C00FB04F4B4FBC4
:101F0000F1F43E4D2C6012B94FF0000404E03A4C5D
:101F100000FB04F4B4FBF2F43A4D2C60374C246817
:101F2000B4FBF3F4394D2C6000BF3248001D00684B
:101F300010F4807F36D02F48001D006810F01F007D
:101F400004D0042807D0062826D105E04FF0000071
:101F50003149086025E000BF2D4A126802F01F02D7
:101F600002F101002B4AD2F8082102F01F012B4A8E
:101F7000126812F0010F07D01F4A00FB02F2B2FBF9
:101F8000F1F2254B1A6006E01B4A00FB02F2B2FB9D
:101F9000F1F2214B1A6004E04FF000001E49086086
:101FA00000BF26E01348001D006810F4007F1CD01D
:101FB0001A48006810F0010F0BD01948006800F0B3
:101FC0001F0000F101000C4900FB01F012490860FC
:101FD0000FE00F48006800F01F0000F10100064903
:101FE00000FB01F00C49086003E04FF000000A49D3
:101FF000086030BD04C10F40001BB7000000001096
:10200000A8C10F400400001000C10F4008000010DC
:1020100088C00F4000C00F400C0000100CC10F40E2
:10202000A8C00F4000B54FF021003349086000BF41
:102030003148006810F0400FFAD04FF001002F49EE
:1020400008604FF009002E49C1F884004FF00100EC
:102050002C4908604FF0AA002B4908604FF055004A
:10206000086000BF2848001F006810F4806FF9D096
:102070004FF02300254908604FF001002049C1F8C6
:10208000A0004FF0AA00224908604FF055001C49FB
:10209000C1F8AC0000BF1D48001D006810F4806F3F
:1020A000F9D040F201101B49086040F201201449A8
:1020B000C1F808014FF00100174908604FF0020015
:1020C000164908601648174908604FF480700C499B
:1020D000C1F8C8010846D0F8B00140F00300124929
:1020E000086045F23A00064908604FF000000F49C9
:1020F0000860FFF715FE00BDA0C10F400CC10F40E6
:1021000000C00F4080C00F408CC00F40A4C00F40E3
:10211000ACC00F4004C10F4000C10F40A8C10F4028
:10212000DE872804C4C00F40B0C10F4008ED00E0B6
:1021300038B504464FF0000000904FF001031A46F6
:102140006946204600F04AFC9DF8000038BD70B595
:1021500005460C460CB9002070BD00230122214623
:10216000284600F03BFC08B10120F5E70020F3E72A
:102170002DE9FF4F83B00C4615461E464FF0000078
:1021800002900190002D03DC306007B0BDE8F08FB5
:102190004FF00009012C02D14FF0100005E014B9F6
:1021A0004FF00A0001E04FF00000C7B21FB94FF036
:1021B00000003060E9E74FF0000889E04FF00100CF
:1021C000019003461A4602A9039800F007FC9DF807
:1021D0000800302808DB9DF80800392804DC9DF849
:1021E0000800A0F1300B39E0012C34D14FF010077A
:1021F0009DF80800612811D008DCA0F141000628F4
:1022000024D2DFE800F00C1014181C2062380528D6
:102210001CD2DFE800F0070B0F13170000BF4FF0D0
:102220000A0B17E000BF4FF00B0B13E000BF4FF09D
:102230000C0B0FE000BF4FF00D0B0BE000BF4FF099
:102240000E0B07E000BF4FF00F0B03E04FF0000054
:10225000019000BF02E04FF0000001904FF001003C
:1022600000900198B0B924B91DA1039800F074FA48
:1022700005E0012C03D12549039800F06DFA09F11E
:102280000109B9F10A0F23D321A1039800F064FAE0
:1022900000207AE79DF80810039800F051F8012D0E
:1022A00003D12F46284600900BE04FF0010A06E0CC
:1022B0000098784300900AF1010000F0FF0AAA4557
:1022C000F6DB00980BFB00FBD844A5F10100C5B27A
:1022D000002D3FF773AFC6F80080012055E70000DE
:1022E000506C6561736520656E7465722061206352
:1022F0006861722066726F6D2027302720746F200E
:102300002739272121210D0A000000003079000023
:102310005265616368206C696D69746174696F6E80
:10232000206F662072652D74726965732E20526568
:102330007475726E204641494C45440D0A000000F8
:1023400013B504464FF001031A4601A9204600F0D8
:10235000CDFB1CBD2DE9F04105460C464FF00A00AF
:1023600094FBF0F100FB1140C6B24FF00A0094FB61
:10237000F0F04FF00A0190FBF1F201FB1200C7B23E
:102380004FF0640094FBF0F090FBF1F201FB1200BF
:1023900000F0FF0808F13000C1B22846FFF7D0FF77
:1023A00007F13000C1B22846FFF7CAFF06F130003E
:1023B000C1B22846FFF7C4FFBDE8F0812DE9F04720
:1023C00005460C464FF00A0094FBF0F100FB11406B
:1023D000C6B24FF00A0094FBF0F04FF00A0190FBF8
:1023E000F1F201FB1200C7B24FF0640094FBF0F071
:1023F00090FBF1F201FB120000F0FF084FF47A703D
:1024000094FBF0F090FBF1F201FB120000F0FF09E9
:1024100042F2107094FBF0F090FBF1F201FB12001D
:1024200000F0FF0A0AF13000C1B22846FFF788FF2A
:1024300009F13000C1B22846FFF782FF08F13000F1
:10244000C1B22846FFF77CFF07F13000C1B2284631
:10245000FFF776FF06F13000C1B22846FFF770FFA4
:10246000BDE8F0872DE9F34F83B00C464FF00A002A
:10247000B4FBF0F100FB1140C5B24FF00A00B4FB11
:10248000F0F04FF00A01B0FBF1F201FB1200C6B20E
:102490004FF06400B4FBF0F0B0FBF1F201FB12006E
:1024A000C7B24FF47A70B4FBF0F0B0FBF1F201FB6D
:1024B000120000F0FF0842F21070B4FBF0F0B0FB25
:1024C000F1F201FB120000F0FF093648B4FBF0F016
:1024D000B0FBF1F201FB120000F0FF0A3248B4FB3E
:1024E000F0F0B0FBF1F201FB120000F0FF0B2F48FF
:1024F000B4FBF0F0B0FBF1F201FB1200C0B20290AD
:102500002B48B4FBF0F0B0FBF1F201FB1200C0B2BB
:1025100001902848B4FBF0F0B0FBF1F201FB12008F
:10252000C0B20090009800F13000C1B20398FFF7EC
:1025300007FF01983030C1B20398FFF701FF0298FE
:102540003030C1B20398FFF7FBFE0BF13000C1B28F
:102550000398FFF7F5FE0AF13000C1B20398FFF7C8
:10256000EFFE09F13000C1B20398FFF7E9FE08F170
:102570003000C1B20398FFF7E3FE07F13000C1B2AB
:102580000398FFF7DDFE06F13000C1B20398FFF7B4
:10259000D7FE05F13000C1B20398FFF7D1FE05B0B8
:1025A000BDE8F08FA086010040420F0080969800A1
:1025B00000E1F50500CA9A3B2DE9F04107460D46BA
:1025C0000FA1384600F0C8F84FF0010600BF4FEAEF
:1025D000860045FA00F000F00F04092C02DD04F13A
:1025E000370001E004F13000C1B23846FFF7A8FE21
:1025F0003000A6F10101CEB2E9D1BDE8F0810000C2
:10260000307800002DE9F04107460D460FA138460D
:1026100000F0A2F84FF0030600BF4FEA860045FA2B
:1026200000F000F00F04092C02DD04F1370001E096
:1026300004F13000C1B23846FFF782FE3000A6F147
:102640000101CEB2E9D1BDE8F08100003078000090
:102650002DE9F04107460D464FF0030600BF4FEA53
:10266000860045FA00F000F00F04092C02DD04F1A9
:10267000370001E004F13000C1B23846FFF760FED8
:102680003000A6F10101CEB2E9D1BDE8F081000031
:102690002DE9F04107460D460FA1384600F05CF8E1
:1026A0004FF0070600BF4FEA860025FA00F000F061
:1026B0000F04092C02DD04F1370001E004F13000C1
:1026C000C1B23846FFF73CFE3000A6F10101CEB2A0
:1026D000E9D1BDE8F0810000307800002DE9F0413B
:1026E00007460D464FF0070600BF4FEA860025FA61
:1026F00000F000F00F04092C02DD04F1370001E0C6
:1027000004F13000C1B23846FFF71AFE3000A6F1DE
:102710000101CEB2E9D1BDE8F0812DE9F0410746D3
:102720000D464FF0010600BF4FEA860045FA00F063
:1027300000F00F04092C02DD04F1370001E004F180
:102740003000C1B23846FFF7FBFD3000A6F10101B1
:10275000CEB2E9D1BDE8F08170B506460D462C46F3
:1027600004E014F8011B3046FFF7EAFD207800284A
:10277000F7D170BD70B504460D4629462046FFF7D7
:10278000EBFF02A12046FFF7E7FF70BD0A0D000036
:102790004FF4E13101604FF0030141714FF000014E
:1027A00001718171704700002DE9F04106460F4626
:1027B000052E40D2DFE806F003400405740000BF98
:1027C00000BF304604F012FD054626B9012108205D
:1027D000FDF734FD0CE0022E04D101210806FDF7BF
:1027E0002DFD05E0032E03D101214806FDF726FD4E
:1027F0004FF0070028724FF00000287200E02C789C
:10280000287D10F0010FFAD14FF0800085F83000DC
:1028100000BF287D10F0200FFBD04FF0000085F89E
:10282000300068602873286285F84C0085F85400F1
:1028300085F850002C7D60E001211020FDF7FEFCA2
:102840004FF00700614908724FF00000087201E084
:102850005E4804785D48007D10F0010FF8D14FF01C
:1028600080005B49087000BF5848007D10F0200FC1
:10287000FAD04FF000005649087054494860087378
:10288000086281F84C0053490870504981F85000A3
:102890000846047D4FF0000008740846047E2CE0D2
:1028A00001210802FDF7CAFC4FF007004A49886081
:1028B0004FF00000886001E04748046846484069DE
:1028C00010F0010FF8D14FF001004349C86500BF77
:1028D0004148406910F0200FFAD04FF000003E4907
:1028E000C8654860C8600862C864486508650846ED
:1028F00044694FF00000486200BF00BF30463968AD
:1029000004F08CFC012E04D13048007B00F0C004A0
:102910000EE0042E04D13048C06800F0C00407E087
:10292000304604F063FC0546287B00F0C00400BF7D
:10293000787930B1012806D0022807D0032808D1C1
:1029400008E000BF09E044F0010406E044F002049E
:1029500003E000BF44F0030400BF00BF3879C0B1FA
:1029600044F008043879012806D0022806D003284C
:1029700007D004280BD107E000BF09E044F01004A1
:1029800006E044F0200403E044F0300400E000BF1F
:1029900000BFB87928B1012802D144F0040401E055
:1029A00000BF00BF00BF012E02D108490C730BE02D
:1029B000042E03D1E0B20849C86005E0304604F0B7
:1029C00015FC05462C7300BFBDE8F08100000140F6
:1029D000300001405400014000400A402DE9F0471A
:1029E00005460F46904699463C464FF0000A052D95
:1029F00013D2DFE805F00306090C0F00DFF890A002
:102A00000BE0DFF890A008E0DFF88CA005E0DFF82D
:102A10008CA002E0DFF888A000BF00BF4246B9F1F9
:102A2000010F1DD14FF0000317E04FF0FF3603E018
:102A300006B906E0A6F10106DAF8000010F0010F71
:102A4000F6D000BF06B90AE0284600F02BF804F8DB
:102A5000010BA2F1010203F10103002AE5D114E008
:102A60004FF000030EE0DAF8000010F0010F00D183
:102A70000AE0284600F016F804F8010B03F1010300
:102A8000A2F10102002AEED100BF1846BDE8F0878E
:102A900014C00040140001401480094014C00940D3
:102AA00014400A400146052914D2DFE801F003066C
:102AB000090C0F0008480078704708480078FBE7C9
:102AC00007480078F8E707480078F5E70648006807
:102AD000C0B2F1E70020EFE700C000400000014075
:102AE0000080094000C0094000400A402DE9FF4F26
:102AF000074691469A46019E4FF0000B052F13D2D0
:102B0000DFE807F00306090C0F00DFF8C0B00BE0A8
:102B1000DFF8BCB008E0DFF8BCB005E0DFF8B8B023
:102B200002E0DFF8B8B000BF00BF4B46BAF1010FBA
:102B300029D14FF0000423E04FF0FF3805E0B8F151
:102B4000000F00D106E0A8F10108DBF8000010F04A
:102B5000200FF4D000BFB8F1000F00D112E04FF009
:102B600010050AE016F8011B384600F039F8A5F107
:102B70000105A3F1010304F101040DB1002BF1D112
:102B8000002BD9D11EE04FF0000418E003B918E083
:102B9000DBF8000010F0200F00D112E04FF010051C
:102BA0000AE016F8011B384600F01AF8A3F10103F9
:102BB000A5F1010504F101040DB1002BF1D1002BA9
:102BC000E4D100BF204604B0BDE8F08F14C000403F
:102BD000140001401480094014C0094014400A4008
:102BE000052813D2DFE800F00306090C0F00084A9D
:102BF00011700BE0074A117008E0074A117005E0F8
:102C0000064A117002E0064A116000BF00BF70471B
:102C100000C00040000001400080094000C00940A1
:102C200000400A4070B504460D46012D1DD1012C0F
:102C300007D11D48007840F080001C4981F8300021
:102C400031E0042C06D11A48C06D40F0010018494B
:102C5000C86528E0204604F0C9FA064696F8300018
:102C600040F0800086F830001DE0012C07D10E48AE
:102C700000784FF000000D4981F8300013E0042C7B
:102C800006D10B48C06D4FF000000949C8650AE045
:102C9000204604F0ABFA064696F830004FF00000EC
:102CA00086F8300000BF70BD3000014000000140D8
:102CB00000400A4002E008C8121F08C1002AFAD1E9
:102CC0007047002001E001C1121F002AFBD17047AC
:102CD00071B583B04FF00005039810F8011B039005
:102CE000622974D1039810F9011B039066296FD0F3
:102CF00004DC642907D065290AD122E072296FD04B
:102D00007729F9D18EE002A903A804F01DFC00B9CF
:102D1000B8E05E48029908440390029D4FF02004F9
:102D20000CE010222946039804F002F8A4F10104F3
:102D3000039800F11000039005F11005002CF0D16C
:102D4000A0E002A903A804F0FFFB00B99AE001A9E2
:102D500003A804F0F9FB78B100BF0198C1B2029A50
:102D600002F1010002904948815401A903A804F02E
:102D7000EBFB0028F1D185E000BF44480299425C9A
:102D800089B243A004F05DFC8021444803F0A6FA18
:102D900042480390039800782E2800D11EE0039843
:102DA00090F90000202804DA029800F10100029056
:102DB000E3E701A903A804F0C7FB58B10198C1B229
:102DC000029A02F1010002903048815405E05BE074
:102DD0004AE005E032A004F063FCCEE700BF51E01A
:102DE00002A903A804F0B0FB00B94BE001A903A8B5
:102DF00004F0AAFB00B945E0694603A804F0A4FB6F
:102E000010B94FF0010000900098C3B21F49DDE9EE
:102E10000120C0B201F012FA0646314622A004F0A9
:102E200010FC2FE002A903A804F08EFB00B929E0F2
:102E300001A903A804F088FB00B923E0694603A8B0
:102E400004F082FB10B94FF0010000900098C3B26B
:102E50000E49DDE90120C0B201F042FA06463146D2
:102E600011A004F0EEFB0DE002A903A804F06CFB36
:102E700000B907E04FF480520298C1B2034804F051
:102E8000D5FB00BF00BF00BF00BF7FBDF80B001027
:102E90002530345820253032582D000044090010C8
:102EA0003F3F3F0A0000000072633D25750A0000A5
:102EB00070B504460D4660784FF001032A4604F1D0
:102EC000340101F0BBF908B1032070BD94F832124F
:102ED00094F8330241EA0020A0F52A41553901D087
:102EE0000220F2E794F86D00010694F86C0041EAC4
:102EF000004194F86B0041EA002094F86A100843FE
:102F000020F07F400D49884201D10020DDE794F890
:102F10008900010694F8880041EA004194F887008E
:102F200041EA002094F88610084320F07F400349CE
:102F3000884201D10020C8E70120C6E7464154007D
:102F4000024601E002F10102107818B192F9000086
:102F50008842F7D192F90000704700002DE9F74F41
:102F600086B0069800680090009890F90000A0F1E3
:102F700030000590059809280BD8009840783A2829
:102F800007D1009800F102000090069900980860AF
:102F900002E0DD4800780590059818B10B2009B0D3
:102FA000BDE8F08FD949059851F820400798046092
:102FB0000CB90C20F3E7207878B1607801F06EF955
:102FC000814619F0010F08D1089820B119F0040FBB
:102FD00001D00A20E3E70020E1E74FF00000207075
:102FE00005986070607801F085F8814619F0010F4E
:102FF00001D00320D3E7089820B119F0040F01D0C5
:103000000A20CCE74FF0000A51462046FFF750FF58
:103010000546012D19D104F5F97898F80400A0B1FE
:1030200098F80B004FEA006198F80A0041EA004165
:1030300098F8090041EA002098F8081040EA010ACF
:1030400051462046FFF734FF0546032D01D10120EC
:10305000A5E70DB10D20A2E73F20015D94F84000E7
:1030600041EA0020B0F5007F01D00D2097E74FF036
:103070004A00015D94F84B0041EA00277FB994F8BB
:103080005B004FEA006194F85A0041EA004194F86D
:10309000590041EA002094F8581040EA01072762DD
:1030A0004FF04400065DE670012E03D0022E01D0E1
:1030B0000D2074E777434FF04100005D0646A07095
:1030C0001EB1A6F10100304201D00D2067E74FF09C
:1030D0004500015D94F8460041EA002020812089E6
:1030E00010F00F0F01D00D2059E74FF04700015DA0
:1030F00094F8480041EA00200490049880B994F8BC
:1031000057004FEA006194F8560041EA004194F8F4
:10311000550041EA002094F8541040EA0100049060
:103120004FF04200015D94F8430041EA002BBBF1EF
:10313000000F01D10D2032E70BEB0700218900EBD6
:1031400011100390DDE90301814201D20D2026E731
:10315000DDE90310A0EB0100A178B0FBF1F00290D3
:10316000029808B90D201AE74FF0010540F6F671F4
:103170000298884201D34FF002054FF6F67102988B
:10318000884201D34FF00305029800F10200E0618C
:1031900003985044E0620AEB0B006062032D19D1E2
:1031A000208908B10D20FAE694F863004FEA006127
:1031B00094F8620041EA004194F8610041EA00207D
:1031C00094F8601040EA0100A062E0694FEA8000D4
:1031D000019015E0208908B90D20E0E6606A3844C6
:1031E000A062022D03D1E0694FEA400007E0E069E8
:1031F00000F00100E16901EB410100EB5100019099
:10320000216A019800F2FF10B1EB502F01D20D207E
:10321000C5E64FF0FF3020614FF00000E060032D65
:1032200061D1607194F8641094F8650041EA00205F
:103230005044606160784FF0010304F13401626929
:1032400000F0FCFFE8BB94F8321294F8330241EA34
:103250000020A0F52A41553945D194F837000106E0
:1032600094F8360041EA004194F8350041EA002024
:1032700094F8341008432649884234D194F81B024C
:10328000010694F81A0241EA004194F8190241EA51
:10329000002094F8181208431E49884223D194F85C
:1032A00023024FEA006194F8220241EA004194F8B7
:1032B000210241EA002094F8201240EA0100E06077
:1032C00000E010E094F81F024FEA006194F81E023B
:1032D00041EA004194F81D0241EA002094F81C12D2
:1032E00040EA0100206125700B48008800F10100D0
:1032F00080B209490880E0804FF00000206320710F
:10330000A06100BF4BE60000720300106C030010C8
:103310005252614172724161700300100246A1F184
:103320000201D069A0F10200884201D80020704754
:103330009378D06A01FB0300F9E700002DE9F0471C
:1033400006460C46207800F0BF00A0F1010000EB1B
:10335000800101EBC0084FF000094FF0010700BFEA
:103360001A4810F80900205C184911F80910214486
:10337000497840EA012597B1284602F053F80746FC
:10338000B8F1FF0F08D2414608F1010836F81100E4
:1033900002F048F8B84208D00020BDE8F087A5F553
:1033A0007F40FF3801D00020F7E709F10100814696
:1033B0000D28D5D3207810F0400F05D027B136F86E
:1033C000180008B10020E8E70120E6E7367D00009C
:1033D0002DE9F04704468946B9F1000F07D1E768A7
:1033E00017B1E069B84212D84FF001070FE0494623
:1033F000204602F03DFE0646022E02D20120BDE824
:10340000F087E069B04201D93046F8E74F463D46C3
:1034100000BF05F10105E069A84205D84FF002059B
:10342000BD4201D90020EAE72946204602F020FEED
:10343000064606B909E0701C01D0012E01D13046C4
:10344000DDE7BD42E5D10020D9E700BF6FF0704253
:103450002946204603F0A4FC8046B8F1000F08D1AD
:10346000B9F1000F05D02A464946204603F098FCE2
:103470008046B8F1000F0BD1E5602069401C10D0E8
:103480002069A0F1010020614FF00100607108E0A7
:10349000B8F1010F02D14FF0FF3001E04FF0010011
:1034A00005462846ABE700002DE9F34F83B083467D
:1034B0004FF0000005468046049800680190DBF854
:1034C0001C7000BF404608F101080199085684B2FB
:1034D000202C03DB2F2C01D05C2C00D11EE0FF2D13
:1034E00003D3062005B0BDE8F08FE4B24FF0010130
:1034F000204601F06FFF04460CB90620F2E7802C4D
:1035000006DA21468CA0FFF71BFD08B10620E9E78B
:10351000284605F1010527F81040D3E700BF0198C0
:1035200000EB080104980160202C02DA4FF004003F
:1035300001E04FF00000C6B2012D04D1681E37F83B
:1035400010002E280BD0022D28D1681E37F810004D
:103550002E2823D1A81E37F810002E281ED14FF098
:10356000000027F8150082460CE0AA4502D24FF071
:103570002E0001E04FF02000DBF8181001F80A00DF
:103580000AF1010ABAF10B0FEFD346F02000DBF885
:10359000181001F80A004FF00000A3E70AE0A5F1B7
:1035A000010037F81040202C02D02E2C00D003E070
:1035B000A5F10105002DF2D100BF0DB9062091E75C
:1035C0004FF0000027F815004FF00B024FF02001DC
:1035D000DBF8180003F03BF84FF0000801E008F1B9
:1035E000010837F818002028F9D037F818002E28DD
:1035F000F5D0B8F1000F01D046F0030601E0A5F1C7
:10360000010525B1681E37F810002E28F7D14FF0BC
:10361000000AD1464FF00800029000BF404608F172
:10362000010837F8104004B956E0202C03D02E2CA6
:1036300004D1A84502D046F00306EFE70298824580
:1036400001D2A84517D102980B2802D146F00306F3
:1036500042E0A84501D046F00306A84500D93BE06A
:10366000A8464FF0080A4FF00B0002904FEA89601D
:103670004FEA1069D2E7802C0BDB0021204601F0D5
:10368000A9FE04461CB1A4F180002E490C5C46F052
:10369000020600BF24B121462BA0FFF751FC20B148
:1036A0004FF05F0446F003060FE0412C04DB5A2C78
:1036B00002DC49F0020908E0612C06DB7A2C04DC0C
:1036C00049F00109A4F1200084B250460AF1010A30
:1036D000DBF818301C54A1E700BFDBF818000078B5
:1036E000E52804D14FF00500DBF8181008700298A7
:1036F000082803D14FEA89604FEA106909F00C00ED
:103700000C2803D009F00300032801D146F002067B
:1037100016F0020F0BD109F00300012801D146F089
:10372000100609F00C00042801D146F00806DBF869
:103730001800C6720020D5E6222A3A3C3E3F7C7F24
:1037400000000000437D00002B2C3B3D5B5D000032
:103750001CB5012202210020FEF7CEF9012203212F
:103760000020FEF7C9F96846FFF712F86946002005
:10377000FFF71AF801210020FFF754FA16481749FD
:103780000860174817490860174818490860184822
:10379000184908601848194908601948194908600B
:1037A00019481A4908601A481A4908601A481B49FA
:1037B00008601B481B4908601B481C4908601C48DE
:1037C0001C4908601C481D4908601D481D490860C7
:1037D0001D481E4908601CBD59270000100000103C
:1037E000752700001400001041230000180000108D
:1037F000B925000028000010052600002C0000104C
:1038000091260000300000101B270000340000103B
:103810005126000038000010DD2600003C0000109A
:10382000552300001C000010BD23000020000010E4
:103830006524000024000010312100004000001029
:1038400071210000480000104F21000044000010CA
:103850002DE9F04704464FF00001204600F075FACC
:103860008046B8F1000F02D04046BDE8F0874FF027
:10387000FF09CA4600BF2169206802F0F2FE8046B7
:10388000B8F1000F00D055E065692E7816B94FF0F9
:1038900004084FE0E87A00F03F07E52E04D017F067
:1038A000080F04D00F2F02D04FF0FF093AE00F2F7E
:1038B0001DD1E069A8B316F0400F06D095F80DA011
:1038C00006F0BF06B146E08820844E450AD1687BE9
:1038D000504507D12946E069FFF730FD10B1A9F145
:1038E000010001E04FF0FF0000F0FF091AE0B9F11C
:1038F000000F05D1284603F0D7FB504500D119E051
:103900004FF0FF094FF6FF702084A069C07A10F0D5
:10391000010F07D10B222846A16902F077FE00B9FA
:1039200008E0FFE70021204600F007F88046B8F1E4
:10393000000FA0D000BF404697E72DE9F0410446B4
:103940008846E08800F1010086B20EB1206910B906
:103950000420BDE8F08116F00F0F76D1206900F148
:1039600001002061E06828B920680089B0426CDC61
:103970000420EEE720688078A0F1010010EA161F0D
:1039800063D1E168206802F073FB0546012D01D880
:103990000220DEE7681C01D10120DAE72068C06957
:1039A000A8424CD8B8F1000F01D10420D1E7E1685A
:1039B0002068FFF70DFD05460DB90720C9E7012D69
:1039C00001D10220C5E7681C01D10120C1E7002117
:1039D000206802F046FE08B10120BAE7216801F133
:1039E00034004FF40072002102F031FE29462068B5
:1039F000FFF794FC216808634FF0000714E04FF0D4
:103A00000100216808714FF00001206802F029FED2
:103A100008B101209DE72068006B00F101002168DA
:103A2000086307F10100C7B220688078B842E6DC7D
:103A30002068006BA0EB07002168086300BFE56009
:103A400029462068FFF76AFC2061E680206800F1C3
:103A5000340006F00F0100EB411060614FF00000F0
:103A600077E72DE9F04704464FF0FF09CA464FF0CB
:103A700004084FE02169206802F0F3FD8046B8F1A8
:103A8000000F00D049E065692E7816B94FF00408A0
:103A900043E0E87A00F03F07E52E05D000BF17F0BD
:103AA000080F04D00F2F02D04FF0FF0929E00F2F8D
:103AB0001BD116F0400F06D095F80DA006F0BF06FA
:103AC000B146E08820844E450AD1687B504507D135
:103AD0002946E06902F060FE10B1A9F1010001E0A1
:103AE0004FF0FF0000F0FF090BE0B9F1000F04D127
:103AF000284603F0D9FA504502D04FF6FF702084D3
:103B00000BE000212046FFF718FF8046B8F1000FB8
:103B100000D002E020690028ACD100BFB8F1000F4E
:103B200002D04FF0000020614046BDE8F0872DE94B
:103B3000F04F85B00446D4F81880D4F81CB04FF08C
:103B40000C02414601A802F075FD9DF80F0010F02F
:103B5000200F03D0062005B0BDE8F08F9DF80F00C0
:103B600010F0010F27D04FF0000088F80B00E06143
:103B70004FF001070EE03B465A4601A9404602F0CD
:103B80000BFA2046FFF764FE054605B104E007F195
:103B9000010087B2642FEEDB00BF642F01D1072044
:103BA000D9E7042D01D02846D5E79DF80F0088F805
:103BB0000B00C4F81CB09DF80F0010F0020F11D0DC
:103BC0004FF0000602E006F1010086B23BF8160055
:103BD0000028F8D106F119004FF00D0190FBF1F02B
:103BE00086B201E04FF001060021204600F0ADF85A
:103BF00005460DB12846AEE74FF000000746049099
:103C000000BF2169206802F02CFD054605B11AE0CD
:103C1000606990F80090B9F1E50F02D0B9F1000F9A
:103C200008D10FB9E0880490781C80B20746B042F2
:103C300002D108E04FF0000701212046FFF77DFE8A
:103C40000546002DDDD000BF6DBB012E2BDD2046CB
:103C5000049900F07AF805462DBBA06903F024FA18
:103C60000090A6F1010086B200BF2169206802F031
:103C7000F8FC054605B115E06169E069F2B2009B08
:103C800002F0E0F84FF00100216808714FF00001E8
:103C90002046FFF752FE054625B9A6F1010080B285
:103CA0000600E2D100BFDDB92169206802F0D9FC2D
:103CB0000546ADB9D4F814A020220021504602F0E8
:103CC000C6FC0B225046A16902F0B4FCA069C07A80
:103CD00000F018008AF80C004FF00100216808710C
:103CE000284638E770B50446E688208CA0F57F4268
:103CF000FF3A01D1304600E0208C81B2204600F02E
:103D000024F80546FDB900BF2169206802F0A9FC2E
:103D1000054605B112E04FF0E500616908704FF00B
:103D2000010021680871E088B04200DB06E0002154
:103D30002046FFF702FE0546002DE5D000BF042D0A
:103D400001D14FF00205284670BD2DE9F04104462F
:103D50000E46E680A568012D03D02068C069A84200
:103D600002D80220BDE8F0812DB920680078032830
:103D700001D12068856A65B9E56020680089B04294
:103D800001DC0220EEE72068806A00EB161020615B
:103D900022E0206880784FEA001713E02946206867
:103DA00002F066F90546681C01D10120DAE7022D10
:103DB00003D32068C069A84201D80220D2E7A6EB4D
:103DC000070086B2BE42E9DAE56029462068FFF7BF
:103DD000A5FA00EB16102061206800F1340006F00F
:103DE0000F0100EB411060614FF00000BAE70000E6
:103DF000F1B584B04FF000063746049810F8011B67
:103E0000049064297ED1049810F9011B0490642960
:103E100004D0692937D0732905D144E003A904A847
:103E200003F092FB00B9B9E002A904A803F08CFBEF
:103E300000B9029701235C49DDE90220C0B200F01D
:103E4000FDF9054625B1294658A003F0FAFBA5E087
:103E5000029800F1010757A0029903F0F2FB5248C3
:103E600004904FF000060AE010223146049802F058
:103E70005FFF049800F11000049006F11006B6F5FB
:103E8000007FF1D38AE003A904A803F05DFB00B929
:103E900084E00398C0B200F02DF90446214643A007
:103EA00003F0CFFB7AE003A904A803F04DFB00B9AF
:103EB00074E002AA01210398C0B200F043F918B9D6
:103EC0003FA0029903F0BDFB6A4602210398C0B2ED
:103ED00000F038F920B9BDF8001040A003F0B1FBA4
:103EE00002AA03210398C0B200F02CF918B940A02F
:103EF000029903F0A6FB01AA0A210398C0B200F0C0
:103F000021F900E04CE020B99DF804103FA003F037
:103F100098FB254A0B210398C0B200F013F938B979
:103F20003EA003F0BDFB102200211F4802F000FF5D
:103F30001D4A0C210398C0B200F004F900281DD1DD
:103F4000194C38A003F0ACFB217838A003F079FBC2
:103F500061883DA003F075FB217943A0A26803F0BE
:103F600070FB217B47A003F06CFB4EA0216903F09E
:103F700068FBE18A54A003F064FB00BF0A4A0E21EB
:103F80000398C0B200F0DEF838B957A003F088FB00
:103F900002220021044802F0CBFE00BF00BF00BF98
:103FA00000BF05B0F0BD0000F80B001072633D25A6
:103FB000640A0000536563746F723A256C750A00D9
:103FC00044726976652073697A653A20256C75209C
:103FD000736563746F72730A000000005365637445
:103FE0006F722073697A653A2025750A0000000017
:103FF000457261736520626C6F636B3A20256C7546
:1040000020736563746F72730A0000004361726409
:1040100020747970653A2025750A00004353443AAC
:104020000A0000004349443A0A0000000A0D092D25
:10403000204D616E75666163747572652049443AFE
:1040400020307825780A00000A0D092D204F454DB3
:104050002F4170706C69636174696F6E2049443AD6
:1040600020307825780A00000A0D092D2050726F43
:1040700064756374204E616D653A2030782578252B
:10408000780A00000A0D092D2050726F6475637460
:10409000205265766973696F6E3A20307825780A08
:1040A000000000000A0D092D2050726F64756374C2
:1040B0002053657269616C204E756D6265723A209D
:1040C000307825780A0000000A0D092D204D616E18
:1040D00075666163747572696E6720446174653AD0
:1040E00020307825780A0000534420537461747599
:1040F000733A0A0010B504460CB1012010BD4FF010
:1041000001000F490870FCF70FF90120FDF71CF9B9
:1041100010B10B480078F1E702F048F9012806D108
:104120000748007820F001000549087005E00448C0
:10413000007840F002000249087001480078DDE78D
:10414000280100102DE9F84380460F4615462E46FB
:10415000B8F1000F02D00420BDE8F883354800789C
:1041600010F0010F01D00320F6E74FF001090F2FE7
:1041700059D2DFE807F0080F151B585858585858FF
:1041800021273658450002F029FA012801D14FF0C5
:1041900000094BE02848406828604FF0000945E0DE
:1041A0002548006828804FF000093FE022488068D9
:1041B00028604FF0000939E01F48007D30704FF053
:1041C000000933E04FF0000406E01B483430005D86
:1041D000305504F10100C4B2102CF6DB4FF0000999
:1041E00024E0154818304FF0000404E0015D31551B
:1041F00004F10101CCB21C2CF8D34FF0000915E0FA
:104200006846FCF7ABFF68B968464FF0000404E06D
:10421000015D315504F10101CCB2022CF8DB4FF005
:10422000000900BF02E04FF0040900BF00BF48468C
:1042300092E7000028010010740300102DE9F041FE
:1042400005460E4617461C4605B914B90420BDE8BC
:10425000F0811148007810F0010F01D00320F6E73B
:10426000224639463046FDF79BF990B900BFFDF76D
:104270003BF80028FBD1012C04DDFCF775FD08B1EB
:104280000120E4E7FDF736F808B10120DFE7002060
:10429000DDE70120DBE7000028010010014609B13D
:1042A0000120704701480078FBE70000280100105A
:1042B0000949088828B1A0F1010189B20846064AD7
:1042C00011800649088828B1A0F1010189B2084689
:1042D000024A1180704700002A0100102C010010D2
:1042E0002DE9F04105460E4617461C4605B914B99E
:1042F0000420BDE8F0811148007810F0010F01D0D2
:104300000320F6E7224639463046FDF781FB90B997
:1043100000BFFCF7E9FF0028FBD1012C04DDFCF70E
:1043200023FD08B10120E4E7FCF7E4FF08B1012018
:10433000DFE70020DDE70120DBE7000028010010B7
:1043400011B58DB0002204A90DA8FEF707FE0446A2
:104350004CBB01A80A9015480B9004A80D9901F0D8
:10436000B7FD0446DCB9099818B904990698886124
:1043700015E00998C07A10F0100F0ED00998817ED0
:10438000C07E41EA002009990A7D497D42EA012167
:1043900040EA01400499886101E04FF00504042CD3
:1043A00001D14FF0050420460EB010BDF81B0010DF
:1043B0000146012901DB0B207047024801700020F3
:1043C000FAE7000072030010F7B58CB00F461446F0
:1043D0004FF0010203A90CA8FEF7C0FD05465DBB26
:1043E000CDF824D016480A9003A80C9901F070FD6E
:1043F000054635B90998C07A10F0200F01D04FF06A
:104400000605CDB9089E16B94FF0060514E004F074
:10441000270407EA0400F17A6FEA0402D2B201EA43
:10442000020140EA0100F0724FF0010003990871A7
:10443000039802F065FE054628460FB0F0BD000067
:10444000F81B001070B50446204600F04DFD0546EF
:1044500015B94FF000002060284670BD2DE9F74FD8
:1044600082B08B4614464FF00002214602A8FEF7A8
:1044700075FD01900198002809D120680169C06983
:10448000801E814204D820680069CBF8000078E0E3
:10449000206890F800A04FF00006BAF1010F21D17A
:1044A0004FF0020700BF3946206801F0E1FD804669
:1044B00018F1010003D14FF00100019011E0B8F1B3
:1044C000010F03D14FF0020001900AE0B8F1000F94
:1044D00001D106F10106781C07462168C9698842A6
:1044E000E1D343E02068C7692068406A00904FF03C
:1044F00000094D4600BFB9F1000F0FD1009A531CBF
:1045000011460093206802F0ACF80190019800B1C8
:104510002BE0206800F134054FF40079BAF1020F66
:104520000BD12878697850EA012001D106F1010603
:1045300005F10205A9F1020913E0E8784FEA0060ED
:10454000A97840EA0140697840EA012029780843C7
:1045500030F0704001D106F1010605F10405A9F122
:104560000409A7F101000700C5D100BF206806615A
:10457000BAF1030F03D14FF0010021684871CBF865
:104580000060019805B0BDE8F08F2DE9F0470446C2
:104590000E46A188206802F0C2FF8246BAF1000FE1
:1045A00002D05046BDE8F087A07910F0800F01D00E
:1045B0000220F7E7E068B04204D2A07910F0020FC1
:1045C00000D1E668D4F808904FF00008C4F80880DD
:1045D000002E7ED0206880784FEA4027B9F1000F86
:1045E00014D0701EB0FBF7F1A9F10100B0FBF7F099
:1045F00081420BD3A9F10100A7F1010120EA0100DA
:10460000A060A068A6EB000665691AE02569BDB93F
:1046100000212068FEF7DCFE0546012D06D1A079B9
:1046200040F08000A0714FF00200BBE7681C06D18B
:10463000A07940F08000A0714FF00100B2E7256141
:104640006561002D48D02CE0A07910F0020F07D052
:1046500029462068FEF7BCFE054635B93E4622E0F5
:104660002946206801F004FD0546681C06D1A079A2
:1046700040F08000A0714FF0010093E7012D03D9B5
:104680002068C069A84206D8A07940F08000A071D7
:104690004FF0020086E76561A0683844A060A6EB91
:1046A0000706BE42D0D800BFA0683044A060F00525
:1046B000C00D11D029462068FEF730FE8046B8F1C3
:1046C000000F07D1A07940F08000A0714FF00200E8
:1046D00068E701E008EB5628A068C005C00D2CD0A3
:1046E000A069404529D0A07910F0400F13D021686F
:1046F0004878012304F12401A269FFF7F1FD30B1EC
:10470000A07940F08000A0714FF001004AE7A07945
:1047100020F04000A071216848780123424604F14E
:104720002401FFF78BFD30B1A07940F08000A0712B
:104730004FF0010036E7C4F81880D4E9020188423E
:1047400005D9A068E060A07940F02000A071504633
:1047500028E700002DE9F1478DB001F000FD074684
:104760004FF0010204A90DA8FEF7F8FB0646002E43
:104770007DD101A80A906B480B9004A80D9901F017
:10478000A7FB06460EB94FF00806042E06D10A987C
:10479000C07A10F0200F01D04FF00606042EE7D1AA
:1047A00000210498FEF714FE05464FF000060DB9EF
:1047B0004FF00706012D01D14FF00206681C01D110
:1047C0004FF0010626B90021049801F04AFF064681
:1047D000002E77D129460498FEF7A0FD8246049862
:1047E00000F134044FF400724FF00001204601F054
:1047F0002EFF0B222021204601F029FF4FF02E0032
:1048000020704FF01000E072A7754FEA1720E07596
:104810004FEA174121764FEA17606076A5764FEA96
:104820001520E0764FEA154020754FEA1560607557
:104830004FF02002214604F1200001F0FBFE4FF072
:104840002E0084F82100DDF81880049800780328F1
:1048500004D10498806A404500D1B04684F83A807B
:104860004FEA182184F83B10C8F3074100E054E0F8
:104870004FF0340001554FEA186184F83510049860
:1048800090F802901AE00498C0F830A00AF1010AEA
:104890004FF00100049908714FF00001049801F0F5
:1048A000E0FE064606B10CE04FF4007200212046FF
:1048B00001F0CDFEA9F1010000F0FF09B9F1000FF0
:1048C000E1D100BF1EB904A8FFF731F9064626B1B1
:1048D0002946049802F032FB1FE0099C4FF01000BB
:1048E000E072A7754FEA1720E0754FEA174121766D
:1048F0004FEA17606076A5764FEA1520E0764FEA1A
:10490000154020754FEA156060754FF0010004995D
:104910000871049802F0F4FB064630460EB0BDE87C
:10492000F0870000F81B00100246012A01DB0B2073
:104930007047084850F8223013B14FF0000018704B
:1049400011B14FF000000870024840F8221000201A
:10495000EEE700006C0300102DE9F7438CB005462C
:1049600016464FF00000286006F01F0626F00102F0
:1049700003A90DA8FEF7F2FA0746CDF824D0564851
:104980000A9027B903A80D9901F0A2FA0746089CDE
:1049900017B90CB94FF0060716F01C0F5AD04FB1DB
:1049A000042F03D103A8FFF7C2F8074646F0080614
:1049B000089C0BE016F0040F02D04FF0080705E04A
:1049C000E07A10F0110F01D04FF00707002F40D10F
:1049D00016F0080F3DD001F0C2FB804684F80E802F
:1049E0004FEA1820E0734FEA184121744FEA18602B
:1049F00060743846E072207701466177A177E177ED
:104A0000A17EE07E41EA0020227D617D42EA012113
:104A100040EA01493846A0760146E1762075617585
:104A20004FF0010003990871B9F1000F11D00398FC
:104A3000D0F830804946039802F080FA074647B91B
:104A4000A9F101000399C8604146039801F009FEED
:104A5000074610E07FB9E07A10F0100F02D04FF057
:104A6000040708E016F0020F05D0E07A10F0010FFD
:104A700001D04FF0070747B916F0080F01D046F0F4
:104A800020060398006BE8612C620FBBAE71A17E1B
:104A9000E07E41EA0020227D617D42EA012140EA78
:104AA00001402861E07F4FEA0061A07F41EA0041B8
:104AB000607F41EA0020217F40EA0100E8604FF07A
:104AC0000000A860A861039828600398C088A880A7
:104AD00038460FB0BDE8F083F81B001033B583B043
:104AE00004464FF00002214604A8FEF737FA0546B7
:104AF0006DBBC4F818D01748E0612046049901F056
:104B0000E7F90546FDB96069A0B16069C07A10F0A7
:104B1000100F0DD06069817EC07E41EA002061697E
:104B20000A7D497D42EA012140EA0140A06001E09E
:104B30004FF005053DB92068C088A08000212046BF
:104B4000FFF703F90546042D01D14FF0050528466E
:104B500005B030BDF81B00102DE9FF4F83B00446AF
:104B600015469A46DDF810B04FF00000CAF8000074
:104B7000A188206802F0D3FC0290029818B1029834
:104B800007B0BDE8F08FA07910F0800F01D00220AF
:104B9000F6E7A07910F0010F01D10720F0E7D4E982
:104BA0000210A0EB010000900098854200D9009D02
:104BB000BCE0A068C005C00D7ED120688078A0F15F
:104BC0000100A16800EA512000F0FF09B9F1000FCF
:104BD0001ED1A06808B9206903E06169206801F06E
:104BE00047FA01900198012806D8A07940F080008A
:104BF000A0714FF00200C3E70198401C06D1A079D4
:104C000040F08000A0714FF00100B9E701986061A9
:104C100061692068FEF782FB064636B9A07940F04C
:104C20008000A0714FF00200AAE74E444FEA5528D9
:104C3000B8F1000F2ED009EB08002168897888426E
:104C400003D920688078A0EB09082168487808F02B
:104C5000FF0332465946FFF7F1FA30B1A07940F030
:104C60008000A0714FF001008AE7A07910F0400F9A
:104C70000DD0A069801B404509D2A169891B0BEBAF
:104C800041204FF4007204F1240101F0D3FC4FEAFB
:104C9000482740E0A07910F0400F15D021684878EF
:104CA000012304F12401A269FFF71AFB40B1A079A6
:104CB00040F08000A07100E01AE04FF001005FE7D3
:104CC000A07920F04000A071A069B0420FD0216807
:104CD00048780123324604F12401FFF7AFFA30B1DE
:104CE000A07940F08000A0714FF0010048E7A66174
:104CF000A068C0F30800C0F50077AF4200D92F4686
:104D0000A068C0F3080204F1240011183A4658467E
:104D100001F090FC00BFBB44A0683844A060DAF802
:104D200000003844CAF80000A5EB0705002D7FF409
:104D300040AF002024E70000FEB504460E46A188DF
:104D4000206802F0ECFB054625BB2EB90021204669
:104D5000FEF7FBFF05461DE0C4F818D00E48E061E1
:104D60002046FEF77EFE0546042D03D14FF00000DD
:104D70002061054675B93146204601F00AFA002146
:104D80002046FEF7DAFD0546042D03D14FF0000062
:104D9000206105462846FEBDF81B0010F3B59BB008
:104DA0000F464FF0010212A91BA8FEF7D7F80546DF
:104DB000002D18D112980990CDF860D0494819906B
:104DC00012A81B9901F084F8054635B91898C07AE5
:104DD00010F0200F01D04FF00605002D7ED117985E
:104DE00010B94FF0040579E0179800F10B01152276
:104DF00003A801F01FFC242212A909A801F01AFC43
:104E0000394609A801F064F805460DB94FF00805C8
:104E1000042D63D109A8FEF78AFE0546002D5DD159
:104E20000E9C13220DF10E0104F10D0001F002FCA5
:104E30009DF80C0040F02000E0724FF00100129944
:104E400008710B99149888423ED0E07A10F0100F48
:104E50003AD0A37EE27E43EA022294F814C0637D36
:104E60004CEA032342EA03410998FEF757FA064643
:104E700016B94FF0020527E03146099801F0F1FB21
:104E80000546099800F15404F5B960782E281BD125
:104E900009980078032807D109990B98896A8842F4
:104EA00002D14FF0000000E00B980646A6764FEACC
:104EB0001620E0764FEA164020754FEA16606075BE
:104EC0004FF001000999087145B912A8FEF70AFFD1
:104ED00005461DB9129802F013F9054628461DB083
:104EE000F0BD0000F81B00102DE9F0410446A18838
:104EF000206802F014FB0746002F58D1A07910F06B
:104F0000200F54D0A07910F0400F0FD021684878BE
:104F1000012304F12401A269FFF7E2F910B1012095
:104F2000BDE8F081A07920F04000A071E16920681F
:104F300001F097FB0746002F39D1256AE87A40F047
:104F40002000E872E0682877E0684FEA1020687770
:104F5000E0684FEA1041A977E0684FEA1060E8770F
:104F60002069A87620694FEA1020E87620694FEA88
:104F70001040287520694FEA1060687501F0EFF85D
:104F80000646AE754FEA1620E8754FEA16412976B7
:104F90004FEA16606876A07920F02000A0714FF0EB
:104FA000010021680871206802F0AAF80746384617
:104FB000B6E770B50446A188206802F0B0FA05464D
:104FC00065B9A07910F0800F02D04FF0020505E01E
:104FD000A07910F0020F01D14FF00705002D3AD152
:104FE000D4E90210884231D9A068E060A07940F08D
:104FF0002000A071A06840B92169206801F09EFFDF
:1050000005464FF00000206120E06169206801F052
:105010002FF806464FF00005701C01D14FF0010536
:10502000012E01D14FF0020585B92068C069B04258
:105030000CD96FF070426169206801F0B1FE05463D
:1050400025B93146206801F079FF05461DB1A079E8
:1050500040F08000A071284670BD000071B595B089
:1050600001220CA915A8FDF779FF0446002C5DD19B
:10507000CDF848D02F4813900CA8159900F028FFC0
:10508000044634B91298C07A10F0200F01D04FF0C6
:105090000604002C4AD1119D15B94FF0060405E015
:1050A000E87A10F0010F01D04FF00704A97EE87EE6
:1050B00041EA00202A7D697D42EA012140EA014659
:1050C0001CBBE87A10F0100F1FD0022E02D24FF056
:1050D00002041AE024220CA903A801F0ABFA0596F9
:1050E000022103A8FEF731FE044674B903A8FEF7B7
:1050F000B8FC04461CB103988069B04201D14FF05E
:105100000704042C01D14FF000047CB90CA8FEF771
:10511000E9FD044654B926B131460C9801F00EFF62
:1051200004461CB90C9801F0EBFF0446204616B06B
:1051300070BD0000F81B001073B58CB00D464FF029
:10514000010203A90CA8FDF709FF064656BBCDF8DE
:1051500024D016480A9003A80C9900F0B9FE064620
:1051600036B90998C07A10F0200F01D04FF006062A
:10517000C6B9089C14B94FF0060613E0E888A0757C
:10518000E8884FEA2020E075A8882076A8884FEAB2
:10519000202060764FF0010003990871039801F018
:1051A000AFFF064630460EB070BD0000F81B001081
:1051B0002DE9FF4F83B0044615469B4604980190A5
:1051C0004FF00000CBF80000A188206802F0A7F99A
:1051D0000290029818B1029807B0BDE8F08FA0794C
:1051E00010F0800F01D00220F6E7A07910F0020F36
:1051F00001D10720F0E7E0682844E168884201D245
:105200004FF00005D4E0A068C005C00D7DD1206836
:105210008078A0F10100A16800EA512000F0FF0AA7
:10522000BAF1000F2CD1A06858B9D4F81080B8F1A9
:10523000000F0BD100212068FEF7CAF880462061DC
:1052400004E061692068FEF7C3F88046B8F1000FFA
:1052500000D1B0E0B8F1010F06D1A07940F0800094
:10526000A0714FF00200B7E718F1010006D1A07954
:1052700040F08000A0714FF00100ADE7C4F8148049
:10528000A07910F0400F13D021684878012304F171
:105290002401A269FFF724F830B1A07940F0800022
:1052A000A0714FF0010097E7A07920F04000A071B5
:1052B00061692068FEF732F8064636B9A07940F0F9
:1052C0008000A0714FF0020086E756444FEA55294E
:1052D000B9F1000F30D00AEB0900216889788842C3
:1052E00003D920688078A0EB0A092168487809F082
:1052F000FF0332460199FEF7F3FF38B1A07940F081
:105300008000A0714FF0010066E72DE0A069801BCE
:1053100048450ED2A069801B019A02EB40214FF450
:10532000007204F1240001F085F9A07920F040001A
:10533000A0714FEA49272EE0A069B04213D0D4E90A
:10534000020188420FD2216848780123324604F1D5
:105350002401FEF773FF30B1A07940F08000A07106
:105360004FF0010038E7A661A068C0F30800C0F55F
:105370000077AF4200D92F46A168C1F3080204F1BB
:10538000240150183A46019901F054F9A07940F0EF
:105390004000A07100BF019838440190A0683844D3
:1053A000A060DBF800003844CBF80000A5EB07054F
:1053B000002D7FF428AF00BFD4E90201884201D953
:1053C000A068E060A07940F02000A0714FF00000DC
:1053D00002E7000010B50246802A01DA10461EE0FE
:1053E00059B1FF2A02DD4FF0000304E0A2F180036F
:1053F0000B4C34F8133098B211E04FF0000008E085
:10540000074B33F81030934200D104E000F1010360
:1054100098B28028F4DB00BF00F18003D8B210BD41
:10542000C47D000002464FF0000101E001F10101DE
:10543000094830F8110020B1074830F811009042B7
:10544000F4D1054830F8110018B1044830F81100C3
:1054500000E0104680B27047C47E0000A4800000C7
:105460002DE9F14F90B04FF0000AF8A000680990C4
:10547000109810F8011B109066297ED1109890F9B1
:1054800000001099491C613810911A2820D2DFE8D9
:1054900010F02B031F009601B3019D011F0024048F
:1054A0001F001A0034041B039D001F00E2027D014F
:1054B0001F001F0052022E004A0304031403980227
:1054C0009D031F00B5040FA910A802F03DF800B914
:1054D00030E28D220F985043DD4A02EB80010F9895
:1054E000C0B2FFF721FA044601F004FDF0E703E043
:1054F000109800F101001090109800782028F7D043
:10550000D44A0EA91098FEF7A9FF06461EB13046F0
:1055100001F0F0FCDCE7CF480068C16ACD480068C4
:10552000836ACC480068426ACA480068C069801E25
:1055300002AC0DC40591C7480068006AC5490968F6
:105540000989CDE90010C3480068C378C1480068E4
:1055500080784202BF480068007800F0030009AC80
:10556000215CBD4802F06DF84FF00000BB49088097
:10557000BB490880BB49086000E0CBE3109801F00C
:1055800033FD06461EB1304601F0B4FCA0E7B14839
:10559000006880780E9900FB01F404EBD470411090
:1055A000AC480068C069801EAA4A126892785043CD
:1055B0004008CDE90001A9480388AA480268A84824
:1055C0000188A548CC3002F03CF881E703E0109850
:1055D00000F101001090109800782028F7D0A24820
:1055E0001099FFF77BFA06461EB1304601F082FCA7
:1055F0006EE74FF000000B900C900F9000BF9B499E
:105600009948FFF799FB064616B99848407A00B9C1
:1056100078E09648007A10F0100F04D00B9800F153
:1056200001000B9008E00C9800F101000C908F48ED
:1056300000680F9908440F908C4809308B4909681D
:105640008A4AD288C2F34512884BDB884FEAE323AB
:10565000CDE90532CDE907100938808800F01F0038
:1056600082498988C1F34311804A92884FEA6222B5
:1056700002F2BC727D4B1B7A13F0200F01D0412344
:1056800000E02D23CDE90132CDE903107748007AFF
:1056900010F0040F01D0532000E02D20009073483B
:1056A000007A10F0020F01D0482000E02D200346C0
:1056B0006E48007A10F0010F01D0522000E02D203A
:1056C00002466A48007A10F0100F01D0442000E032
:1056D0002D20014666A001F0B4FF6448093002F0B5
:1056E00004F80E9006E0202001F0BAFF0E9800F1B9
:1056F00001000E900E980E28F5DB684968A001F0B5
:10570000A0FF7CE700BF00BF66A00F9A0C9901F0D4
:1057100098FF504A0FA91098FEF7A0FEA8BB4D486D
:10572000006880784FF000020F994FEAE17CA0FBFF
:10573000013B02FB01B100FB0C124FF400714FF072
:10574000000CA3FB014B02FB01B103FB0C154FF056
:10575000FF314FF00000091BA84106D322462B461B
:1057600058A00B9901F06DFF0EE04FF4806200230A
:1057700020462946FAF7D2FC02460B46CDE906013F
:1057800058A00B9901F05DFF00BF4CE30FA910A8D2
:1057900001F0DAFE00B946E303E0109800F10100E1
:1057A0001090109800782028F7D00F98C2B2544873
:1057B0001099FFF7D1F8044601F09CFB33E3504801
:1057C000FEF740FE044601F095FB2CE30FA910A85C
:1057D00001F0BAFE00B926E349480F99FEF7D5FE5D
:1057E0000646304601F086FB2EB94548826881683E
:1057F00044A001F026FF16E30FA910A801F0A4FEB3
:1058000000B910E33E48D0F808A08EE00F981028A9
:1058100007D34FF010000A900F98A0F110000F90DE
:1058200004E00F980A904FF000000F900AAB3A493D
:1058300033480A9AFFF790F906461EB1304601F048
:1058400059FB76E00A9800B973E067E0000C10207D
:10585000C4090010600300101C7C00006A030010E3
:1058600068030010640300100008001024080010F2
:10587000256325632563256325632025752F253042
:1058800032752F2530327520253032753A25303269
:10589000752025396C752020257300004408001000
:1058A00025730A002534752046696C652873292CF8
:1058B0002531306C7520627974657320746F746162
:1058C0006C0A0000253475204469722873292C2045
:1058D0002531306C75206279746573206672656558
:1058E0000A000000253475204469722873292C2091
:1058F0002531306C75204B4220667265650A0000C8
:10590000B8030010667074723D256C7528307825D8
:105910006C58290A00000000F80B00105146FE48A0
:105920000A9A01F005FA0AF1100A0F9800287FF48C
:105930006DAF00BF77E20FA910A801F005FE00B916
:1059400071E24FF000000E90F449086028E0F4493D
:105950000F980968884209D3F14800680A90F04915
:105960000F980968A0EB01000F9004E00F980A90CF
:105970004FF000000F900BABE749EA480A9AFFF797
:10598000EBF806461EB1304601F0B4FA0BE00B9975
:105990000E9808440E90DDE90A01884200D002E02A
:1059A0000F980028D3D100BFDC48D0F800904A46B9
:1059B000DDA00E9901F045FED749E4A001F041FEBB
:1059C00031E20FA910A801F0BFFD00B92BE203E0FE
:1059D000109800F101001090109800782028F7D05E
:1059E000109801F082FE80464FF000000E90CB49E7
:1059F000086023E00F98404506D3CDF828800F9823
:105A0000A0EB08000F9004E00F980A904FF0000000
:105A10000F900BABC3480A9A1099FFF7C9FB0646D3
:105A20001EB1304601F066FA0BE00B990E9808445F
:105A30000E90DDE90A01884200D002E00F980028AC
:105A4000D8D100BFB548D0F800904A46C5A00E99FD
:105A500001F0F7FDE7E103E0109800F1010010907C
:105A6000109800782028F7D02021109801F023FE0C
:105A7000074607B9D7E14FF0000007F8010B01E036
:105A800007F1010738782028FAD039461098FFF737
:105A900085F9044601F02EFAC5E103E0109800F103
:105AA00001001090109800782028F7D01098FFF788
:105AB000D5FA044601F01EFAB5E19A48FFF779FAE3
:105AC000044601F017FAAEE103E0109800F101007E
:105AD0001090109800782028F7D01098FEF73AFE22
