:020000040000FA
:1000000018060010F90000000101000003010000C3
:1000100005010000070100000901000000000000C8
:100020000000000000000000000000000B010000C4
:100030000D010000000000000F0100001101000090
:100040001301000013010000130100001301000060
:100050001301000013010000130100001301000050
:100060001301000013010000130100001301000040
:100070001301000000000000130100001301000044
:100080001301000013010000130100001301000020
:100090001301000013010000130100001301000010
:1000A000130100004D3D000013010000130100008A
:1000B00013010000130100001301000013010000F0
:1000C00013010000130100001301000013010000E0
:1000D00013010000130100001301000013010000D0
:1000E00013010000DFF80CD004F06EFD004800475B
:1000F0007F49000018060010064880470648004760
:10010000FEE7FEE7FEE7FEE7FEE7FEE7FEE7FEE7C7
:10011000FEE7FEE7D5050000E500000070B50646E5
:100120000D4636B1012E12D0022E1ED0032E3ED126
:1001300029E04848006820F01F0405F01F0040EA4D
:1001400004044548C0F8044100F0DAF831E04348BF
:10015000006820F01F0405F01F0040EA04043E4838
:10016000C0F8A84100F0CCF823E03D48006820F03A
:10017000010405F0010040EA04043748C0F80041DA
:1001800000F0BEF815E03748006820F01F0405F0C5
:100190001F0040EA04043048D0F8080105F01F01B0
:1001A00040EA01002F49086000F0AAF801E000BF12
:1001B000FEE700BF70BD014631B1012907D0022919
:1001C00008D003290CD108E0274800687047274869
:1001D0000068FBE726480068F8E726480068F5E76E
:1001E00000BFFEE7012907D1234A126842EA000254
:1001F000194BC3F8C42007E031B91F4A126822EA3C
:100200000002154BC3F8C42070474FF000001B4993
:10021000086030BF70474FF00400194908604FF084
:1002200000001649086030BF70474FF004001449C1
:1002300008604FF001001149086030BF70474FF06F
:1002400004000F4908604FF003000C49086030BFFC
:100250007047000004C10F4000C00F40A8C10F400C
:1002600000C10F4008C10F40000000100400001042
:10027000080000100C000010C4C00F40C0C00F40A8
:1002800010ED00E02DE9F05F0546002092469B4608
:1002900088460646814640241BE02846414647469C
:1002A000224604F080FC52465B46801A994110D3E6
:1002B00010461946224604F067FC2D1A67EB010828
:1002C0004F4622460120002104F05EFC17EB000996
:1002D0004E41201EA4F10104DFDC484631462A4687
:1002E0004346BDE8F09F02E008C8121F08C1002A7B
:1002F000FAD170477047000000000000FFFFFFFFC9
:1003000030B5E848006810F4807F74D1E5480830C3
:10031000006810F0010F2FD1E248006810F01F0FA5
:1003200002D14FF0000006E0DE48006800F01F0038
:10033000DD49B1FBF0F0DD490860DA48A43000681F
:1003400010F01F0F02D14FF0000006E0D8480068FF
:1003500000F01F00D449B1FBF0F0D6490860D64840
:10036000006800F0010000F10100D0490968B1FB0C
:10037000F0F0D2490860C8E0CD480838006810F0B5
:10038000400F08D14FF00000C8490860C949086013
:10039000CA490860B9E0C348006810F01F0F02D1D5
:1003A0004FF0000006E0BF48006800F01F00BE49A3
:1003B000B1FBF0F0BD490860BD48006810F01F0FA8
:1003C00002D14FF0000006E0B948006800F01F00BD
:1003D000B549B1FBF0F0B7490860B748006800F0D4
:1003E000010000F10100B1490968B1FBF0F0B34927
:1003F00008608AE0FFE7B0487838006810F4807F32
:1004000008D14FF00000A9490860AA490860AB492B
:1004100008607AE0A3480830006810F0010F32D17C
:10042000A74C246804F01F0404F10100A54CD4F883
:10043000044104F01F019E4C246804F01F02A14CEB
:10044000D4F8004104F0010404F1010311B94FF0A4
:10045000000404E0944C00FB04F4B4FBF1F4934D6D
:100460002C6012B94FF0000404E08F4C00FB04F440
:10047000B4FBF2F48F4D2C608C4C2468B4FBF3F485
:100480008E4D2C6041E08A480838006810F0400F1B
:1004900008D14FF000008549086086490860874907
:1004A000086032E0864C246804F01F0404F1010067
:1004B000844CD4F8044104F01F017D4C246804F0FE
:1004C0001F02804CD4F8004104F0010404F1010340
:1004D00011B94FF0000404E0734C00FB04F4B4FBCA
:1004E000F1F4724D2C6012B94FF0000404E06E4C30
:1004F00000FB04F4B4FBF2F46E4D2C606B4C2468EA
:10050000B4FBF3F46D4D2C6000BF6648001D00681D
:1005100010F4807F36D06348001D006810F01F0083
:1005200004D0042807D0062826D105E04FF00000AB
:100530006549086025E000BF614A126802F01F02A9
:1005400002F101005F4AD2F8082102F01F015F4A60
:10055000126812F0010F07D0534A00FB02F2B2FBFF
:10056000F1F2594B1A6006E04F4A00FB02F2B2FB6F
:10057000F1F2554B1A6004E04FF000005249086058
:1005800000BF26E04748001D006810F4007F1CD023
:100590004E48006810F0010F0BD04D48006800F085
:1005A0001F0000F10100404900FB01F046490860CE
:1005B0000FE04348006800F01F0000F101003A49D5
:1005C00000FB01F04049086003E04FF000003E49A5
:1005D000086030BD00B54FF021003E49086000BF03
:1005E0003C48006810F0400FFAD04FF00100374946
:1005F00008604FF009003349C1F884004FF0010052
:10060000354908604FF0AA00344908604FF05500A2
:10061000086000BF2A48006810F4806FFAD04FF0DD
:1006200023002F4908604FF001002649C1F8A000BF
:100630004FF0AA002B4908604FF055002149C1F83E
:10064000AC0000BF2248006810F4806FFAD040F27E
:1006500001101449086040F201201A49C1F808014C
:100660004FF00100144908604FF002001049086083
:100670001D481E4908604FF480701249C1F8C80136
:100680000846D0F8B00140F003001949086045F26F
:100690003A000C4908604FF0000016490860FFF767
:1006A0002FFE00BD04C10F40001BB700000000106A
:1006B000A8C10F400400001000C10F400800001046
:1006C00088C00F4000C00F400C0000100CC10F404C
:1006D000A8C00F40A0C10F4080C00F408CC00F4089
:1006E000A4C00F40ACC00F40DE872804C4C00F4038
:1006F000B0C10F4008ED00E013B504464FF0010310
:100700001A4601A9204601F0D9F81CBD38B50446A7
:100710004FF0000000904FF001031A466946204652
:1007200001F03CF99DF8000038BD70B505460C4657
:100730000CB9002070BD002301222146284601F09B
:100740002DF908B10120F5E70020F3E770B5064662
:100750000D462C4604E014F8011B3046FFF7CCFF91
:1007600020780028F7D170BD2DE9FF4F83B00C46EB
:1007700015461E464FF0000002900190002D03DC4C
:10078000306007B0BDE8F08F4FF00009012C02D1B6
:100790004FF0100005E014B94FF00A0001E04FF0EF
:1007A0000000C7B21FB94FF000003060E9E74FF01A
:1007B000000889E04FF00100019003461A4602A9A3
:1007C000039801F0EBF89DF80800302808DB9DF84D
:1007D0000800392804DC9DF80800A0F1300B39E04E
:1007E000012C34D14FF010079DF80800612811D07A
:1007F00008DCA0F14100062824D2DFE800F00C104C
:1008000014181C20623805281CD2DFE800F0070B02
:100810000F13170000BF4FF00A0B17E000BF4FF097
:100820000B0B13E000BF4FF00C0B0FE000BF4FF0BD
:100830000D0B0BE000BF4FF00E0B07E000BF4FF0B9
:100840000F0B03E04FF00000019000BF02E04FF0FB
:10085000000001904FF0010000900198B0B924B958
:10086000F2A10398FFF772FF05E0012C03D1FA49CA
:100870000398FFF76BFF09F10109B9F10A0F23D3C0
:10088000F6A10398FFF762FF00207AE79DF80810B1
:100890000398FFF731FF012D03D12F462846009022
:1008A0000BE04FF0010A06E00098784300900AF14F
:1008B000010000F0FF0AAA45F6DB00980BFB00FBE5
:1008C000D844A5F10100C5B2002D3FF773AFC6F8BB
:1008D0000080012055E770B504460D4629462046A4
:1008E000FFF734FFE9A12046FFF730FF70BD2DE987
:1008F000F04105460C464FF00A0094FBF0F100FB76
:100900001140C6B24FF00A0094FBF0F04FF00A011C
:1009100090FBF1F201FB1200C7B24FF0640094FBB0
:10092000F0F090FBF1F201FB120000F0FF0808F17B
:100930003000C1B22846FFF7DFFE07F13000C1B238
:100940002846FFF7D9FE06F13000C1B22846FFF76E
:10095000D3FEBDE8F0812DE9F04705460C464FF087
:100960000A0094FBF0F100FB1140C6B24FF00A0000
:1009700094FBF0F04FF00A0190FBF1F201FB120042
:10098000C7B24FF0640094FBF0F090FBF1F201FB72
:10099000120000F0FF084FF47A7094FBF0F090FB27
:1009A000F1F201FB120000F0FF0942F2107094FB1B
:1009B000F0F090FBF1F201FB120000F0FF0A0AF1E7
:1009C0003000C1B22846FFF797FE09F13000C1B2EE
:1009D0002846FFF791FE08F13000C1B22846FFF724
:1009E0008BFE07F13000C1B22846FFF785FE06F105
:1009F0003000C1B22846FFF77FFEBDE8F0872DE941
:100A0000F34F83B00C464FF00A00B4FBF0F100FB4B
:100A10001140C5B24FF00A00B4FBF0F04FF00A01EC
:100A2000B0FBF1F201FB1200C6B24FF06400B4FB60
:100A3000F0F0B0FBF1F201FB1200C7B24FF47A7094
:100A4000B4FBF0F0B0FBF1F201FB120000F0FF0884
:100A500042F21070B4FBF0F0B0FBF1F201FB1200B7
:100A600000F0FF098A48B4FBF0F0B0FBF1F201FBA3
:100A7000120000F0FF0A8748B4FBF0F0B0FBF1F27F
:100A800001FB120000F0FF0B8348B4FBF0F0B0FB59
:100A9000F1F201FB1200C0B202908048B4FBF0F00A
:100AA000B0FBF1F201FB1200C0B201907C48B4FB34
:100AB000F0F0B0FBF1F201FB1200C0B20090009820
:100AC00000F13000C1B20398FFF716FE01983030F4
:100AD000C1B20398FFF710FE02983030C1B20398FC
:100AE000FFF70AFE0BF13000C1B20398FFF704FED6
:100AF0000AF13000C1B20398FFF7FEFD09F13000A2
:100B0000C1B20398FFF7F8FD08F13000C1B20398B5
:100B1000FFF7F2FD07F13000C1B20398FFF7ECFDDB
:100B200006F13000C1B20398FFF7E6FD05F1300091
:100B3000C1B20398FFF7E0FD05B0BDE8F08F2DE9E5
:100B4000F04107460D464FF0010600BF4FEA860010
:100B500045FA00F000F00F04092C02DD04F1370023
:100B600001E004F13000C1B23846FFF7C5FD3000A6
:100B7000A6F10101CEB2E9D1BDE8F0812DE9F04145
:100B800007460D4647A13846FFF7E0FD4FF0010646
:100B900000BF4FEA860045FA00F000F00F04092C70
:100BA00002DD04F1370001E004F13000C1B2384643
:100BB000FFF7A2FD3000A6F10101CEB2E9D1BDE8F8
:100BC000F0812DE9F04107460D464FF0030600BFC6
:100BD0004FEA860045FA00F000F00F04092C02DD10
:100BE00004F1370001E004F13000C1B23846FFF7EC
:100BF00083FD3000A6F10101CEB2E9D1BDE8F0815C
:100C00002DE9F04107460D4626A13846FFF79EFD27
:100C10004FF0030600BF4FEA860045FA00F000F0EF
:100C20000F04092C40DD04F137003FE0506C656192
:100C3000736520656E74657220612063686172203F
:100C400066726F6D2027302720746F202739272187
:100C500021210D0A00000000584C0000526561631C
:100C600068206C696D69746174696F6E206F6620AD
:100C700072652D74726965732E2052657475726E7B
:100C8000204641494C45440D0A0000000A0D000071
:100C9000A086010040420F008096980000E1F50513
:100CA00000CA9A3B3078000004F13000C1B23846E7
:100CB000FFF722FD3000A6F10101CEB2ABD1BDE8B5
:100CC000F0812DE9F04107460D464FF0070600BFC1
:100CD0004FEA860025FA00F000F00F04092C02DD2F
:100CE00004F1370001E004F13000C1B23846FFF7EB
:100CF00003FD3000A6F10101CEB2E9D1BDE8F081DB
:100D00002DE9F04107460D46AFF268013846FFF77E
:100D10001DFD4FF0070600BF4FEA860025FA00F0E0
:100D200000F00F04092C02DD04F1370001E004F1AA
:100D30003000C1B23846FFF7DFFC3000A6F10101F8
:100D4000CEB2E9D1BDE8F0811CB50122022100201C
:100D500000F0D3F801220321002000F0CEF868460D
:100D600000F06FFD6946002000F0DFFB012100204C
:100D700000F0FBFCAFF22B601D490860AFF2A94008
:100D80001C490860AFF28F601B490860AFF2132066
:100D90001A490860AFF2971019490860AFF29F0036
:100DA00018490860AFF2692017490860AFF2ED10EA
:100DB00016490860AFF2F50015490860AFF2D1405E
:100DC00014490860AFF2714013490860AFF2D130A6
:100DD00012490860AFF2CB6011490860AFF277604A
:100DE00010490860AFF2BD600F4908601CBD0000EB
:100DF000100000101400001018000010280000104F
:100E00002C000010300000103400001038000010DA
:100E10003C0000101C0000102000001024000010F6
:100E200040000010480000104400001010B50246B9
:100E30004FF0000001EB4213FB4C04EB830010BDAC
:100E400002464FF00500062A54D2DFE802F00334D0
:100E500040414245062907DD0A2901DB0B2903DD54
:100E60000E2904DB162902DC4FF0000022E00C29D9
:100E700005D00D2903D0172904DB1A2902DC4FF015
:100E8000010017E01D2903D01E2901D01F2902D11E
:100E90004FF002000EE01B2901D01C2902D14FF0B7
:100EA000030007E0072903D0082901D0092901D14F
:100EB0004FF004001FE01D2902DC4FF0000005E0A8
:100EC0001E2901D01F2901D14FF0010013E000BFFE
:100ED00000BF4FF000000EE0012901DD042902D11E
:100EE0004FF0000005E0022901D0032901D14FF0A5
:100EF000030000E000BF00BF70472DE9F041064647
:100F00000F4615464FF0000439463046FFF798FF6C
:100F10008046B8F1050F02D1C448BDE8F0813946DA
:100F20003046FFF783FF0446206820F0070020606A
:100F300005F00701206840EA010020604FF0000042
:100F4000EBE72DE9F0410746884616464FF00004CE
:100F500041463846FFF774FF0546052D02D1B348D8
:100F6000BDE8F08135B1012D04D0042D02D0AF4889
:100F7000401CF5E741463846FFF758FF0446206815
:100F800020F0180020604FF0180101EAC601206827
:100F900040EA010020604FF00000E1E72DE9F04158
:100FA0000746884616464FF0000441463846FFF78C
:100FB00047FF0546052D02D19C48BDE8F08125B1CB
:100FC000042D02D09948401CF7E741463846FFF708
:100FD0002DFF044626B9206820F02000206003E0A1
:100FE000206840F0200020600020E6E72DE9F04175
:100FF0000746884615464FF0000441463846FFF73D
:101000001FFF0646052E02D18848BDE8F081022E5A
:1010100002D18648401CF8E741463846FFF706FFF4
:10102000044625B9206820F04000206003E02068D5
:1010300040F0400020600020E7E72DE9F04107463E
:10104000884616464FF0000441463846FFF7F8FE42
:101050000546052D02D17548BDE8F08125B1042D66
:1010600002D07248401CF7E741463846FFF7DEFEE3
:10107000044626B9206820F40070206003E0206850
:1010800040F4007020600020E6E72DE9F0410746BB
:10109000884615464FF0000441463846FFF7D0FE1B
:1010A0000646052E02D16148BDE8F081032E02D02C
:1010B0005E48401CF8E741463846FFF7B7FE044655
:1010C00025B1206820F48070206003E0206840F49F
:1010D000807020600020E7E72DE9F0410746884650
:1010E00015464FF0000441463846FFF7A9FE064674
:1010F000052E02D14D48BDE8F081032E02D04B48A9
:10110000401CF8E741463846FFF790FE044625B1FB
:10111000012D0CD0022D1ED113E00122414638468C
:10112000FFF7B3FF206820F40070206016E0002273
:1011300041463846FFF7A9FF206820F40070206080
:101140000CE0012241463846FFF79FFF206840F43B
:101150000070206002E04FF0FF30CCE700BF0020BD
:10116000C9E72DE9F0410746884616464FF00004CE
:1011700041463846FFF764FE0546052D02D12B484F
:10118000BDE8F08135B1012D04D0042D02D02748EF
:10119000401CF5E741463846FFF748FE044626B9AD
:1011A000206820F48060206003E0206840F48060C4
:1011B00020600020E4E72DE9F04107468846154607
:1011C0004FF0000441463846FFF73AFE0646052E2A
:1011D00002D11648BDE8F081012E02D01348401C10
:1011E000F8E741463846FFF721FE044625B120685E
:1011F00020F08000206003E0206840F08000206044
:101200000020E7E72DE9F04105460E4617464FF06E
:10121000000431462846FFF713FE8046B8F1050F5B
:1012200006D10248BDE8F08100C002400100001074
:101230000DB91A2E01D01E48F4E731462846FFF7B3
:10124000F5FD044627B1206840F48030206003E0BB
:10125000206820F4803020600020E3E72DE9F04191
:101260000746884616464FF0000441463846FFF7C9
:10127000E7FD0546052D03D10D48401EBDE8F08170
:10128000012D03D0042D01D00948F7E74146384627
:10129000FFF7CCFD044626B1206820F48070206062
:1012A00003E0206840F4807020600020E6E7000042
:1012B0000200001001464FF0000021B1022904D0C5
:1012C000032906D103E0FF4804E0FF4802E0FF489D
:1012D00000E000BF00BF70472DE9F34F95B08B468B
:1012E0004FF0000009904FF00100FEF764FF0890F6
:1012F0004FF0FF3003904FF000000690059001463C
:101300000C460D464FF0010858E04FF000000790E2
:101310004BE00798404400FB0BFA00211C22089880
:10132000CDE90C1003F030FC0022A0FB083C01FBCF
:1013300008C100FB02105246CDE900300023DDE970
:101340000001FEF79FFF06460F4604964FF020026D
:1013500030463946CDE90A7603F025FC81460498EB
:10136000B0F1004F05D90498C0F10000049009F1D4
:101370000109B9F1000F02D0B9F5803F00D910E0A2
:10138000DDE9031088420BD2049803904FF000056A
:101390004C4607980690CDF81480039800B907E0F2
:1013A00000BF079800F10100079007984045B0D3AF
:1013B00000BF039800B904E008F10108B8F10F0F6D
:1013C000A3D900BF002184EA01006940084302D18B
:1013D00017B0BDE8F08F08980009059900FB01FCE3
:1013E0000846069908440021A0FB042301FB0431B0
:1013F00000FB05100346CDE9002060460021FEF702
:1014000041FF02900298834504D90298ABEB00009B
:10141000039003E00298A0EB0B0003904FF06401EF
:10142000039800FB01F0B0FBFBF003900398032846
:1014300079D21598012822D1A548007B40F0800080
:10144000A34908734FF0080220462946CDE90E54FF
:1014500003F0A9FB9E4908710C700846007B00F060
:101460007F0008734FF0F001059801EA001006991B
:1014700001F00F0140EA01009549886250E015989B
:10148000042824D19348C06840F080009149C86086
:101490004FF0080220462946CDE9105403F083FBA3
:1014A000C0B28C494860E0B208600846C06800F0ED
:1014B0007F00C8604FF0F001059801EA001006991E
:1014C00001F00F0140EA01008249886228E0159886
:1014D000FFF7F0FE82469AF80C0040F080008AF890
:1014E0000C004FF0080220462946CDE9125403F0C3
:1014F0005AFB8AF804008AF800409AF80C0000F0C1
:101500007F008AF80C004FF0F001059801EA001006
:10151000069901F00F0140EA01008AF8280000BF97
:101520004FF001000990099852E72DE9F041064675
:101530000F46052E40D2DFE806F003400405740094
:1015400000BF00BF3046FFF7B5FE054626B90121B2
:101550000820FEF747FE0CE0022E04D10121080608
:10156000FEF740FE05E0032E03D101214806FEF7F9
:1015700039FE4FF0070028724FF00000287200E09B
:101580002C78287D10F0010FFAD14FF0800085F8FB
:10159000300000BF287D10F0200FFBD04FF000007E
:1015A00085F8300068602873286285F84C0085F85B
:1015B000540085F850002C7D60E001211020FEF7DA
:1015C00011FE4FF00700424908724FF00000087208
:1015D00001E03F4804783E48007D10F0010FF8D14B
:1015E0004FF080003C49087000BF3948007D10F082
:1015F000200FFAD04FF00000374908703449486096
:101600000873086281F84C0034490870304981F849
:1016100050000846047D4FF0000008740846047E20
:101620002CE001210802FEF7DDFD4FF007002949FB
:1016300088604FF00000886001E026480468254873
:10164000406910F0010FF8D14FF001002149C86541
:1016500000BF2048406910F0200FFAD04FF0000082
:101660001C49C8654860C8600862C8644865086568
:10167000084644694FF00000486200BF00BF304692
:101680003968FFF729FE012E04D11148007B00F0D4
:10169000C0040EE0042E04D10E48C06800F0C0045F
:1016A00007E03046FFF706FE0546287B00F0C00441
:1016B00000BF7879A0B1012814D0022815D00328E2
:1016C00016D116E000C000400080094000C009406B
:1016D0000000014000400A40300001405400014039
:1016E00000BF09E044F0010406E044F0020403E016
:1016F00000BF44F0030400BF00BF3879C0B144F01C
:1017000008043879012806D0022806D0032807D01B
:1017100004280BD107E000BF09E044F0100406E004
:1017200044F0200403E044F0300400E000BF00BFB8
:10173000B87928B1012802D144F0040401E000BFC7
:1017400000BF00BF012E02D1FC490C730BE0042E38
:1017500003D1E0B2FA49C86005E03046FFF7AAFDC0
:1017600005462C7300BFBDE8F08170B504460D46F8
:10177000012D1DD1012C07D1F248007840F08000E6
:10178000EE4981F8300031E0042C06D1EC48C06D00
:1017900040F00100EA49C86528E02046FFF78AFDCD
:1017A000064696F8300040F0800086F830001DE0D4
:1017B000012C07D1E34800784FF00000DF4981F8A1
:1017C000300013E0042C06D1DD48C06D4FF000005E
:1017D000DB49C8650AE02046FFF76CFD064696F82F
:1017E00030004FF0000086F8300000BF70BD10B52B
:1017F00004464FF000012046FFF7B7FF24B900214F
:101800000820FEF7EFFC1BE0012C04D10021102082
:10181000FEF7E8FC14E0022C04D10021E005FEF7FD
:10182000E1FC0DE0032C05D100214FF00070FEF724
:10183000D9FC05E0042C03D10021A001FEF7D2FC65
:1018400010BD4FF4E13101604FF0030141714FF0E1
:101850000001017181717047052813D2DFE800F0A3
:101860000306090C0F00B84A11700BE0B34A11705F
:1018700008E0B64A117005E0B54A117002E0B04ABE
:10188000116000BF00BF70470146052914D2DFE890
:1018900001F00306090C0F00AB4800787047A74819
:1018A0000078FBE7A9480078F8E7A9480078F5E751
:1018B000A3480068C0B2F1E70020EFE72DE9FF4F31
:1018C000074691469A46019E4FF0000B052F13D212
:1018D000DFE807F00306090C0F00DFF878B20BE031
:1018E000DFF874B208E0DFF874B205E0DFF870B238
:1018F00002E0DFF870B200BF00BF4B46BAF1010F43
:1019000029D14FF0000423E04FF0FF3805E0B8F193
:10191000000F00D106E0A8F10108DBF8000010F08C
:10192000200FF4D000BFB8F1000F00D112E04FF04B
:1019300010050AE016F8011B3846FFF78DFFA5F1E8
:101940000105A3F1010304F101040DB1002BF1D154
:10195000002BD9D11EE04FF0000418E003B918E0C5
:10196000DBF8000010F0200F00D112E04FF010055E
:101970000AE016F8011B3846FFF76EFFA3F10103DA
:10198000A5F1010504F101040DB1002BF1D1002BEB
:10199000E4D100BF204604B0BDE8F08F2DE9F04748
:1019A00005460F46904699463C464FF0000A052DE5
:1019B00013D2DFE805F00306090C0F00DFF894A14D
:1019C0000BE0DFF894A108E0DFF890A105E0DFF874
:1019D00090A102E0DFF88CA100BF00BF4246B9F140
:1019E000010F1DD14FF0000317E04FF0FF3603E069
:1019F00006B906E0A6F10106DAF8000010F0010FC2
:101A0000F6D000BF06B90AE02846FFF73DFF04F80C
:101A1000010BA2F1010203F10103002AE5D114E058
:101A20004FF000030EE0DAF8000010F0010F00D1D3
:101A30000AE02846FFF728FF04F8010B03F1010331
:101A4000A2F10102002AEED100BF1846BDE8F087DE
:101A5000052827D2DFE800F0030A11181F003A49D1
:101A6000097B41F04001384A11731BE03349097B7F
:101A700041F04001314A117314E03449097B41F0CF
:101A80004001324A11730DE03149097B41F04001B8
:101A90002F4A117306E02A49C96841F04001284ADB
:101AA000D16000BF00BF7047F0B503460C464FF051
:101AB00000010D46052B18D2DFE803F003070B0FDA
:101AC0001300294940F207350FE0284940F28F35CD
:101AD0000BE0274940F2073507E0264940F2073579
:101AE00003E0254940F2073500BF00BF072C1AD29A
:101AF000DFE804F004070A0D101316004FF0010090
:101B000011E04FF002000EE04FF004000BE04FF048
:101B1000080008E04FF0800005E04FF4807002E01C
:101B20004FF4007000BF00BF012A27D10E6800EA01
:101B3000050746EA07060E6026E0000000000140A7
:101B400000400A403000014000C0004000800940D1
:101B500000C0094014C00040140001401480094036
:101B600014C0094014400A4004C000400400014071
:101B70000480094004C0094004400A400E6825EA78
:101B8000000706EA07060E60F0BD0146052914D2DB
:101B9000DFE801F00306090C0F00FB48007D7047E9
:101BA000FA48007DFBE7FA48007DF8E7F948007D38
:101BB000F5E7F9484069C0B2F1E70020EFE70146D8
:101BC000052922D2DFE801F003090F151B00EE48BA
:101BD000806840F2CF3210407047EC48806840F295
:101BE000CF321040F8E7EA48806840F2CF32104028
:101BF000F2E7E848806840F2CF321040ECE7E64870
:101C0000806840F2CF321040E6E70020E4E701466A
:101C10004FF0000205291DD2DFE801F003080D1284
:101C20001700D948007D00F0400213E0D748007D3E
:101C300000F040020EE0D648007D00F0400209E0CE
:101C4000D448007D00F0400204E0D348406900F031
:101C5000400200BF00BF12F0400F01D000207047CB
:101C60000120FCE710B502464FF0000040F00100F3
:101C7000CB7833B1012B06D0022B07D0032B08D130
:101C800008E000BF09E040F0400006E040F08000BE
:101C900003E000BF40F0C00000BF00BF4B78012B45
:101CA00001D140F004000B78012B01D140F002007B
:101CB0008B78012B01D140F00800052A1DD2DFE806
:101CC00002F003080D12170000F0CF03AE4C237290
:101CD00013E000F0CF03AD4C23720EE000F0CF0311
:101CE000AB4C237209E000F0CF03AA4C237204E04E
:101CF00000F0CF03A84CA36000BF00BF10BD4FF0A1
:101D000000018170C1704FF0010101704170704796
:101D10002DE9F0410746884615464FF00006012D93
:101D20000BD198F80000012801D146F0020698F87E
:101D30000100012801D146F00406012F1CD1012D1C
:101D400015D19248007B40F08000904908734FF015
:101D50000000087008710846007B20F080000873BE
:101D60004FF01000886246F00100086241E04FF039
:101D70000000864908623CE0042F1CD1012D15D1DA
:101D80008548C06840F080008349C8604FF000007B
:101D9000086048600846C06820F08000C8604FF0C6
:101DA0001000886246F00100086222E04FF0000057
:101DB000794908621DE03846FFF77CFA0446012D98
:101DC00013D1207B40F0800020734FF00000207082
:101DD0002071207B20F0800020734FF0100084F8E9
:101DE000280046F00100206202E04FF0000020626F
:101DF00000BFBDE8F08170B505460C46012D06D147
:101E00006248006A40EA04006049086211E0042D5B
:101E100006D16148006A40EA04005F49086208E0B0
:101E20002846FFF747FA0646306A40EA0400306267
:101E300000BF70BD042800D07047012906D1564A62
:101E4000526A42F00202544B5A6206E029B9524AE1
:101E5000526A02F03D02504B5A6200BFECE7042880
:101E600000D07047012906D14B4A526A42F0010264
:101E7000494B5A6205E0484A526A02F03E02464B1C
:101E80005A6200BFEDE730B5042800D030BD4FEAFC
:101E900041744FEA9463404C646A24F0380243F082
:101EA000040444EA020202F03F043B4D6C6200BFAE
:101EB000ECE730B54FF00003012800D030BD11B180
:101EC000012906D102E04FF0010303E04FF00203C5
:101ED00000E000BF00BF012A06D12C4C247C44EA5C
:101EE00003042A4D2C7409E0284C247C4FF0F305A0
:101EF00025EA030504EA0504244D2C7400BFDDE740
:101F000030B50346012B00D030BD21B1012905D0E9
:101F1000022909D105E04FF0100006E04FF0400023
:101F200003E04FF0800000E000BF00BF012A06D1AF
:101F3000164C247C44EA0004144D2C7409E0134C24
:101F4000247C4FF0F30525EA000504EA05040F4D53
:101F50002C7400BFD8E70146012901D0002070474A
:101F60000A48007EFBE72DE9F05F07460C464FF07C
:101F70000005012F16D1DFF82480A8F10409084ECE
:101F8000A9F1040A25E0000000C000400000014063
:101F90000080094000C0094000400A405400014050
:101FA0000C000140042F07D1DFF87481A8F1040967
:101FB0005C4EA9F1040A0CE03846FFF77BF9834632
:101FC0000BF154080BF150090BF10C060BF14C0A04
:101FD00000BFE078012810D145F010056079012894
:101FE00001D145F020052079012803D1012F01D12D
:101FF00045F00805E079C8F800002078012801D1F3
:1020000045F00105A078012804D145F00405A07928
:10201000C9F80000607808B945F0020505F03F00F6
:10202000CAF80000306840F038003060BDE8F09F2A
:102030002DE9F04105460E46012D01D13A4C0AE04A
:10204000042D01D1364C06E02846FFF733F9074648
:1020500007F1540400BF012E04D1206820F00200D3
:10206000206003E0206840F002002060BDE8F081BD
:102070002DE9FF4F81B007468B469846012F02D1CC
:102080002A4C2B4D0DE0042F02D1264C294D08E09F
:102090003846FFF70FF982460AF10C040AF11405DD
:1020A00000BFB8F1000F15D02068C6B2B14629F0C4
:1020B0001009C4F800904FF0010359463846039ABE
:1020C000FFF7FCFB009000BF286810F0400FFBD02A
:1020D00026600BE0012359463846039AFFF7EEFBD2
:1020E000009000BF286810F0400FFBD0009805B0AA
:1020F000BDE8F08F13B504464FF001031A4601A95D
:102100002046FFF7B5FF1CBD70B504460D461646C8
:102110004FF00003324629462046FFF7A9FF70BD65
:1021200054400A400C400A40540001400C00014059
:102130001400014014400A40014611B1012904D1A4
:1021400001E0FF4804E0FF4802E04FF0000000BF5C
:1021500000BF70472DE9F05F05460E464FF00007BF
:10216000BB464FF00100FEF726F88346BBFBF6F7AF
:102170004FF0180421E0B7FBF4F004FB1070C8B96D
:10218000B7FBF4F0A0F1010AA4F10100C4B24FF0D2
:10219000030094FBF0F0A0F1010000F0FF094FF004
:1021A000030094FBF0F0A4EB0000A0F1010000F0AC
:1021B000FF0804E0A4F10200C4B2002CDBDC00BF85
:1021C0004FF0010028604FEA095040EA084040F40F
:1021D000404040EA0A0068614FF000002860BDE816
:1021E000F09F2DE9F04105460F462846FFF7A4FF72
:1021F000044625B901214803FDF7F4FF08E0012D4D
:1022000004D101218803FDF7EDFF01E0BDE8F08175
:102210004FF0010020604FF000002061A0604FF0FF
:102220000E006060E06886B24FF0000020604FF062
:102230000100C54908604FF0000607E04FF00000BC
:10224000C24941F8260006F1010086B2B6F5007FCA
:10225000F4DB4FF00000BC4948608860C86008614A
:102260004861086039462046FFF774FF00BFCDE79C
:1022700010B504462CB900214FF40050FDF7B2FF11
:1022800005E0012C03D10021A003FDF7ABFF10BD39
:102290002DE9FF4F01464FF000024FF00100DFF83B
:1022A000A8B2CBF80000086828B91046DFF8A0B241
:1022B0008BF8000091E04FF00100DFF894B28BF84A
:1022C00000004FF0000484E0501C402803DD022091
:1022D00004B0BDE8F08F086803780868458808688E
:1022E00090F801C04FF000069A48008810F0010FE6
:1022F00038D17AB1A2F10100DFF850B25BF820705A
:102300004EF2FF7B07EA0B0945EA4330484501DA04
:102310000520DDE74FEA437040EA0C7040EA0540D3
:1023200040F00066894850F8220080B2DFF81CB205
:102330004BF82200584650F8220040EA06004BF8BD
:1023400022008448008800F10100DFF808B2ABF8F1
:1023500000000879BBF800B0584533D102F1010004
:1023600082B22FE0794850F822704EF2FF7000EAF6
:10237000174945EA4330484501DA0520A8E74FEA06
:10238000433040EA0C3040EA050040F400666F48F4
:1023900050F822006FF30F00DFF8B0B14BF82200C5
:1023A000584650F8220040EA06004BF8220002F19D
:1023B000010082B26748008800F10100DFF894B1A3
:1023C000ABF80000086800F10400086004F10100A7
:1023D00084B20879A0423FF777AF886800287ED0A2
:1023E0004FF0000483E0501CB0F5007F01DD0220B7
:1023F0006EE78868037888684588886890F801C027
:102400004FF000065448008810F0010F38D15248B0
:10241000008878B1A2F10100DFF830B15BF82070DC
:102420004EF2FF7B07EA0B0945EA4330484501DAE3
:1024300005204DE74FEA437040EA0C7040EA05463C
:10244000424850F8220080B2DFF800B14BF8220079
:10245000584650F8220040EA06004BF822003E4859
:10246000008800F10100DFF8F0B0ABF80000087B55
:10247000BBF800B0584531D102F1010082B22DE025
:10248000324850F822704EF2FF7000EA174945EAD0
:102490004330484501DA05201AE74FEA433040EA65
:1024A0000C3040EA0506294850F822006FF30F006F
:1024B000DFF898B04BF82200584650F8220040EA66
:1024C00006004BF8220002F1010082B22248008887
:1024D00000F10100DFF880B0ABF8000000E00AE096
:1024E000886800F10400886004F1010084B2087B70
:1024F000A0423FF778AF086900286BD04FF0000486
:1025000065E0501CB0F5007F01DD0220E0E60869BF
:102510000378086990F80480086990F801C0086998
:10252000407903900869B0F802A00869C08801905A
:102530004FF000060948008828B3A2F101000FE01F
:10254000004004400080044000C00340008003407D
:10255000560000104C0000104E00001050000010FB
:10256000DFF834B45BF820704EF2FF7B07EA0B090A
:10257000434506D10198824503DC4AEA4330484589
:1025800001DA0520A4E64FEA437040EA0C7040EA05
:102590000A4040EA483B03984BEA0030DDF804B0BB
:1025A00040EA0B06FC4840F82260FC48008800F135
:1025B0000100DFF8E8B3ABF8000002F1010082B2DD
:1025C000086900F10800086104F1010084B2087D87
:1025D000A04296DC8869B8B34FF0000431E0501C8B
:1025E000B0F5007F01DD022072E688694068029044
:1025F000886903784FF00006029840EA4376E8487D
:10260000008848B1A2F10100DFF88CB35BF82070BC
:10261000B74201D905205BE6DF4840F82260E04878
:10262000008800F10100DFF878B3ABF8000002F198
:10263000010082B2886900F10800886104F101009C
:1026400084B2087FA042CADC086AE8B34FF00004F5
:102650004EE0901CB0F5007F01DD022038E6086AEC
:102660000378086A90F80180086AD0F804E0086AE4
:10267000806800904FF00006CA48008880B1A2F13F
:102680000100DFF814B35BF82070434506D10098D1
:10269000864503D84EEA4370B84201D2052017E6BA
:1026A0004EEA4376104602F1010B1FFA8BF2DFF877
:1026B000E8B24BF82060009840EA4876104602F1F4
:1026C000010B1FFA8BF200E016E0DFF8CCB24BF8FA
:1026D0002060B448008800F10100DFF8C8B2ABF810
:1026E0000000086A00F10C00086204F1010084B2E5
:1026F00091F82400A042ACDCAB48008800F1010056
:102700004FEA60004FEA8000DFF8A0B2CBF8040087
:102710005846D0F804B0A648008800F101004FEAFE
:1027200060000BEB8000DFF884B2CBF8080058465D
:102730008068DFF868B2BBF800B000EB8B00DFF810
:102740006CB2CBF80C005846C068DFF854B2BBF846
:1027500000B000EB8B00DFF854B2CBF81000584605
:102760000069DFF840B2BBF800B000EBCB00DFF847
:102770003CB2CBF814008F48007820B94FF000002D
:10278000CBF8000005E04FF00400DFF820B2CBF8F2
:10279000000001209CE52DE9F04707460B469046D6
:1027A0004FF00004254621460A460E468C467E48D8
:1027B000008800EB40097C48008800F1010009EB2B
:1027C00060097B48008800F1010009EB6000DFF838
:1027D000CC91B9F800904844DFF8C491B9F8009062
:1027E0004844DFF8C091B9F8009000EB49000FFAB7
:1027F00080FCBCF5007F02DB0220BDE8F0874FF0D3
:102800000100DFF8A891C9F80000B8F1000F7DD1F0
:10281000C3F30A0343EA47336548008810F0010F09
:1028200022D16148008800F101004FEA6009604848
:10283000008800F1010009EB600001B2ACEB01007F
:1028400006B2554850F8214008E001F1010001B2FC
:10285000514850F8215040F821402C463000A6F154
:1028600001090FFA89F6F0D15148008878B94E482D
:10287000008800F101004FEA600002B24FF6FF70DD
:1028800040EA0340DFF8109149F82200D8E04848B8
:102890000088012827D14448008800F101004FEA50
:1028A000600002B23C4850F822004EF2FF7909EA7B
:1028B000104098420BD9384850F822004FEA104097
:1028C00040EA0340DFF8D09049F82200B8E03248EF
:1028D00050F822006FF30F0040EA0300DFF8B890D1
:1028E00049F82200ACE03048008800F101004FEACE
:1028F000600001B22E48008802B22B48008800F127
:1029000001004FEA60092A48008800E0BBE000F1BE
:10291000010009EB600006B21EE01F4850F82100DC
:102920004EF2FF7909EA1040984203D94FEA41007C
:1029300002B213E0184850F821004EF2FF7900EA85
:102940000900984205D94FF0010000EB410002B2A6
:1029500004E001F1010001B2B142DEDB00BFB1428F
:102960002AD11348008810F0010F08D14FF6FF70EC
:1029700040EA0340DFF8209049F8210060E0064873
:1029800050F821006FF30F0040EA0300DFF80890D1
:1029900049F8210054E0000000800340500000107E
:1029A00052000010540000104C00001000C0034002
:1029B0004E00001056000010FF4850F8214012F061
:1029C000010F04D14FEA034040EA144505E04FEA05
:1029D00014404FEA004040EA0305F74840F8215010
:1029E000F648008800F101004FEA6009F4480088C9
:1029F00000F1010009EB6000A0F1010006B20EE059
:102A000001F1010001B2EC4850F821504FEA1540A5
:102A100040EA0440DFF8A09349F821002C46B14277
:102A2000EEDBE748008810F0010F09D14FF6FF7088
:102A300000EB044901F10100DFF87CA34AF8209083
:102A4000DF48008800F10100DFF87493A9F8000066
:102A5000DC48806800F10400DFF86893C9F80800DA
:102A60004846C06800F10400C9F80C0048460069F7
:102A700000F10400C9F810004846406900F1040064
:102A8000C9F8140050E043EA4773CF48B0F800900B
:102A9000CB48008800F1010009EB6009C7480088B5
:102AA00000F1010009EB600001B24FF000020BE001
:102AB000C14850F82100984200D909E001F1010015
:102AC00001B202F1010002B2C04800888242EFDB8D
:102AD00000BFB94850F8214040F82130BB48008879
:102AE00000F10100DFF8E492A9F8000066460BE06F
:102AF00001F1010001B202F1010002B2AE4850F84A
:102B0000215040F821402C46B242F1DBAD4800692B
:102B100000F10400DFF8AC92C9F8100048464069A3
:102B200000F10400C9F81400A448008830B94FF03F
:102B30000000DFF89092C9F8000005E04FF00400B3
:102B4000DFF88092C9F80000012056E62DE9F84F21
:102B500084460A464FF000031C46984699469A461A
:102B600018460090014607460546064693480088E9
:102B700000EB400B9148008800F101000BEB600B6B
:102B80008F48008800F101000BEB6000DFF838B2DD
:102B9000BBF800B05844DFF834B2BBF800B058447A
:102BA000DFF82CB2BBF800B000EB4B0006B2B6F574
:102BB000FE7F03DA81480088402802DB0220BDE85E
:102BC000F88F4FF00100DFF8FCB1CBF80000C2F342
:102BD0000A024FF4006040EA4C3040EA020082B240
:102BE0007648008810F0010F18D1BEB173480088F4
:102BF0004FEA60013546704850F8213008E001F195
:102C0000010001B26C4850F8214040F821302346C1
:102C10002800A5F1010B0FFA8BF5F0D16748008869
:102C200040B94FF6FF7040EA0240DFF88CB1CBF8B4
:102C30000000ACE06148008801281DD15E480068B2
:102C40004EF2FF7B0BEA104090420AD95A480068C6
:102C50004FEA104040EA0240DFF85CB1CBF80000D8
:102C600095E0554800686FF30F0040EA0200DFF876
:102C700048B1CBF800008AE04FF000014F480088CF
:102C800007B24E480088A0F101004FEA600005B28B
:102C900023E0494850F821004EF2FF7B0BEA104B2D
:102CA0004EF2FF701040834503D94FEA410007B24E
:102CB00015E0414850F821004EF2FF7B00EA0B007E
:102CC00002EA0B0B584505D94FF0010000EB41001B
:102CD00007B204E001F1010001B2A942D9DD00BF51
:102CE000A94219DD3548008810F0010F08D14FF6D0
:102CF000FF7040EA0240DFF8C0B04BF8210046E028
:102D00002D4850F821006FF30F0040EA0200DFF871
:102D1000A8B04BF821003AE0274850F8213017F0CE
:102D2000010F04D14FEA024040EA134405E04FEAA4
:102D300013404FEA004040EA02041F4840F8214097
:102D40001E4800884FEA60050EE001F1010001B263
:102D5000194850F821404FEA144040EA0340DFF898
:102D600058B04BF821002346A942EEDB13480088F7
:102D700010F0010F0BD1104850F821006FF30F0035
:102D80004FF6FF7B5844DFF830B04BF821000B487A
:102D90000088A0EB070005B20848008800EB40005F
:102DA000A6EB000007EB470B584400F1010001B20D
:102DB000014850F821300DE0008003404C00001025
:102DC0004E00001000C003405000001052000010E0
:102DD0005400001001F10100DFF830B45BF820402E
:102DE00001F102005BF820804FF0000001F1020BBE
:102DF000DFF818E44EF82B0001F1010B4EF82B0020
:102E00004EF8210001F1030001B21FE0FF4850F825
:102E1000219001F10100DFF8F4B35BF820A001F18B
:102E200002005BF820000090584640F8213001F184
:102E300001004BF8204001F102004BF820804B4686
:102E40005446DDF8008001F1030001B22800A5F12D
:102E5000010B0FFA8BF5D9D1ED48008800F1010084
:102E6000DFF8ACB3ABF80000EA48406800F10400BA
:102E7000DFF8A0B3CBF804005846806800F10400E6
:102E8000CBF808005846C06800F10400CBF80C00ED
:102E90005846006900F10400CBF81000584640691C
:102EA00000F10400CBF814004FF00400CBF8000050
:102EB0004FF0010083E62DE9FF4F06460C4615460C
:102EC000AC4203D9062004B0BDE8F08FD04800889A
:102ED00000EB400ECE48008800F101000EEB600EC2
:102EE000CD48008800F101000EEB6000DFF82CE314
:102EF000BEF800E07044DFF828E3BEF800E070445C
:102F0000DFF820E3BEF800E000EB4E000FFA80F996
:102F10004FF00100DFF8FCE2CEF800000398002833
:102F200070D1B9F5007F01DB0220CCE7C4F30A04BD
:102F3000C5F30A054FEA467040EA044040EA4630CD
:102F400040EA0502B248008800F101004FEA600E35
:102F5000B148008800F101000EEB600001B2AF48FB
:102F6000008818B9A94840F821205BE0A8480088EB
:102F700000F101004FEA600EA748008800F101004F
:102F80000EEB6000DFF894E2BEF800E0704403B29C
:102F90002AE002E001F1010001B29C4850F8210052
:102FA000400FB0EB527FF5D3984850F8217050F89D
:102FB00021004FEA5070B0EB527F03D9934840F89C
:102FC000212013E0C7F30A4AC7F30A0B554503D87B
:102FD0008E4840F8212009E05C4503D301F101004F
:102FE00001B201E006206EE79942D2DB00BF9942B0
:102FF00004DB864850F8217040F82120A9EB01003D
:1030000003B209E02BE001F1010001B27F4850F862
:10301000218040F8217047461800A3F1010E0FFAF5
:103020008EF3F0D17D48008800F10100DFF8ECE17B
:10303000AEF800007748C06800F10400DFF8D4E182
:10304000CEF80C007046006900F10400CEF81000C4
:103050007046406900F10400CEF81400D5E0B9F5DF
:10306000FF7F01DD02202EE724F0604425F060455B
:1030700044EA467245EA467C6548008800F1010052
:103080004FEA600E6448008800F101000EEB60001A
:10309000DFF888E1BEF800E07044DFF884E1BEF8B4
:1030A00000E0704401B25F48008848B9574840F8D2
:1030B000212001F10100DFF854E14EF820C094E036
:1030C0005348008800F101004FEA600E5248008822
:1030D00000F101000EEB6000DFF840E1BEF800E017
:1030E0007044DFF83CE1BEF800E07044DFF834E102
:1030F000BEF800E000EB4E0003B23CE002E001F15C
:10310000010001B2414850F82100B6EB507FF6D8DB
:103110003E4850F8217001F10100DFF8F0E05EF860
:103120002080704650F82100B6EB507F09D27046DF
:1031300040F8212001F1010000B201464EF820C004
:103140001BE027F0604A28F0604B55450BD82F480C
:1031500040F8212001F1010000B20146DFF8ACE0A7
:103160004EF820C009E05C4503D301F1020001B232
:1031700001E00620A7E69942C0DB00BF994211DBBF
:10318000224850F8217001F10100DFF880E05EF87C
:103190002080704640F8212001F1010000B2014674
:1031A0004EF820C0A9EB010000F1010003B201F1CB
:1031B000010001B217E0154850F8212001F101008B
:1031C000DFF848E05EF820C0704640F8217001F159
:1031D00001004EF820801746E04601F1020001B2DE
:1031E000A3F1020003B2002BE5DC0E48008800F1D9
:1031F0000100DFF830E0AEF800000648406900F159
:103200000800DFF810E0CEF814000DE00080034065
:103210004C00001000C003404E0000105000001091
:1032200052000010540000104FF00400DFF808E4D2
:10323000CEF800004FF0010045E62DE9F0410746C9
:103240000A464FF00100DFF8F0C3CCF80000FB485D
:10325000008800F101004FEA600CF948008800F195
:1032600001000CEB6000DFF8DCC3BCF800C0604478
:10327000DFF8D4C3BCF800C06044DFF8D0C3BCF8AA
:1032800000C000EB4C0086B2002F6FD1EB480088E5
:1032900018B1EA480088824202DB0720BDE8F081CD
:1032A0004FEA6201EA4850F82150E4480088A0EB58
:1032B0000200A0F10100C0F34F0312F0010F17D17B
:1032C0000FE001F10100DFF888C35CF820404FEA0D
:1032D000144040EA05404CF82100254601F1010068
:1032E00081B21800A3F1010C1FFA8CF3E9D123E09D
:1032F0001CE001F10100DFF858C35CF820404FEA00
:1033000015404FEA004040EA14404CF8210001F11A
:1033100001005CF820004FEA004C01F10100DFF8E9
:10332000308348F820C04FEA044581B21800A3F169
:10333000010C1FFA8CF3DCD1C048008810F0010F9B
:1033400015D112F0010F08D14FF6FF7000EB0540C8
:10335000DFF8FCC24CF821004CE04FF6FF7045EA64
:103360000000DFF8ECC24CF8210043E07CE0B348F9
:10337000008800F101004FEA6001B048008800EBCE
:103380004000304483B20BE0B14850F821C0A1F1B5
:103390000100DFF8BC8248F820C001F1010081B2D1
:1033A0008B42F1DC4FF0000CA1F10100DFF8A082AC
:1033B00048F820C0A0484068A0F10400DFF878C2B7
:1033C000CCF8040060468068A0F10400CCF8080046
:1033D0006046C068A0F10400CCF80C0060460069AB
:1033E000A0F10400CCF8100060464069A0F1040090
:1033F000CCF8140091480088A0F10100DFF83CC22D
:10340000ACF8000002EB4200304481B26046008814
:10341000A0EB020000F1010000EB400083B220E0CD
:1034200001F10300DFF828C25CF820004CF821000D
:1034300001F104005CF820C001F10100DFF8108206
:1034400048F820C001F10500C4465CF820C001F135
:10345000020048F820C0A3F1030083B201F1030089
:1034600081B2002BDCD1BAE1012F75D174480088FC
:1034700018B173480088824201DB07200EE76F48CD
:10348000008800F101004FEA600000EB620081B2A9
:103490006F4850F821506A480088A0EB0200A0F164
:1034A0000100C0F34F0312F0010F17D10FE001F13B
:1034B0000100DFF89CC15CF820404FEA144040EA6C
:1034C00005404CF82100254601F1010081B21800A9
:1034D000A3F1010C1FFA8CF3E9D123E01CE001F108
:1034E0000100DFF86CC15CF820404FEA15404FEA5C
:1034F000004040EA14404CF8210001F101005CF862
:1035000020004FEA004C01F10100DFF8448148F847
:1035100020C04FEA044581B21800A3F1010C1FFA44
:103520008CF3DCD14648008810F0010F15D112F061
:10353000010F08D14FF6FF7000EB0540DFF810C116
:103540004CF821004DE04FF6FF7045EA0000DFF82F
:1035500000C14CF8210044E04CE03848008800F1FC
:1035600001004FEA600C3648008800F101000CEBC6
:10357000600081B23148008800EB4000304483B2E3
:103580000BE0334850F821C0A1F10100DFF8C08002
:1035900048F820C001F1010081B28B42F1DC4FF00C
:1035A000000CA1F10100DFF8A88048F820C02248F3
:1035B0008068A0F10400DFF880C0CCF80800604605
:1035C000C068A0F10400CCF80C0060460069A0F1CE
:1035D0000400CCF8100060464069A0F10400CCF86B
:1035E000140017480088A0F10100DFF854C0ACF8BF
:1035F0000000F4E0022F60D11248008818B1114891
:103600000088824201DB072048E60C48008800F170
:1036100001004FEA600C0A48008800F101000CEB41
:103620006000104400F1010081B20448008800EB02
:103630004000304483B219E000C003404C00001049
:103640004E000010500000105200001054000010F6
:1036500000800340F84850F821C0A1F10100DFF8D4
:10366000D88348F820C001F1010081B29942F1DB12
:103670004FF0000CA1F10100DFF8BC8348F820C036
:10368000EE480088A0F10100DFF8B0C3ACF80000FC
:10369000EB48C068A0F10400DFF8A4C3CCF80C002C
:1036A00060460069A0F10400CCF810006046406953
:1036B000A0F10400CCF8140091E0032F51D1E148AF
:1036C000008818B1DF480088824201DB0720E5E569
:1036D000DD48008800F101004FEA600CDB480088FB
:1036E00000F101000CEB6000DFF850C3BCF800C033
:1036F0006044104400F1010081B2D348008800EB1F
:103700004000304483B20BE0CB4850F821C0A1F117
:103710000100DFF8248348F820C001F1010081B2E4
:103720009942F1DB4FF0000CA1F10100DFF80883B2
:1037300048F820C0C3480088A0F10100DFF804C3A6
:10374000ACF80000BE480069A0F10400DFF8F0C248
:10375000CCF8100060464069A0F10400CCF81400D9
:103760003DE0BB48008818B1B9480088824201DBBF
:10377000072093E5B6480088A6EB400000EB420026
:1037800081B2B148008800EB4000304483B214E0BD
:1037900001F10200DFF8A0C25CF820004CF8210023
:1037A00001F103005CF820C001F10100DFF888821C
:1037B00048F820C001F1020081B29942E8DBA44838
:1037C0000088A0F10100DFF888C2ACF800009C4836
:1037D0004069A0F10800DFF868C2CCF814004FF08F
:1037E0000400DFF85CC2CCF800004FF0010055E5A2
:1037F0002DE9F04107460D463846FEF79DFC04468C
:10380000E06910F0040F3FD0206B20F4702020639B
:10381000206B297B40EA01402063A87B012804D16A
:10382000206B40F08040206303E0206B20F080405C
:103830002063687B012804D1206B40F000402063A6
:1038400003E0206B20F00040206328686063297942
:10385000687941EA0021A87941EA0041E87941EA22
:103860000066A663297A687A41EA0021A87A41EACB
:103870000041E87A41EA0066E6634FF021006060AB
:103880004FF00100BDE8F081E06910F4806F3ED098
:10389000206C20F470202064206C297B40EA0140D9
:1038A0002064A87B012804D1206C40F08040206473
:1038B00003E0206C20F080402064687B012804D164
:1038C000206C40F00040206403E0206C20F00040B9
:1038D0002064286860642979687941EA0021A87920
:1038E00041EA0041E87941EA0066A664297A687AEB
:1038F00041EA0021A87A41EA0041E87A41EA0066FB
:10390000E6644FF0410060604FF00100BAE7E06903
:1039100010F4802F3ED0206D20F470202065206DA3
:10392000297B40EA01402065A87B012804D1206D55
:1039300040F08040206503E0206D20F0804020654D
:10394000687B012804D1206D40F00040206503E031
:10395000206D20F00040206528686065297968792D
:1039600041EA0021A87941EA0041E87941EA00668C
:10397000A665297A687A41EA0021A87A41EA0041DD
:10398000E87A41EA0066E6654FF0810060604FF03A
:10399000010077E7002075E72DE9F04107460C4666
:1039A0003846FEF7C9FB0546E86910F0010F30D034
:1039B000286A4FEAD0706073286AC0F38070A073E1
:1039C000286AC0F303402073686A2060A07BC8B9EE
:1039D000AE6A26714FEA162060714FEA1640A07158
:1039E0004FEA1660E071EE6A26724FEA16206072A6
:1039F0004FEA1640A0724FEA1660E0724FF00400E2
:103A0000686008E04FF0040068604FF00100BDE816
:103A1000F0810020FBE70120F9E72DE9F0410146A4
:103A20004FF000040648406AA0B10548446A4FF0D0
:103A300000064FF01F0716E0008003405000001002
:103A400000C00340520000104C0000104E00001057
:103A500054000010BA48806A28B1B948846A4FF00F
:103A600020064FF03F07002C53D04FF0000535469D
:103A70004DE004F0010C4FEA5404BCF1000F44D0B7
:103A8000AF484069DFF8BC82404405EB450800EBD5
:103A90008802106800F04070B0F1407F35D11068A6
:103AA00020F04070106002F1040213680B714FEABD
:103AB000132048714FEA134088714FEA1360C871B0
:103AC00002F1040213680B724FEA132048724FEAA6
:103AD000134088724FEA1360C872A2F1080210689E
:103AE000C0F30A0008601068C0F3034008734FF089
:103AF000000048731068C0F380708873106810F07D
:103B0000407F02D10120BDE8F08105F10105BD42F1
:103B1000AFD90320F7E770B506460D463046FEF7ED
:103B20000BFB044625B1012D04D0022D06D103E084
:103B3000A06870BDE068FCE7A069FAE7E069F8E713
:103B4000014611B1012906D102E07F4800687047A3
:103B50007D484068FBE77C488068F8E72DE9F04144
:103B600007460C4616463846FEF7E6FA0546012E8D
:103B700013D10B2C08D14FF0010071490860086285
:103B80004FF0040008601BE028694FF0010101FAC2
:103B900004F140EA0100286112E00B2C08D14FF03B
:103BA00001006749086008624FF00000086007E004
:103BB00028694FF0010101FA04F120EA01002861AF
:103BC000BDE8F08130B1012809D002280CD00328CB
:103BD00014D10EE04FF00001594A11600EE04FF091
:103BE0000101574A116009E04FF00201544A116087
:103BF00004E04FF00401524A116000BF00BF70475B
:103C00002DE9F04107460E4615463846FEF794FA70
:103C10000446082E6DD2DFE806F0040814283C485C
:103C200054604FF00000206063E0012D04D1206853
:103C300040F00100206003E0206820F001002060D7
:103C400057E0206840F001002060012D04D1206879
:103C500040F00200206003E0206820F002002060B5
:103C6000206820F00100206043E0206840F001005F
:103C70002060012D04D1206840F00400206003E0A2
:103C8000206820F004002060206820F001002060FF
:103C90002FE0012D04D1206840F00800206003E0EF
:103CA000206820F00800206023E0012D04D1206866
:103CB00040F01000206003E0206820F01000206039
:103CC00017E0012D04D1206840F02000206003E0BF
:103CD000206820F0200020600BE0012D04D1206836
:103CE00040F08000206003E0206820F08000206029
:103CF00000BF00BFBDE8F08170B506460C463046F7
:103D0000FEF71AFA0546686840EA0400686070BD6C
:103D100070B504462046FEF70FFA0546E86870BD08
:103D20000748006A08B1012070470020FCE70146FF
:103D300011B90348406A70470148806AFBE70000F8
:103D400000C00340008003400000044010B5FFF7AE
:103D5000E7FF012814D10020FFF7E9FF18B901207F
:103D6000FFF7E5FF60B1FF49FF4A126801EB02105F
:103D7000FFF753FEFC48006800F10100FA490860B3
:103D80000120FFF7C5FFC4B214F0010F0DD0F548B4
:103D9000F54A126800EB02110120FFF7FDFDF24821
:103DA000006800F10100F049086010BD70B50446DC
:103DB000EEA14FF00000F24A126890470020F14A4D
:103DC000216812689047EDA10020EF4A12689047E1
:103DD000EEA10020EA4A12689047217B0020E94AC0
:103DE00012689047EEA10020E74A12689047EEA1C2
:103DF0000020E34A12689047A07B28B9EFA1002079
:103E0000E14A1268904704E0EFA10020DE4A126800
:103E10009047F1A10020DA4A12689047607B28B9E8
:103E2000F2A10020D84A1268904704E0F6A10020D1
:103E3000D54A12689047FBA10020D14A12689047EA
:103E40002179607941EA0021A07941EA0041E079D5
:103E500041EA006529464FF00000CA4A12689047BF
:103E6000C6A10020C84A12689047217A607A41EAC8
:103E70000021A07A41EA0041E07A41EA0065EEA122
:103E80004FF00000BE4A1268904729460020BD4A04
:103E900012689047B9A10020BB4A12689047B7A1A9
:103EA0000020B94A1268904770BD4FF00100E74901
:103EB00008704FF0000048704FF001004880087112
:103EC0004FF00001E14841714FF00201C1804FF015
:103ED0000100DE4908724FF00001DC4841724FF0EA
:103EE000030141814FF00100D84908734FF00001F0
:103EF000D64841734FF00601C1814FF00100D3490C
:103F000008744FF00001D14841744FF00C01418218
:103F10004FF00100CD4908754FF00001CB484175C5
:103F20004FF00D01C1824FF00100C94908704FF0F8
:103F3000000048704FF0080048804FF00100087101
:103F40004FF00001C24841714FF00901C1804FF0AC
:103F50000100BF4908724FF00001BD4841724FF0A7
:103F60000A0141814FF00100B94908734FF0000187
:103F7000B74841734FF00B01C1814FF00100B449C4
:103F800008744FF00001B24841744FF00E014182B5
:103F90004FF00100AE4908754FF00001AC48417583
:103FA0004FF00F01C1824FF00100AA49087108705B
:103FB0004FF00000487148704FF0100048804FF0FB
:103FC0002000C8804FF00101A248017301724FF038
:103FD0000001417341724FF0200141814FF02501F2
:103FE000C1814FF00101017501744FF0000141756D
:103FF00041744FF0300141824FF04001C1824FF0D7
:104000000101017701764FF00001417741764FF0D1
:10401000400141834FF05001C1834FF0010180F80E
:10402000241080F820104FF0000180F8251080F84F
:1040300021104FF0500141844FF06001C1844FF0D6
:10404000010180F82C1080F828104FF0000180F852
:104050002D1080F829104FF0600141854FF070015C
:10406000C1854FF001007C4908704FF40060486042
:104070004FF0010008724FF480517748C1604FF053
:104080000100754908744FF4C051734841614FF005
:104090000100714908764FF400516F48C1614FF03B
:1040A00001006D4981F820004FF4E0416A48416207
:1040B0004FF00100684981F828004FF4F04166484C
:1040C000C1624FF001006549487008704FF42050FC
:1040D00048604FF4405088604FF001015F484173E1
:1040E00001734FF4605101614FF4804141614FF021
:1040F0000101417601764FF49041C1614FF4A04136
:1041000001624FF0010180F8251080F824104FF46F
:10411000B04181624FF4C041C1624FF0010180F8AB
:10412000311080F830104FF4084141634FF41041D2
:1041300081634FF0010180F83D1080F83C104FF48E
:10414000184101644FF420414164404844490860EB
:104150004FF0060008713E4888604FF00600087373
:104160003C487FE0C80200101C0200104D657373CC
:104170006167652049443A2020202020000000008B
:104180001000001030000010140000104D65737313
:10419000616765206C656E6774683A2000000000F6
:1041A00020425954455300004D6573736167652083
:1041B000747970653A202020000000004441544189
:1041C000204652414D45200052454D4F5445204612
:1041D00052414D45200000004D65737361676520B5
:1041E000666F726D61743A20000000005354414EB6
:1041F00044415244204944204652414D4520464FB7
:10420000524D415400000000455854454E44454429
:10421000204944204652414D4520464F524D41547D
:10422000000000004D65737361676520646174610F
:10423000413A2020000000004D65737361676520DE
:1042400064617461423A20200000000040030010C5
:104250005803001070030010A0030010D0030010DA
:104260001803001008614FF006000875F9488861CE
:104270004FF006000877F84808624FF0060081F812
:104280002400704710B504210120FEF75FFC0022D6
:1042900005210120FEF77FFA00233022252101208D
:1042A000FEF709FE012241F605011046FEF773FAFA
:1042B00001234FF4B0424FF4A0411846FEF7FBFD36
:1042C00000210846FEF7B9FF00210120FEF7B5FFE7
:1042D00000210220FEF7B1FF02210320FEF7ADFF0F
:1042E00002210420FEF7A9FF10BD4FF00100DB49B9
:1042F00008604FF0080008734FF00000887348739F
:104300004FF07801D548C1718171417101714FF051
:104310002101C1728172417201724FF00400CF49D4
:1043200008614FF00801CD4801774FF00001817717
:1043300041774FF02301C1758175417501754FF0CB
:104340004501C1768176417601764FF00800C34978
:1043500008620146C14880F82C104FF0000180F837
:104360002E1080F82D104FF0150180F8271080F8DE
:10437000261080F8251080F824104FF0360180F8C0
:104380002B1080F82A1080F8291080F828104FF0A0
:104390000500B24908634FF00801B04880F83C10AE
:1043A0004FF0000180F83E1080F83D104FF078018A
:1043B00080F8371080F8361080F8351080F8341007
:1043C0004FF0210180F83B1080F83A1080F8391046
:1043D00080F838104FF01500A04908644FF008012C
:1043E0009E4880F84C104FF0000180F84E1080F885
:1043F0004D104FF0650180F8471080F8461080F8A6
:10440000451080F844104FF0370180F84B1080F8C9
:104410004A1080F8491080F848104FF026008F4964
:1044200008654FF008018D4880F85C104FF00001DE
:1044300080F85E1080F85D104FF0760180F857101C
:1044400080F8561080F8551080F854104FF0320163
:1044500080F85B1080F85A1080F8591080F85810D6
:104460004FF4C0507D4908664FF008017B4880F842
:104470006C104FF0000180F86E104FF0010180F8D1
:104480006D104FF0450180F8671080F8661080F8D5
:10449000651080F864104FF0870180F86B1080F889
:1044A0006A1080F8691080F8681041F605006B49C1
:1044B00008674FF00801694880F87C104FF0000150
:1044C00080F87E104FF0010180F87D104FF07801E8
:1044D00080F8771080F8761080F8751080F87410E6
:1044E0004FF0210180F87B1080F87A1080F8791065
:1044F00080F8781044F601005849C1F880004FF068
:104500000801564880F88C104FF0000180F88E109A
:104510004FF0010180F88D104FF0520180F88710A4
:1045200080F8861080F8851080F884104FF006011E
:1045300080F88B1080F88A1080F8891080F8881035
:1045400045F201004549C1F890004FF00801434889
:1045500080F89C104FF0000180F89E104FF0010190
:1045600080F89D104FF0850180F8971080F8961024
:1045700080F8951080F894104FF0270180F89B1078
:1045800080F89A1080F8991080F898104FF0000089
:1045900033490864086308620861086001463048CE
:1045A00080F84C1080F83C1080F82C1001770173D3
:1045B00080F84E1080F83E1080F82E1081778173BD
:1045C00080F84D1080F83D1080F82D104177417330
:1045D00080F8441080F8341080F8241001750171BF
:1045E00080F8451080F8351080F82510417541712C
:1045F00080F8461080F8361080F826108175817199
:1046000080F8471080F8371080F82710C175C17105
:1046100080F8481080F8381080F828100176017270
:1046200080F8491080F8391080F8291041764172DD
:1046300080F84A1080F83A1080F82A10817681724A
:1046400080F84B1080F83B1080F82B10C176C172B7
:1046500070470000A0030010D003001028020010D3
:10466000C802001010B5C7490020C74A1268904719
:1046700010BD4FF00000C5490860C5490860FCF74F
:1046800063FBFFF7EFFF012200210846FCF735FC32
:10469000012211460020FCF730FC022204210020F8
:1046A000FCF72BFC022205210020FCF726FCB9496F
:1046B0000020FDF796FDB7490120FDF792FD01228C
:1046C0000B211046FFF74AFA012200211046FFF79E
:1046D00045FA4FF019004FF0010101FA00F14FEADD
:1046E00050124FF0E02303EB8202C2F8001100BF2A
:1046F000A9A14FF00000A44A12689047AFA1002082
:10470000A14A12689047AFF28C5100209E4A12686D
:10471000904700BF0020B749096888473128F9D180
:10472000FFF7E3FDB4A10020974A12689047FFF716
:10473000BCFBB848FDF7ACFD0646012E06D0B6A17D
:104740000020914A1268904700BFFEE7B7A1002001
:104750008D4A12689047AEA100208B4A126890479C
:10476000B8A10020884A12689047A9A10020864A73
:104770001268904700BF00209E4909688847322888
:10478000F9D14FF0000420E0BB4800EB04110020F9
:10479000FFF72EF8B84901EB0410FFF707FB9CA1C7
:1047A0000020794A126890474FF0000501E005F1BA
:1047B000010542F210708542F9D37448006800F197
:1047C00001007249086004F101040A2CDCD3ABA19A
:1047D00000206D4A126890478DA100206A4A126835
:1047E00090476B48006848B9AA490020664A126899
:1047F000904787A10020644A12689047A6A1002034
:10480000614A1268904782A100205F4A126890476F
:1048100000BF00207749096888473328F9D14FF055
:1048200000040BE0A74901EB0410FFF7BFFA78A1E1
:104830000020554A1268904704F10104052CF1D379
:10484000A1A10020504A1268904771A100204E4A51
:104850001268904700BF00206649096888473428DD
:10486000F9D1FFF70FFDA2A10020474A1268904737
:104870000320FFF7A7F9FFF738FD4FF00000434989
:10488000086043490860A1A13F4A1268904760A1AF
:1048900000203D4A1268904700BF00205549096832
:1048A00088473528F9D14FF0000420E0724800EB2A
:1048B00004110020FEF79CFF6F4901EB0410FFF785
:1048C00075FA53A10020304A126890474FF0000556
:1048D00001E005F1010542F210708542F9D32B4841
:1048E000006800F101002949086004F101040A2C64
:1048F000DCD38FA10020244A1268904744A10020F5
:10490000214A126890472248006848B9614900204E
:104910001D4A126890473EA100201B4A126890472A
:1049200089A10020184A1268904739A10020164A30
:104930001268904700BF00202E4909688847362832
:10494000F9D14FF000040BE05E4901EB0410FFF7D2
:104950002DFA2FA100200C4A1268904704F101049F
:10496000052CF1D383A10020074A1268904700204C
:10497000FDF77EFC0120FDF77BFC00BFFEE7FFF7A3
:1049800078FE0000580000101400001020020010F3
:104990001C02001048E801005465737420416363F1
:1049A000657074616E63652046696C74657220661B
:1049B000756E6374696F6E2E2E2E000050726573D3
:1049C000732027312720746F20696E697469616CC8
:1049D000697A65206D65737361676520616E642017
:1049E0004146204C6F6F702D7570205461626C656C
:1049F0002E2E2E0040000010496E6974206D6573E4
:104A0000736167652066696E697368656421212139
:104A100000000000180300105365747570204146B3
:104A20003A204552524F522E2E2E00005365747577
:104A3000702041463A205355434345535346554C05
:104A40002121210050726573732027322720746F53
:104A50002073746172742043414E207472616E73CE
:104A600066657272696E67206F7065726174696FD6
:104A70006E2E2E2E000000002802001053656E647A
:104A8000696E672066696E697368656420212121FB
:104A900000000000B44C000050726573732027338F
:104AA0002720746F20646973706C6179207265636C
:104AB0006569766564206D657373616765732E2E15
:104AC0002E000000C8020010507265737320273456
:104AD0002720746F206368616E6765204146206CF3
:104AE0006F6F6B2D7570207461626C652E2E2E00B9
:104AF0004368616E67652041464C55543A204649EB
:104B00004E495348454421212100000050726573ED
:104B1000732027352720746F2072652D73656E64AE
:104B2000206D657373616765732E2E2E0000000083
:104B300052652D53656E64696E672066696E697390
:104B40006865642021212100507265737320273627
:104B50002720746F20646973706C617920726563BB
:104B60006569766564206D657373616765732E2E64
:104B70002E00000044656D6F207465726D696E6172
:104B80006C20212121000000202A04DB203A00FAB9
:104B900002F1002070479140C2F1200320FA03F394
:104BA000194390407047202A04DB203A21FA02F092
:104BB0000021704721FA02F3D040C2F12002914057
:104BC0000843194670470000064C074D06E0E068B0
:104BD00040F0010394E8070098471034AC42F6D344
:104BE000FBF784FA004D0000204D000070B501EB8A
:104BF000020410F8015B15F0070301D110F8013B26
:104C00002A1106D110F8012B03E010F8016B01F80E
:104C1000016B5B1EF9D12B0705D40023521E0FD464
:104C200001F8013BFAE710F8013B02F10202A1EBA7
:104C3000030303E013F8015B01F8015B521EF9D591
:104C4000A142D6D3002070BD002001E001C1121F97
:104C5000002AFBD170470000506C656173652065C8
:104C60006E746572206120636861722066726F6D78
:104C70002027302720746F202739272C20616E646D
:104C80002027612F41272C2027622F42272C2063C9
:104C90002F43272C2027642F44272C2027652F45BE
:104CA0002720616E642027662F46272121210D0AC7
:104CB000000000003E3E3E204E6F206D6573736124
:104CC00067652069732072656369657665642E2067
:104CD000506C6561736520636865636B20746865FB
:104CE00020636F6E6E656374696F6E2062657477A2
:104CF00065656E20322043414E7321212100000062
:104D0000204D00000000001028020000EC4B0000C5
:104D1000384E000028020010F0030000484C00004C
:104D200011140E27073C8793030404486CDC020A25
:104D30004D2A0118300A0D48656C6C6F204E585092
:104D40002053656D69636F6E647563746F72732051
:104D50000A0D43414E2041464C5554206578616D03
:104D6000706C653A15581109202D204D43553A2095
:104D70004C504331377878131C436F721F580E41E3
:104D8000524D20434F525445582D4D331A1D554115
:104D900052541F28176D6D756E69636174696F6E6B
:104DA0003A20313135323030206270672F557365CB
:104DB0002032206D280D7065726970686572616CB3
:104DC000733A111B31260568193220746F207472F2
:104DD000616E7366657220646174610A0D5468695E
:104DE0007395181C2074657374732066756C6C2041
:104DF000416363657074616E63652046696C7430ED
:104E00001A6F54397519696810616E64206C6F618E
:104E1000642F72656D6F7665DC180B6E7472792085
:104E200064796E616DA01C6C6C794B2B6E633329B9
:084E30009D0A4D2A01D30A0D71
:04000005000000E512
:00000001FF
